License required: JL
SETE - PROGRAM TO SET LICENSE BY EXEC PSWD OR REDUCE LIC	MACRO 12.5-46.0 11:59 19-SEP-83 PAGE 1
SETE.MAC	22-APR-82 17:13

     1				TITLE SETE - PROGRAM TO SET LICENSE BY EXEC PSWD OR REDUCE LIC
     2				if1,<printx License required: JL>
     3
     4			000017	P=17
     5			000016	C=16
     6			000015	N=15
     7			000014	CNT=14
     8			000001	T=1
     9			000002	T1=2
    10
    11			000001	TTY==1
    12
    13		777777	777755	.GTAUN==-23	;gettab to get UAN for tattle record
    14		777777	777760	LICTAB==-20	;GETTAB FOR LICENSE
    15			000006	JBTPRV==6
    16			000200	TYMEX==200
    17				MLON
    18
    19				ARRAY PDL[40],IBUF[3],X[5]
    20
    21				INTERNAL JOBVER
    22
    23			000137		JOBVER==137
    24	000137				LOC JOBVER
    25	000137	000000	000013		13
    26	000000'				RELOC
    27
    28
    29
SETE - PROGRAM TO SET LICENSE BY EXEC PSWD OR REDUCE LIC	MACRO 12.5-46.0 11:59 19-SEP-83 PAGE 2
SETE.MAC	22-APR-82 17:13

    30	000000'	047000	000000	STPT:	RESET
    31	000001'	200740	000452'		MOVE P,[IOWD 40,PDL]
    32	000002'	051400	000000		RESCAN		;RESCAN LINE
    33	000003'	041040	000000		INIT TTY,0	;NO ECHO IN CASE PASSWORD
    34	000004'	646471	000000		SIXBIT /TTY/
    35	000005'	000000	000401'		IBUF
    36	000006'	047000	000012		EXIT
    37	000007'	402000	000444'		SETZM SAVCHR#
    38	000010'	402000	000175'		SETZM DESLIC
    39	000011'	260740	000214'		PUSHJ P,SCAN
    40	000012'	326700	000152'		JUMPN C,ERR
    41	000013'	200040	000400'		MOVE T,ACCUM
    42	000014'	200100	000453'		MOVE T1,[SIXBIT /SETE/]	;SEE IF STARTED BY SETE
    43	000015'	602040	000077	FNDCMN:	TRNE T,77
    44	000016'	254000	000021'		JRST CKMTCH
    45	000017'	246040	777772		LSHC T,-6
    46	000020'	254000	000015'		JRST FNDCMN
    47	000021'	312040	000002	CKMTCH:	CAME T,T1
    48					JRST	[SETZM SAVCHR
    49						INPUT TTY,0
    50	000022'	254000	000454'			JRST .+1]	;READ NEXT LINE
    51	000023'	260740	000214'		PUSHJ P,SCAN
    52					JUMPL C,[MOVEM T,DESLIC	;A NUMBER
    53	000024'	321700	000457'			JRST COMLIC]
    54	000025'	326700	000152'	MORLIC:	JUMPN C,ERR	;A SPECIAL CHR SHOULD NOT BE HERE
    55	000026'	205100	777755		MOVSI T1,-TBLEN
    56	000027'	200040	000400'		MOVE T,ACCUM
    57	000030'	312042	000264'		CAME T,LICABR(T1)
    58	000031'	253100	000030'		AOBJN T1,.-1
    59	000032'	325100	000152'		JUMPGE T1,ERR
    60	000033'	135042	000307'		LDB T,LICBP(T1)
    61	000034'	315042	000332'		CAMGE T,LICVAL(T1)
    62	000035'	200042	000332'		MOVE T,LICVAL(T1)
    63	000036'	137042	000307'		DPB T,LICBP(T1)	;CHECK IN CASE OF RF RP AS INPUT
    64	000037'	260740	000214'	COMLIC:	PUSHJ P,SCAN
    65	000040'	323700	000025'		JUMPLE C,MORLIC
    66	000041'	305700	000040		CAIGE C," "
    67	000042'	254000	000144'		JRST LICST1	;MUST HAVE BEEN RETURN OR SOMETHING
    68	000043'	302700	000054		CAIE C,","
    69	000044'	254000	000152'		JRST ERR	;LOSE
    70	000045'	260740	000214'		PUSHJ P,SCAN
    71	000046'	325700	000152'		JUMPGE C,ERR	;SHOULD BE A NUMBER
    72	000047'	202040	000174'		MOVEM T,SETENM	;EXEC PASSWORD NUMBER
    73	000050'	060040	000200		SETSTS TTY,200	;TURN OFF ECHO
    74	000051'	561040	000006		HRROI T,JBTPRV	;GET PRV BITS
    75	000052'	047040	000041		GETTAB T,
    76	000053'	201040	000000		 MOVEI T,0
    77	000054'	606040	000200		TRNN T,TYMEX
    78					JRST	[OUTSTR [ASCIZ /
    79				./]
    80	000055'	254000	000462'			JRST .+2]
    81					OUTSTR [ASCIZ /
    82	000056'	051140	000464'	-/]
SETE - PROGRAM TO SET LICENSE BY EXEC PSWD OR REDUCE LIC	MACRO 12.5-46.0 11:59 19-SEP-83 PAGE 2-2
SETE.MAC	22-APR-82 17:13

    83
SETE - PROGRAM TO SET LICENSE BY EXEC PSWD OR REDUCE LIC	MACRO 12.5-46.0 11:59 19-SEP-83 PAGE 3
SETE.MAC	22-APR-82 17:13

    84	000057'	066040	000000		INPUT TTY,0	;SKIP EXTRA JUNK ON LINE
    85	000060'	200040	000465'		MOVE T,[555555555555]
    86	000061'	202040	000445'		MOVEM T,X
    87	000062'	202040	000447'		MOVEM T,X+2
    88	000063'	202040	000451'		MOVEM T,X+4
    89	000064'	200040	000466'		MOVE T,[361275431652]
    90	000065'	202040	000446'		MOVEM T,X+1
    91	000066'	202040	000450'		MOVEM T,X+3
    92	000067'	201640	000000		MOVEI N,0
    93	000070'	260740	000160'	HSHLP:	PUSHJ P,GNCH
    94	000071'	302700	000015		CAIE C,15
    95	000072'	306700	000012		CAIN C,12
    96	000073'	254000	000111'		JRST LICSTM
    97	000074'	272700	000445'		ADDM C,X
    98	000075'	272700	000450'		ADDM C,X+3	;A GOOD HASH ON PASSWORD
    99	000076'	201600	000040		MOVEI CNT,40
   100	000077'	200055	000445'	RAND:	MOVE T,X(N)
   101	000100'	224040	000467'		MUL T,[5*5*5*5*5*5*5*5*5*5*5*5*5*5*5]
   102	000101'	272115	000446'		ADDM T+1,X+1(N)
   103	000102'	302640	000003		CAIE N,3
   104	000103'	344640	000107'		AOJA N,RAND1
   105	000104'	200640	000451'		MOVE N,X+4
   106	000105'	272640	000445'		ADDM N,X
   107	000106'	242640	777736		LSH N,-42
   108	000107'	367600	000077'	RAND1:	SOJG CNT,RAND
   109	000110'	254000	000070'		JRST HSHLP
   110
   111				LICSTM:	OUTSTR [ASCIZ /
   112	000111'	051140	000470'	/]
   113	000112'	200040	000445'		MOVE T,X
   114	000113'	202040	000172'		MOVEM T,X1
   115	000114'	200040	000446'		MOVE T,X+1
   116	000115'	202040	000173'		MOVEM T,X2
   117	000116'	201040	000172'		MOVEI T,X1
   118	000117'	047040	777771		SETE T,
   119					  JRST [MOVEI T,TCERRp	; bad number or password
   120						MOVEM T,TCERR
   121						PUSHJ P,TATTLE
   122	000120'	254000	000471'			JRST ERR]
   123	000121'	260740	000177'		PUSHJ P,TATTLE		; write tattle tale
   124	000122'	561640	777760	CKLIC:	HRROI N,LICTAB
   125	000123'	047640	000041		GETTAB N,
   126	000124'	254000	000154'		 JRST GETOUT
   127	000125'	550040	000175'		HRRZ T,DESLIC
   128	000126'	306055	000000		CAIN T,(N)
   129	000127'	254000	000154'		JRST GETOUT
   130					OUTSTR [ASCIZ /
   131	000130'	051140	000475'	DID NOT GET/]
   132	000131'	205040	777755		MOVSI T,-TBLEN
   133	000132'	201100	000015		MOVEI T1,N
   134	000133'	135701	000307'	CHKLP:	LDB C,LICBP(T)
   135	000134'	312701	000332'		CAME C,LICVAL(T)
   136	000135'	254000	000142'		JRST NOCHK	;DID NOT ASK FOR THAT ONE
SETE - PROGRAM TO SET LICENSE BY EXEC PSWD OR REDUCE LIC	MACRO 12.5-46.0 11:59 19-SEP-83 PAGE 3-2
SETE.MAC	22-APR-82 17:13

   137	000136'	500101	000307'		HLL T1,LICBP(T)
   138	000137'	135700	000002		LDB C,T1
   139	000140'	312701	000332'		CAME C,LICVAL(T)	;DID HE GET THAT ONE?
   140	000141'	051141	000355'		OUTSTR LICFUL(T)	;NO
   141	000142'	253040	000133'	NOCHK:	AOBJN T,CHKLP
   142	000143'	254000	000154'		JRST GETOUT
   143
SETE - PROGRAM TO SET LICENSE BY EXEC PSWD OR REDUCE LIC	MACRO 12.5-46.0 11:59 19-SEP-83 PAGE 4
SETE.MAC	22-APR-82 17:13

   144	000144'	561040	777760	LICST1:	HRROI T,LICTAB
   145	000145'	047040	000041		GETTAB T,
   146	000146'	254000	000152'		 JRST ERR
   147	000147'	540040	000175'		HRR T,DESLIC	;SET RH FOR DESIRED
   148	000150'	047040	777770		SETLIC T,
   149	000151'	254000	000122'		JRST CKLIC	;AND CHECK IT
   150
   151				ERR:	OUTSTR [ASCIZ /
   152	000152'	051140	000500'	?/]
   153	000153'	051440	000000		CLRBFI
   154	000154'	060040	000000	GETOUT:	SETSTS TTY,0
   155	000155'	051140	000501'		OUTSTR [0]	;GET ECHOING BACK
   156	000156'	047040	000012		EXIT 1,
   157	000157'	254000	000156'		JRST .-1
   158
   159	000160'	377000	000403'	GNCH:	SOSG IBUF+2
   160	000161'	066040	000000		INPUT TTY,0
   161	000162'	134700	000402'		ILDB C,IBUF+1
   162	000163'	301700	000140		CAIL C,140
   163	000164'	275700	000040		SUBI C,40	;CONVER LOWER TO UPPER CASE
   164	000165'	263740	000000		POPJ P,
   165
SETE - PROGRAM TO SET LICENSE BY EXEC PSWD OR REDUCE LIC	MACRO 12.5-46.0 11:59 19-SEP-83 PAGE 5
SETE.MAC	22-APR-82 17:13

   166				; SETE TATTLE record format
   167
   168	000166'	044000	000011	TATREC:	44B8+TATSIZ		; type, job, termid, length
   169	000167'				block 1			; date(days past),,time(secs GMT)
   170	000170'			TCAUN:	block 1			; .GTAUN login PPN
   171	000171'	634564	450000		SIXBIT "SETE"		; cusp name
   172	000172'			X1:	block 1			; Hash of password supplied
   173	000173'			X2:	block 1			; Second word of hash
   174	000174'			SETENM:	block 1			; Password number
   175	000175'			DESLIC:	block 1			; Desired license
   176	000176'			TCERR:	block 1			; Reason for failure:
   177			000000	    TCERR0==0			; no error
   178			000001	    TCERRP==1			; SETE failure
   179			000011	TATSIZ==.-TATREC
   180
   181				;	call TATTLE to write a tattle tale record
   182
   183	000177'	047100	000030	TATTLE:	PJOB	T1,
   184	000200'	137100	000502'		DPB	T1,[point 9,TATREC,17]
   185	000201'	561100	777755		HRROI	T1,.GTAUN
   186	000202'	047100	000041		GETTAB	T1,
   187	000203'	254200	000203'		 HALT	.
   188	000204'	202100	000170'		MOVEM	T1,TCAUN
   189	000205'	201100	000166'		MOVEI 	T1,TATREC
   190	000206'	047100	777716		PUTSAR 	T1,
   191	000207'	336000	000002		 SKIPN 	T1		; no accounting - oh well
   192	000210'	263740	000000		  POPJ 	P,
   193	000211'	051140	000503'		OUTSTR 	[asciz "?fatal PUTSAR error"]
   194	000212'	047040	000012		EXIT 	1,		; planned loophole
   195	000213'	263740	0000OPJ 	P,
   196
SETE - PROGRAM TO SET LICENSE BY EXEC PSWD OR REDUCE LIC	MACRO 12.5-46.0 11:59 19-SEP-83 PAGE 6
SETE.MAC	22-APR-82 17:13

   197	000214'	336700	000444'	SCAN:	SKIPN C,SAVCHR
   198	000215'	260740	000160'	SCAN1:	PUSHJ P,GNCH
   199	000216'	306700	000040		CAIN C," "
   200	000217'	254000	000215'		JRST SCAN1
   201	000220'	260740	000254'		PUSHJ P,NUM
   202	000221'	254000	000227'		JRST SCNUM	;SCAN AS NUMBER
   203	000222'	260740	000260'		PUSHJ P,LET
   204	000223'	334000	000000		SKIPA
   205	000224'	254000	000240'		JRST SCNAM	;SCAN AS NAME
   206	000225'	402000	000444'		SETZM SAVCHR
   207	000226'	263740	000000		POPJ P,		;SPECIAL CHR
   208
   209	000227'	201040	000000	SCNUM:	MOVEI T,0
   210	000230'	221040	000010	SCNM1:	IMULI T,10
   211	000231'	271056	777720		ADDI T,-"0"(C)
   212	000232'	260740	000160'		PUSHJ P,GNCH
   213	000233'	260740	000254'		PUSHJ P,NUM
   214	000234'	254000	000230'		JRST SCNM1	;MORE NUMBER
   215	000235'	202700	000444'		MOVEM C,SAVCHR
   216	000236'	211700	000001		MOVNI C,1	;FLAG
   217	000237'	263740	000000		POPJ P,
   218
   219	000240'	402000	000400'	SCNAM:	SETZM ACCUM#
   220	000241'	200100	000507'		MOVE T1,[POINT 6,ACCUM]
   221	000242'	275700	000040	SCNAM1:	SUBI C,40
   222	000243'	603100	770000		TLNE T1,770000
   223	000244'	136700	000002		IDPB C,T1
   224	000245'	260740	000160'		PUSHJ P,GNCH
   225	000246'	260740	000260'		PUSHJ P,LET
   226	000247'	260740	000254'		PUSHJ P,NUM
   227	000250'	254000	000242'		JRST SCNAM1
   228	000251'	202700	000444'		MOVEM C,SAVCHR
   229	000252'	201700	000000		MOVEI C,0
   230	000253'	263740	000000		POPJ P,
   231
   232	000254'	301700	000060	NUM:	CAIL C,"0"
   233	000255'	303700	000067		CAILE C,"7"
   234	000256'	350017	000000	CPOPJ1:	AOS (P)
   235	000257'	263740	000000		POPJ P,
   236
   237	000260'	301700	000101	LET:	CAIL C,"A"
   238	000261'	303700	000132		CAILE C,"Z"
   239	000262'	263740	000000		POPJ P,
   240	000263'	254000	000256'		JRST CPOPJ1
   241
SETE - PROGRAM TO SET LICENSE BY EXEC PSWD OR REDUCE LIC	MACRO 12.5-46.0 11:59 19-SEP-83 PAGE 7
SETE.MAC	22-APR-82 17:13

   242				COMMENT & LICENSE FIELDS ARE
   243					ARG 1 = VALUE
   244					ARG 2 = FIELD SIZE
   245					ARG 3 = FIELD POSITION
   246					ARG 4 = ABREVIATION
   247				&
   248
   249					DEFINE LICENS
   250				<	X (1,1,18,WC)
   251					X (1,1,19,RC)
   252					X (1,1,20,OP)
   253					X (1,1,21,SY)
   254					X (1,1,22,GD)
   255					X (1,1,23,TD)
   256					X (1,1,24,ST)
   257					X (1,1,26,JL)
   258					X (1,1,27,AC)
   259					X (1,1,28,XC)
   260					X (1,1,29,FK1)
   261					X (1,1,30,FK2)
   262					X (1,1,31,FK3)
   263					X (1,2,33,RP)
   264					X (2,2,33,RF)
   265					X (3,2,33,RA)
   266					X (1,2,35,WP)
   267					X (2,2,35,WF)
   268					X (3,2,35,WA)
   269				>
   270
   271					DEFINE X(A,B,C,D)
   272				<SIXBIT /D/>
   273	000264'	674300	000000	LICABR:	LICENS^	X (1,1,18,WC)^SIXBIT /WC/^
   274	000265'	624300	000000		X (1,1,19,RC)^SIXBIT /RC/^
   275	000266'	576000	000000		X (1,1,20,OP)^SIXBIT /OP/^
   276	000267'	637100	000000		X (1,1,21,SY)^SIXBIT /SY/^
   277	000270'	474400	000000		X (1,1,22,GD)^SIXBIT /GD/^
   278	000271'	644400	000000		X (1,1,23,TD)^SIXBIT /TD/^
   279	000272'	636400	000000		X (1,1,24,ST)^SIXBIT /ST/^
   280	000273'	525400	000000		X (1,1,26,JL)^SIXBIT /JL/^
   281	000274'	414300	000000		X (1,1,27,AC)^SIXBIT /AC/^
   282	000275'	704300	000000		X (1,1,28,XC)^SIXBIT /XC/^
   283	000276'	465321	000000		X (1,1,29,FK1)^SIXBIT /FK1/^
   284	000277'	465322	000000		X (1,1,30,FK2)^SIXBIT /FK2/^
   285	000300'	465323	000000		X (1,1,31,FK3)^SIXBIT /FK3/^
   286	000301'	626000	000000		X (1,2,33,RP)^SIXBIT /RP/^
   287	000302'	624600	000000		X (2,2,33,RF)^SIXBIT /RF/^
   288	000303'	624100	000000		X (3,2,33,RA)^SIXBIT /RA/^
   289	000304'	676000	000000		X (1,2,35,WP)^SIXBIT /WP/^
   290	000305'	674600	000000		X (2,2,35,WF)^SIXBIT /WF/^
   291	000306'	674100	000000		X (3,2,35,WA)^SIXBIT /WA/^
   292			000023	TBLEN==.-LICABR
   293
   294					DEFINE X(A,B,C,D)
SETE - PROGRAM TO SET LICENSE BY EXEC PSWD OR REDUCE LIC	MACRO 12.5-46.0 11:59 19-SEP-83 PAGE 7-2
SETE.MAC	22-APR-82 17:13

   295				<POINT B,DESLIC,C>
   296	000307'	210100	000175'	LICBP:	LICENS^	X (1,1,18,WC)^POINT 1,DESLIC,18^
   297	000310'	200100	000175'		X (1,1,19,RC)^POINT 1,DESLIC,19^
   298	000311'	170100	000175'		X (1,1,20,OP)^POINT 1,DESLIC,20^
   299	000312'	160100	000175'		X (1,1,21,SY)^POINT 1,DESLIC,21^
   300	000313'	150100	000175'		X (1,1,22,GD)^POINT 1,DESLIC,22^
   301	000314'	140100	000175'		X (1,1,23,TD)^POINT 1,DESLIC,23^
   302	000315'	130100	000175'		X (1,1,24,ST)^POINT 1,DESLIC,24^
   303	000316'	110100	000175'		X (1,1,26,JL)^POINT 1,DESLIC,26^
   304	000317'	100100	000175'		X (1,1,27,AC)^POINT 1,DESLIC,27^
   305	000320'	070100	000175'		X (1,1,28,XC)^POINT 1,DESLIC,28^
   306	000321'	060100	000175'		X (1,1,29,FK1)^POINT 1,DESLIC,29^
   307	000322'	050100	000175'		X (1,1,30,FK2)^POINT 1,DESLIC,30^
   308	000323'	040100	000175'		X (1,1,31,FK3)^POINT 1,DESLIC,31^
   309	000324'	020200	000175'		X (1,2,33,RP)^POINT 2,DESLIC,33^
   310	000325'	020200	000175'		X (2,2,33,RF)^POINT 2,DESLIC,33^
   311	000326'	020200	000175'		X (3,2,33,RA)^POINT 2,DESLIC,33^
   312	000327'	000200	000175'		X (1,2,35,WP)^POINT 2,DESLIC,35^
   313	000330'	000200	000175'		X (2,2,35,WF)^POINT 2,DESLIC,35^
   314	000331'	000200	000175'		X (3,2,35,WA)^POINT 2,DESLIC,35^
   315
   316					DEFINE X (A,B,C,D)
   317				<A>
   318	000332'	000000	000001	LICVAL:	LICENS^	X (1,1,18,WC)^1^
   319	000333'	000000	000001		X (1,1,19,RC)^1^
   320	000334'	000000	000001		X (1,1,20,OP)^1^
   321	000335'	000000	000001		X (1,1,21,SY)^1^
   322	000336'	000000	000001		X (1,1,22,GD)^1^
   323	000337'	000000	000001		X (1,1,23,TD)^1^
   324	000340'	000000	000001		X (1,1,24,ST)^1^
   325	000341'	000000	000001		X (1,1,26,JL)^1^
   326	000342'	000000	000001		X (1,1,27,AC)^1^
   327	000343'	000000	000001		X (1,1,28,XC)^1^
   328	000344'	000000	000001		X (1,1,29,FK1)^1^
   329	000345'	000000	000001		X (1,1,30,FK2)^1^
   330	000346'	000000	000001		X (1,1,31,FK3)^1^
   331	000347'	000000	000001		X (1,2,33,RP)^1^
   332	000350'	000000	000002		X (2,2,33,RF)^2^
   333	000351'	000000	000003		X (3,2,33,RA)^3^
   334	000352'	000000	000001		X (1,2,35,WP)^1^
   335	000353'	000000	000002		X (2,2,35,WF)^2^
   336	000354'	000000	000003		X (3,2,35,WA)^3^
   337
   338					DEFINE X(A,B,C,D)
   339				<ASCIZ / 'D/>
   340
   341	000355'	202570	300000	LICFUL:	LICENS^	X (1,1,18,WC)^ASCIZ / WC/^
   342	000356'	202450	300000		X (1,1,19,RC)^ASCIZ / RC/^
   343	000357'	202372	000000		X (1,1,20,OP)^ASCIZ / OP/^
   344	000360'	202473	100000		X (1,1,21,SY)^ASCIZ / SY/^
   345	000361'	202170	400000		X (1,1,22,GD)^ASCIZ / GD/^
   346	000362'	202510	400000		X (1,1,23,TD)^ASCIZ / TD/^
   347	000363'	202472	400000		X (1,1,24,ST)^ASCIZ / ST/^
SETE - PROGRAM TO SET LICENSE BY EXEC PSWD OR REDUCE LIC	MACRO 12.5-46.0 11:59 19-SEP-83 PAGE 7-3
SETE.MAC	22-APR-82 17:13

   348	000364'	202251	400000		X (1,1,26,JL)^ASCIZ / JL/^
   349	000365'	202030	300000		X (1,1,27,AC)^ASCIZ / AC/^
   350	000366'	202610	300000		X (1,1,28,XC)^ASCIZ / XC/^
   351	000367'	202151	330400		X (1,1,29,FK1)^ASCIZ / FK1/^
   352	000370'	202151	331000		X (1,1,30,FK2)^ASCIZ / FK2/^
   353	000371'	202151	331400		X (1,1,31,FK3)^ASCIZ / FK3/^
   354	000372'	202452	000000		X (1,2,33,RP)^ASCIZ / RP/^
   355	000373'	202450	600000		X (2,2,33,RF)^ASCIZ / RF/^
   356	000374'	202450	100000		X (3,2,33,RA)^ASCIZ / RA/^
   357	000375'	202572	000000		X (1,2,35,WP)^ASCIZ / WP/^
   358	000376'	202570	600000		X (2,2,35,WF)^ASCIZ / WF/^
   359	000377'	202570	100000		X (3,2,35,WA)^ASCIZ / WA/^
   360
   361			000000'		END STPT
   362
NO ERRORS DETECTED
PROGRAM BREAK IS 000510
2K CORE USED
SETE - PROGRAM TO SET LICENSE BY EXEC PSWD OR REDUCE LIC	MACRO 12.5-46.0 11:59 19-SEP-83 PAGE 8
SETE.MAC	22-APR-82 17:13		SYMBOL TABLE

ACCUM		000400'		T1		000002
C		000016		TATREC		000166'
CHKLP		000133'		TATSIZ		000011	SPD
CKLIC		000122'		TATTLE		000177'
CKMTCH		000021'		TBLEN		000023	SPD
CLRBFI	051440	000000		TCAUN		000170'
CNT		000014		TCERR		000176'
COMLIC		000037'		TCERR0		000000	SPD
CPOPJ1		000256'		TCERRP		000001	SPD
DESLIC		000175'		TTY		000001	SPD
ERR		000152'		TYMEX		000200	SPD
EXIT	047000	000012		X		000445'
FNDCMN		000015'		X1		000172'
GETOUT		000154'		X2		000173'
GETTAB	047000	000041		.GTAUN	777777	777755	SPD
GNCH		000160'
HSHLP		000070'
IBUF		000401'
JBTPRV		000006	SPD
JOBVER		000137	SIN
LET		000260'
LICABR		000264'
LICBP		000307'
LICFUL		000355'
LICST1		000144'
LICSTM		000111'
LICTAB	777777	777760	SPD
LICVAL		000332'
MORLIC		000025'
N		000015
NOCHK		000142'
NUM		000254'
OUTSTR	051140	000000
P		000017
PDL		000404'
PJOB	047000	000030
PUTSAR	047000	777716
RAND		000077'
RAND1		000107'
RESCAN	051400	000000
RESET	047000	000000
SAVCHR		000444'
SCAN		000214'
SCAN1		000215'
SCNAM		000240'
SCNAM1		000242'
SCNM1		000230'
SCNUM		000227'
SETE	047000	777771
SETENM		000174'
SETLIC	047000	777770
STPT		000000'

SETE - PROGRAM TO SET LICENSE BY EXEC PSWD OR REDUCE LIC	MACRO 12.5-46.0 11:59 19-SEP-83
SETE.MAC	22-APR-82 17:13		Symbol cross reference

ACCUM	    41	    56	   219#	   219	   220
C	     5#	    40	    52	    54	    65	    66	    68	    71	    94	    95	    97	    98	   134	   135
	   138	   139	   161	   162	   163	   197	   199	   211	   215	   216	   221	   223	   228	   229
	   232	   233	   237	   238
CHKLP	   134#	   141
CKLIC	   124#	   149
CKMTCH	    44	    47#
CNT	     7#	    99	   108
COMLIC	    53	    64#
CPOPJ1	   234#	   240
DESLIC	    38	    52	   127	   147	   175#	   296	   297	   298	   299	   300	   301	   302	   303	   304
	   305	   306	   307	   308	   309	   310	   311	   312	   313	   314
ERR	    40	    54	    59	    69	    71	   122	   146	   151#
FNDCMN	    43#	    46
GETOUT	   126	   129	   142	   154#
GNCH	    93	   159#	   198	   212	   224
HSHLP	    93#	   109
IBUF	    19#	    35	   159	   161
JBTPRV	    15#	    74
JOBVER	    21	    23#	    24
LET	   203	   225	   237#
LICABR	    57	   273#	   292
LICBP	    60	    63	   134	   137	   296#
LICFUL	   140	   341#
LICST1	    67	   144#
LICSTM	    96	   111#
LICTAB	    14#	   124	   144
LICVAL	    61	    62	   135	   139	   318#
MORLIC	    54#	    65
N	     6#	    92	   100	   102	   103	   104	   105	   106	   107	   124	   125	   128	   133
NOCHK	   136	   141#
NUM	   201	   213	   226	   232#
P	     4#	    31	    39	    51	    64	    70	    93	   121	   123	   164	   192	   195	   198	   201
	   203	   207	   212	   213	   217	   224	   225	   226	   230	   234	   235	   239
PDL	    19#	    31
RAND	   100#	   108
RAND1	   104	   108#
SAVCHR	    37#	    37	    48	   197	   206	   215	   228
SCAN	    39	    51	    64	    70	   197#
SCAN1	   198#	   200
SCNAM	   205	   219#
SCNAM1	   221#	   227
SCNM1	   210#	   214
SCNUM	   202	   209#
SETENM	    72	   174#
STPT	    30#	   361
T	     8#	    41	    43	    45	    47	    52	    56	    57	    60	    61	    62	    63	    72	    74
	    75	    76	    77	    85	    86	    87	    88	    89	    90	    91	   100	   101	   102	   113
	   114	   115	   116	   117	   118	   119	   120	   127	   128	   132	   134	   135	   137	   139
	   140	   141	   144	   145	   147	   148	   209	   210	   211
T1	     9#	    42	    47	    55	    57	    58	    59	    60	    61	    62	    63	   133	   137	   138
	   183	   184	   185	   186	   188	   189	   190	   191	   220	   222	   223
TATREC	   168#	   179	   184	   189
SETE - PROGRAM TO SET LICENSE BY EXEC PSWD OR REDUCE LIC	MACRO 12.5-46.0 11:59 19-SEP-83
SETE.MAC	22-APR-82 17:13		Symbol cross reference

TATSIZ	   168	   179#
TATTLE	   121	   123	   183#
TBLEN	    55	   132	   292#
TCAUN	   170#	   188
TCERR	   120	   176#
TCERR0	   177#
TCERRP	   119	   178#
TTY	    11#	    33	    49	    73	    84	   154	   160
TYMEX	    16#	    77
X	    19#	    86	    87	    88	    90	    91	    97	    98	   100	   102	   105	   106	   113	   115
X1	   114	   117	   172#
X2	   116	   173#
.GTAUN	    13#	   185
SETE - PROGRAM TO SET LICENSE BY EXEC PSWD OR REDUCE LIC	MACRO 12.5-46.0 11:59 19-SEP-83
SETE.MAC	22-APR-82 17:13		Macro/Opdef cross reference

CLRBFI	   153
EXIT	    36	   156	   194
GETTAB	    75	   125	   145	   186
LICENS	   250#	   273	   296	   318	   341
OUTSTR	    78	    81	   111	   130	   140	   151	   155	   193
PJOB	   183
PUTSAR	   190
RESCAN	    32
RESET	    30
SETE	   118
SETLIC	   148
X	   272#	   273	   274	   275	   276	   277	   278	   279	   280	   281	   282	   283	   284	   285
	   286	   287	   288	   289	   290	   291	   295#	   296	   297	   298	   299	   300	   301	   302
	   303	   304	   305	   306	   307	   308	   309	   310	   311	   312	   313	   314	   317#	   318
	   319	   320	   321	   322	   323	   324	   325	   326	   327	   328	   329	   330	   331	   332
	   333	   334	   335	   336	   339#	   341	   342	   343	   344	   345	   346	   347	   348	   349
	   350	   351	   352	   353	   354	   355	   356	   357	   358	   359|wa¼