CMD     03/21/74	MACRO 12.5-46.0 17:25 13-JAN-81 PAGE 1
COM.MAC	23-MAR-79 11:41

     1				00010	;COM    05/25/77
     2			000015	00020	VERSION==15
     3			000013	00030	VERPAT==13
     4			000000	00040	R0=     0
     5			000001	00050	R1=     1
     6			000002	00060	R2=     2
     7			000003	00070	R3=     3
     8			000004	00080	CH==    4                       ;CURRENT CHARACTER
     9			000007	00090	CT==    7                       ;CURRENT CHARACTER'S TYPE
    10				00100	;W=5                            ;USED BY CMD
    11				00110	;S=6                            ;USED BY CMD
    12			000010	00120	F=      10                      ;USED BY TAP
    13			000015	00130	U=15                            ;USED BY TAP
    14				00140	;W=16                           ;USED BY TAP
    15			000017	00150	P=      17
    16			000012	00160	UNIT== 12               ;USED BY TAP
    17			000006	00170	FIL==   6               ;CHANNEL FOR USER FILE
    18			000040	00180	RST==   40              ;DO NOT PUT FILE IN DIRECTORY ON A CLOSE
    19			000050	00190	LPAREN==50
    20			000051	00200	RPAREN==51
    21			000056	00210	DOTCHR= 56
    22			000014	00220	TOFCHR= 14
    23			000015	00230	CRCHR=  15
    24			000040	00240	SPACE=  40
    25			000000	00250	EOLIT== 0
    26			000137	00260	BARROW= 137
    27				00270	        SALL                    ;SUPPRESS ALL MACRO EXPANSIONS
    28				00280	IFDEF   UUOFLG  <UUOTAB: BLOCK 0>
    29				00290	DEFINE  OPD     (A,B) <X==X+1
    30				00300	OPDEF A [X*1000000000]
    31				00310	IFDEF UUOFLG<JRST B>>
    32			000000	00320	X==0
    33				00330	        OPD     TCI,TCIUUO;    001
    34				00340	        OPD     TCL,TCLUUO;    002
    35				00350	        OPD     RDLINE,RDUUO;  003
    36				00360	        OPD     GCI,GCIUUO;    004
    37				00370	        OPD     GCD,GCDUUO;    005
    38				00380	        OPD     WCI,WCIUUO;    006
    39				00390	        OPD     WCD,WCDUUO;    007
    40				00400	        OPD     TCO,TCOUU ;    010
    41				00410	        OPD     DEC,DECUUO;    011
    42				00420	        OPD     TYPE,TYPUUO;   012
    43				00430	        OPD     CLRIN,CLRUUO;  013
    44				00440	        OPD     SETTTY,TTYUUO; 014
    45				00450	        OPD     ERROR,ERRUUO;  015
    46				00460	        OPD     ENABLE,ENUUO;  016
    47				00470	        OPD     DISABL,DISUUO; 017
    48				00480	        OPD     SSKE,SSKUUO;   020
    49				00490	        OPD     TAB,TABUUO;    021
    50				00500	        OPD     ERO,EROUUO;    022
    51				00510	        OPD     ERT,ERTUUO;     023
    52				00520	        OPD     ERB,ERBUUO;     024
    53					;CHR    07/08/72
CMD     03/21/74	MACRO 12.5-46.0 17:25 13-JAN-81 PAGE 1
CHR.MAC	23-MAR-79 11:41

    54					DEFINE  CHARDO(A) <CHARC=0
    55					A'IC;;      ILLEGAL CHARACTER
    56					A'AL;;      ALPHABETIC CHARACTER
    57					A'NU;;      NUMERIC CHARACTER
    58					A'RP;;      LEAVE USER MODE ")"
    59					A'IG;;      IGNORED CHARACTER
    60					A'LP;;      ENTER USER NAME MODE "("
    61					A'AS;;      ALL FILES CHAR (*)
    62					A'EX;;      FILE EXTENSION DELIMITER (.)
    63					A'AT;;      COMMAND FILE CHAR (@)
    64					A'CO;;      COMMA
    65					A'TE;;      LINE TERMINATION (CR LF)
    66					A'SP;;      SPACE
    67					A'PO;;      POUND SIGN (#)
    68					A'QU;;      QUESTION MARK (?)
    69					A'PU;;      PUNCTUATION ALLOWED IN USER NAMES (/ ' $)
    70					A'DA>;      DASH (-)
    71					DEFINE  CHRDEF(C) <C=CHARC
    72					CHARC=CHARC+1>
    73			000020		        CHARDO  <CHRDEF >
    74
    75				00010	TITLE   CMD     03/21/74
    76				00020	;*MAKE PART NUMBERS START AT ZERO INSTEAD OF ONE
    77				00030	;*FIX INVALID COMMAND MSG TO PRINT OUT COMMAND
    78				00040	;*MOVETHE IGNORE CHARACTER LOGIC TO UUO PACKAGE
    79				00050	;*FIND OUT HOW DASH IS USED IN LISTS OF FILE NAMES
    80				00060	;*SHOULD NOT ALLOW *X.*X AS A FILE NAME
    81				00070	;*MAKE SURE 'STORE NOT (JIMF)FILE.EXT' DOES WHAT IT SHOULD
    82				00080	;*BE SURE EXTRA LONG COMMAND GIVES PROPER DIAGNOSTIC
    83				00090	;*ACCEPT COMMANDS IN UPPER AND LOWER CASE
    84				00100	;*CHANGE QUIT TO NOT PRINT EXIT AND PRINT 3 CR'S INSTEAD
    85				00110	;*DISALLOW RESTORE CHANGED
    86				00120	        INTERNAL CIN,FF2,TE,NU
    87				00130	        EXTERNAL PRONUM,CHRCNT
    88				00140	        EXTERNAL JOBAPR,JOBCNI ;JOBTPC
    89
    90
    91			000005	00170	W=      5       ;CURRENT PART OF COMMAND BEING READ
    92			000006	00180	S=      6       ;CURRENT STATE
    93			000052	00190	ASTRSK= 52
    94			000072	00200	COLON=  72
    95			000042	00210	QUOTE=  42
    96			000105	00220	ECHR==: 105
    97			000056	00230	DOTCHR= 56
    98			000074	00240	LBROK==74
    99			000076	00250	RBROK==76
   100
   101			000014	00270	DATE==  14
   102
   103	000000'	000000	000000	00290	CIN:    0
   104			000400	00300	RANSIZ==: 400                   ;SIZE OF FILE POS. SELECT BUFFER
   105			000040	00310	STACKL= 40                      ;LENGTH OF STACK
   106	000001'	777740	000001'	00320	STACK:: XWD     -STACKL,.       ;INITIAL STACK POINTER
CMD     03/21/74	MACRO 12.5-46.0 17:25 13-JAN-81 PAGE 1
CMD.MAC	23-MAR-79 11:42

   107	000002'			00330	        BLOCK   STACKL          ;PUSH DOWN STACK
   108	000042'	000000	000000	00340	STACKE: 0                       ;STACK OVERFLOW MARKER
   109
   110				00360	DEFINE  CMND(C,F,R,H)
   111				00370	< XWD [XWD F,R
   112				00380	       ASCIZ "H'"],[ASCIZ "C'"]>
   113
   114			400000	00400	DUM==   400000          ;DUMMY ENTRY - NO COMMAND
   115			200000	00410	MOK==   200000          ;MORE PARTS TO COMMAND ARE OK
   116			100000	00420	DKY==  100000           ;DOUBLE KEYWORD EXPECTED
   117			040000	00430	PND== 40000             ;PPN NOT IN DUL OK
   118
   119			000001	00450	CM1==   1               ;FIRST PART OF ALL COMMANDS
   120			000002	00460	SR2==   2               ;SECOND PART OF STORE/RESTORE
   121			000003	00470	SR3==   3               ;THIRD PART OF STORE/RESTORE
   122			000004	00480	MM2==   4               ;SECOND PART OF MODE
   123			000005	00490	MS3==   5               ;THIRD PART OF MODE STORE/RESTORE
   124			000006	00500	MO3==   6               ;THIRD PART OF MODE OLD FILE/SYS
   125			000006	00510	NCSEC== 6               ;NUMBER OF DIFFERENT COMMAND SECTIONS
   126			000037	00520	MORMSK==37              ;MASK OF FIELD FOR NEXT PART OF COMMAND
   127
   128	000043'	003604'	003614'	00540	KF0TAB: CMND    DUMMY,CM1,0,<DUMMY ENTRY TO START ALL COMMANDS>
   129
   130	000044'			00560	KF1TAB: BLOCK   0
   131	000044'	003616'	003631'	00570	        CMND <NEW TAPE>,0,NEWROU,<NEW TAPE - INITIALIZE TO STORE AT TAPE BEGINNING>
   132	000045'	003633'	003646'	00580	        CMND APPEND,0,APPROU,<INITIALIZE TO STORE AT TAPE END (LIKE SKIP E)>
   133	000046'	003650'	003660'	00590	        CMND STORE,SR2,STOROU##,<STORES FILES FROM DISC TO TAPE>
   134	000047'	003662'	003672'	00600	        CMND RESTORE,SR2,RESROU##,<RESTORES FILES TO DISC FROM TAPE>
   135	000050'	003674'	003703'	00610	        CMND DIRECTORY,SR2,DIRROU##,<PRINT DIRECTORY OF THE TAPE>
   136	000051'	003705'	003716'	00620	        CMND FAILON,0,FSTROU##,<ASSUME DIRECTORY IN FAILSAFE FORMAT>
   137	000052'	003720'	003730'	00630	        CMND FAILOFF,0,FCRROU##,<ASSUME DIRECTORY IN TITO FORMAT>
   138	000053'	003732'	003742'	00640	        CMND TRANSLATE,SR2,TRAROU,<TRANSLATE USERS NAMES FOR RESTORE>
   139	000054'	003744'	003753'	00650	        CMND <CUT AFTER>,SR2+DKY,CUTROU##,<MAKE EOT AFTER SPECIFIED FILE>
   140	000055'	003755'	003765'	00660	        CMND UNTRANSLATE,0,UNTROU,<CLEAR OUT THE TRANSLATION TABLE>
   141	000056'	003770'	004000'	00670	        CMND WHERE,0,WHEROU##,<PRINT LAST TAPE POSITION SCANNED>
   142	000057'	004002'	004013'	00680	        CMND COF,0,COFROU,<CHANGE OUTPUT FILE FOR NEXT COMMAND>
   143	000060'	004014'	004021'	00690	        CMND REWIND,0,REWROU##,<REWIND THE TAPE>
   144	000061'	004023'	004034'	00700	        CMND RWNW,0,RWNROU##,<REWIND BUT DON'T WAIT FOR COMPLETION>
   145	000062'	004035'	004046'	00710	        CMND UNLOAD,0,UNLROU##,<REWIND AND UNLOAD TAPE BUT DON'T WAIT>
   146	000063'	004050'	004057'	00720	        CMND HELP,0,HELROU,<PRINTS LIST OF VALID COMMANDS>
   147	000064'	004060'	004064'	00730	        CMND ?,0,HELROU,<SAME AS HELP>
   148	000065'	004065'	004072'	00740	        CMND QUIT,0,QUIROU##,<EXIT FROM PROGRAM>
   149	000066'	004073'	004103'	00750	        CMND SKIP,0,SKIROU,<SKIP N SAVE SETS OR TO END OF TAPE>
   150	000067'	004104'	004114'	00760	        CMND DEVICE,0,DEVROU##,<DEVICE OPEN, E.G. *DEV MTA1 800>
   151	000070'	004116'	004133'	00770	        CMND GET,SR2+PND,GETROU##,<SAME AS RESTORE BUT RESTORES TO UFD OF USER RUNNING TITO>
   152	000071'	004134'	004143'	00780	        CMND MODE,MOK+MM2,MDEROU,<PRINT AND SET DEFAULT MODES>
   153	000072'	004144'	004151'	00790		CMND UPDATE,0,UPDROU##,<SET UPDATE FLAG>
   154	000073'	004153'	004161'	00800		CMND NOUPDATE,0,NUPROU##,<TURN OFF UPDATE FLAG>
   155	000074'	004163'	004174'	00810	        CMND PREALLOCATE,0,PRROU##,<PREALLOCATE DISC SPACE DURING RESTORE>
   156	000075'	004104206'	00820	        CMND NOPREALLOCATE,0,NPRROU##,<CANCEL PREALLOCATE SWITCH>
   157	000076'	004211'	004221'	00830	        CMND FLAGOFF,0,FLGROU##,<MARK FILES AS DUMPED FOR REBUILD>
   158	000077'	004223'	004234'	00840	        CMND NOFLAGOFF,0,NFLROU##,<MARK FILES NOT DUMPED WHEN RESTORED>
   159	000100'			00850	KF1TBE: BLOCK   0
CMD     03/21/74	MACRO 12.5-46.0 17:25 13-JAN-81 PAGE 1-2
CMD.MAC	23-MAR-79 11:42

   160
   161	000100'	004236'	004241'	00870	KF2TAB: CMND ALL,MOK+SR3,ALLROU,<ALL FILES>
   162				00880	;*      CMND NOT,0,CNYI,<EXCLUDES THE ITEMS LISTED>
   163	000101'	004242'	004057'	00890	        CMND HELP,0,HELROU,<LISTS VALID OPTIONS AT THIS POINT IN COMMAND>
   164	000102'	004060'	004064'	00900	        CMND ?,0,HELROU,<SAME AS HELP>
   165	000103'	004254'	004267'	00910	        CMND <P2-4,7>,DUM+MOK+SR3,0,<A LIST OF TAPE POSITION NUMBERS PRECEDED BY A P>
   166	000104'	004271'	004304'	00920	        CMND <#2-4,7>,DUM+MOK+SR3,0,<A LIST OF TAPE POSITION NUMBERS PRECEDED BY A #>
   167	000105'			00930	KF2TBE: BLOCK   0
   168
   169	000105'	004306'	004321'	00950	GF2TAB: CMND <G1-4,6>,DUM+MOK+SR3,0,<A LIST OF GLOBAL ACCOUNT NUMBERS PRECEDED BY A G>
   170	000106'			00960	GF2TBE: BLOCK   0
   171
   172	000106'	004323'	004331'	00980	UF2TAB: CMND <[1,1],[1,4]>,DUM+MOK+SR3,0,<A LIST OF PPN NUMBERS>
   173	000107'			00990	UF2TBE: BLOCK   0
   174
   175	000107'	004334'	004347'	01010	FF2TAB: CMND <[1,4]A.X,B.X>,DUM+MOK+SR3,0,<A LIST OF FILE NAMES PRECEDED BY A PPN NUMBER>
   176	000110'			01020	FF2TBE: BLOCK   0
   177
   178	000110'	004352'	004363'	01040	KF3TAB: CMND TWICE,0,TWIROU,<COMMAND APPLIES TWICE TO STORE ONLY>
   179	000111'	004365'	004376'	01050	        CMND THRICE,0,THRROU,<COMMAND APPLIES THRICE TO STORE ONLY>
   180				01060	        CMND CREATED,0,CREROU,<COMMAND APPLIES ONLY TO FILES CREATED BEFORE OR AFTER HH:MM DA M
   181	000112'	004400'	004417'		ON YR>
   182				01070	        CMND CHANGED,0,CHAROU,<COMMAND APPLIES ONLY TO FILES CHANGED SINCE LAST ALL FILES OR BA
   183	000113'	004421'	004440'		CKUP>
   184	000114'	004442'	004452'	01080	        CMND <STARTING WITH>,0,STAROU,<RESTART WITH [GAN,UUN]FILE.EXT>
   185	000115'			01090	KF3TBE: BLOCK   0
   186
   187	000115'	004455'	003660'	01110	KF4TAB: CMND STORE,MS3,MSROU,<MODES FOR STORE COMMAND>
   188	000116'	004463'	003672'	01120	        CMND RESTORE,MS3,MRROU,<MODES FOR RESTORE COMMAND>
   189	000117'	004472'	004504'	01130	        CMND OLD,MO3,MOROU,<MODES FOR RESTORING OLD FILES OTHER THAN SYS>
   190	000120'	004505'	004516'	01140	        CMND SYS,MO3,MSYROU,<MODES FOR RESTORING OLD FILES TO SYS>
   191	000121'	004242'	004057'	01150	        CMND HELP,0,HELROU,<LISTS VALID OPTIONS AT THIS POINT IN COMMAND>
   192	000122'			01160	KF4TBE: BLOCK   0
   193
   194	000122'	004517'	004524'	01180	KF5TAB: CMND TOTALS,0,MSTROU,<PRINT TOTALS ONLY>
   195	000123'	004526'	004535'	01190	        CMND USERS,0,MSUROU,<PRINT TOTALS FOR EACH USER>
   196	000124'	004537'	004545'	01200	        CMND FILES,0,MSFROU,<PRINT EACH FILE NAME>
   197	000125'	004242'	004057'	01210	        CMND HELP,0,HELROU,<LISTS VALID OPTIONS AT THIS POINT IN COMMAND>
   198	000126'			01220	KF5TBE: BLOCK   0
   199
   200	000126'	004547'	004555'	01240	KF6TAB: CMND NEWEST,0,MONROU,<RESTORE MOST RECENT FILE>
   201	000127'	004557'	004102'	01250	        CMND TAPE,0,MOTROU,<RESTORE THE FILE FROM TAPE>
   202	000130'	004566'	004576'	01260	        CMND DISC,0,MODROU,<RETAIN THE FILE CURRENTLY ON DISC>
   203	000131'	004577'	004610'	01270	        CMND CONFIRM,0,MOCROU,<ASK FOR CONFIRMATION BEFORE RESTORING>
   204	000132'	004242'	004057'	01280	        CMND HELP,0,HELROU,<LISTS VALID OPTIONS AT THIS POINT IN COMMAND>
   205	000133'			01290	KF6TBE: BLOCK   0
   206
   207				01310	;THE FOLLOWING ARE ROUTINES TO READ ANYTHING AND EVERYTHING OUT OF THE
   208				01320	;COMMAND TABLE.  NOTHING SHOULD ACCESS THIS TABLE EXCEPT
   209				01330	;THROUGH THESE ROUTINES SO THAT THE FORMAT CAN EASILY BE CHANGED.
   210				01340	;ALL ROUTINES ARE CALLED WITH THE ADDRESS OF THE MAIN TABLE ENTRY IN R1.
   211				01350	;THE RESULT IS RETURNED IN R2.
   212
CMD     03/21/74	MACRO 12.5-46.0 17:25 13-JAN-81 PAGE 1-3
CMD.MAC	23-MAR-79 11:42

   213	000133'			01370	GETHLP: BLOCK   0               ;GET ADDRESS OF FIRST WORD OF HELP MSG
   214	000133'	554101	000000	01380	        HLRZ    R2,(R1)         ;GET ADDRESS OF WORD BEFORE HELP MSG
   215	000134'	344100	000000*	01390	        AOJA    R2,CPOPJ##      ;INCREMENT AND DO A POPJ
   216
   217	000135'	550101	000000	01410	GETCMD: HRRZ    R2,(R1)         ;GET ADDRESS OF FIRST WORD OF COMMAND
   218	000136'	263740	000000	01420	        POPJ    P,              ;RETURN
   219
   220	000137'			01440	GETFLG: BLOCK   0               ;GET FLAG WORD
   221	000137'	554101	000000	01450	        HLRZ    R2,(R1)         ;GET ADDRESS OF FLAG WORD
   222	000140'	200102	000000	01460	        MOVE    R2,(R2)         ;GET FLAGS
   223	000141'	263740	000000	01470	        POPJ    P,              ;RETURN
   224
   225	000142'			01490	GETADR: BLOCK   0               ;GET ADDRESS OF ROUTINE FOR THIS CMD
   226	000142'	554101	000000	01500	        HLRZ    R2,(R1)         ;GET ADDRESS OF THE ADDRESS WE WANT
   227	000143'	200102	000000	01510	        MOVE    R2,(R2)         ;GET THE ADDRESS OF THE ROUTINE
   228	000144'	263740	000000	01520	        POPJ    P,              ;RETURN
   229
   230	000145'	261740	000002	01540	GETTST: PUSH    P,R2            ;SAVE R2 ON THE STACK
   231	000146'	200045	003464'	01550	        MOVE    R1,CTABLE-1(W)  ;GET POINTER TO LAST PART OF CMD READ
   232	000147'	260740	000137'	01560	        PUSHJ   P,GETFLG        ;GET TYPE OF NEXT PART OF COMMAND
   233	000150'	554100	000002	01570	        HLRZ    R2,R2           ;PUT FLAGS IN RH
   234	000151'	405100	000037	01580	        ANDI    R2,MORMSK       ;KEEP ONLY THE TYPE
   235	000152'	200042	003476'	01590	        MOVE    R1,TSTAB(R2)    ;ADDR OF TERM STATE TAB FOR THIS PART
   236	000153'	262740	000002	01600	        POP     P,R2            ;RESTORE R2 FROM STACK
   237	000154'	263740	000000	01610	        POPJ    P,              ;RETURN FROM GETTST
   238
   239	000155'	000700	000157'	01630	COMPTR:: XWD     0700,COMBUF-1
   240	000156'	000700	000157'	01640	COMPT1: XWD     0700,COMBUF-1
   241	000157'	000000	000000	01650	COMPT2: 0
   242
   243	000160'			01670	COMBUF:: BLOCK 200
   244	000360'			01680	COMBFE: BLOCK 0
   245	000360'			01690	        BLOCK 1 ;RESERVE FOR BLT CODE WHICH ZEROES 1
   246				01700	;               LOC. PAST END OF ARRAY
   247
   248	000361'	013000	000000	01720	CLDSP:: CLRIN                   ;CLEAR INPUT BUFFER
   249	000362'	254000	000370'	01730	        JRST    CDISP           ;BRANCH TO COMMAND DISPATCHER
   250
   251	000363'	201040	003316'	01750	SCDISP::MOVEI   R1,ESCR1        ;GET ADDRESS OF ESCAPE ROUTINE
   252	000364'	202040	000000*	01760	        MOVEM   R1,JOBAPR       ;PUT IN TRAP LOCATION
   253	000365'	201040	002000	01770	        MOVEI   R1,2000         ;BIT TO TRAP ESCAPES
   254	000366'	047040	000016	01780	        APRENB  R1,             ;TRAP ESCAPES
   255	000367'	402000	003577'	01790	        SETZM   ESCFLG#         ;NO ESCAPES SEEN YET
   256	000370'	476000	000000*	01800	CDISP:: SETOM EROSW##
   257				01810	                                ;*CHECK HERE FOR ESCAPES ENABLED*
   258	000371'	626400	000000*	01820	        TRZN F,NWFLG##  ;NO CLOSE FOLLOWING RWNW OR UNLOAD
   259	000372'	260740	000000*	01830	        PUSHJ P,MTCLS
   260	000373'	200740	000001'	01840	        MOVE    P,STACK         ;ADJUST THE STACK
   261	000374'	332000	000042'	01850	        SKIPE   STACKE          ;SKIP IF STACK HAS NOT OVERFLOWED
   262	000375'	012000	004612'	01860	        TYPE [ASCIZ"$STACK HAS OVERFLOWED.  REPORT TO S.Q.A.$"]
   263	000376'	402000	000042'	01870	        SETZM   STACKE          ;MARK STACK AS NOT OVERFLOWED
   264	000377'	476000	000000*	01880	        SETOM UNISW##           ;ON ERROR GO TO DISPATCHER
   265	000400'	402000	000000*	01890	        SETZM   ESCDI##         ;ESCAPE TRAP TO DISPATCHER
CMD     03/21/74	MACRO 12.5-46.0 17:25 13-JAN-81 PAGE 1-4
CMD.MAC	23-MAR-79 11:42

   266	000401'	260740	000000*	01900	        PUSHJ P,CRLS##          ;MARK NAMES FILE AS CLOSED (SEE TCIUUO)
   267	000402'	402000	003600'	01910	        SETZM FAKFLG
   268	000403'	260740	003405'	01920	        PUSHJ   P,IPTR          ;INITIALIZE POINTER TO COMBUF
   269	000404'	012000	003615'	01930	        TYPE [ASCIZ""]   ;ASSURE TCOUU7 IS SET CORRECTLY
   270	000405'	332000	000000*	01940	        SKIPE   CHRCNT          ;SKIP IF WE'RE AT START OF LINE
   271	000406'	010000	004623'	01950	        TCO     [CRCHR]         ;CR IF WE NEED IT
   272	000407'	010000	004624'	01960	        TCO     [ASTRSK]        ;OUTPUT COMMAND DISPATCHER SYMBOL (*)
   273	000410'	201240	000003	01970	        MOVEI   W,NPARTS        ;NUMBER OF PARTS IN A COMMAND
   274	000411'	402005	003465'	01980	        SETZM   CTABLE(W)       ;INITIALIZE TABLE OF CMDS READ
   275	000412'	402005	003461'	01990	        SETZM   CTABL2(W)       ;INITIALIZE TABLE DESCRIBING CMDS TO ROU
   276	000413'	367240	000411'	02000	        SOJG    W,.-2           ;LOOP
   277	000414'	201240	000001	02010	        MOVEI   W,1             ;INITIALIZE PART OF CMD WE'RE WORKING ON
   278	000415'	402000	000000*	02020	        SETZM   STRPPN##        ;ZERO THE STARTING PPN
   279	000416'	402000	000000*	02030	        SETZM   STRFIL##        ;ZERO THE STARTING FILE
   280	000417'	402000	000000*	02040	        SETZM   STRBLK##        ;ZERO THE STARTING BLOCK
   281	000420'	402000	000000*	02050	        SETZM   CREDAT##        ;ZERO THE CREATION DATE
   282	000421'	402000	000000*	02060	        SETZM   CRETIM##        ;ZERO THE CREATION TIME
   283	000422'	402000	000000*	02070	        SETZM   CHANGD##        ;NOT LOOKING FOR CHANGED FILES YET
   284	000423'	402000	000000*	02080	        SETZM   CURPPN##        ;NO CURRENT FILE
   285	000424'	402000	000000*	02090	        SETZM   FILCNT##        ;NO FILES TRANSFERED FOR THIS USER
   286	000425'	402000	000000*	02100	        SETZM   TOTCNT##        ;NO FILES TRANSFERED FOR THIS SAVE SET
   287	000426'	621400	000000*	02110	        TLZ     F,RPTFLG+RPTFIL##
   288	000427'	620400	000000*	02120	        TRZ     F,TRTFG2##+RANCMD##
   289	000430'	606400	000000*	02130	        TRNN    F,TRTFG3##
   290	000431'	620400	000000*	02140	        TRZ     F,TRTFLG
   291	000432'	200045	003464'	02150	NXTPRT: MOVE    R1,CTABLE-1(W)  ;GET PTR TO LAST PART OF CMD READ
   292	000433'	260740	000137'	02160	        PUSHJ   P,GETFLG        ;GET TYPE OF NEXT PART OF COMMAND
   293	000434'	554100	000002	02170	        HLRZ    R2,R2           ;PUT FLAGS IN RH
   294	000435'	405100	000037	02180	        ANDI    R2,MORMSK       ;KEEP ONLY THE TYPE
   295	000436'	554302	003470'	02190	        HLRZ    S,ISTAB(R2)     ;GET INITIAL STATE
   296	000437'	200040	000155'	02200	        MOVE    R1,COMPTR       ;ADDRESS-1 OF STRING WE'LL READ
   297	000440'	271040	000001	02210	        ADDI    R1,1            ;MAKE IT POINT TO THE STRING
   298	000441'	542045	003461'	02220	        HRRM    R1,CTABL2(W)    ;IF IT ISN'T A COMMAND WE'LL NEED IT
   299	000442'	001340	000004	02230	NXTCHR: TCI     CT,CH           ;GET A CHARACTER AND ITS TYPE
   300	000443'	402000	003577'	02240	        SETZM   ESCFLG          ;SOMETHING DONE SINCE LAST ESCAPE
   301	000444'	200045	003464'	02250	SAMCHR: MOVE    R1,CTABLE-1(W)  ;GET POINTER TO LAST PART OF CMD READ
   302	000445'	260740	000137'	02260	        PUSHJ   P,GETFLG        ;GET TYPE OF NEXT PART OF COMMAND
   303	000446'	554100	000002	02270	        HLRZ    R2,R2           ;PUT FLAGS IN RH
   304	000447'	405100	000037	02280	        ANDI    R2,MORMSK       ;KEEP ONLY THE TYPE
   305	000450'	200102	003470'	02290	        MOVE    R2,ISTAB(R2)    ;GET ADDRESS OF TABLES FOR THIS PART
   306	000451'	270100	000006	02300	        ADD     R2,S            ;ADD THE CURRENT STATE TO THIS ADDR
   307	000452'	200102	000000	02310	        MOVE    R2,(R2)         ;GET ADDRESS OF TABLE FOR THIS STATE
   308	000453'	270100	000007	02320	        ADD     R2,CT           ;ADD TYPE OF THE CHARACTER JUST READ
   309	000454'	554302	000000	02330	        HLRZ    S,(R2)          ;GET THE NEW STATE
   310	000455'	200102	000000	02340	        MOVE    R2,(R2)         ;GET ADDRESS OF ROUTINE TO GO TO
   311	000456'	254002	000000	02350	        JRST    (R2)            ;GO TO PROPER ROUTINE
   312
   313	000457'	201040	000000*	02370	EXTCOM: MOVEI   R1,CNTFC        ;DELIMITER IS A COMMA
   314	000460'	260740	000677'	02380	        PUSHJ   P,FFTRM         ;TERMINATE THE EXTENSION NAME
   315	000461'	350040	000155'	02390	FILDOT: AOS     R1,COMPTR       ;GET ADDR OF NEXT AVAILABLE WORD
   316	000462'	260740	003402'	02400	        PUSHJ   P,S6PTR         ;SET UP POINTERS
   317	000463'	254000	000442'	02410	        JRST    NXTCHR          ;GET NEXT CHARACTER
   318	000464'	350040	000155'	02420	FILCOM: AOS     R1,COMPTR       ;GET ADDRESS OF NEXT AVAILABLE WORD
CMD     03/21/74	MACRO 12.5-46.0 17:25 13-JAN-81 PAGE 1-5
CMD.MAC	23-MAR-79 11:42

   319	000465'	260740	003402'	02430	        PUSHJ   P,S6PTR         ;SET UP POINTERS
   320	000466'	254000	000444'	02440	        JRST    SAMCHR          ;REPLAY THE SAME CHARACTER
   321	000467'	201040	000000*	02450	ENDUN:  MOVEI   R1,CNTFT        ;TERMINATOR FOR USER LIST
   322	000470'	260740	000670'	02460	        PUSHJ   P,UFTRM         ;STORE ACCUMULATOR
   323	000471'	260740	003406'	02470	        PUSHJ   P,NPTR          ;REINITIALIZE THE POINTERS
   324	000472'	201040	000600	02480	STRTUN: MOVEI   R1,0600         ;SIXBIT BYTE POINTER
   325	000473'	506040	000155'	02490	        HRLM    R1,COMPTR       ;CHANGE STRING PTR FROM 7 BIT TO SIXBIT
   326	000474'	506040	000156'	02500	        HRLM    R1,COMPT1       ;DITTO
   327	000475'	550040	000156'	02510	        HRRZ    R1,COMPT1       ;GET NEXT FREE ADDR-1
   328	000476'	275040	000357'	02520	        SUBI    R1,COMBFE-1     ;NUMBER OF FREE WORDS
   329	000477'	220040	004625'	02530	        IMUL    R1,[-6]         ;NUMBER OF FREE CHARACTERS
   330	000500'	202040	000157'	02540	        MOVEM   R1,COMPT2       ;SAVE NUMBER OF AVAILABLE CHARACTERS
   331	000501'	275200	000040	02550	STOSIX: SUBI    CH,40           ;CONVERT CHAR JUST READ TO SIXBIT
   332	000502'	006200	000155'	02560	STOCHR: WCI     CH,COMPTR
   333	000503'	015000	004626'	02570	        ERROR   [ASCIZ "RAN OUT OF SPACE FOR INPUT STRING."]
   334	000504'	254000	000442'	02580	        JRST    NXTCHR
   335
   336				02600	; GAN READ.  SAVE FOR FIXLL
   337	000505'	515000	000000	02610	STOGAN: HRLZI R0,0
   338	000506'	250000	003575'	02620	        EXCH R0,ACMLTR
   339	000507'	202000	003601'	02630	        MOVEM GAN#
   340	000510'	254000	000442'	02640	        JRST NXTCHR
   341				02650	; OCTAL DIGIT READ. SHIFT ACCUMULATOR 3 BITS AND ADD
   342	000511'	250200	003575'	02660	ACCNUM: EXCH    CH,ACMLTR       ;GET NUMBER READ SO FAR
   343	000512'	221200	000010	02670	        IMULI   CH,10           ;*SHOULD THIS BE OCTAL OR DECIMAL?*
   344	000513'	275200	000060	02680	        SUBI    CH,60           ;CHAR READ WAS IN THE RANGE 60-71
   345	000514'	272200	003575'	02690	        ADDM    CH,ACMLTR       ;FORM THE NEW RESULT
   346	000515'	254000	000442'	02700	        JRST    NXTCHR          ;GET THE NEXT CHAR OF THE COMMAND
   347	000516'	302200	000105	02710	ACCEND: CAIE    CH,ECHR         ;SKIP IF CHAR "E" READ
   348	000517'	015000	004635'	02720	        ERROR   [ASCIZ "ILLEGAL NUMBER READ"]
   349	000520'	476000	003575'	02730	        SETOM   ACMLTR          ;SET NUMBER TO -1 FOR HIGHEST POSSIBLE
   350	000521'	254000	000442'	02740	        JRST    NXTCHR          ;GET THE NEXT CHAR OF THE COMMAND
   351	000522'	334040	004641'	02750	ACCCOM: SKIPA   R1,[CNTFC##]    ;NUMBER TERMINATED WITH A COMMA
   352	000523'	201040	000000*	02760	ACCDSH: MOVEI   R1,CNTFD##      ;NUMBER TERMINATED WITH A DASH
   353	000524'	260740	000670'	02770	        PUSHJ   P,GFTRM         ;STORE ACCUMULATOR IN LIST
   354	000525'	254000	000442'	02780	        JRST    NXTCHR          ;READ THE NEXT CHARACTER
   355
   356	000526'	302200	000050	02800	TSTLPI: CAIE    CH,LPAREN       ;DON'T SKIP IF LEFT BRACKET READ
   357	000527'	201300	000010	02810	        MOVEI   S,YL2           ;READ PPN INSTEAD OF USER NAME
   358	000530'	254000	000442'	02820	        JRST    NXTCHR          ;GET THE NEXT CHARACTER
   359
   360	000531'	302200	000050	02840	TSTLPP: CAIE    CH,LPAREN       ;DON'T SKIP IF LEFT BRACKET READ
   361	000532'	201300	000015	02850	        MOVEI   S,PL2           ;READ PPN INSTEAD OF USER NAME
   362	000533'	254000	000442'	02860	        JRST    NXTCHR          ;GET THE NEXT CHARACTER
   363				02870	; PPN READ. MUST GO TO DUL AND THEN TO LUD TO GET LUD LOCATOR
   364	000534'	200000	003575'	02880	FIXLL:  MOVE R0,ACMLTR
   365	000535'	504000	003601'	02890	        HRL R0,GAN
   366	000536'	260740	000000*	02900	        PUSHJ P,PPNUSR##        ;LOOK UP NAME IN DUL
   367	000537'	254000	000553'	02910	        JRST CONVVV     ;NOT FOUND
   368	000540'	254000	000544'	02920	        JRST CONVUU
   369				02930	; USER NAME READ
   370	000541'	200040	000155'	02940	CONVUN: MOVE    R1,COMPTR       ;GET STARTING ADDR-1 OF USER NAME
   371	000542'	200001	000001	02950	        MOVE    R0,1(R1)        ;GET FIRST WORD OF USER NAME
CMD     03/21/74	MACRO 12.5-46.0 17:25 13-JAN-81 PAGE 1-6
CMD.MAC	23-MAR-79 11:42

   372	000543'	200041	000002	02960	        MOVE    R1,2(R1)        ;GET SECOND WORD OF USER NAME
   373	000544'	260740	000000*	02970	CONVUU: PUSHJ   P,USRPPN##      ;CONVERT USER NAME TO PPN
   374	000545'	015000	004642'	02980	        ERROR   [ASCIZ "NO SUCH USER IN LUD"]
   375	000546'	552000	003575'	02990	        HRRZM   R0,ACMLTR       ;SAVE THE UNIVERSAL USER NUMBER
   376	000547'	202000	000000*	03000	        MOVEM CPPN               ;SAVE LAST PPN REFERENCED
   377	000550'	200040	000000*	03010	        MOVE R1,LUDL##          ;FETCH LUD BLOCK NO
   378	000551'	137040	004646'	03020	        DPB     R1,[XWD LUDLC##,ACMLTR]
   379	000552'	254000	000442'	03030	        JRST    NXTCHR          ;GET THE NEXT CHARACTER
   380	000553'	200045	003464'	03040	CONVVV: MOVE R1,CTABLE-1(W)     ;GET FLAGS FOR THIS COMMAND
   381	000554'	260740	000137'	03050	        PUSHJ P,GETFLG
   382	000555'	607100	040000	03060	        TLNN R2,PND             ;IS IT THE GET COMMAND
   383	000556'	015000	004647'	03070	        ERROR [ASCIZ"PPN NOT FOUND IN DUL"]
   384	000557'	202000	000547*	03080	        MOVEM CPPN
   385	000560'	552000	003575'	03090	        HRRZM R0,ACMLTR
   386	000561'	254000	000442'	03100	        JRST NXTCHR
   387
   388	000562'	334100	003615'	03120	TRMEOL: SKIPA   R2,[0]          ;LINE TERMINATED WITH CR OR LF
   389	000563'	571100	777777	03130	TRMNAT: HRREI   R2,-1           ;TERMINATION OF A PART OF THE COMMAND
   390	000564'	202100	003576'	03140	        MOVEM   R2,EOLFLG#      ;SAVE FLAG TO KNOW HOW LINE WAS ENDED
   391	000565'	260740	000145'	03150	        PUSHJ   P,GETTST        ;RETURN ADDR OF TERM STATE TABLE IN R1
   392	000566'	270040	000006	03160	        ADD     R1,S            ;ADDRESS OF ENTRY FOR THIS STATE
   393	000567'	204101	000000	03170	        MOVS    R2,(R1)         ;ADDRESS OF ROUTINE TO FINISH UP
   394	000570'	201040	000467*	03180	        MOVEI   R1,CNTFT##      ;TERMINATING CHARACTER JUST READ
   395	000571'	260742	000000	03190	        PUSHJ   P,(R2)          ;FINISH READING WHATEVER WE JUST READ
   396	000572'	260740	000145'	03200	        PUSHJ   P,GETTST        ;RETURN ADDR OF TERM STATE TABLE IN R1
   397	000573'	270040	000006	03210	        ADD     R1,S            ;GET ADDRESS FOR THIS STATE
   398	000574'	200041	000000	03220	        MOVE    R1,(R1)         ;GET TERM STATE TAB ENTRY FOR THIS STATE
   399	000575'	200041	000000	03230	        MOVE    R1,(R1)         ;GET ADDR OF CMD TABLE FOR THIS STATE
   400	000576'	260740	000137'	03240	        PUSHJ   P,GETFLG        ;GET FLAGS FOR FIRST COMMAND IN TABLE
   401	000577'	200145	003461'	03250	        MOVE    R3,CTABL2(W)    ;GET ADDRESS OF STRING JUST READ
   402	000600'	607100	400000	03260	        TLNN    R2,DUM          ;SKIP IF IT'S A DUMMY ENTRY
   403	000601'	260740	000706'	03270	        PUSHJ   P,CMDSRC        ;SEARCH TABLE FOR COMMAND
   404	000602'	261740	000001	03280	        PUSH    P,R1            ;SAVE COMMAND POINTER ON STACK
   405	000603'	260740	000137'	03290	        PUSHJ P,GETFLG
   406	000604'	603100	100000	03300	        TLNE R2,DKY
   407	000605'	260740	000643'	03310	        PUSHJ P,DKYROU
   408	000606'	260740	003406'	03320	        PUSHJ   P,NPTR          ;STRAIGHTEN UP POINTERS FOR NEXT PART
   409	000607'	262740	000001	03330	        POP     P,R1            ;RESTORE COMMAND POINTER FROM STACK
   410	000610'	506305	003465'	03340	        HRLM    S,CTABLE(W)     ;SAVE THE STATE
   411	000611'	506305	003461'	03350	        HRLM    S,CTABL2(W)     ;SAVE STATE FOR STORE/RESTORE
   412	000612'	260740	000137'	03360	        PUSHJ   P,GETFLG        ;GET THE FLAGS FOR THIS THING
   413	000613'	542045	003465'	03370	        HRRM    R1,CTABLE(W)    ;SAVE POINTER TO CMD TABLE
   414	000614'	603100	200000	03380	        TLNE    R2,MOK          ;SKIP IF MORE INPUT NOT OPTIONAL
   415	000615'	254000	000635'	03390	        JRST    TRMNA3          ;CHECK FOR OPTIONAL INPUT
   416	000616'	603100	000037	03400	        TLNE    R2,MORMSK       ;SKIP IF THERE'S NO MORE
   417	000617'	344240	000640'	03410	        AOJA    W,CPRMPT        ;PROMPT IF CARRIAGE RETURN TYPED
   418	000620'			03420	TRMNA2:
   419	000620'	260740	000145'	03430	TRMNA1: PUSHJ   P,GETTST        ;RETURN ADDR OF TERM STATE TABLE IN R1
   420	000621'	554145	003465'	03440	        HLRZ    R3,CTABLE(W)    ;GET STATE FOR THIS PART OF COMMAND
   421	000622'	270141	000000	03450	        ADD     R3,(R1)         ;ADD ADDR OF BEG OF TERM STATE TAB
   422	000623'	200043	000000	03460	        MOVE    R1,(R3)         ;GET FIRST COMMAND IN TABLE FOR THIS STATE
   423	000624'	260740	000137'	03470	        PUSHJ   P,GETFLG        ;GET THE FLAGS FOR THIS COMMAND
   424	000625'	607100	400000	03480	        TLNN    R2,DUM          ;SKIP IF IT'S A DUMMY COMMAND
CMD     03/21/74	MACRO 12.5-46.0 17:25 13-JAN-81 PAGE 1-7
CMD.MAC	23-MAR-79 11:42

   425	000626'	200045	003465'	03490	        MOVE    R1,CTABLE(W)    ;NOT DUMMY SO GET READ COMMAND
   426	000627'	260740	000142'	03500	        PUSHJ   P,GETADR        ;GET ADDRESS OF ROUTINE FOR CMD
   427	000630'	606100	777777	03510	        TRNN    R2,-1           ;SKIP IF A GOOD ADDRESS WAS FOUND
   428	000631'	367240	000620'	03520	ALLREE: SOJG    W,TRMNA1        ;GET ADDR FROM PREVIOUS PART IF ANY
   429	000632'	337000	000005	03530	        SKIPG   W               ;SKIP IF WE HAVE A GOOD ADDRESS
   430	000633'	260740	003374'	03540	        PUSHJ   P,FERR          ;FATAL ERROR
   431	000634'	254002	000000	03550	        JRST    (R2)            ;GO EXECUTE THE COMMAND
   432
   433	000635'	332000	003576'	03570	TRMNA3: SKIPE   EOLFLG          ;SKIP IF LINE TERMINATED
   434	000636'	344240	000432'	03580	        AOJA    W,NXTPRT        ;INPUT NEXT PART OF COMMAND
   435	000637'	254000	000620'	03590	        JRST    TRMNA2          ;DONE WITH INPUT SO PROCESS THE COMMAND
   436
   437	000640'	336000	003576'	03610	CPRMPT: SKIPN   EOLFLG          ;SKIP IF CARRIAGE RETURN NOT TYPED
   438	000641'	012000	004654'	03620	PROMPT: TYPE    [ASCIZ "MORE INPUT NEEDED: "]
   439	000642'	254000	000432'	03630	        JRST    NXTPRT          ;INPUT NEXT PART OF COMMAND
   440	000643'	261740	000002	03640	DKYROU: PUSH P,R2       ;SAVE R2 ON STACK
   441	000644'	261740	000003	03650	        PUSH P,R3
   442	000645'	201140	000160'	03660	        MOVEI R3,COMBUF
   443	000646'	302340	000013	03670	        CAIE CT,SP
   444	000647'	254000	000762'	03680	        JRST CDLP0
   445	000650'	260740	003444'	03690	        PUSHJ P,READKW
   446	000651'	020140	000662'	03700	        SSKE R3,AFSTG
   447	000652'	254000	001323'	03710	        JRST NEWR3
   448	000653'	571100	777777	03720	        HRREI R2,-1
   449	000654'	302340	000013	03730	        CAIE CT,SP
   450	000655'	200100	003615'	03740	        MOVE R2,[0]
   451	000656'	202100	003576'	03750	        MOVEM R2,EOLFLG
   452	000657'	262740	000003	03760	        POP P,R3
   453	000660'	262740	000002	03770	        POP P,R2
   454	000661'	263740	000000	03780	        POPJ P,
   455	000662'	406152	442644	03790	AFSTG: ASCIZ "AFTER"
	000663'	000000	000000
   456
   457	000664'	201040	000000	03810	KFTRM:  MOVEI   R1,EOLIT        ;TERMINATE STRING
   458	000665'	006040	000155'	03820	        WCI     R1,COMPTR       ;WRITE BACK ARROW TO END OF STRING
   459	000666'	260740	003374'	03830	        PUSHJ   P,FERR          ;RAN OUT OF SPACE FOR STRING INPUT
   460	000667'	263740	000000	03840	        POPJ    P,              ;RETURN TO TRMNAT ROUTINE
   461
   462	000670'			03860	UFTRM:  BLOCK   0
   463	000670'	137040	004660'	03870	GFTRM:  DPB     R1,[XWD CNTFP##,ACMLTR]
   464	000671'	350100	000155'	03880	        AOS     R2,COMPTR       ;INC AND GET ADDRESS OF LIST ENTRY
   465	000672'	202100	000156'	03890	        MOVEM   R2,COMPT1       ;SET UP FOR NPTR
   466	000673'	200040	003575'	03900	        MOVE    R1,ACMLTR       ;GET THE NUMBER TO BE SAVED
   467	000674'	202042	000000	03910	        MOVEM   R1,(R2)         ;STORE THE NUMBER
   468	000675'	402000	003575'	03920	        SETZM   ACMLTR          ;ZERO ACCUMULATOR FOR NEXT TIME
   469	000676'	263740	000000	03930	        POPJ    P,              ;RETURN TO TRMNAT ROUTINE
   470
   471	000677'	200100	000155'	03950	FFTRM:  MOVE    R2,COMPTR       ;GET ADDR OF EXTENSION -1
   472	000700'	554142	000001	03960	        HLRZ    R3,1(R2)        ;PUT EXTENSION IN RH
   473	000701'	606140	777777	03970	        TRNN    R3,777777       ;TEST FOR ZERO EXTENSION
   474	000702'	350000	000156'	03980	        AOS     COMPT1          ;PRETEND WE WROTE ONE--FIX STG PTRS
   475	000703'	137040	004661'	03990	        DPB     R1,[XWD CNTFP,R3]
   476	000704'	202142	000001	04000	        MOVEM   R3,1(R2)        ;PUT EXTENSION BACK WHERE IT BELONGS
CMD     03/21/74	MACRO 12.5-46.0 17:25 13-JAN-81 PAGE 1-8
CMD.MAC	23-MAR-79 11:42

   477	000705'	263740	000000	04010	        POPJ    P,              ;RETURN
   478
   479	000706'	476000	003602'	04030	CMDSRC: SETOM   GOODC#          ;INDICATE THAT NO CMDS HAVE BEEN FOUND
   480	000707'	260740	000135'	04040	CDLP:   PUSHJ   P,GETCMD        ;GET ADDRESS OF THIS COMMAND'S NAME
   481	000710'	020142	000000	04050	        SSKE    R3,(R2)         ;SKIP IF THE STRINGS ARE EQUAL
   482	000711'	254000	000714'	04060	        JRST    CDLP1           ;THEY'RE NOT EQUAL SO CHECK ANOTHER
   483	000712'	350000	003602'	04070	        AOS     GOODC           ;INCREMENT THE NUMBER OF COMMANDS FOUND
   484	000713'	506040	003602'	04080	        HRLM    R1,GOODC        ;SAVE POINTER INTO COMMAND TABLE
   485	000714'	253040	000707'	04090	CDLP1:  AOBJN   R1,CDLP         ;CONTINUE SEARCH IF NOT DONE
   486	000715'	260740	003406'	04100	        PUSHJ   P,NPTR          ;FIX PTR TO START ON WORD BOUNDARY
   487	000716'	204040	003602'	04110	        MOVS    R1,GOODC        ;GET NUMBER OF COMMANDS FOUND AND PTR
   488	000717'	603040	400000	04120	        TLNE    R1,400000       ;SKIP IF AT LEAST ONE WAS FOUND
   489	000720'	254000	000762'	04130	        JRST    CDLP0           ;INVALID COMMAND
   490	000721'	607040	777777	04140	        TLNN    R1,-1           ;SKIP IF ONLY ONE WAS FOUND
   491	000722'	263740	000000	04150	        POPJ    P,              ;RETURN WITH POINTER IN R1
   492	000723'	200100	000001	04160	        MOVE    R2,R1
   493	000724'	576040	003602'	04170	        HLREM   R1,GOODC
   494	000725'	260740	000145'	04180	        PUSHJ   P,GETTST        ;RETURN ADDR OF TERM STATE TABLE IN R1
   495	000726'	270040	000006	04190	        ADD     R1,S
   496	000727'	200041	000000	04200	        MOVE    R1,(R1)
   497	000730'	200041	000000	04210	        MOVE    R1,(R1)
   498	000731'	603100	777776	04220	        TLNE    R2,-2           ;SKIP IF ONLY TWO COMMANDS WERE FOUND
   499	000732'	254000	000751'	04230	        JRST    CDLP3
   500	000733'	012000	004662'	04240	        TYPE    [ASCIZ "CANNOT DISTINGUISH BETWEEN "]
   501	000734'	260740	000135'	04250	        PUSHJ   P,GETCMD
   502	000735'	020142	000000	04260	        SSKE    R3,(R2)
   503	000736'	253040	000734'	04270	        AOBJN   R1,.-2
   504	000737'	012002	000000	04280	        TYPE    (R2)
   505	000740'	010000	004670'	04290	        TCO     [SPACE]
   506	000741'	012000	004671'	04300	CDLP2:  TYPE    [ASCIZ "AND "]
   507	000742'	253040	000743'	04310	        AOBJN   R1,.+1
   508	000743'	260740	000135'	04320	        PUSHJ   P,GETCMD
   509	000744'	020142	000000	04330	        SSKE    R3,(R2)
   510	000745'	253040	000743'	04340	        AOBJN   R1,.-2
   511	000746'	012002	000000	04350	        TYPE    (R2)
   512	000747'	010000	004672'	04360	        TCO     [DOTCHR]
   513	000750'	254000	000361'	04370	        JRST    CLDSP
   514	000751'	012000	004673'	04380	CDLP3:  TYPE    [ASCIZ "CANNOT DISTINGUISH AMONG "]
   515	000752'	260740	000135'	04390	        PUSHJ   P,GETCMD
   516	000753'	020142	000000	04400	        SSKE    R3,(R2)
   517	000754'	253040	000752'	04410	        AOBJN   R1,.-2
   518	000755'	012002	000000	04420	        TYPE    (R2)
   519	000756'	012000	004701'	04430	        TYPE    [ASCIZ ", "]
   520	000757'	373000	003602'	04440	        SOSLE   GOODC
   521	000760'	254000	000754'	04450	        JRST    .-4
   522	000761'	254000	000741'	04460	        JRST    CDLP2
   523	000762'	012003	000000	04470	CDLP0:  TYPE    (R3)            ;TYPE COMMAND JUST TYPED
   524	000763'	015000	004702'	04480	        ERROR   [ASCIZ " IS AN INVALID COMMAND."]
   525
   526	000764'	260740	000145'	04500	HELROU: PUSHJ   P,GETTST        ;RETURN ADDR OF TERM STATE TAB IN R1
   527	000765'	200140	000001	04510	        MOVE    R3,R1           ;PUT ADDR IN R3
   528	000766'	200043	000000	04520	HELLP1: MOVE    R1,(R3)         ;GET TERM STATE TAB ENTRY FOR THIS STATE
   529	000767'	200041	000000	04530	        MOVE    R1,(R1)         ;GET ADDRESS OF COMMAND TABLE
CMD     03/21/74	MACRO 12.5-46.0 17:25 13-JAN-81 PAGE 1-9
CMD.MAC	23-MAR-79 11:42

   530	000770'	260740	000135'	04540	HELLP:  PUSHJ   P,GETCMD        ;GET ADDRESS OF COMMAND STRING
   531	000771'	552100	003603'	04550	        HRRZM R2,HX#
   532	000772'	022000	003603'	04560	        ERO HX
   533	000773'	021000	000015	04570	        TAB     15              ;TAB TO POSITION 15 OCTAL
   534	000774'	260740	000133'	04580	        PUSHJ   P,GETHLP        ;GET ADDRESS OF THE HELP MESSAGE
   535	000775'	552100	003603'	04590	        HRRZM R2,HX
   536	000776'	022000	003603'	04600	        ERO HX
   537	000777'	010000	004623'	04610	        TCO     [CRCHR]         ;END THE LINE WITH A CARRIAGE RETURN
   538	001000'	253040	000770'	04620	        AOBJN   R1,HELLP        ;LOOP FOR NEXT CMD FOR THIS STATE
   539	001001'	253140	000766'	04630	        AOBJN   R3,HELLP1       ;LOOP FOR NEXT STATE FOR THIS PART
   540	001002'	254000	000370'	04640	        JRST    CDISP           ;*CHANGE THIS?*
   541
   542	001003'	476000	000000*	04655	ALLROU:	SETOM	ALLFSW##	;SET "ALL FILES" SWITCH
   543	001004'	201100	000000*	04660		MOVEI   R2,ALLLST##     ;DUMMY LIST FOR ALL FILES
   544	001005'	542105	003461'	04670	        HRRM    R2,CTABL2(W)    ;SET UP THE LIST
   545	001006'	254000	000631'	04680	        JRST    ALLREE          ;REENTER THE COMMAND DISPATCHER
   546
   547	001007'	336000	003576'	04700	STAROU: SKIPN   EOLFLG          ;SKIP IF NO NEED TO PROMPT
   548	001010'	254000	001027'	04710	        JRST    STAPMT          ;PROMPT FOR PPN AND FILE.EXT
   549	001011'	001340	000004	04720	        TCI     CT,CH           ;INPUT A CHAR
   550	001012'	306340	000013	04730	        CAIN    CT,SP           ;SKIP IF NOT A SPACE
   551	001013'	254000	001011'	04740	        JRST    .-2             ;TRY AGAIN
   552	001014'	306340	000012	04750	        CAIN    CT,TE           ;SKIP IF NOT A TERMINATOR
   553	001015'	254000	001027'	04760	        JRST    STAPMT          ;PROMPT FOR PPN AND FILE.EXT
   554	001016'	302340	000001	04770	        CAIE    CT,AL           ;SKIP IF ALPHABETIC
   555	001017'	254000	001031'	04780	        JRST    STALBR          ;CHECK FOR LEFT BRACKET
   556	001020'	001340	000004	04790	        TCI     CT,CH           ;READ ANOTHER CHAR
   557	001021'	306340	000001	04800	        CAIN    CT,AL           ;SKIP IF ALPHABETIC
   558	001022'	254000	001020'	04810	        JRST    .-2             ;TRY AGAIN
   559	001023'	306340	000013	04820	        CAIN    CT,SP           ;SKIP IF NOT A SPACE
   560	001024'	254000	001030'	04830	        JRST    STARED          ;START READING PPN ETC
   561	001025'	302340	000012	04840	        CAIE    CT,TE           ;SKIP IF TERMINATOR
   562	001026'	254000	001031'	04850	        JRST    STALBR          ;CHECK FOR LEFT BRACKET
   563	001027'	051140	004707'	04860	STAPMT: OUTSTR  [ASCIZ "TYPE [GAN,UUN]FILE.EXT"]
   564	001030'	001340	000004	04870	STARED: TCI     CT,CH           ;READ LEFT BRACKET
   565	001031'	302340	000005	04880	STALBR: CAIE    CT,LP           ;SKIP IF RIGHT BRACKET
   566	001032'	254000	003304'	04890	        JRST    ILCH            ;ILLEGAL CHARACTER
   567	001033'	260740	001140'	04900	        PUSHJ   P,READUN        ;READ USER NAME OR PPN
   568	001034'	202000	000415*	04910	        MOVEM   R0,STRPPN       ;STORE STARTING UUN
   569	001035'	001340	000004	04920	        TCI     CT,CH           ;INPUT TERMINATOR OR FILE NAME
   570	001036'	302340	000002	04930	        CAIE    CT,NU           ;SKIP IF IT'S A NUMBER
   571	001037'	306340	000001	04940	        CAIN    CT,AL           ;SKIP IF NOT ALPHABETIC
   572	001040'	334000	000000	04950	        SKIPA                   ;SKIP ALWAYS
   573	001041'	254000	001100'	04960	        JRST    CHARET          ;TERMINATOR OR BAD CHARACTER
   574	001042'	201040	000600	04970	        MOVEI   R1,0600         ;SIXBIT BYTE POINTER
   575	001043'	506040	000155'	04980	        HRLM    R1,COMPTR       ;CHANGE STRING PTR FROM 7 BIT TO SIXBIT
   576	001044'	506040	000156'	04990	        HRLM    R1,COMPT1       ;DITTO
   577	001045'	550040	000156'	05000	        HRRZ    R1,COMPT1       ;GET NEXT FREE ADDR-1
   578	001046'	275040	000357'	05010	        SUBI    R1,COMBFE-1     ;NUMBER OF FREE WORDS
   579	001047'	220040	004625'	05020	        IMUL    R1,[-6]         ;NUMBER OF FREE CHARACTERS
   580	001050'	202040	000157'	05030	        MOVEM   R1,COMPT2       ;SAVE NUMBER OF AVAILABLE CHARACTERS
   581	001051'	260740	001105'	05040	        PUSHJ   P,STASIX        ;READ AND STORE FILE NAME
   582	001052'	350040	000155'	05050	        AOS     R1,COMPTR       ;GET ADDRESS OF NEXT AVAILABLE WORD
CMD     03/21/74	MACRO 12.5-46.0 17:25 13-JAN-81 PAGE 1-10
CMD.MAC	23-MAR-79 11:42

   583	001053'	260740	003402'	05060	        PUSHJ   P,S6PTR         ;SET UP NEW POINTERS
   584	001054'	200060	000155'	05070	        MOVE    R1,@COMPTR      ;GET FILE NAME
   585	001055'	202040	000416*	05080	        MOVEM   R1,STRFIL       ;SAVE STARTING FILE NAME
   586	001056'	306340	000010	05090	        CAIN    CT,AT           ;SKIP IF LAST CHAR NOT @ FOR STARTING WRD
   587	001057'	254000	001066'	05100	        JRST    STATRM          ;END OF FILE NAME
   588	001060'	302340	000012	05110	        CAIE    CT,TE           ;SKIP IF LAST CHAR WAS A CR ETC
   589	001061'	306340	000013	05120	        CAIN    CT,SP           ;SKIP IF LAST CHAR WAS NOT A SPACE
   590	001062'	254000	001066'	05130	        JRST    STATRM          ;TERMINATOR OF THIS PART OF COMMAND
   591	001063'	302340	000007	05140	        CAIE    CT,EX           ;IT HAD BETTER BE A DOT
   592	001064'	254000	003304'	05150	        JRST    ILCH            ;ILLEGAL CHARACTER
   593	001065'	260740	001110'	05160	        PUSHJ   P,STASX1        ;READ AND STORE EXTENSION
   594	001066'	350040	000155'	05170	STATRM: AOS     R1,COMPTR       ;GET ADDRESS OF EXTENSION
   595	001067'	510101	000000	05180	        HLLZ    R2,(R1)         ;PUT EXTENSION IN LH
   596	001070'	202100	000000*	05190	        MOVEM   R2,STREXT##     ;SAVE STARTING EXTENSION
   597	001071'	260740	003402'	05200	        PUSHJ   P,S6PTR         ;INITIALIZE THE POINTERS FOR NEXT PART
   598	001072'	201000	000000	05210	        MOVEI   R0,0            ;DEFAULT STARTING BLK IS ZERO
   599	001073'	306200	000074	05220	        CAIN    CH,LBROK        ;SKIP IF LAST CHAR NOT < FOR STR BLK
   600	001074'	260740	000000*	05230	        PUSHJ   P,RDDNUM        ;READ STARTING BLOCK NUMBER
   601	001075'	202000	000417*	05240	        MOVEM   R0,STRBLK       ;SAVE STARTING BLOCK OF FILE
   602	001076'	306200	000076	05250	STACH1: CAIN    CH,RBROK        ;NOSKIP IF LAST CHR WAS >
   603	001077'	254000	001115'	05260	        JRST STACH2
   604	001100'	306340	000013	05270	CHARET: CAIN    CT,SP           ;SKIP IF LAST CHARACTER WAS NOT A SPACE
   605	001101'	254000	000432'	05280	        JRST    NXTPRT          ;READ NEXT PART OF COMMAND
   606	001102'	306340	000012	05290	        CAIN    CT,TE           ;SKIP IF LAST CHAR WAS NOT A CR ETC
   607	001103'	254000	000631'	05300	        JRST    ALLREE          ;CONTINUE DISPATCHING COMMAND
   608	001104'	254000	003304'	05310	        JRST    ILCH            ;ILLEGAL CHARACTER
   609	001105'	275200	000040	05320	STASIX: SUBI    CH,40           ;CONVERT CHAR TO SIXBIT
   610	001106'	006200	000155'	05330	        WCI     CH,COMPTR       ;WRITE CHAR TO STRING
   611	001107'	015000	004626'	05340	        ERROR   [ASCIZ "RAN OUT OF SPACE FOR INPUT STRING."]
   612	001110'	001340	000004	05350	STASX1: TCI     CT,CH           ;INPUT THE NEXT CHARACTER
   613	001111'	302340	000002	05360	        CAIE    CT,NU           ;SKIP IF IT'S A NUMBER
   614	001112'	306340	000001	05370	        CAIN    CT,AL           ;SKIP IF IT'S NOT ALPHABETIC
   615	001113'	254000	001105'	05380	        JRST    STASIX          ;LOOP
   616	001114'	263740	000000	05390	        POPJ    P,              ;RETURN
   617	001115'	001340	000004	05400	STACH2: TCI CT,CH               ;READ NEXT CHAR
   618	001116'	302200	000074	05410	        CAIE CH,LBROK           ;SKIP IF LAST CHAR < FOR PART. CKSUM
   619	001117'	254000	001100'	05420	        JRST CHARET
   620	001120'	260740	000000*	05430	        PUSHJ P,RDONUM          ;READ PARTIAL CHECKSUM
   621	001121'	603000	777777	05440	        TLNE R0,777777
   622	001122'	015000	004714'	05450	STACH3: ERROR [ASCIZ"TOO MANY DIGITS IN CHECKSUM"]
   623	001123'	516000	000000*	05460	        HRLZM R0,CKSUM##        ;STORE LEFT HALF
   624	001124'	302340	000011	05470	        CAIE CT,CO              ;NUMBER HAD BETTER TERMINATE WITH COMMA
   625	001125'	254000	003304'	05480	        JRST ILCH
   626	001126'	001340	000004	05490	        TCI CT,CH               ;EXPECT TWO COMMAS
   627	001127'	302340	000011	05500	        CAIE CT,CO
   628	001130'	254000	003304'	05510	        JRST ILCH
   629	001131'	260740	001120*	05520	        PUSHJ P,RDONUM
   630	001132'	603000	777777	05530	        TLNE R0,777777
   631	001133'	254000	001122'	05540	        JRST STACH3
   632	001134'	542000	001123*	05550	        HRRM R0,CKSUM##         ;STORE RIGHT HALF
   633	001135'	306200	000076	05560	        CAIN CH,RBROK
   634	001136'	254000	001076'	05570	        JRST STACH1
   635	001137'	254000	003304'	05580	        JRST ILCH
CMD     03/21/74	MACRO 12.5-46.0 17:25 13-JAN-81 PAGE 1-11
CMD.MAC	23-MAR-79 11:42

   636
   637	001140'	261740	000001	05600	READUN: PUSH    P,R1            ;SAVE R1 ON STACK
   638	001141'	261740	000002	05610	        PUSH    P,R2            ;SAVE R2 ON STACK
   639	001142'	302200	000050	05620	        CAIE    CH,LPAREN       ;SKIP IF USER AND NOT PPN
   640	001143'	254000	001170'	05630	        JRST    READPP          ;READ PPN
   641	001144'	261740	000003	05640	        PUSH    P,R3            ;SAVE R3 ON STACK
   642	001145'	200000	004722'	05650	        MOVE    R0,[XWD 0600,1] ;BYTE POINTER POINTING TO R2
   643	001146'	403100	000003	05660	        SETZB   R2,R3           ;ZERO R2 AND R3 FOR STRING
   644	001147'	001340	000004	05670	REDUN2: TCI     CT,CH           ;READ NEXT CHAR OF USER NAME
   645	001150'	306340	000003	05680	        CAIN    CT,RP           ;SKIP IF NOT RIGHT PAREN
   646	001151'	254000	001160'	05690	        JRST    REDUN1          ;DONE READING USER NAME
   647	001152'	275200	000040	05700	        SUBI    CH,40           ;CONVERT CHAR TO SIXBIT
   648	001153'	133000	000000	05710	        IBP     R0              ;INCREMENT BYTE POINTER
   649	001154'	602000	777774	05720	        TRNE    R0,777774       ;SKIP IF USER NAME NOT TOO LONG
   650	001155'	015000	004723'	05730	        ERROR   [ASCIZ "USER NAME MAY NOT BE LONGER THAN 12 CHARACTERS."]
   651	001156'	137200	000000	05740	        DPB     CH,R0           ;DEPOSIT BYTE IN STRING
   652	001157'	254000	001147'	05750	        JRST    REDUN2          ;GET NEXT CHARACTER
   653	001160'	200000	000002	05760	REDUN1: MOVE    R0,R2           ;NEED USER NAME IN R0 AND R1
   654	001161'	200040	000003	05770	        MOVE    R1,R3           ;MOVE SECOND HALF OF USER NAME
   655	001162'	260740	000544*	05780	        PUSHJ   P,USRPPN        ;CONVERT USER NAME TO PPN
   656	001163'	015000	004735'	05790	        ERROR   [ASCIZ "NO SUCH USER."]
   657	001164'	262740	000003	05800	        POP     P,R3            ;RESTORE R3 FROM STACK
   658	001165'	262740	000002	05810	UU1RE2: POP     P,R2            ;RESTORE R2 FROM STACK
   659	001166'	262740	000001	05820	        POP     P,R1            ;RESTORE R1 FROM STACK
   660	001167'	263740	000000	05830	        POPJ    P,              ;RETURN
   661	001170'	260740	001131*	05840	READPP: PUSHJ   P,RDONUM##      ;READ GAN
   662	001171'	302340	000011	05850	        CAIE    CT,CO           ;SKIP IF TERMINATED WITH A COMMA
   663	001172'	254000	003304'	05860	        JRST    ILCH            ;ILLEGAL TERMINATOR
   664	001173'	200100	000000	05870	        MOVE    R2,R0           ;SAVE GAN IN R2
   665	001174'	260740	001170*	05880	        PUSHJ   P,RDONUM        ;READ UUN
   666	001175'	504000	000002	05890	        HRL     R0,R2           ;COMBINE GAN AND UUN TO FORM PPN
   667	001176'	302340	000003	05900	        CAIE    CT,RP           ;SKIP IF TERMINATED WITH RIGHT BRACKET
   668	001177'	254000	003304'	05910	        JRST    ILCH            ;ILLEGAL TERMINATOR
   669	001200'	254000	001165'	05920	        JRST    UU1RE2          ;RETURN FROM READUN
   670
   671	001201'	536000	000000	05940	MODWRD: BYTE    (2)MSMUSR,MSMUSR,MOMCON,MOMCON ;DEFAULT MODES
   672	001202'	000000	000000	05950	MODTMP: 0                       ;TEMP CELL FOR STORING MODE
   673
   674	001203'	420200	001201'	05970	MSPTR:: POINT   2,MODWRD,1      ;POINTER FOR STORE MODES
   675	001204'	400200	001201'	05980	MRPTR:: POINT   2,MODWRD,3      ;POINTER FOR RESTORE MODES
   676	001205'	360200	001201'	05990	MOPTR:: POINT   2,MODWRD,5      ;POINTER FOR OLD FILE MODES
   677	001206'	340200	001201'	06000	MSYPTR::POINT   2,MODWRD,7      ;POINTER FOR OLD SYS FILE MODES
   678
   679			000000	06020	MSMTOT==:0                      ;MODE FOR STORE/RESTORE IS TOTALS
   680			000002	06030	MSMUSR==:2                      ;MODE FOR STORE/RESTORE IS USERS
   681			000003	06040	MSMFIL==:3                      ;MODE FOR STORE/RESTORE IS FILES
   682
   683			000000	06060	MOMNEW==:0                      ;MODE FOR OLD/SYS IS NEWEST
   684			000001	06070	MOMTAP==:1                      ;MODE FOR OLD/SYS IS TAPE
   685			000002	06080	MOMDIS==:2                      ;MODE FOR OLD/SYS IS DISC
   686			000003	06090	MOMCON==:3                      ;MODE FOR OLD/SYS IS CONFIRM
   687
   688	001207'	334040	004740'	06110	MODROU: SKIPA   R1,[MOMDIS]     ;GET MODE FOR KEEPING DISC FILE
CMD     03/21/74	MACRO 12.5-46.0 17:25 13-JAN-81 PAGE 1-12
CMD.MAC	23-MAR-79 11:42

   689	001210'	201040	000003	06120	MOCROU: MOVEI   R1,MOMCON       ;GET MODE FOR CONFIRMATION
   690	001211'	202040	001202'	06130	MOCOM:  MOVEM   R1,MODTMP       ;SAVE IT FOR NEXT PART OF THE COMMAND
   691	001212'	254000	000631'	06140	        JRST    ALLREE          ;REENTER THE COMMAND DISPATCHER
   692	001213'	334040	003615'	06150	MONROU: SKIPA   R1,[MOMNEW]     ;MODE TO KEEP NEWEST FILE
   693	001214'	201040	000001	06160	MOTROU: MOVEI   R1,MOMTAP       ;MODE TO RESTORE THE TAPE FILE
   694	001215'	254000	001211'	06170	        JRST    MOCOM           ;SAVE MODE AND REENTER COMMAND DISPATCHER
   695	001216'	201040	000003	06180	MSFROU: MOVEI   R1,MSMFIL       ;PRINT EACH FILE NAME
   696	001217'	254000	001211'	06190	        JRST    MOCOM           ;SAVE MODE AND REENTER CMD DISPATCHER
   697	001220'	334040	003615'	06200	MSTROU: SKIPA   R1,[MSMTOT]     ;PRINT ONLY TOTALS FOR THE TAPE
   698	001221'	201040	000002	06210	MSUROU: MOVEI   R1,MSMUSR       ;PRINT TOTALS FOR EACH USER
   699	001222'	254000	001211'	06220	        JRST    MOCOM           ;SAVE MODE AND REENTER CMD DISPATCHER
   700
   701	001223'	200040	001202'	06240	MSROU:  MOVE    R1,MODTMP       ;GET THE MODE
   702	001224'	137040	001203'	06250	        DPB     R1,MSPTR        ;SAVE NEW STORE MODE
   703	001225'	254000	000370'	06260	        JRST    CDISP           ;REENTER COMMAND DISPATCHER
   704	001226'	200040	001202'	06270	MRROU:  MOVE    R1,MODTMP       ;GET THE MODE
   705	001227'	137040	001204'	06280	        DPB     R1,MRPTR        ;SAVE NEW RESTORE MODE
   706	001230'	254000	000370'	06290	        JRST    CDISP           ;REENTER THE COMMAND DISPATCHER
   707	001231'	200040	001202'	06300	MOROU:  MOVE    R1,MODTMP       ;GET THE NEW MODE
   708	001232'	137040	001205'	06310	        DPB     R1,MOPTR        ;SAVE THE NEW OLD FILE MODE
   709	001233'	254000	000370'	06320	        JRST    CDISP           ;REENTER THE COMMAND DISPATCHER
   710	001234'	200040	001202'	06330	MSYROU: MOVE    R1,MODTMP       ;GET THE NEW MODE
   711	001235'	137040	001206'	06340	        DPB     R1,MSYPTR       ;SAVE THE NEW SYS MODE
   712	001236'	254000	000370'	06350	        JRST    CDISP           ;REENTER THE COMMAND DISPATCHER
   713
   714	001237'	012000	004741'	06370	MDEROU: TYPE    [ASCIZ "STORE:   "]
   715	001240'	135040	001203'	06380	        LDB     R1,MSPTR        ;GET MODE FOR STORE
   716	001241'	260740	001262'	06390	        PUSHJ   P,TYPSRM        ;TYPE STORE/RESTORE MODE
   717	001242'	012000	004743'	06400	        TYPE    [ASCIZ "RESTORE: "]
   718	001243'	135040	001204'	06410	        LDB     R1,MRPTR        ;GET RESTORE MODE
   719	001244'	260740	001262'	06420	        PUSHJ   P,TYPSRM        ;TYPE STORE/RESTORE MODE
   720	001245'	012000	004745'	06430	        TYPE    [ASCIZ "OLD FILES:    "]
   721	001246'	135040	001205'	06440	        LDB     R1,MOPTR        ;GET MODE FOR OLD FILES
   722	001247'	260740	001271'	06450	        PUSHJ   P,TYPOM         ;TYPE OLD FILE MODE
   723	001250'	012000	004750'	06460	        TYPE    [ASCIZ "OLD SYS FILES:"]
   724	001251'	135040	001206'	06470	        LDB     R1,MSYPTR       ;GET SYS MODE
   725	001252'	260740	001271'	06480	        PUSHJ   P,TYPOM         ;TYPE OLD FILE MODE
   726	001253'	332000	000000*	06490	        SKIPE UPDFLG##
   727	001254'	012000	004753'	06500	        TYPE [ASCIZ"UPDATE MODE SET$"]
   728	001255'	332000	000000*	06510	        SKIPE PRAFLG##
   729	001256'	012000	004757'	06520	        TYPE [ASCIZ"DISC SPACE TO BE PREALLOCATED$"]
   730	001257'	332000	000000*	06530	        SKIPE FLGOFF##
   731	001260'	012000	004766'	06540	        TYPE [ASCIZ"FILES RESTORED WILL BE MARKED AS DUMPED$"]
   732	001261'	254000	000370'	06550	        JRST    CDISP           ;RETURN TO COMMAND DISPATCHER
   733
   734	001262'	306040	000000	06570	TYPSRM: CAIN    R1,MSMTOT       ;SKIP IF NOT TOTALS
   735	001263'	012000	004777'	06580	        TYPE    [ASCIZ "TOTALS$"]
   736	001264'	306040	000002	06590	        CAIN    R1,MSMUSR       ;SKIP IF NOT USERS
   737	001265'	012000	005001'	06600	        TYPE    [ASCIZ "USERS$"]
   738	001266'	306040	000003	06610	        CAIN    R1,MSMFIL       ;SKIP IF NOT FILES
   739	001267'	012000	005003'	06620	        TYPE    [ASCIZ "FILES$"]
   740	001270'	263740	000000	06630	        POPJ    P,              ;RETURN FROM TYPSRM
   741
CMD     03/21/74	MACRO 12.5-46.0 17:25 13-JAN-81 PAGE 1-13
CMD.MAC	23-MAR-79 11:42

   742	001271'	306040	000000	06650	TYPOM:  CAIN    R1,MOMNEW       ;SKIP IF NOT NEWEST
   743	001272'	012000	005005'	06660	        TYPE    [ASCIZ "NEWEST$"]
   744	001273'	306040	000001	06670	        CAIN    R1,MOMTAP       ;SKIP IF NOT TAPE
   745	001274'	012000	005007'	06680	        TYPE    [ASCIZ "TAPE$"]
   746	001275'	306040	000002	06690	        CAIN    R1,MOMDIS       ;SKIP IF NOT DISC
   747	001276'	012000	005011'	06700	        TYPE    [ASCIZ "DISC$"]
   748	001277'	306040	000003	06710	        CAIN    R1,MOMCON       ;SKIP IF NOT CONFIRM
   749	001300'	012000	005013'	06720	        TYPE    [ASCIZ "CONFIRM$"]
   750	001301'	263740	000000	06730	        POPJ    P,              ;RETURN FROM TYPOM
   751
   752	001302'	201140	000160'	06750	NEWROU: MOVEI R3,COMBUF ;NEEDED AT CDLP0
   753	001303'	302340	000013	06760	        CAIE CT,SP              ;MUST HAVE SPACE AFTER "NEW"
   754	001304'	254000	000762'	06770	        JRST CDLP0
   755	001305'	260740	003444'	06780	        PUSHJ P,READKW          ;INITIALIZE NEW TAPE FOR STORE
   756	001306'	020140	001327'	06790	        SSKE    R3,TAPSTG       ;KLUDGE FOR DOUBLE KEYWORD "NEW TAPE"
   757	001307'	254000	001323'	06800	        JRST    NEWR3
   758	001310'	335000	000001*	06810	        SKIPGE SENTAB+1
   759	001311'	254000	001333'	06820	        JRST APPR9
   760	001312'	603400	000000*	06830	        TLNE    F,INIFLG
   761	001313'	015000	005015'	06840	        ERROR   [ASCIZ"TAPE ALREADY INITIALIZED"]
   762	001314'	023000	005027'	06850	        ERT [XWD[NEWR2],[ASCIZ"ARE YOU SURE?_F_G"]]
   763	001315'	010000	005030'	06860	NEWR1A::TCO [77]        ;ENTRY PT FROM CUT CODE
   764	001316'	010000	004623'	06870	        TCO [CRCHR]
   765	001317'	254000	000361'	06880	        JRST CLDSP
   766	001320'	260740	000000*	06890	NEWR2:  PUSHJ   P,REWWAI##      ;REWIND TAPE AND WAIT
   767	001321'	661400	001312*	06900	        TLO     F,INIFLG##      ;TAPE INITIALIZED
   768	001322'	254000	000370'	06910	        JRST    CDISP
   769	001323'	201040	000160'	06920	NEWR3:  MOVEI R1,COMBUF
   770	001324'	012001	000000	06930	        TYPE (R1)
   771	001325'	010000	004670'	06940	        TCO [40]
   772	001326'	254000	000762'	06950	        JRST CDLP0
   773
   774	001327'	522032	042400	06970	TAPSTG: ASCIZ "TAPE"
   775	001330'	536451	152212	06980	WRISTG: ASCIZ "WRITE"
	001331'	000000	000000
   776
   777	001332'	335000	000001*	07000	APPROU::SKIPGE SENTAB##+1
   778	001333'	015000	005031'	07010	APPR9:  ERROR [ASCIZ"TAPE NEEDS A WRITE RING"]
   779	001334'	606400	000000*	07020	        TRNN F,EOTFLG##         ;ARE WE AT LOGICAL EOT
   780	001335'	260740	001320*	07030	        PUSHJ   P,REWWAI        ;NO, WHO KNOWS WHERE
   781	001336'	200000	005036'	07040	        MOVE    R0,[XWD 377777,777777]
   782	001337'	254000	000000*	07050	        JRST    SKITRM##        ;LIKE SKIP END
   783
   784	001340'	302340	000013	07070	SKIROU: CAIE CT,SP              ;LOOK FOR SPACE AFTER "SKIP"
   785	001341'	254000	001351'	07080	        JRST SKI1               ;NONE
   786	001342'	002340	000004	07090	        TCL     CT,CH           ;LOOK AHEAD FOR "W"
   787	001343'	302200	000127	07100	        CAIE CH,127
   788	001344'	254000	001351'	07110	        JRST SKI1
   789	001345'	260740	003444'	07120	        PUSHJ P,READKW
   790	001346'	020140	001330'	07130	        SSKE R3,WRISTG          ;KEYWORD "WRITE"
   791	001347'	254000	001323'	07140	        JRST NEWR3
   792	001350'	201100	001350'	07150	SKI2::  MOVEI R2,SKI2
   793	001351'	336000	003576'	07160	SKI1:   SKIPN   EOLFLG          ;SKIP IF NO NEED TO PROMPT
CMD     03/21/74	MACRO 12.5-46.0 17:25 13-JAN-81 PAGE 1-14
CMD.MAC	23-MAR-79 11:42

   794	001352'	012000	005037'	07170	        TYPE    [ASCIZ "NUMBER OF SAVE SETS TO SKIP (DECIMAL): "]
   795	001353'	400000	000000	07180	        SETZ    R0,             ;ZERO THE ACCUMULATOR
   796	001354'	001340	000004	07190	SKILUP: TCI     CT,CH           ;READ IN THE NEXT CHAR
   797	001355'	306340	000012	07200	        CAIN    CT,TE           ;SKIP IF NOT A TERMINATOR
   798	001356'	254000	001337*	07210	        JRST    SKITRM          ;END OF LINE
   799	001357'	306200	000105	07220	        CAIN    CH,ECHR         ;SKIP IF NOT CHAR E
   800	001360'	254000	001367'	07230	        JRST    SKIEND          ;SKIP TO END OF TAPE
   801	001361'	302340	000002	07240	        CAIE    CT,NU           ;SKIP IF IT'S A DIGIT
   802	001362'	015000	005047'	07250	        ERROR   [ASCIZ "INVALID CHARACTER"]
   803	001363'	221000	000012	07260	        IMULI   R0,12           ;MULTIPLY ACCUMULATOR BY TEN
   804	001364'	271004	000000	07270	        ADDI    R0,(CH)         ;ADD TO ACCUMULATOR
   805	001365'	275000	000060	07280	        SUBI    R0,60           ;CONVERT CHAR TO DIGIT
   806	001366'	254000	001354'	07290	        JRST    SKILUP          ;GET NEXT DIGIT
   807	001367'	200000	005036'	07300	SKIEND: MOVE    R0,[XWD 377777,777777] ;HIGHEST POSSIBLE NUMBER
   808	001370'	001340	000004	07310	        TCI     CT,CH           ;READ NEXT CHARACTER
   809	001371'	302340	000012	07320	        CAIE    CT,TE           ;SKIP IF IT'S A TERMINATOR
   810	001372'	254000	001370'	07330	        JRST    .-2             ;LOOP
   811	001373'	254000	001356*	07340	        JRST    SKITRM##        ;GO TO SKIP ROUTINE IN TAPE PACKAGE
   812
   813	001374'	476000	000422*	07360	CHAROU: SETOM   CHANGD          ;LOOKING ONLY FOR CHANGED FILES
   814	001375'	254000	001100'	07370	        JRST    CHARET          ;FINISH PROCESSING COMMAND
   815
   816	001376'	201040	000003	07390	THRROU: MOVEI   R1,3
   817	001377'	254000	001401'	07400	        JRST .+2
   818	001400'	201040	000002	07410	TWIROU: MOVEI   R1,2
   819	001401'	202040	000000*	07420	        MOVEM   R1,RPTCNT##     ;REPEAT COUNT FOR STORE
   820	001402'	661400	000000*	07430	        TLO     F,RPTFLG##
   821	001403'	254000	001100'	07440	        JRST CHARET
   822
   823				07460	; CODE SUPPORTING FILE POSITION RANGE
   824
   825				07480	;ALPHA - DISTINGUISH BETWEEN "G" FOR GAN OR RANGE OF GANS
   826				07490	;       AND "P" FOR RANGE OF POSITIONS.  IF NEITHER STATE
   827				07500	;       IS KN2 - KEYWORD PARTIALLY READ.
   828	001404'	306200	000107	07510	CHKGP:  CAIN CH,107
   829	001405'	254000	001417'	07520	        JRST CHKG
   830	001406'	302200	000120	07530	        CAIE CH,120
   831	001407'	254000	000502'	07540	        JRST STOCHR     ;STATE IS KN2
   832	001410'	201300	000040	07550	        MOVEI S,PP2
   833	001411'	201000	001450'	07560	PNU:    MOVEI R0,PTE1
   834	001412'	202000	001444'	07570	        MOVEM PTEP
   835	001413'	260740	001457'	07580	        PUSHJ P,RANZ
   836	001414'	660400	000000*	07590	        TRO F,RANCMD    ;RANGE PRE-ENTERED FROM COMMAND DISPATCHER
   837	001415'	201200	000101	07600	        MOVEI CH,101    ;FAKE KEYWORD "ALL"
   838	001416'	254000	000502'	07610	        JRST STOCHR
   839	001417'	201300	000002	07620	CHKG:   MOVEI S,GA2
   840	001420'	254000	000442'	07630	        JRST NXTCHR
   841				07640	;TERMINATOR
   842	001421'	260760	001444'	07650	PTE:    PUSHJ P,@PTEP
   843	001422'	254000	000562'	07660	        JRST TRMEOL
   844				07670	;SPACE
   845	001423'	260760	001444'	07680	PSP:    PUSHJ P,@PTEP
   846	001424'	254000	000563'	07690	        JRST TRMNAT
CMD     03/21/74	MACRO 12.5-46.0 17:25 13-JAN-81 PAGE 1-15
CMD.MAC	23-MAR-79 11:42

   847				07700	;DASH
   848	001425'	201000	000000	07710	PXA:    MOVEI R0,0
   849	001426'	250000	003575'	07720	        EXCH R0,ACMLTR
   850	001427'	202000	001522'	07730	        MOVEM N1
   851	001430'	201000	001445'	07740	        MOVEI R0,PTE2
   852	001431'	202000	001444'	07750	        MOVEM PTEP
   853	001432'	254000	000442'	07760	        JRST NXTCHR
   854				07770	;COMMA
   855	001433'	260760	001444'	07780	PCO:    PUSHJ P,@PTEP
   856	001434'	201000	001450'	07790	        MOVEI R0,PTE1
   857	001435'	202000	001444'	07800	        MOVEM PTEP
   858	001436'	254000	000442'	07810	        JRST NXTCHR
   859				07820	; "E" AS FIRST CHAR OF 2ND PART OF RANGE
   860	001437'	302200	000105	07830	PEN:    CAIE CH,105
   861	001440'	254000	003304'	07840	        JRST ILCH
   862	001441'	201000	021777	07850	        MOVEI RANSIZ*44-1
   863	001442'	202000	003575'	07860	        MOVEM ACMLTR
   864	001443'	254000	000442'	07870	        JRST NXTCHR
   865				07880	; CODE TO SET BITS IN RANGE BITMAP.  POINTED TO BY PTEP.
   866	001444'	254000	001450'	07890	PTEP:   JRST PTE1
   867	001445'	201000	000000	07900	PTE2:   MOVEI R0,0
   868	001446'	250000	003575'	07910	        EXCH R0,ACMLTR
   869	001447'	254000	001453'	07920	        JRST PTE3
   870	001450'	201000	000000	07930	PTE1:   MOVEI R0,0
   871	001451'	250000	003575'	07940	        EXCH R0,ACMLTR
   872	001452'	202000	001522'	07950	        MOVEM N1
   873	001453'	202000	001523'	07960	PTE3:   MOVEM N2
   874	001454'	260740	001474'	07970	        PUSHJ P,SETN12  ;SET FROM N1 TO N2 TO ONE
   875	001455'	015000	005053'	07980	        ERROR [ASCIZ"SELECTED POSITION OUT OF BOUNDS"]
   876	001456'	263740	000000	07990	        POPJ P,
   877
   878				08010	; SET RANGE TO ZEROES
   879
   880	001457'	400000	000000	08030	RANZ::  SETZ R0,
   881	001460'	200040	005036'	08040	        MOVE R1,[377777,,777777]
   882	001461'	402000	001526'	08050	        SETZM RANGE
   883	001462'	202000	001525'	08060	RANO1:  MOVEM RANLAS
   884	001463'	202040	001524'	08070	        MOVEM R1,RANFST
   885	001464'	505040	001526'	08080	        HRLI R1,RANGE
   886	001465'	541040	001527'	08090	        HRRI R1,RANGE+1
   887	001466'	251040	002125'	08100	        BLT R1,RANGE+RANSIZ-1   ;SET RANGE TO ZEROES
   888	001467'	263740	000000	08110	        POPJ P,
   889
   890				08130	; SET RANGE TO ONES
   891
   892	001470'	476000	001526'	08150	RANO::  SETOM RANGE             ;SET RANGE TO ONE'S
   893	001471'	201000	021777	08160	        MOVEI R0,RANSIZ*44-1
   894	001472'	201040	000001	08170	        MOVEI R1,1
   895	001473'	254000	001462'	08180	        JRST RANO1
   896
   897				08200	; SET BIT IN RANGE BITMAP FOR N=N1 TO N2
   898				08210	; SKIP RETURN UNLESS N1 OR N2 OUT OF BOUNDS OR N1>N2
   899
CMD     03/21/74	MACRO 12.5-46.0 17:25 13-JAN-81 PAGE 1-16
CMD.MAC	23-MAR-79 11:42

   900	001474'	200000	001522'	08230	SETN12::MOVE N1
   901	001475'	307000	021777	08240	        CAIG RANSIZ*44-1
   902	001476'	307000	000000	08250	        CAIG 0
   903	001477'	263740	000000	08260	        POPJ P,
   904	001500'	317000	001524'	08270	        CAMG RANFST
   905	001501'	202000	001524'	08280	        MOVEM RANFST
   906	001502'	200000	001523'	08290	        MOVE N2
   907	001503'	307000	021777	08300	        CAIG RANSIZ*44-1
   908	001504'	315000	001522'	08310	        CAMGE N1
   909	001505'	263740	000000	08320	        POPJ P,
   910	001506'	311000	001525'	08330	        CAML RANLAS
   911	001507'	202000	001525'	08340	        MOVEM RANLAS
   912	001510'	350017	000000	08350	        AOS (P)         ;FOR SKIP RETURN
   913	001511'	200040	001522'	08360	SETN:   MOVE R1,N1
   914	001512'	313040	001523'	08370	        CAMLE R1,N2
   915	001513'	263740	000000	08380	        POPJ P,                 ;DONE
   916	001514'	231040	000044	08390	        IDIVI R1,44
   917	001515'	201000	000001	08400	        MOVEI R0,1
   918	001516'	242002	000000	08410	        LSH 0,(R2)
   919	001517'	436001	001526'	08420	        IORM 0,RANGE(R1)
   920	001520'	350000	001522'	08430	        AOS N1
   921	001521'	254000	001511'	08440	        JRST SETN
   922	001522'	000000	000000	08450	N1:: 0
   923	001523'	000000	000000	08460	N2:: 0
   924	001524'	000000	000000	08470	RANFST:: 0      ;LOWER BOUND OF SELECTED RANGE
   925	001525'	000000	000000	08480	RANLAS:: 0      ;UPPER BOUND OF SELECTED RANGE
   926	001526'			08490	RANGE::BLOCK RANSIZ
   927
   928				08510	; CODE TO HANDLE TRANSLATION OF TAPE USER NAMES
   929
   930			000020	08530	TRTM==20        ;NO OF ENTRIES
   931	002126'			08540	TRT: BLOCK 3*TRTM
   932	002206'	000000	000000	08550	TRTS: 0
   933	002207'	000000	000000	08560	TRTN: 0
   934	002210'	000000	000000	08570	TRTPTR: 0
   935				08580	; UNTRANSLATE
   936	002211'	620400	000430*	08590	UNTROU: TRZ F,TRTFG3  ;ALLOW DISPATCHER TO CLEAR TRTFLG
   937	002212'	254000	000370'	08600	        JRST CDISP
   938				08610	; TRANSLATE
   939	002213'	201040	000002	08620	TRAROU: MOVEI R1,2
   940	002214'	554001	003461'	08630	        HLRZ R0,CTABL2(R1)
   941	002215'	336000	001034*	08640	        SKIPN STRPPN
   942	002216'	302000	000002	08650	        CAIE R0,2
   943	002217'	015000	005062'	08660	        ERROR [ASCIZ"EXPECTED LIST OF USER NAMES"]
   944	002220'	606400	000000*	08670	        TRNN F,TRTFG2 ;TRANSLATIONS ENTERED
   945	002221'	015000	005070'	08680	        ERROR [ASCIZ"NO TRANSLATIONS ENTERED"]
   946	002222'	660400	000000*	08690	        TRO F,TRTFLG+TRTFG3
   947	002223'	254000	000370'	08700	        JRST CDISP
   948				08710	; BACK ARROW READ
   949	002224'	302200	000137	08720	T137A:  CAIE CH,BARROW
   950	002225'	254000	003304'	08730	        JRST ILCH
   951	002226'	202300	002206'	08740	        MOVEM S,TRTS
   952	002227'	201300	000046	08750	        MOVEI S,TD2
CMD     03/21/74	MACRO 12.5-46.0 17:25 13-JAN-81 PAGE 1-17
CMD.MAC	23-MAR-79 11:42

   953	002230'	620400	000000*	08760	        TRZ F,TRTFG3+TRTFLG##  ;TRANSLATION TABLE NOT YET COMPLETE
   954	002231'	201000	000001	08770	        MOVEI R0,1
   955	002232'	137000	005075'	08780	        DPB R0,[XWD TRTF##,ACMLTR]
   956	002233'	666400	002220*	08790	        TRON F,TRTFG2## ;FLAG FOR DISPATCHER TO CLEAR TRT ONLY ONCE
   957	002234'	260740	002271'	08800	        PUSHJ P,CLRTRT  ;CLEAR TRT
   958	002235'	200100	005076'	08810	        MOVE R2,[-TRTM,,TRT]
   959	002236'	200002	000000	08820	T137C:  MOVE R0,(R2)
   960	002237'	302000	000000	08830	        CAIE R0,0
   961	002240'	316000	000557*	08840	        CAMN R0,CPPN
   962	002241'	254000	002246'	08850	        JRST T137B      ;FOUND EMPTY ENTRY OR MATCH
   963	002242'	350000	000002	08860	        AOS R2
   964	002243'	350000	000002	08870	        AOS R2
   965	002244'	253100	002236'	08880	        AOBJN R2,T137C
   966	002245'	015000	005077'	08890	        ERROR [ASCIZ"TRANSLATION TABLE FULL"]
   967	002246'	200000	002240*	08900	T137B:  MOVE CPPN##
   968	002247'	202002	000000	08910	        MOVEM R0,(R2)   ;STORE PPN
   969	002250'	542100	003575'	08920	        HRRM R2,ACMLTR  ;SAVE TRT PTR IN COMMAND LIST
   970	002251'	505100	000600	08930	        HRLI R2,0600
   971	002252'	202100	002210'	08940	        MOVEM R2,TRTPTR ;CALC SIXBIT PTR FOR TAPE NAME
   972	002253'	201000	000014	08950	        MOVEI R0,14
   973	002254'	202000	002207'	08960	        MOVEM TRTN
   974	002255'	254000	000442'	08970	        JRST NXTCHR
   975				08980	; LEFT PAREN READ
   976	002256'	302200	000050	08990	T137LP: CAIE CH,LPAREN
   977	002257'	254000	003304'	09000	        JRST ILCH
   978	002260'	254000	000442'	09010	        JRST NXTCHR
   979				09020	; CHAR OF TAPE USER NAME READ
   980	002261'	275200	000040	09030	TRTCHR: SUBI CH,40      ;CONV TO SIXBIT
   981	002262'	371000	002207'	09040	        SOSL TRTN       ;KEEP FIRST 12 CHARS
   982	002263'	136200	002210'	09050	        IDPB CH,TRTPTR  ;DEPOSIT IN TRT
   983	002264'	254000	000442'	09060	        JRST NXTCHR
   984				09070	; RETURN TO LIST OF PPN'S IF NECESSARY
   985	002265'	200000	002206'	09080	TRST:   MOVE TRTS
   986	002266'	306000	000021	09090	        CAIN R0,PR2
   987	002267'	201300	000051	09100	        MOVEI S,TR2
   988	002270'	254000	000442'	09110	        JRST NXTCHR
   989
   990				09130	; CLEAR TRANSLATION TABLE
   991
   992	002271'	402000	002126'	09150	CLRTRT: SETZM TRT
   993	002272'	505040	002126'	09160	        HRLI R1,TRT
   994	002273'	541040	002127'	09170	        HRRI R1,TRT+1
   995	002274'	251040	002205'	09180	        BLT R1,TRT+3*TRTM-1
   996	002275'	263740	000000	09190	        POPJ P,
   997				09200	; SEARCH FOR CURUN1,CURUN2 IN TRANSLATION TABLE
   998
   999	002276'	200100	005076'	09220	FINUN:: MOVE R2,[-TRTM,,TRT]
  1000	002277'	200002	000000	09230	FINUN0: MOVE R0,(R2)
  1001	002300'	306000	000000	09240	        CAIN R0,0
  1002	002301'	263740	000000	09250	        POPJ P,
  1003	002302'	200002	000001	09260	        MOVE R0,1(R2)
  1004	002303'	312000	000000*	09270	        CAME CURUN1##
  1005	002304'	254000	002310'	09280	        JRST FINUN1
CMD     03/21/74	MACRO 12.5-46.0 17:25 13-JAN-81 PAGE 1-18
CMD.MAC	23-MAR-79 11:42

  1006	002305'	200002	000002	09290	        MOVE R0,2(R2)
  1007	002306'	316000	000000*	09300	        CAMN CURUN2##
  1008	002307'	254000	002314'	09310	        JRST FINUN2
  1009	002310'	350000	000002	09320	FINUN1: AOS R2
  1010	002311'	350000	000002	09330	        AOS R2
  1011	002312'	253100	002277'	09340	        AOBJN R2,FINUN0
  1012	002313'	263740	000000	09350	        POPJ P,
  1013	002314'	350017	000000	09360	FINUN2: AOS (P)
  1014	002315'	200002	000000	09370	        MOVE R0,(R2)    ;PPN
  1015	002316'	263740	000000	09380	        POPJ P,
  1016
  1017	002317'			09400	COFENT: BLOCK   4               ;TABLE FOR ENTER
  1018			002322'	09410	COFENE= COFENT+3
  1019
  1020	002323'	000000	000000	09430	COFFIL: 0
  1021	002324'	000000	000000	09440	COFEXN: 0
  1022	002325'	000000	000000	09450	        0                       ;PROT-TIME-DATE FOR ENTER
  1023	002326'	000000	000000	09460	        0                       ;PPN FOR ENTER
  1024	002327'	777774	002330'	09470	DEVWRD: XWD     DEVTAB-DEVTBE,DEVTAB
  1025	002330'	003061'	005104'	09480	DEVTAB: XWD     PRIDEV,[ASCIZ "PRINTER"]
  1026	002331'	003061'	005106'	09490	        XWD     PRIDEV,[ASCIZ"LPT:"]
  1027				09500	;*      XWD     NOTDEV,[ASCIZ "NOTHING"]
  1028	002332'	000370'	005107'	09510	        XWD     CDISP,[ASCIZ "TERMINAL"]
  1029	002333'	000370'	005111'	09520	        XWD     CDISP,[ASCIZ "TELETYPE"]
  1030	002334'			09530	DEVTBE: BLOCK   0
  1031	002334'			09540	COFXBF: BLOCK   203*2           ;*LET'S HOPE THIS IS RIGHT
  1032	002742'	000000	000000	09550	COFSTS: 0                       ;COF STATUS WORD
  1033	002743'	000000	000000	09560	COFDEV: 0                       ;COF DEVICE WORD
  1034	002744'	000000	000000	09570	COFBUF: 0                       ;COF BUFFER WORD
  1035			000001	09580	AL==1
  1036			000002	09590	COF==2
  1037			000002	09600	COFN==2
  1038
  1039				09620	;*THIS THING IS A KLUDGE AND SHOULD BE REDONE ASAP
  1040				09630	;*IT SHOULD BE ABLE TO ACCESS FILES IN OTHER DIRECTORIES
  1041	002745'	260740	000000*	09640	COFROU: PUSHJ P,COFRLS##        ;CLOSE CURRENT COF FILE
  1042	002746'	336000	003576'	09650	        SKIPN   EOLFLG          ;SKIP IF NO NEED TO PROMPT
  1043	002747'	012000	005113'	09660	        TYPE    [ASCIZ "TO FILE: "]
  1044	002750'	201000	002334'	09670	        MOVEI   R0,COFXBF       ;ADDRESS OF COF BUFFER
  1045	002751'	202000	000000*	09680	        MOVEM   R0,JOBFF##      ;THIS IS WHERE BUFFER SHOULD GO
  1046	002752'	201000	000001	09690	        MOVEI   R0,AL           ;ASCII LINE MODE
  1047	002753'	202000	002742'	09700	        MOVEM   R0,COFSTS       ;SAVE THE STATUS
  1048	002754'	205000	000000*	09710	        MOVSI   R0,COFHED##     ;CHANGE OUTPUT FILE BUFFER HEADER
  1049	002755'	202000	002744'	09720	        MOVEM   R0,COFBUF       ;ADDRESS OF OUTPUT BUFFER
  1050	002756'	200140	004722'	09730	        MOVE    R3,[XWD 0600,R2-1]
  1051	002757'	400100	000000	09740	        SETZ    R2,             ;FILE NAME TO BE READ
  1052	002760'	201000	000006	09750	        MOVEI   R0,6            ;SIX CHAR IN FILE NAME
  1053	002761'	001340	000004	09760	COFCHR: TCI     CT,CH           ;READ A CHAR OF FILE NAME
  1054	002762'	306340	000012	09770	        CAIN    CT,TE           ;SKIP IF NOT A CARRIAGE RETURN
  1055	002763'	254000	003007'	09780	        JRST    COFTRM          ;END OF LINE
  1056	002764'	006200	000155'	09790	        WCI     CH,COMPTR       ;WRITE CHAR TO STRING
  1057	002765'	015000	005115'	09800	        ERROR   [ASCIZ "TOO MANY CHARACTERS IN COMMAND"]
  1058	002766'	306340	000007	09810	        CAIN    CT,EX           ;SKIP IF NOT DOT
CMD     03/21/74	MACRO 12.5-46.0 17:25 13-JAN-81 PAGE 1-19
CMD.MAC	23-MAR-79 11:42

  1059	002767'	254000	002774'	09820	        JRST    COFEXT          ;START READING EXTENSION
  1060	002770'	361000	002761'	09830	        SOJL    R0,COFCHR       ;JUMP IF SIX CHAR READ
  1061	002771'	275200	000040	09840	        SUBI    CH,40           ;CONVERT TO SIXBIT
  1062	002772'	136200	000003	09850	        IDPB    CH,R3           ;ADD CHAR TO FILE NAME
  1063	002773'	254000	002761'	09860	        JRST    COFCHR          ;LOOP
  1064	002774'	202100	002323'	09870	COFEXT: MOVEM   R2,COFFIL       ;SAVE THE FILE NAME
  1065	002775'	400100	000000	09880	        SETZ    R2,             ;ZERO THE EXTENSION
  1066	002776'	200140	004722'	09890	        MOVE    R3,[XWD 0600,R2-1]
  1067	002777'	201000	000003	09900	        MOVEI   R0,3            ;READ THREE CHAR FOR EXTENSION
  1068	003000'	001340	000004	09910	COFXCH: TCI     CT,CH           ;READ A CHAR OF EXTENSION
  1069	003001'	306340	000012	09920	        CAIN    CT,TE           ;SKIP IF NOT CR ETC
  1070	003002'	254000	003011'	09930	        JRST    COFXTR          ;END OF EXTENSION
  1071	003003'	361000	003000'	09940	        SOJL    R0,COFXCH       ;JUMP IF THREE CHAR READ
  1072	003004'	275200	000040	09950	        SUBI    CH,40           ;CONVERT CHARACTER TO SIXBIT
  1073	003005'	136200	000003	09960	        IDPB    CH,R3           ;ADD CHAR TO EXTENSION
  1074	003006'	254000	003000'	09970	        JRST    COFXCH          ;LOOP
  1075
  1076	003007'	202100	002323'	09990	COFTRM: MOVEM   R2,COFFIL       ;SAVE THE FILE NAME
  1077	003010'	400100	000000	10000	        SETZ    R2,             ;ZERO THE EXTENSION
  1078	003011'	202100	002324'	10010	COFXTR: MOVEM   R2,COFEXN       ;SAVE THE EXTENSION
  1079	003012'	201040	000000	10020	        MOVEI   R1,EOLIT        ;TERMINATE STRING
  1080	003013'	006040	000155'	10030	        WCI     R1,COMPTR       ;ADD IT TO STRING
  1081	003014'	015000	005115'	10040	        ERROR   [ASCIZ "TOO MANY CHARACTERS IN COMMAND"]
  1082	003015'	200040	002327'	10050	        MOVE    R1,DEVWRD       ;LOOP CONTROL WORD
  1083	003016'	200140	000155'	10060	        MOVE    R3,COMPTR       ;STRING WE JUST READ
  1084	003017'	271140	000001	10070	        ADDI    R3,1            ;POINT TO STRING
  1085	003020'	200101	000000	10080	COFLUP: MOVE    R2,(R1)         ;GET ADDRESS OF STRING TO COMPARE
  1086	003021'	020142	000000	10090	        SSKE    R3,(R2)         ;SKIP IF STRINGS MATCH
  1087	003022'	253040	003020'	10100	        AOBJN   R1,COFLUP       ;LOOP IF NOT DONE
  1088	003023'	204101	000000	10110	        MOVS    R2,(R1)         ;GET ADDRESS TO GO TO
  1089	003024'	321042	000000	10120	        JUMPL   R1,(R2)         ;GO THERE IF STRINGS MATCHED
  1090	003025'	205040	446353	10130	        MOVSI   R1,(SIXBIT /DSK/)
  1091	003026'	202040	002743'	10140	        MOVEM   R1,COFDEV       ;DEVICE IS DISC
  1092	003027'	050100	002742'	10150	        OPEN    COF,COFSTS      ;INIT THE DEVICE
  1093	003030'	015000	005124'	10160	        ERROR   [ASCIZ "CANNOT ACCESS DEVICE"]
  1094	003031'	065100	000002	10170	        OUTBUF  COF,COFN        ;SET UP BUFFERS
  1095	003032'	200040	005131'	10180	        MOVE    R1,[XWD COFFIL,COFENT]
  1096	003033'	251040	002322'	10190	        BLT     R1,COFENE       ;SET UP TABLE FOR LOOKUP
  1097	003034'	076100	002317'	10200	        LOOKUP  COF,COFENT      ;SEE IF IT'S ALREADY THERE
  1098	003035'	254000	003055'	10210	        JRST    COFNEW          ;IT'S A NEW FILE
  1099	003036'	012000	005132'	10220	        TYPE    [ASCIZ "OLD FILE "]
  1100	003037'	070100	000000	10230	        CLOSE   COF,            ;CLOSE THE FILE WE JUST OPENED
  1101	003040'	001340	000004	10240	COFTST: TCI     CT,CH
  1102	003041'	254000	003043'	10250	        JRST    .+2
  1103	003042'	001340	000004	10260	        TCI     CT,CH
  1104	003043'	302340	000012	10270	        CAIE    CT,TE
  1105	003044'	254000	003042'	10280	        JRST    .-2
  1106	003045'	302200	000015	10290	        CAIE    CH,CRCHR
  1107	003046'	254000	003057'	10300	        JRST    COFABT
  1108	003047'	200040	005131'	10310	        MOVE    R1,[XWD COFFIL,COFENT]
  1109	003050'	251040	002322'	10320	        BLT     R1,COFENE       ;SET UP TABLE FOR ENTER
  1110	003051'	077100	002317'	10330	        ENTER   COF,COFENT
  1111	003052'	015000	005134'	10340	        ERROR   [ASCIZ "UNABLE TO DO ENTER ON FILE"]
CMD     03/21/74	MACRO 12.5-46.0 17:25 13-JAN-81 PAGE 1-20
CMD.MAC	23-MAR-79 11:42

  1112	003053'	476000	000000*	10350	COFRET: SETOM COUT##            ;OUTPUT TO MEDIUM
  1113	003054'	254000	000370'	10360	        JRST    CDISP
  1114	003055'	012000	005142'	10370	COFNEW: TYPE    [ASCIZ "NEW FILE "]
  1115	003056'	254000	003040'	10380	        JRST    COFTST
  1116	003057'	071100	000000	10390	COFABT: RELEASE COF,
  1117	003060'	254000	000370'	10400	        JRST    CDISP
  1118	003061'	205040	546064	10410	PRIDEV: MOVSI   R1,(SIXBIT /LPT/)
  1119	003062'	202040	002743'	10420	        MOVEM   R1,COFDEV
  1120	003063'	050100	002742'	10430	        OPEN    COF,COFSTS
  1121	003064'	015000	005144'	10440	        ERROR   [ASCIZ "UNABLE TO ACCESS THE LINE PRINTER"]
  1122	003065'	065100	000002	10450	        OUTBUF COF,COFN ;PUT OUT RING BEFORE JOBFF IS CHANGED
  1123	003066'	660400	000000*	10460	        TRO F,LPTFLG##          ;NOW USING LPT:
  1124	003067'	254000	003053'	10470	        JRST    COFRET
  1125
  1126	003070'	406152	442644	10490	AFTSTR: ASCIZ   "AFTER"
	003071'	000000	000000
  1127	003072'	412130	647644	10500	BEFSTR: ASCIZ   "BEFORE"
	003073'	424000	000000
  1128
  1129	003074'	260740	003444'	10520	CREROU: PUSHJ   P,READKW        ;READ IN A KEYWORD
  1130	003075'	020140	003072'	10530	        SSKE    R3,BEFSTR       ;SKIP IF HE TYPED "BEFORE"
  1131	003076'	334000	000000	10540	        SKIPA                   ;SKIP ALWAYS
  1132	003077'	015000	005153'	10550	        ERROR   [ASCIZ "BEFORE IS NOT YET IMPLEMENTED."]
  1133	003100'	020140	003070'	10560	        SSKE    R3,AFTSTR       ;SKIP IF HE TYPED "AFTER"
  1134	003101'	015000	005162'	10570	        ERROR   [ASCIZ "INVALID PARAMETER TYPED."]
  1135	003102'	306340	000012	10580	        CAIN    CT,TE           ;SKIP IF NOT TERMINATED BY A CR
  1136	003103'	012000	005167'	10590	        TYPE    [ASCIZ "TYPE DATE AS HH:MM DD MON YY: "]
  1137	003104'	350040	000155'	10600	        AOS     R1,COMPTR       ;GET ADDRESS OF CURRENT STRING
  1138	003105'	260740	003407'	10610	        PUSHJ   P,SPTR          ;RETURN THE SPACE
  1139	003106'	260740	001074*	10620	        PUSHJ   P,RDDNUM##      ;READ HOURS
  1140	003107'	200140	000000	10630	        MOVE    R3,R0           ;SAVE HOURS IN R3
  1141	003110'	302200	000072	10640	        CAIE    CH,COLON        ;SKIP IF TERMINATED BY A COLON
  1142	003111'	015000	005176'	10650	        ERROR   [ASCIZ "HOURS MUST BE TERMINATED BY A COLON."]
  1143	003112'	301140	000030	10660	        CAIL    R3,30           ;SKIP IF HOURS LESS THAN TWENTY-FOUR
  1144	003113'	015000	005206'	10670	        ERROR   [ASCIZ "HOURS MUST BE LESS THAN 24"]
  1145	003114'	221140	000074	10680	        IMULI   R3,74           ;CONVERT HOURS TO MINUTES
  1146	003115'	260740	003106*	10690	        PUSHJ   P,RDDNUM        ;READ MINUTES
  1147	003116'	301000	000074	10700	        CAIL    R0,74           ;SKIP IF MINUTES LESS THAN SIXTY
  1148	003117'	015000	005214'	10710	        ERROR   [ASCIZ "MINUTES MUST BE LESS THAN 60."]
  1149	003120'	270140	000000	10720	        ADD     R3,R0           ;ADD MINUTES TO HOURS
  1150	003121'	220140	000000*	10730	        IMUL    R3,JIFFPM##     ;CONVERT TO JIFFIES
  1151	003122'	202140	000000*	10740	        MOVEM   R3,CNVTIM##     ;SAVE CREATION TIME
  1152	003123'	306340	000012	10750	        CAIN    CT,TE           ;SKIP IF TERMINATED WITH A CR
  1153	003124'	254000	003212'	10760	        JRST    CREDMY          ;USE CURRENT DAY-MONTH-YEAR
  1154	003125'	302340	000013	10770	        CAIE    CT,SP           ;SKIP IF TERMINATED WITH A SPACE
  1155	003126'	015000	005222'	10780	        ERROR   [ASCIZ "TIME MUST BE TERMINATED WITH A SPACE OR CARRIAGE RETURN."]
  1156	003127'	260740	003115*	10790	        PUSHJ   P,RDDNUM        ;READ DAY OF MONTH
  1157	003130'	302000	000000	10800	        CAIE    R0,0            ;SKIP IF IT'S ZERO
  1158	003131'	301000	000040	10810	        CAIL    R0,40           ;SKIP IF DAY LESS THAN 32
  1159	003132'	015000	005236'	10820	        ERROR   [ASCIZ "DAY MUST BE IN THE RANGE 0-31."]
  1160	003133'	370140	000000	10830	        SOS     R3,R0           ;PUT DAY-1 IN R3
  1161	003134'	306340	000012	10840	        CAIN    CT,TE           ;SKIP IF NOT TERMINATED WITH A CR
  1162	003135'	254000	003206'	10850	        JRST    CREMY           ;USE CURRENT MONTH-YEAR
CMD     03/21/74	MACRO 12.5-46.0 17:25 13-JAN-81 PAGE 1-21
CMD.MAC	23-MAR-79 11:42

  1163	003136'	302340	000013	10860	        CAIE    CT,SP           ;SKIP IF TERMINATED WITH A SPACE
  1164	003137'	306340	000017	10870	        CAIN    CT,DA           ;SKIP IF NOT TERM WITH A DASH
  1165	003140'	334000	000000	10880	        SKIPA                   ;TERMINATED WITH SPACE, DASH, OR CR
  1166	003141'	015000	005245'	10890	        ERROR   [ASCIZ "DAY MUST BE TERMINATED WITH A SPACE, DASH, OR CARRIAGE RETURN."]
  1167	003142'	260740	000000*	10900	        PUSHJ   P,RDMON##       ;READ MONTH-1 AND RETURN IT IN R2
  1168	003143'	221100	000037	10910	        IMULI   R2,37           ;CONVERT MONTH TO DAY OF YEAR
  1169	003144'	270140	000002	10920	        ADD     R3,R2           ;ADD IT INTO THE DAY OF MONTH
  1170	003145'	001340	000004	10930	        TCI     CT,CH           ;READ CR OR SPACE AFTER MONTH
  1171	003146'	306340	000012	10940	        CAIN    CT,TE           ;SKIP IF NOT A CARRIAGE RETURN
  1172	003147'	254000	003203'	10950	        JRST    CREY            ;USE CURRENT YEAR
  1173	003150'	302340	000013	10960	        CAIE    CT,SP           ;SKIP IF TERMINATED WITH A SPACE
  1174	003151'	306340	000017	10970	        CAIN    CT,DA           ;SKIP IF NOT TERMINATED WITH A DASH
  1175	003152'	334000	000000	10980	        SKIPA                   ;TERMINATED WITH A SPACE OR DASH
  1176	003153'	015000	005262'	10990	        ERROR   [ASCIZ "YEAR MUST BE TERMINATED WITH A SPACE, DASH, OR CARRIAGE RETURN."]
  1177	003154'	260740	003127*	11000	        PUSHJ   P,RDDNUM        ;READ YEAR
  1178	003155'	301000	000100	11010	        CAIL    R0,100          ;SKIP IF LESS THAN SIXTY-FOUR
  1179	003156'	301000	000144	11020	        CAIL    R0,144          ;SKIP IF LESS THAN ONE HUNDRED
  1180	003157'	015000	005277'	11030	        ERROR   [ASCIZ "YEAR MUST BE IN THE RANGE 64-99."]
  1181	003160'	275000	000100	11040	        SUBI    R0,100          ;CONVERT TO YEARS SINCE 1964
  1182	003161'	221000	000564	11050	CRETRM: IMULI   R0,14*37        ;CONVERT TO DAYS SINCE 1964
  1183	003162'	270140	000000	11060	CRETR1: ADD     R3,R0           ;ADD IT INTO THE DAY OF THE DAY
  1184	003163'	552140	000000*	11070	CRETR2: HRRZM   R3,CNVDAT##     ;SAVE CREATION DATE
  1185	003164'	200140	005306'	11080	        MOVE    R3,[XWD 0,400020] ;OLD TO NEW FORMAT
  1186	003165'	202140	000000*	11090	        MOVEM   R3,CNVFMT##     ;SAVE CONVERSION FORMAT
  1187	003166'	201140	003163*	11100	        MOVEI   R3,CNVDAT       ;GET ADDRESS OF CONVERSION TABLE
  1188	003167'	047140	777723	11110	        DATUUO  R3,             ;CONVERT DATE AND TIME
  1189	003170'	320000	000000	11120	        JUMP                    ;FAILS IF P011 BUT THAT'S OK
  1190	003171'	200140	000000*	11130	        MOVE    R3,JIFFPS##     ;GET JIFFIES PER SECOND
  1191	003172'	250140	003122*	11140	        EXCH    R3,CNVTIM       ;EXCHANGE WITH TIME
  1192	003173'	232140	003172*	11150	        IDIVM   R3,CNVTIM       ;CONVERT TIME FROM JIFFIES TO MIN
  1193	003174'	200140	003173*	11160	        MOVE    R3,CNVTIM       ;GET CREATION TIME
  1194	003175'	202140	000421*	11170	        MOVEM   R3,CRETIM       ;SAVE CREATION TIME
  1195	003176'	200140	003166*	11180	        MOVE    R3,CNVDAT       ;GET CREATION DATE
  1196	003177'	202140	000420*	11190	        MOVEM   R3,CREDAT       ;SAVE CREATION DATE
  1197	003200'	302340	000012	11200	        CAIE    CT,TE           ;SKIP IF TERMINATED WITH A CARRIAGE RET
  1198	003201'	254000	000432'	11210	        JRST    NXTPRT          ;CONTINUE READING COMMAND
  1199	003202'	364240	000620'	11220	        SOJA    W,TRMNA2        ;CONTINUE DISPATCHING COMMAND
  1200	003203'	047000	000014	11230	CREY:   CALLI   R0,DATE         ;READ CURRENT DATE
  1201	003204'	231000	000564	11240	        IDIVI   R0,14*37        ;CONVERT TO YEARS SINCE 1964
  1202	003205'	254000	003161'	11250	        JRST    CRETRM          ;FINISH UP
  1203	003206'	047000	000014	11260	CREMY:  CALLI   R0,DATE         ;GET CURRENT DATE
  1204	003207'	231000	000037	11270	        IDIVI   R0,37           ;CONVERT TO MONTHS SINCE 1964
  1205	003210'	221000	000037	11280	        IMULI   R0,37           ;CONVERT THAT BACK TO DAYS
  1206	003211'	254000	003162'	11290	        JRST    CRETR1          ;FINISH UP
  1207	003212'	047140	000014	11300	CREDMY: CALLI   R3,DATE         ;READ CURRENT DATE
  1208	003213'	254000	003163'	11310	        JRST    CRETR2          ;FINISH UP
  1209
  1210				11330	; CODE TO HANDLE OPENING OF NAMES FILE.  SEE STATE DIAGRAMS FOR
  1211				11340	; SECOND PART OF COMMAND
  1212
  1213				11360	; USE PROGRAM USER'S PPN WHEN USERNAME MISSING
  1214
  1215	003214'	476000	003600'	11380	FAKPPN: SETOM FAKFLG#   ;SET FLAG FOR CEOL-CNAT
CMD     03/21/74	MACRO 12.5-46.0 17:25 13-JAN-81 PAGE 1-22
CMD.MAC	23-MAR-79 11:42

  1216	003215'	047640	000024	11390	        GETPPN U,
  1217	003216'	601000	000000	11400	        TLN
  1218	003217'	201040	000600	11410	        MOVEI R1,0600
  1219	003220'	506040	000155'	11420	        HRLM R1,COMPTR  ;CONVERT TO SIXBIT
  1220	003221'	506040	000156'	11430	        HRLM R1,COMPT1
  1221	003222'	550040	000156'	11440	        HRRZ R1,COMPT1
  1222	003223'	275040	000357'	11450	        SUBI R1,COMBFE-1
  1223	003224'	220040	004625'	11460	        IMUL R1,[-6]
  1224	003225'	202040	000157'	11470	        MOVEM R1,COMPT2
  1225	003226'	254000	000467'	11480	        JRST ENDUN      ;HOPE COMMAND BUFFER POINTERS ARE OK
  1226
  1227				11500	; INSIST ON USERNAME WITH NAMES FILE--DISALLOW [GAN,,UUN]
  1228
  1229	003227'	302200	000050	11520	TSTL:   CAIE CH,LPAREN
  1230	003230'	254000	003304'	11530	        JRST ILCH       ;LEFT BRACKET ILLEGAL
  1231	003231'	254000	000442'	11540	        JRST NXTCHR
  1232
  1233				11560	; TERMINATE "NAMES" FILE.  SET PTRS BACK TO BEGINNING OF THIS PART.
  1234				11570	; ZERO PART OF COMMAND BUFFER USED
  1235
  1236	003232'	334140	004623'	11590	CEOL:   SKIPA R3,[CRCHR];TERMINATED WITH TE
  1237	003233'	201140	000040	11600	CNAT:   MOVEI R3,SPACE  ;TERMINATED WITH SP
  1238				11610	; SAVE FILENAME IN FILDI1
  1239	003234'	201040	000003	11620	        MOVEI R1,3
  1240	003235'	202040	000000*	11630	        MOVEM R1,FILDIR##
  1241	003236'	550040	000155'	11640	        HRRZ R1,COMPTR
  1242	003237'	275040	000001	11650	        SUBI R1,1       ;POINT TO UUN
  1243	003240'	332000	003600'	11660	        SKIPE FAKFLG    ;FAKE PPN FOR NAMES FILE WHEN USERNAME MISSING
  1244	003241'	254000	003244'	11670	        JRST .+3
  1245	003242'	550641	000000	11680	        HRRZ U,(R1)     ;FETCH UUN
  1246	003243'	260740	000000*	11690	        PUSHJ P,FINGAN##;FIND GAN IN LUD
  1247	003244'	202640	000000*	11700	        MOVEM U,FILDI1##
  1248	003245'	514100	000155'	11710	        HRLZ R2,COMPTR
  1249	003246'	541100	000000*	11720	        HRRI R2,FILDI2##
  1250	003247'	251100	000000*	11730	        BLT R2,FILDI3## ;MOVE NAME AND EXT
  1251				11740	; ZERO BUFFER SPACE USED
  1252	003250'	402001	000000	11750	        SETZM (R1)
  1253	003251'	504040	000001	11760	        HRL R1,R1
  1254	003252'	350000	000001	11770	        AOS R1
  1255	003253'	201100	000357'	11780	        MOVEI R2,COMBFE-1
  1256	003254'	251060	000002	11790	        BLT R1,@R2
  1257				11800	; RESET PTRS TO BEGINNING OF THIS PART
  1258	003255'	550045	003461'	11810	        HRRZ R1,CTABL2(W)
  1259	003256'	275040	000001	11820	        SUBI R1,1
  1260	003257'	505040	000700	11830	        HRLI R1,0700
  1261	003260'	202040	000155'	11840	        MOVEM R1,COMPTR
  1262	003261'	202040	000156'	11850	        MOVEM R1,COMPT1
  1263	003262'	550040	000001	11860	        HRRZ R1,R1
  1264	003263'	275040	000357'	11870	        SUBI R1,COMBFE-1
  1265	003264'	220040	005307'	11880	        IMUL R1,[-5]
  1266	003265'	202040	000157'	11890	        MOVEM R1,COMPT2
  1267				11900	; OPEN NAMES FILE AND INFORM TCI UUO BY SETTING FLAG
  1268	003266'	041300	000000	11910	        INIT FIL,0      ;ASCII MODE
CMD     03/21/74	MACRO 12.5-46.0 17:25 13-JAN-81 PAGE 1-23
CMD.MAC	23-MAR-79 11:42

  1269	003267'	446353	000000	11920	        SIXBIT /DSK/
  1270	003270'	000000	000000*	11930	        XWD 0,FILHED##
  1271	003271'	015000	005310'	11940	        ERROR [ASCIZ"CANNOT ACCESS DISK"]
  1272	003272'	201040	000000*	11950	        MOVEI R1,FILBUF##
  1273	003273'	202040	002751*	11960	        MOVEM R1,JOBFF
  1274	003274'	064300	000000*	11970	        INBUF FIL,FILN##
  1275	003275'	076300	003235*	11980	        LOOKUP FIL,FILDIR
  1276				11990	        ERT [XWD[FILDI1
  1277	003276'	023000	005324'	12000	CLDSP],[ASCIZ"CANNOT LOCATE NAMES FILE _J_E"]]
  1278	003277'	202140	000000*	12010	        MOVEM R3,CINFLG##
  1279	003300'	254000	000442'	12020	        JRST NXTCHR     ;INPUT SCAN CONTINUES, NOW IN NAMES FILE
  1280	003301'			12030	CNYI:   BLOCK   0               ;ROUTINE FOR COMMANDS NOT YET IMPLEMENTED
  1281	003301'	260740	000135'	12040	        PUSHJ   P,GETCMD        ;GET ADDRESS OF COMMAND NAME
  1282	003302'	012002	000000	12050	        TYPE    (R2)            ;TYPE THE NAME OF THE COMMAND
  1283	003303'	015000	005325'	12060	        ERROR   [ASCIZ " NOT YET IMPLEMENTED"]
  1284	003304'	012000	005332'	12070	ILCH:   TYPE    [ASCIZ "ILLEGAL INPUT CHARACTER: "]
  1285	003305'	010000	005340'	12080	        TCO     [LPAREN]        ;TYPE LEFT PAREN
  1286	003306'	200000	000004	12090	        MOVE    R0,CH           ;PUT NUMBER IN R0 TO PRINT
  1287	003307'	260740	000000*	12100	        PUSHJ   P,PRONUM        ;PRINT OCTAL NUMBER
  1288	003310'	010000	005341'	12110	        TCO     [RPAREN]        ;TYPE RIGHT PAREN
  1289	003311'	010000	004670'	12120	        TCO     [SPACE]         ;SPACE
  1290	003312'	010000	005342'	12130	        TCO     [QUOTE]         ;OUTPUT A QUOTE MARK
  1291	003313'	010000	000004	12140	        TCO     CH              ;OUTPUT THE CHARACTER
  1292	003314'	010000	005342'	12150	        TCO     [QUOTE]         ;OUTPUT ANOTHER QUOTE MARK
  1293	003315'	254000	000361'	12160	        JRST    CLDSP           ;CLEAR INPUT BUFFER AND GO TO CDISP
  1294	003316'	544040	000000*	12170	ESCR1:  HLR     R1,JOBCNI
  1295	003317'	405040	000001	12180	        ANDI    R1,1
  1296	003320'	302040	000001	12190	        CAIE    R1,1
  1297	003321'	260740	003374'	12200	        PUSHJ   P,FERR          ;*NOT SURE WHY IT WOULD COME HERE*
  1298	003322'	261740	000000*	12210	        PUSH    P,JOBTPC##      ;SAVE RETURN ADDRESS ON STACK
  1299	003323'	261740	000000	12220	        PUSH    P,R0            ;SAVE R0 ON STACK
  1300	003324'	201040	002000	12230	        MOVEI   R1,2000         ;BIT TO TRAP ON ESCAPE
  1301	003325'	047040	000016	12240	        APRENB  R1,             ;TRAP ON ESCAPE
  1302	003326'	205000	777777	12250	        MOVSI   R0,-1           ;STATUS BITS FOR THIS JOB
  1303	003327'	047000	000041	12260	        GETTAB  R0,             ;GET STATUS OF THIS JOB
  1304	003330'	400000	000000	12270	        SETZ    R0,             ;FAIL - SET ALL BITS TO ZERO
  1305	003331'	336000	000400*	12280	        SKIPN   ESCDI           ;SKIP IF USER DISABLED ESCAPES
  1306	003332'	603000	000001	12290	        TLNE    R0,1            ;SKIP IF THE JAL BIT IS NOT SET
  1307	003333'	254000	000000*	12300	        JRST    UUORET##        ;IGNORE THE ESCAPE
  1308	003334'	262740	000000	12310	        POP     P,R0            ;RESTORE R0 EVEN IF NOT NECESSARY
  1309	003335'	262740	003322*	12320	        POP     P,JOBTPC        ;POP STACK ONCE MORE
  1310	003336'	070300	000040	12330	ESCR::  CLOSE   FIL,RST         ;CLOSE ANY OPEN FILE - KEEP OUT OF DIR
  1311	003337'	260740	000372*	12340	        PUSHJ P,MTCLS##
  1312				12350	;*      PUSHJ P,COFRLS##        ;CLOSE COUT FILE
  1313	003340'	561040	000006	12360	        HRROI   R1,6            ;PRV WORD FOR THIS JOB
  1314	003341'	047040	000041	12370	        GETTAB  R1,             ;FIND OUT IF THIS IS A TYMEX USER
  1315	003342'	400040	000000	12380	        SETZ    R1,             ;FAILED SO ASSUME PDP10 USER
  1316	003343'	640040	000200	12390	        TRC     R1,200          ;COMPLEMENT THE TYMEX BIT
  1317	003344'	602040	000600	12400	        TRNE    R1,600          ;SKIP IF THIS IS A TYMEX USER
  1318	003345'	254000	003353'	12410	        JRST    ESCR2           ;PDP10, GE, OR SUDS USER
  1319	003346'	051500	000000	12420	        CLRBFO                  ;CLEAR OUTPUT BUFFER
  1320	003347'	476000	000370*	12430	        SETOM EROSW
  1321	003350'	012000	003615'	12440	        TYPE [ASCIZ""]  ;ASSURE OUTPUT TO TERMINAL
CMD     03/21/74	MACRO 12.5-46.0 17:25 13-JAN-81 PAGE 1-24
CMD.MAC	23-MAR-79 11:42

  1322	003351'	010000	005343'	12450	        TCO     [BARROW]
  1323	003352'	010000	005343'	12460	        TCO     [BARROW]
  1324	003353'	335000	003577'	12470	ESCR2:  SKIPGE  ESCFLG          ;SKIP IF NOT SECOND ESCAPE IN A ROW
  1325	003354'	047000	000012	12480	        EXIT                    ;*LET THE GUY OUT - MAY WANT TO CHANGE THIS
  1326	003355'	476000	003577'	12490	        SETOM   ESCFLG          ;SET FLAG FOR NEXT TIME
  1327	003356'	201040	002000	12500	        MOVEI   R1,2000
  1328	003357'	047040	000016	12510	        APRENB  R1,
  1329	003360'	336000	000000*	12520	ABORTA::SKIPN   RCOUNT##
  1330	003361'	332000	000000*	12530	        SKIPE   SCOUNT##
  1331	003362'	254000	003364'	12540	        JRST    ABORT           ;ESCAPE FROM STORE OR RESTORE COMMAND
  1332	003363'	254000	000361'	12550	        JRST    CLDSP           ;CLEAR INPUT BUFFER AND GO TO CDISP
  1333	003364'	332000	003360*	12560	ABORT:  SKIPE   RCOUNT
  1334	003365'	254000	003371'	12570	        JRST    RESABO          ;RESTORE ABORTED
  1335	003366'	023000	005354'	12580	        ERT [XWD[SCOUNT],[ASCIZ"$STORE ABORTED, _C FILES WRITTEN$"]]
  1336	003367'	402000	003361*	12590	        SETZM   SCOUNT
  1337	003370'	254000	000361'	12600	        JRST    CLDSP
  1338	003371'	023000	005366'	12610	RESABO: ERT [XWD[RCOUNT],[ASCIZ"$OPERATION ABORTED, _C FILES PROCESSED$"]]
  1339	003372'	402000	003364*	12620	        SETZM   RCOUNT
  1340	003373'	254000	000361'	12630	        JRST    CLDSP
  1341
  1342	003374'			12650	FERR::  BLOCK   0               ;FATAL ERROR ROUTINE
  1343	003374'	476000	003347*	12660	        SETOM EROSW
  1344	003375'	012000	005367'	12670	        TYPE    [ASCIZ "$FATAL ERROR AT LOCATION: "]
  1345	003376'	550017	000000	12680	        HRRZ    R0,(P)          ;FIND FROM WHERE THIS WAS CALLED
  1346	003377'	275000	000001	12690	        SUBI    R0,1            ;DECREMENT ADDRESS
  1347	003400'	260740	003307*	12700	        PUSHJ   P,PRONUM        ;PRINT THE ADDRESS
  1348	003401'	254000	000361'	12710	        JRST    CLDSP           ;CLEAR INPUT BUFFER AND GO TO CDISP
  1349
  1350	003402'	261740	000000	12730	S6PTR::  PUSH    P,R0
  1351	003403'	201000	000006	12740	        MOVEI   R0,6
  1352	003404'	254000	003411'	12750	        JRST    APTR
  1353	003405'	334040	005375'	12760	IPTR:   SKIPA   R1,[COMBUF-1]
  1354	003406'	200040	000156'	12770	NPTR:   MOVE    R1,COMPT1
  1355	003407'	261740	000000	12780	SPTR:   PUSH    P,R0
  1356	003410'	201000	000007	12790	        MOVEI   R0,7
  1357	003411'	137000	005376'	12800	APTR:   DPB     R0,[POINT 6,R0,11]
  1358	003412'	261740	000002	12810	        PUSH    P,R2            ;*
  1359	003413'	500040	000000	12820	        HLL     R1,R0
  1360	003414'	550000	000000	12830	        HRRZ    R0,R0
  1361	003415'	202040	000155'	12840	        MOVEM   R1,COMPTR
  1362	003416'	316040	000156'	12850	        CAMN    R1,COMPT1
  1363	003417'	254000	003427'	12860	        JRST    NPTR1
  1364	003420'	261760	000001	12870	        PUSH    P,@R1
  1365	003421'	402020	000001	12880	        SETZM   @R1
  1366	003422'	504040	000001	12890	        HRL     R1,R1
  1367	003423'	340040	000000	12900	        AOJ     R1,
  1368	003424'	251060	000156'	12910	        BLT     R1,@COMPT1
  1369	003425'	262760	000155'	12920	        POP     P,@COMPTR
  1370	003426'	200040	000155'	12930	        MOVE    R1,COMPTR
  1371	003427'	202040	000156'	12940	NPTR1:  MOVEM   R1,COMPT1
  1372	003430'	201100	000360'	12950	        MOVEI   R2,COMBFE
  1373	003431'	275101	000001	12960	        SUBI    R2,1(R1)        ;R2=NO. OF WDS
  1374	003432'	201040	000044	12970	        MOVEI R1,44
CMD     03/21/74	MACRO 12.5-46.0 17:25 13-JAN-81 PAGE 1-25
CMD.MAC	23-MAR-79 11:42

  1375	003433'	250000	000001	12980	        EXCH R0,R1
  1376	003434'	230000	000001	12990	        IDIV R0,R1              ;R0=NO. OF BYTES/WD
  1377	003435'	220000	000002	13000	        IMUL R0,R2              ;R0=NO. OF BYTES
  1378	003436'	200040	000000	13010	        MOVE R1,R0
  1379	003437'	202040	000157'	13020	        MOVEM   R1,COMPT2
  1380	003440'	402000	003575'	13030	        SETZM   ACMLTR#         ;INITIALIZE NUMBER BEING READ
  1381	003441'	262740	000002	13040	        POP     P,R2
  1382	003442'	262740	000000	13050	        POP     P,R0
  1383	003443'	263740	000000	13060	        POPJ    P,
  1384
  1385	003444'	001340	000004	13080	READKW: TCI     CT,CH           ;INPUT NEXT CHAR OF WORD AFTER
  1386	003445'	302340	000013	13090	        CAIE    CT,SP           ;SKIP IF SPACE WAS READ
  1387	003446'	306340	000012	13100	        CAIN    CT,TE           ;SKIP IF CRARRIAGE RETURN NOT READ
  1388	003447'	254000	003453'	13110	        JRST    RKWBAT          ;TERMINATOR READ
  1389	003450'	006200	000155'	13120	        WCI     CH,COMPTR       ;PUT CHAR IN STRING
  1390	003451'	015000	005377'	13130	        ERROR   [ASCIZ "TOO MANY CHARACTERS IN COMMAND."]
  1391	003452'	254000	003444'	13140	        JRST    READKW          ;LOOP
  1392	003453'	201200	000000	13150	RKWBAT: MOVEI   CH,EOLIT        ;TERMINATE STRING
  1393	003454'	006200	000155'	13160	        WCI     CH,COMPTR       ;WRITE BACK ARROW TO STRING
  1394	003455'	015000	005377'	13170	        ERROR   [ASCIZ "TOO MANY CHARACTERS IN COMMAND."]
  1395	003456'	200140	000155'	13180	        MOVE    R3,COMPTR       ;GET ADDRESS-1 OF STRING
  1396	003457'	271140	000001	13190	        ADDI    R3,1            ;ADDRESS OF STRING
  1397	003460'	263740	000000	13200	        POPJ    P,              ;RETURN FROM READKW
  1398
  1399				13220	;STATES FOR THE COMMAND DISPATCHER
  1400
  1401				13240	DEFINE  STATBT(B,S)     <
  1402				13250	.'S'B>
  1403
  1404				13270	DEFINE  ISTATE(A,B)     <
  1405				13280	A'B=    .-ISTAB'B
  1406				13290	        [CHARDO <STATBT B,A>
  1407				13300	        ]
  1408				13310	;;NIS'B= .-ISTAB'B
  1409				13320	>
  1410
  1411				13340	DEFINE  TSTATE(A,B)     <
  1412				13350	A'B=    .-TSTAB'B
  1413				13360	        XWD     A'TRM,[XWD A'B'TAB-A'B'TBE,A'B'TAB]
  1414				13370	NTS'B=  .-TSTAB'B>
  1415
  1416			000003	13390	NPARTS==3       ;NUMBER OF COMMAND PARTS
  1417
  1418				13410	DEFINE  XWDM(A,B,C)     <
  1419				13420	        XWD     A'C,B'C>
  1420
  1421				13440	DEFINE  XSTABM(T,L,R)   <X==0
  1422				13450	T=.-1
  1423				13460	REPEAT  NCSEC,  <X==X+1
  1424				13470	        XWDM    L,R,\X>>
  1425
  1426	003461'			13490	CTABL2::BLOCK   NPARTS+1        ;CELL DESCRIBING COMMAND READ
  1427
CMD     03/21/74	MACRO 12.5-46.0 17:25 13-JAN-81 PAGE 1-26
CMD.MAC	23-MAR-79 11:42

  1428	003465'	000000	000043'	13510	CTABLE: XWD     0,KF0TAB        ;STATE/COMMAND POINTER
  1429	003466'			13520	        BLOCK   NPARTS          ;CTABLE REMEMBERS COMMANDS WE'VE READ
  1430
  1431	003471'	000000	003505'	13540	        XSTABM  ISTAB,IS,ISTAB; POINTER TO INITIAL STATE TABLES
  1432	003472'	000000	003513'
  1433	003473'	000000	003572'
  1434	003474'	000000	003505'
  1435	003475'	000000	003505'
  1436	003476'	000000	003505'
  1437
  1438	003477'	777777	003507'	13560	        XSTABM  TSTAB,-NTS,TSTAB; POINTERS TO TERMINAL STATE TABLES
  1439	003500'	777774	003566'
  1440	003501'	777777	003574'
  1441	003502'	777777	003510'
  1442	003503'	777777	003511'
  1443	003504'	777777	003512'
  1444
  1445
  1446				13590	;SYMBOLS FORMING STATE DIAGRAM FOR FIRST PART OF COMMAND
  1447
  1448			003304'	13610	.ISIC1= XWD     000,ILCH
  1449		000001	000502'	13620	.ISAL1= XWD     KN1,STOCHR
  1450			003304'	13630	.ISNU1= XWD     000,ILCH
  1451			003304'	13640	.ISRP1= XWD     000,ILCH
  1452			000442'	13650	.ISIG1= XWD     IS1,NXTCHR
  1453			003304'	13660	.ISLP1= XWD     000,ILCH
  1454			003304'	13670	.ISAS1= XWD     000,ILCH
  1455			003304'	13680	.ISEX1= XWD     000,ILCH
  1456			003304'	13690	.ISAT1= XWD     000,ILCH
  1457			003304'	13700	.ISCO1= XWD     000,ILCH
  1458			000370'	13710	.ISTE1= XWD     000,CDISP
  1459			000442'	13720	.ISSP1= XWD     IS1,NXTCHR
  1460			003304'	13730	.ISPO1= XWD     000,ILCH
  1461		000001	000502'	13740	.ISQU1= XWD     KN1,STOCHR
  1462			003304'	13750	.ISPU1= XWD     000,ILCH
  1463			003304'	13760	.ISDA1= XWD     000,ILCH
  1464
  1465			003304'	13780	.KNIC1= XWD     000,ILCH
  1466		000001	000502'	13790	.KNAL1= XWD     KN1,STOCHR
  1467			003304'	13800	.KNNU1= XWD     000,ILCH
  1468			003304'	13810	.KNRP1= XWD     000,ILCH
  1469		000001	000442'	13820	.KNIG1= XWD     KN1,NXTCHR
  1470			003304'	13830	.KNLP1= XWD     000,ILCH
  1471			003304'	13840	.KNAS1= XWD     000,ILCH
  1472			003304'	13850	.KNEX1= XWD     000,ILCH
  1473			003304'	13860	.KNAT1= XWD     000,ILCH
  1474			003304'	13870	.KNCO1= XWD     000,ILCH
  1475			000562'	13880	.KNTE1= XWD     KF1,TRMEOL
  1476			000563'	13890	.KNSP1= XWD     KF1,TRMNAT
  1477			003304'	13900	.KNPO1= XWD     000,ILCH
  1478		000001	000502'	13910	.KNQU1= XWD     KN1,STOCHR
  1479			003304'	13920	.KNPU1= XWD     000,ILCH
  1480			003304'	13930	.KNDA1= XWD     000,ILCH
CMD     03/21/74	MACRO 12.5-46.0 17:25 13-JAN-81 PAGE 1-27
CMD.MAC	23-MAR-79 11:42

  1481
  1482				13950	;INTERMEDIATE STATE FOR FIRST PART OF COMMAND
  1483
  1484	003505'			13970	ISTAB1: BLOCK   0
  1485	003505'	000000	005406'	13980	        ISTATE  IS,1;   INITIAL STATE
  1486	003506'	000000	005422'	13990	        ISTATE  KN,1;   KEYWORD PARTIALLY READ
  1487
  1488
  1489				14020	;TERMINAL STATES FOR FIRST PART OF COMMAND
  1490
  1491
  1492	003507'			14050	TSTAB1: BLOCK   0
  1493	003507'	000664'	005442'	14060	        TSTATE  KF,1;   KEYWORD FOUND
  1494
  1495			003505'	14080	ISTAB4==ISTAB1
  1496			003505'	14090	ISTAB5==ISTAB1
  1497			003505'	14100	ISTAB6==ISTAB1
  1498
  1499			000000	14120	IS4==   IS1
  1500			000000	14130	IS5==   IS1
  1501			000000	14140	IS6==   IS1
  1502
  1503	003510'	000664'	005443'	14160	TSTAB4: TSTATE  KF,4;           KEYWORD FOUND
  1504	003511'	000664'	005444'	14170	TSTAB5: TSTATE  KF,5;           KEYWORD FOUND
  1505	003512'	000664'	005445'	14180	TSTAB6: TSTATE  KF,6;           KEYWORD FOUND
  1506
  1507				14200	;SYMBOLS FORMING STATE DIAGRAM FOR SECOND PART OF COMMAND
  1508
  1509			003304'	14220	.ISIC2= XWD     000,ILCH
  1510		000001	001404'	14230	.ISAL2= XWD     KN2,CHKGP
  1511			003304'	14240	.ISNU2= XWD     000,ILCH
  1512			003304'	14250	.ISRP2= XWD     000,ILCH
  1513			000442'	14260	.ISIG2= XWD     IS2,NXTCHR
  1514		000025	000526'	14270	.ISLP2= XWD     XL2,TSTLPI
  1515			003304'	14280	.ISAS2= XWD     000,ILCH
  1516			003304'	14290	.ISEX2= XWD     000,ILCH
  1517		000032	000442'	14300	.ISAT2= XWD     CA2,NXTCHR
  1518			003304'	14310	.ISCO2= XWD     000,ILCH
  1519			000641'	14320	.ISTE2= XWD     IS2,PROMPT
  1520			000442'	14330	.ISSP2= XWD     IS2,NXTCHR
  1521		000040	001411'	14340	.ISPO2= XWD     PP2,PNU
  1522		000001	000502'	14350	.ISQU2= XWD     KN2,STOCHR
  1523			003304'	14360	.ISPU2= XWD     000,ILCH
  1524			003304'	14370	.ISDA2= XWD     000,ILCH
  1525
  1526			003304'	14390	.KNIC2= XWD     000,ILCH
  1527		000001	000502'	14400	.KNAL2= XWD     KN2,STOCHR
  1528			003304'	14410	.KNNU2= XWD     000,ILCH
  1529			003304'	14420	.KNRP2= XWD     000,ILCH
  1530		000001	000442'	14430	.KNIG2= XWD     KN2,NXTCHR
  1531			003304'	14440	.KNLP2= XWD     000,ILCH
  1532			003304'	14450	.KNAS2= XWD     000,ILCH
  1533			003304'	14460	.KNEX2= XWD     000,ILCH
CMD     03/21/74	MACRO 12.5-46.0 17:25 13-JAN-81 PAGE 1-28
CMD.MAC	23-MAR-79 11:42

  1534			003304'	14470	.KNAT2= XWD     000,ILCH
  1535			003304'	14480	.KNCO2= XWD     000,ILCH
  1536			000562'	14490	.KNTE2= XWD     KF2,TRMEOL
  1537			000563'	14500	.KNSP2= XWD     KF2,TRMNAT
  1538			003304'	14510	.KNPO2= XWD     000,ILCH
  1539			003304'	14520	.KNQU2= XWD     000,ILCH
  1540			003304'	14530	.KNPU2= XWD     000,ILCH
  1541			003304'	14540	.KNDA2= XWD     000,ILCH
  1542
  1543			003304'	14560	.GAIC2= XWD     000,ILCH
  1544			003304'	14570	.GAAL2= XWD     000,ILCH
  1545		000003	000511'	14580	.GANU2= XWD     GN2,ACCNUM
  1546			003304'	14590	.GARP2= XWD     000,ILCH
  1547		000002	000442'	14600	.GAIG2= XWD     GA2,NXTCHR
  1548			003304'	14610	.GALP2= XWD     000,ILCH
  1549			003304'	14620	.GAAS2= XWD     000,ILCH
  1550			003304'	14630	.GAEX2= XWD     000,ILCH
  1551			003304'	14640	.GAAT2= XWD     000,ILCH
  1552			003304'	14650	.GACO2= XWD     000,ILCH
  1553			003304'	14660	.GATE2= XWD     000,ILCH
  1554			003304'	14670	.GASP2= XWD     000,ILCH
  1555			003304'	14680	.GAPO2= XWD     000,ILCH
  1556			003304'	14690	.GAQU2= XWD     000,ILCH
  1557			003304'	14700	.GAPU2= XWD     000,ILCH
  1558			003304'	14710	.GADA2= XWD     000,ILCH
  1559
  1560			003304'	14730	.GNIC2= XWD     000,ILCH
  1561			003304'	14740	.GNAL2= XWD     000,ILCH
  1562		000003	000511'	14750	.GNNU2= XWD     GN2,ACCNUM
  1563			003304'	14760	.GNRP2= XWD     000,ILCH
  1564		000003	000442'	14770	.GNIG2= XWD     GN2,NXTCHR
  1565			003304'	14780	.GNLP2= XWD     000,ILCH
  1566			003304'	14790	.GNAS2= XWD     000,ILCH
  1567			003304'	14800	.GNEX2= XWD     000,ILCH
  1568			003304'	14810	.GNAT2= XWD     000,ILCH
  1569		000004	000522'	14820	.GNCO2= XWD     GC2,ACCCOM
  1570		000001	000562'	14830	.GNTE2= XWD     GF2,TRMEOL
  1571		000001	000563'	14840	.GNSP2= XWD     GF2,TRMNAT
  1572			003304'	14850	.GNPO2= XWD     000,ILCH
  1573			003304'	14860	.GNQU2= XWD     000,ILCH
  1574			003304'	14870	.GNPU2= XWD     000,ILCH
  1575		000005	000523'	14880	.GNDA2= XWD     GD2,ACCDSH
  1576
  1577			003304'	14900	.GCIC2= XWD     000,ILCH
  1578			003304'	14910	.GCAL2= XWD     000,ILCH
  1579		000003	000511'	14920	.GCNU2= XWD     GN2,ACCNUM
  1580			003304'	14930	.GCRP2= XWD     000,ILCH
  1581		000004	000442'	14940	.GCIG2= XWD     GC2,NXTCHR
  1582			003304'	14950	.GCLP2= XWD     000,ILCH
  1583			003304'	14960	.GCAS2= XWD     000,ILCH
  1584			003304'	14970	.GCEX2= XWD     000,ILCH
  1585			003304'	14980	.GCAT2= XWD     000,ILCH
  1586			003304'	14990	.GCCO2= XWD     000,ILCH
CMD     03/21/74	MACRO 12.5-46.0 17:25 13-JAN-81 PAGE 1-29
CMD.MAC	23-MAR-79 11:42

  1587			003304'	15000	.GCTE2= XWD     000,ILCH
  1588			003304'	15010	.GCSP2= XWD     000,ILCH
  1589			003304'	15020	.GCPO2= XWD     000,ILCH
  1590			003304'	15030	.GCQU2= XWD     000,ILCH
  1591			003304'	15040	.GCPU2= XWD     000,ILCH
  1592			003304'	15050	.GCDA2= XWD     000,ILCH
  1593
  1594			003304'	15070	.GDIC2= XWD     000,ILCH
  1595		000007	000516'	15080	.GDAL2= XWD     GE2,ACCEND
  1596		000006	000511'	15090	.GDNU2= XWD     GS2,ACCNUM
  1597			003304'	15100	.GDRP2= XWD     000,ILCH
  1598		000005	000442'	15110	.GDIG2= XWD     GD2,NXTCHR
  1599			003304'	15120	.GDLP2= XWD     000,ILCH
  1600			003304'	15130	.GDAS2= XWD     000,ILCH
  1601			003304'	15140	.GDEX2= XWD     000,ILCH
  1602			003304'	15150	.GDAT2= XWD     000,ILCH
  1603			003304'	15160	.GDCO2= XWD     000,ILCH
  1604			003304'	15170	.GDTE2= XWD     000,ILCH
  1605			003304'	15180	.GDSP2= XWD     000,ILCH
  1606			003304'	15190	.GDPO2= XWD     000,ILCH
  1607			003304'	15200	.GDQU2= XWD     000,ILCH
  1608			003304'	15210	.GDPU2= XWD     000,ILCH
  1609			003304'	15220	.GDDA2= XWD     000,ILCH
  1610
  1611			003304'	15240	.GSIC2= XWD     000,ILCH
  1612			003304'	15250	.GSAL2= XWD     000,ILCH
  1613		000006	000511'	15260	.GSNU2= XWD     GS2,ACCNUM
  1614			003304'	15270	.GSRP2= XWD     000,ILCH
  1615		000006	000442'	15280	.GSIG2= XWD     GS2,NXTCHR
  1616			003304'	15290	.GSLP2= XWD     000,ILCH
  1617			003304'	15300	.GSAS2= XWD     000,ILCH
  1618			003304'	15310	.GSEX2= XWD     000,ILCH
  1619			003304'	15320	.GSAT2= XWD     000,ILCH
  1620		000004	000522'	15330	.GSCO2= XWD     GC2,ACCCOM
  1621		000001	000562'	15340	.GSTE2= XWD     GF2,TRMEOL
  1622		000001	000563'	15350	.GSSP2= XWD     GF2,TRMNAT
  1623			003304'	15360	.GSPO2= XWD     000,ILCH
  1624			003304'	15370	.GSQU2= XWD     000,ILCH
  1625			003304'	15380	.GSPU2= XWD     000,ILCH
  1626			003304'	15390	.GSDA2= XWD     000,ILCH
  1627
  1628			003304'	15410	.GEIC2= XWD     000,ILCH
  1629			003304'	15420	.GEAL2= XWD     000,ILCH
  1630			003304'	15430	.GENU2= XWD     000,ILCH
  1631			003304'	15440	.GERP2= XWD     000,ILCH
  1632		000007	000442'	15450	.GEIG2= XWD     GE2,NXTCHR
  1633			003304'	15460	.GELP2= XWD     000,ILCH
  1634			003304'	15470	.GEAS2= XWD     000,ILCH
  1635			003304'	15480	.GEEX2= XWD     000,ILCH
  1636			003304'	15490	.GEAT2= XWD     000,ILCH
  1637		000004	000522'	15500	.GECO2= XWD     GC2,ACCCOM
  1638		000001	000562'	15510	.GETE2= XWD     GF2,TRMEOL
  1639		000001	000563'	15520	.GESP2= XWD     GF2,TRMNAT
CMD     03/21/74	MACRO 12.5-46.0 17:25 13-JAN-81 PAGE 1-30
CMD.MAC	23-MAR-79 11:42

  1640			003304'	15530	.GEPO2= XWD     000,ILCH
  1641			003304'	15540	.GEQU2= XWD     000,ILCH
  1642			003304'	15550	.GEPU2= XWD     000,ILCH
  1643			003304'	15560	.GEDA2= XWD     000,ILCH
  1644
  1645			003304'	15580	.YLIC2= XWD     000,ILCH
  1646			003304'	15590	.YLAL2= XWD     000,ILCH
  1647		000011	000511'	15600	.YLNU2= XWD     YA2,ACCNUM
  1648			003304'	15610	.YLRP2= XWD     000,ILCH
  1649		000010	000442'	15620	.YLIG2= XWD     YL2,NXTCHR
  1650			003304'	15630	.YLLP2= XWD     000,ILCH
  1651			003304'	15640	.YLAS2= XWD     000,ILCH
  1652			003304'	15650	.YLEX2= XWD     000,ILCH
  1653			003304'	15660	.YLAT2= XWD     000,ILCH
  1654			003304'	15670	.YLCO2= XWD     000,ILCH
  1655			003304'	15680	.YLTE2= XWD     000,ILCH
  1656			003304'	15690	.YLSP2= XWD     000,ILCH
  1657			003304'	15700	.YLPO2= XWD     000,ILCH
  1658			003304'	15710	.YLQU2= XWD     000,ILCH
  1659			003304'	15720	.YLPU2= XWD     000,ILCH
  1660			003304'	15730	.YLDA2= XWD     000,ILCH
  1661
  1662			003304'	15750	.YAIC2= XWD     000,ILCH
  1663			003304'	15760	.YAAL2= XWD     000,ILCH
  1664		000011	000511'	15770	.YANU2= XWD     YA2,ACCNUM
  1665			003304'	15780	.YARP2= XWD     000,ILCH
  1666		000011	000442'	15790	.YAIG2= XWD     YA2,NXTCHR
  1667			003304'	15800	.YALP2= XWD     000,ILCH
  1668			003304'	15810	.YAAS2= XWD     000,ILCH
  1669			003304'	15820	.YAEX2= XWD     000,ILCH
  1670			003304'	15830	.YAAT2= XWD     000,ILCH
  1671		000012	000505'	15840	.YACO2= XWD     YC2,STOGAN
  1672			003304'	15850	.YATE2= XWD     000,ILCH
  1673			003304'	15860	.YASP2= XWD     000,ILCH
  1674			003304'	15870	.YAPO2= XWD     000,ILCH
  1675			003304'	15880	.YAQU2= XWD     000,ILCH
  1676			003304'	15890	.YAPU2= XWD     000,ILCH
  1677			003304'	15900	.YADA2= XWD     000,ILCH
  1678
  1679			003304'	15920	.YCIC2= XWD     000,ILCH
  1680			003304'	15930	.YCAL2= XWD     000,ILCH
  1681		000013	000511'	15940	.YCNU2= XWD     YU2,ACCNUM
  1682			003304'	15950	.YCRP2= XWD     000,ILCH
  1683		000012	000442'	15960	.YCIG2= XWD     YC2,NXTCHR
  1684			003304'	15970	.YCLP2= XWD     000,ILCH
  1685			003304'	15980	.YCAS2= XWD     000,ILCH
  1686			003304'	15990	.YCEX2= XWD     000,ILCH
  1687			003304'	16000	.YCAT2= XWD     000,ILCH
  1688			003304'	16010	.YCCO2= XWD     000,ILCH
  1689			003304'	16020	.YCTE2= XWD     000,ILCH
  1690			003304'	16030	.YCSP2= XWD     000,ILCH
  1691			003304'	16040	.YCPO2= XWD     000,ILCH
  1692			003304'	16050	.YCQU2= XWD     000,ILCH
CMD     03/21/74	MACRO 12.5-46.0 17:25 13-JAN-81 PAGE 1-31
CMD.MAC	23-MAR-79 11:42

  1693			003304'	16060	.YCPU2= XWD     000,ILCH
  1694			003304'	16070	.YCDA2= XWD     000,ILCH
  1695
  1696			003304'	16090	.YUIC2= XWD     000,ILCH
  1697			003304'	16100	.YUAL2= XWD     000,ILCH
  1698		000013	000511'	16110	.YUNU2= XWD     YU2,ACCNUM
  1699		000014	000534'	16120	.YURP2= XWD     YR2,FIXLL
  1700		000013	000442'	16130	.YUIG2= XWD     YU2,NXTCHR
  1701			003304'	16140	.YULP2= XWD     000,ILCH
  1702			003304'	16150	.YUAS2= XWD     000,ILCH
  1703			003304'	16160	.YUEX2= XWD     000,ILCH
  1704			003304'	16170	.YUAT2= XWD     000,ILCH
  1705			003304'	16180	.YUCO2= XWD     000,ILCH
  1706			003304'	16190	.YUTE2= XWD     000,ILCH
  1707			003304'	16200	.YUSP2= XWD     000,ILCH
  1708			003304'	16210	.YUPO2= XWD     000,ILCH
  1709			003304'	16220	.YUQU2= XWD     000,ILCH
  1710			003304'	16230	.YUPU2= XWD     000,ILCH
  1711			003304'	16240	.YUDA2= XWD     000,ILCH
  1712
  1713		000014	002224'	16260	.YRIC2= XWD     YR2,T137A
  1714		000031	000467'	16270	.YRAL2= XWD     FN2,ENDUN
  1715		000031	000467'	16280	.YRNU2= XWD     FN2,ENDUN
  1716			003304'	16290	.YRRP2= XWD     000,ILCH
  1717		000014	000442'	16300	.YRIG2= XWD     YR2,NXTCHR
  1718			003304'	16310	.YRLP2= XWD     000,ILCH
  1719		000031	000467'	16320	.YRAS2= XWD     FN2,ENDUN
  1720			003304'	16330	.YREX2= XWD     000,ILCH
  1721			003304'	16340	.YRAT2= XWD     000,ILCH
  1722		000022	000522'	16350	.YRCO2= XWD     PD2,ACCCOM
  1723		000002	000562'	16360	.YRTE2= XWD     UF2,TRMEOL
  1724		000002	000563'	16370	.YRSP2= XWD     UF2,TRMNAT
  1725		000031	000467'	16380	.YRPO2= XWD     FN2,ENDUN
  1726		000031	000467'	16390	.YRQU2= XWD     FN2,ENDUN
  1727			003304'	16400	.YRPU2= XWD     000,ILCH
  1728			003304'	16410	.YRDA2= XWD     000,ILCH
  1729
  1730			003304'	16430	.PLIC2= XWD     000,ILCH
  1731			003304'	16440	.PLAL2= XWD     000,ILCH
  1732		000016	000511'	16450	.PLNU2= XWD     PA2,ACCNUM
  1733			003304'	16460	.PLRP2= XWD     000,ILCH
  1734		000015	000442'	16470	.PLIG2= XWD     PL2,NXTCHR
  1735			003304'	16480	.PLLP2= XWD     000,ILCH
  1736			003304'	16490	.PLAS2= XWD     000,ILCH
  1737			003304'	16500	.PLEX2= XWD     000,ILCH
  1738			003304'	16510	.PLAT2= XWD     000,ILCH
  1739			003304'	16520	.PLCO2= XWD     000,ILCH
  1740			003304'	16530	.PLTE2= XWD     000,ILCH
  1741			003304'	16540	.PLSP2= XWD     000,ILCH
  1742			003304'	16550	.PLPO2= XWD     000,ILCH
  1743			003304'	16560	.PLQU2= XWD     000,ILCH
  1744			003304'	16570	.PLPU2= XWD     000,ILCH
  1745			003304'	16580	.PLDA2= XWD     000,ILCH
CMD     03/21/74	MACRO 12.5-46.0 17:25 13-JAN-81 PAGE 1-32
CMD.MAC	23-MAR-79 11:42

  1746
  1747			003304'	16600	.PAIC2= XWD     000,ILCH
  1748			003304'	16610	.PAAL2= XWD     000,ILCH
  1749		000016	000511'	16620	.PANU2= XWD     PA2,ACCNUM
  1750			003304'	16630	.PARP2= XWD     000,ILCH
  1751		000016	000442'	16640	.PAIG2= XWD     PA2,NXTCHR
  1752			003304'	16650	.PALP2= XWD     000,ILCH
  1753			003304'	16660	.PAAS2= XWD     000,ILCH
  1754			003304'	16670	.PAEX2= XWD     000,ILCH
  1755			003304'	16680	.PAAT2= XWD     000,ILCH
  1756		000017	000505'	16690	.PACO2= XWD     PB2,STOGAN
  1757			003304'	16700	.PATE2= XWD     000,ILCH
  1758			003304'	16710	.PASP2= XWD     000,ILCH
  1759			003304'	16720	.PAPO2= XWD     000,ILCH
  1760			003304'	16730	.PAQU2= XWD     000,ILCH
  1761			003304'	16740	.PAPU2= XWD     000,ILCH
  1762			003304'	16750	.PADA2= XWD     000,ILCH
  1763
  1764			003304'	16770	.PBIC2= XWD     000,ILCH
  1765			003304'	16780	.PBAL2= XWD     000,ILCH
  1766		000020	000511'	16790	.PBNU2= XWD     PU2,ACCNUM
  1767			003304'	16800	.PBRP2= XWD     000,ILCH
  1768		000017	000442'	16810	.PBIG2= XWD     PB2,NXTCHR
  1769			003304'	16820	.PBLP2= XWD     000,ILCH
  1770			003304'	16830	.PBAS2= XWD     000,ILCH
  1771			003304'	16840	.PBEX2= XWD     000,ILCH
  1772			003304'	16850	.PBAT2= XWD     000,ILCH
  1773			003304'	16860	.PBCO2= XWD     000,ILCH
  1774			003304'	16870	.PBTE2= XWD     000,ILCH
  1775			003304'	16880	.PBSP2= XWD     000,ILCH
  1776			003304'	16890	.PBPO2= XWD     000,ILCH
  1777			003304'	16900	.PBQU2= XWD     000,ILCH
  1778			003304'	16910	.PBPU2= XWD     000,ILCH
  1779			003304'	16920	.PBDA2= XWD     000,ILCH
  1780
  1781			003304'	16940	.PUIC2= XWD     000,ILCH
  1782			003304'	16950	.PUAL2= XWD     000,ILCH
  1783		000020	000511'	16960	.PUNU2= XWD     PU2,ACCNUM
  1784		000021	000534'	16970	.PURP2= XWD     PR2,FIXLL
  1785		000020	000442'	16980	.PUIG2= XWD     PU2,NXTCHR
  1786			003304'	16990	.PULP2= XWD     000,ILCH
  1787			003304'	17000	.PUAS2= XWD     000,ILCH
  1788			003304'	17010	.PUEX2= XWD     000,ILCH
  1789			003304'	17020	.PUAT2= XWD     000,ILCH
  1790			003304'	17030	.PUCO2= XWD     000,ILCH
  1791			003304'	17040	.PUTE2= XWD     000,ILCH
  1792			003304'	17050	.PUSP2= XWD     000,ILCH
  1793			003304'	17060	.PUPO2= XWD     000,ILCH
  1794			003304'	17070	.PUQU2= XWD     000,ILCH
  1795			003304'	17080	.PUPU2= XWD     000,ILCH
  1796			003304'	17090	.PUDA2= XWD     000,ILCH
  1797
  1798		000021	002224'	17110	.PRIC2= XWD     PR2,T137A
CMD     03/21/74	MACRO 12.5-46.0 17:25 13-JAN-81 PAGE 1-33
CMD.MAC	23-MAR-79 11:42

  1799			003304'	17120	.PRAL2= XWD     000,ILCH
  1800			003304'	17130	.PRNU2= XWD     000,ILCH
  1801			003304'	17140	.PRRP2= XWD     000,ILCH
  1802		000021	000442'	17150	.PRIG2= XWD     PR2,NXTCHR
  1803			003304'	17160	.PRLP2= XWD     000,ILCH
  1804			003304'	17170	.PRAS2= XWD     000,ILCH
  1805			003304'	17180	.PREX2= XWD     000,ILCH
  1806			003304'	17190	.PRAT2= XWD     000,ILCH
  1807		000022	000522'	17200	.PRCO2= XWD     PD2,ACCCOM
  1808		000002	000562'	17210	.PRTE2= XWD     UF2,TRMEOL
  1809		000002	000563'	17220	.PRSP2= XWD     UF2,TRMNAT
  1810			003304'	17230	.PRPO2= XWD     000,ILCH
  1811			003304'	17240	.PRQU2= XWD     000,ILCH
  1812			003304'	17250	.PRPU2= XWD     000,ILCH
  1813			003304'	17260	.PRDA2= XWD     000,ILCH
  1814
  1815			003304'	17280	.PDIC2= XWD     000,ILCH
  1816			003304'	17290	.PDAL2= XWD     000,ILCH
  1817			003304'	17300	.PDNU2= XWD     000,ILCH
  1818			003304'	17310	.PDRP2= XWD     000,ILCH
  1819		000022	000442'	17320	.PDIG2= XWD     PD2,NXTCHR
  1820		000023	000531'	17330	.PDLP2= XWD     UL2,TSTLPP
  1821			003304'	17340	.PDAS2= XWD     000,ILCH
  1822			003304'	17350	.PDEX2= XWD     000,ILCH
  1823			003304'	17360	.PDAT2= XWD     000,ILCH
  1824			003304'	17370	.PDCO2= XWD     000,ILCH
  1825			003304'	17380	.PDTE2= XWD     000,ILCH
  1826			003304'	17390	.PDSP2= XWD     000,ILCH
  1827			003304'	17400	.PDPO2= XWD     000,ILCH
  1828			003304'	17410	.PDQU2= XWD     000,ILCH
  1829			003304'	17420	.PDPU2= XWD     000,ILCH
  1830			003304'	17430	.PDDA2= XWD     000,ILCH
  1831
  1832			003304'	17450	.ULIC2= XWD     000,ILCH
  1833		000024	000472'	17460	.ULAL2= XWD     UN2,STRTUN
  1834		000024	000472'	17470	.ULNU2= XWD     UN2,STRTUN
  1835			003304'	17480	.ULRP2= XWD     000,ILCH
  1836		000023	000442'	17490	.ULIG2= XWD     UL2,NXTCHR
  1837			003304'	17500	.ULLP2= XWD     000,ILCH
  1838		000024	000472'	17510	.ULAS2= XWD     UN2,STRTUN
  1839		000024	000472'	17520	.ULEX2= XWD     UN2,STRTUN
  1840			003304'	17530	.ULAT2= XWD     000,ILCH
  1841			003304'	17540	.ULCO2= XWD     000,ILCH
  1842			003304'	17550	.ULTE2= XWD     000,ILCH
  1843			003304'	17560	.ULSP2= XWD     000,ILCH
  1844			003304'	17570	.ULPO2= XWD     000,ILCH
  1845			003304'	17580	.ULQU2= XWD     000,ILCH
  1846		000024	000472'	17590	.ULPU2= XWD     UN2,STRTUN
  1847		000024	000472'	17600	.ULDA2= XWD     UN2,STRTUN
  1848
  1849			003304'	17620	.UNIC2= XWD     000,ILCH
  1850		000024	000501'	17630	.UNAL2= XWD     UN2,STOSIX
  1851		000024	000501'	17640	.UNNU2= XWD     UN2,STOSIX
CMD     03/21/74	MACRO 12.5-46.0 17:25 13-JAN-81 PAGE 1-34
CMD.MAC	23-MAR-79 11:42

  1852		000021	000541'	17650	.UNRP2= XWD     PR2,CONVUN
  1853		000024	000442'	17660	.UNIG2= XWD     UN2,NXTCHR
  1854			003304'	17670	.UNLP2= XWD     000,ILCH
  1855		000024	000501'	17680	.UNAS2= XWD     UN2,STOSIX
  1856		000024	000501'	17690	.UNEX2= XWD     UN2,STOSIX
  1857			003304'	17700	.UNAT2= XWD     000,ILCH
  1858			003304'	17710	.UNCO2= XWD     000,ILCH
  1859			003304'	17720	.UNTE2= XWD     000,ILCH
  1860		000024	000501'	17730	.UNSP2= XWD     UN2,STOSIX
  1861			003304'	17740	.UNPO2= XWD     000,ILCH
  1862			003304'	17750	.UNQU2= XWD     000,ILCH
  1863		000024	000501'	17760	.UNPU2= XWD     UN2,STOSIX
  1864		000024	000501'	17770	.UNDA2= XWD     UN2,STOSIX
  1865
  1866			003304'	17790	.XLIC2= XWD     000,ILCH
  1867		000026	000472'	17800	.XLAL2= XWD     XN2,STRTUN
  1868		000026	000472'	17810	.XLNU2= XWD     XN2,STRTUN
  1869			003304'	17820	.XLRP2= XWD     000,ILCH
  1870		000025	000442'	17830	.XLIG2= XWD     XL2,NXTCHR
  1871			003304'	17840	.XLLP2= XWD     000,ILCH
  1872		000026	000472'	17850	.XLAS2= XWD     XN2,STRTUN
  1873		000026	000472'	17860	.XLEX2= XWD     XN2,STRTUN
  1874			003304'	17870	.XLAT2= XWD     000,ILCH
  1875			003304'	17880	.XLCO2= XWD     000,ILCH
  1876			003304'	17890	.XLTE2= XWD     000,ILCH
  1877			003304'	17900	.XLSP2= XWD     000,ILCH
  1878			003304'	17910	.XLPO2= XWD     000,ILCH
  1879			003304'	17920	.XLQU2= XWD     000,ILCH
  1880		000026	000472'	17930	.XLPU2= XWD     XN2,STRTUN
  1881		000026	000472'	17940	.XLDA2= XWD     XN2,STRTUN
  1882
  1883			003304'	17960	.XNIC2= XWD     000,ILCH
  1884		000026	000501'	17970	.XNAL2= XWD     XN2,STOSIX
  1885		000026	000501'	17980	.XNNU2= XWD     XN2,STOSIX
  1886		000014	000541'	17990	.XNRP2= XWD     YR2,CONVUN
  1887		000026	000442'	18000	.XNIG2= XWD     XN2,NXTCHR
  1888			003304'	18010	.XNLP2= XWD     000,ILCH
  1889		000026	000501'	18020	.XNAS2= XWD     XN2,STOSIX
  1890		000026	000501'	18030	.XNEX2= XWD     XN2,STOSIX
  1891			003304'	18040	.XNAT2= XWD     000,ILCH
  1892			003304'	18050	.XNCO2= XWD     000,ILCH
  1893			003304'	18060	.XNTE2= XWD     000,ILCH
  1894		000026	000501'	18070	.XNSP2= XWD     XN2,STOSIX
  1895			003304'	18080	.XNPO2= XWD     000,ILCH
  1896			003304'	18090	.XNQU2= XWD     000,ILCH
  1897		000026	000501'	18100	.XNPU2= XWD     XN2,STOSIX
  1898		000026	000501'	18110	.XNDA2= XWD     XN2,STOSIX
  1899
  1900			003304'	18130	.FXIC2= XWD     000,ILCH
  1901		000027	000501'	18140	.FXAL2= XWD     FX2,STOSIX
  1902		000027	000501'	18150	.FXNU2= XWD     FX2,STOSIX
  1903			003304'	18160	.FXRP2= XWD     000,ILCH
  1904		000027	000442'	18170	.FXIG2= XWD     FX2,NXTCHR
CMD     03/21/74	MACRO 12.5-46.0 17:25 13-JAN-81 PAGE 1-35
CMD.MAC	23-MAR-79 11:42

  1905			003304'	18180	.FXLP2= XWD     000,ILCH
  1906		000027	000501'	18190	.FXAS2= XWD     FX2,STOSIX
  1907			003304'	18200	.FXEX2= XWD     000,ILCH
  1908			003304'	18210	.FXAT2= XWD     000,ILCH
  1909		000030	000457'	18220	.FXCO2= XWD     FC2,EXTCOM
  1910		000003	000562'	18230	.FXTE2= XWD     FF2,TRMEOL
  1911		000003	000563'	18240	.FXSP2= XWD     FF2,TRMNAT
  1912		000027	000501'	18250	.FXPO2= XWD     FX2,STOSIX
  1913		000027	000501'	18260	.FXQU2= XWD     FX2,STOSIX
  1914			003304'	18270	.FXPU2= XWD     000,ILCH
  1915			003304'	18280	.FXDA2= XWD     000,ILCH
  1916
  1917			003304'	18300	.FCIC2= XWD     000,ILCH
  1918		000031	000501'	18310	.FCAL2= XWD     FN2,STOSIX
  1919		000031	000501'	18320	.FCNU2= XWD     FN2,STOSIX
  1920			003304'	18330	.FCRP2= XWD     000,ILCH
  1921		000030	000442'	18340	.FCIG2= XWD     FC2,NXTCHR
  1922			003304'	18350	.FCLP2= XWD     000,ILCH
  1923		000031	000501'	18360	.FCAS2= XWD     FN2,STOSIX
  1924			003304'	18370	.FCEX2= XWD     000,ILCH
  1925			003304'	18380	.FCAT2= XWD     000,ILCH
  1926			003304'	18390	.FCCO2= XWD     000,ILCH
  1927			003304'	18400	.FCTE2= XWD     000,ILCH
  1928			003304'	18410	.FCSP2= XWD     000,ILCH
  1929		000031	000501'	18420	.FCPO2= XWD     FN2,STOSIX
  1930		000031	000501'	18430	.FCQU2= XWD     FN2,STOSIX
  1931			003304'	18440	.FCPU2= XWD     000,ILCH
  1932			003304'	18450	.FCDA2= XWD     000,ILCH
  1933
  1934			003304'	18470	.FNIC2= XWD     000,ILCH
  1935		000031	000501'	18480	.FNAL2= XWD     FN2,STOSIX
  1936		000031	000501'	18490	.FNNU2= XWD     FN2,STOSIX
  1937			003304'	18500	.FNRP2= XWD     000,ILCH
  1938		000031	000442'	18510	.FNIG2= XWD     FN2,NXTCHR
  1939			003304'	18520	.FNLP2= XWD     000,ILCH
  1940			003304'	18530	.FNAS2= XWD     000,ILCH
  1941		000027	000461'	18540	.FNEX2= XWD     FX2,FILDOT
  1942			003304'	18550	.FNAT2= XWD     000,ILCH
  1943		000027	000464'	18560	.FNCO2= XWD     FX2,FILCOM
  1944		000027	000464'	18570	.FNTE2= XWD     FX2,FILCOM
  1945		000027	000464'	18580	.FNSP2= XWD     FX2,FILCOM
  1946		000031	000501'	18590	.FNPO2= XWD     FN2,STOSIX
  1947		000031	000501'	18600	.FNQU2= XWD     FN2,STOSIX
  1948			003304'	18610	.FNPU2= XWD     000,ILCH
  1949			003304'	18620	.FNDA2= XWD     000,ILCH
  1950				18630	; READ "@" TO READ NAMES FILE
  1951			003304'	18640	.CAIC2= XWD     000,ILCH
  1952		000036	003214'	18650	.CAAL2= XWD     CN2,FAKPPN      ;PLUG IN PPN OF PROGRAM USER
  1953		000036	003214'	18660	.CANU2= XWD     CN2,FAKPPN      ;PLUG IN PPN OF PROGRAM USER
  1954			003304'	18670	.CARP2= XWD     000,ILCH
  1955			003304'	18680	.CAIG2= XWD     000,ILCH
  1956		000033	003227'	18690	.CALP2= XWD     CL2,TSTL        ;DON'T ALLOW LEFT BRACKET
  1957			003304'	18700	.CAAS2= XWD     000,ILCH
CMD     03/21/74	MACRO 12.5-46.0 17:25 13-JAN-81 PAGE 1-36
CMD.MAC	23-MAR-79 11:42

  1958			003304'	18710	.CAEX2= XWD     000,ILCH
  1959			003304'	18720	.CAAT2= XWD     000,ILCH
  1960			003304'	18730	.CACO2= XWD     000,ILCH
  1961			003304'	18740	.CATE2= XWD     000,ILCH
  1962			003304'	18750	.CASP2= XWD     000,ILCH
  1963			003304'	18760	.CAPO2= XWD     000,ILCH
  1964			003304'	18770	.CAQU2= XWD     000,ILCH
  1965			003304'	18780	.CAPU2= XWD     000,ILCH
  1966			003304'	18790	.CADA2= XWD     000,ILCH
  1967
  1968			003304'	18810	.CLIC2= XWD     000,ILCH
  1969		000034	000472'	18820	.CLAL2= XWD     CC2,STRTUN
  1970		000034	000472'	18830	.CLNU2= XWD     CC2,STRTUN
  1971			003304'	18840	.CLRP2= XWD     000,ILCH
  1972		000033	000442'	18850	.CLIG2= XWD     CL2,NXTCHR
  1973			003304'	18860	.CLLP2= XWD     000,ILCH
  1974		000034	000472'	18870	.CLAS2= XWD     CC2,STRTUN
  1975		000034	000472'	18880	.CLEX2= XWD     CC2,STRTUN
  1976			003304'	18890	.CLAT2= XWD     000,ILCH
  1977			003304'	18900	.CLCO2= XWD     000,ILCH
  1978			003304'	18910	.CLTE2= XWD     000,ILCH
  1979			003304'	18920	.CLSP2= XWD     000,ILCH
  1980			003304'	18930	.CLPO2= XWD     000,ILCH
  1981			003304'	18940	.CLQU2= XWD     000,ILCH
  1982		000034	000472'	18950	.CLPU2= XWD     CC2,STRTUN
  1983		000034	000472'	18960	.CLDA2= XWD     CC2,STRTUN
  1984
  1985			003304'	18980	.CCIC2= XWD     000,ILCH
  1986		000034	000501'	18990	.CCAL2= XWD     CC2,STOSIX
  1987		000034	000501'	19000	.CCNU2= XWD     CC2,STOSIX
  1988		000035	000541'	19010	.CCRP2= XWD     CR2,CONVUN
  1989		000034	000442'	19020	.CCIG2= XWD     CC2,NXTCHR
  1990			003304'	19030	.CCLP2= XWD     000,ILCH
  1991		000034	000501'	19040	.CCAS2= XWD     CC2,STOSIX
  1992		000034	000501'	19050	.CCEX2= XWD     CC2,STOSIX
  1993			003304'	19060	.CCAT2= XWD     000,ILCH
  1994			003304'	19070	.CCCO2= XWD     000,ILCH
  1995			003304'	19080	.CCTE2= XWD     000,ILCH
  1996		000034	000501'	19090	.CCSP2= XWD     CC2,STOSIX
  1997			003304'	19100	.CCPO2= XWD     000,ILCH
  1998			003304'	19110	.CCQU2= XWD     000,ILCH
  1999		000034	000501'	19120	.CCPU2= XWD     CC2,STOSIX
  2000		000034	000501'	19130	.CCDA2= XWD     CC2,STOSIX
  2001
  2002			003304'	19150	.CRIC2= XWD     000,ILCH
  2003		000036	000467'	19160	.CRAL2= XWD     CN2,ENDUN
  2004		000036	000467'	19170	.CRNU2= XWD     CN2,ENDUN
  2005			003304'	19180	.CRRP2= XWD     000,ILCH
  2006		000035	000442'	19190	.CRIG2= XWD     CR2,NXTCHR
  2007			003304'	19200	.CRLP2= XWD     000,ILCH
  2008			003304'	19210	.CRAS2= XWD     000,ILCH
  2009			003304'	19220	.CREX2= XWD     000,ILCH
  2010			003304'	19230	.CRAT2= XWD     000,ILCH
CMD     03/21/74	MACRO 12.5-46.0 17:25 13-JAN-81 PAGE 1-37
CMD.MAC	23-MAR-79 11:42

  2011			003304'	19240	.CRCO2= XWD     000,ILCH
  2012			003304'	19250	.CRTE2= XWD     000,ILCH
  2013			003304'	19260	.CRSP2= XWD     000,ILCH
  2014			003304'	19270	.CRPO2= XWD     000,ILCH
  2015			003304'	19280	.CRQU2= XWD     000,ILCH
  2016			003304'	19290	.CRPU2= XWD     000,ILCH
  2017			003304'	19300	.CRDA2= XWD     000,ILCH
  2018
  2019			003304'	19320	.CNIC2= XWD     000,ILCH
  2020		000036	000501'	19330	.CNAL2= XWD     CN2,STOSIX
  2021		000036	000501'	19340	.CNNU2= XWD     CN2,STOSIX
  2022			003304'	19350	.CNRP2= XWD     000,ILCH
  2023		000036	000442'	19360	.CNIG2= XWD     CN2,NXTCHR
  2024			003304'	19370	.CNLP2= XWD     000,ILCH
  2025			003304'	19380	.CNAS2= XWD     000,ILCH
  2026		000037	000461'	19390	.CNEX2= XWD     CX2,FILDOT
  2027			003304'	19400	.CNAT2= XWD     000,ILCH
  2028			003304'	19410	.CNCO2= XWD     000,ILCH
  2029		000037	000464'	19420	.CNTE2= XWD     CX2,FILCOM
  2030		000037	000464'	19430	.CNSP2= XWD     CX2,FILCOM
  2031			003304'	19440	.CNPO2= XWD     000,ILCH
  2032			003304'	19450	.CNQU2= XWD     000,ILCH
  2033			003304'	19460	.CNPU2= XWD     000,ILCH
  2034			003304'	19470	.CNDA2= XWD     000,ILCH
  2035
  2036			003304'	19490	.CXIC2= XWD     000,ILCH
  2037		000037	000501'	19500	.CXAL2= XWD     CX2,STOSIX
  2038		000037	000501'	19510	.CXNU2= XWD     CX2,STOSIX
  2039			003304'	19520	.CXRP2= XWD     000,ILCH
  2040		000037	000442'	19530	.CXIG2= XWD     CX2,NXTCHR
  2041			003304'	19540	.CXLP2= XWD     000,ILCH
  2042			003304'	19550	.CXAS2= XWD     000,ILCH
  2043			003304'	19560	.CXEX2= XWD     000,ILCH
  2044			003304'	19570	.CXAT2= XWD     000,ILCH
  2045			003304'	19580	.CXCO2= XWD     000,ILCH
  2046			003232'	19590	.CXTE2= XWD     IS2,CEOL;       TERMINATES NAMES FILENAME WITH TE
  2047			003233'	19600	.CXSP2= XWD     IS2,CNAT;       TERMINATES NAMES FILENAME WITH SP
  2048			003304'	19610	.CXPO2= XWD     000,ILCH
  2049			003304'	19620	.CXQU2= XWD     000,ILCH
  2050			003304'	19630	.CXPU2= XWD     000,ILCH
  2051			003304'	19640	.CXDA2= XWD     000,ILCH
  2052
  2053			003304'	19660	.PPIC2= XWD     000,ILCH
  2054			003304'	19670	.PPAL2= XWD     000,ILCH
  2055		000041	000511'	19680	.PPNU2= XWD     PN2,ACCNUM
  2056			003304'	19690	.PPRP2= XWD     000,ILCH
  2057		000040	000442'	19700	.PPIG2= XWD     PP2,NXTCHR
  2058			003304'	19710	.PPLP2= XWD     000,ILCH
  2059			003304'	19720	.PPAS2= XWD     000,ILCH
  2060			003304'	19730	.PPEX2= XWD     000,ILCH
  2061			003304'	19740	.PPAT2= XWD     000,ILCH
  2062			003304'	19750	.PPCO2= XWD     000,ILCH
  2063			003304'	19760	.PPTE2= XWD     000,ILCH
CMD     03/21/74	MACRO 12.5-46.0 17:25 13-JAN-81 PAGE 1-38
CMD.MAC	23-MAR-79 11:42

  2064			003304'	19770	.PPSP2= XWD     000,ILCH
  2065			003304'	19780	.PPPO2= XWD     000,ILCH
  2066			003304'	19790	.PPQU2= XWD     000,ILCH
  2067			003304'	19800	.PPPU2= XWD     000,ILCH
  2068			003304'	19810	.PPDA2= XWD     000,ILCH
  2069
  2070			003304'	19830	.PNIC2= XWD     000,ILCH
  2071			003304'	19840	.PNAL2= XWD     000,ILCH
  2072		000041	000511'	19850	.PNNU2= XWD     PN2,ACCNUM
  2073			003304'	19860	.PNRP2= XWD     000,ILCH
  2074		000041	000442'	19870	.PNIG2= XWD     PN2,NXTCHR
  2075			003304'	19880	.PNLP2= XWD     000,ILCH
  2076			003304'	19890	.PNAS2= XWD     000,ILCH
  2077			003304'	19900	.PNEX2= XWD     000,ILCH
  2078			003304'	19910	.PNAT2= XWD     000,ILCH
  2079		000042	001433'	19920	.PNCO2= XWD     PC2,PCO
  2080			001421'	19930	.PNTE2= XWD     KF2,PTE
  2081			001423'	19940	.PNSP2= XWD     KF2,PSP
  2082			003304'	19950	.PNPO2= XWD     000,ILCH
  2083			003304'	19960	.PNQU2= XWD     000,ILCH
  2084			003304'	19970	.PNPU2= XWD     000,ILCH
  2085		000043	001425'	19980	.PNDA2= XWD     PX2,PXA
  2086
  2087			003304'	20000	.PCIC2= XWD     000,ILCH
  2088			003304'	20010	.PCAL2= XWD     000,ILCH
  2089		000041	000511'	20020	.PCNU2= XWD     PN2,ACCNUM
  2090			003304'	20030	.PCRP2= XWD     000,ILCH
  2091		000042	000442'	20040	.PCIG2= XWD     PC2,NXTCHR
  2092			003304'	20050	.PCLP2= XWD     000,ILCH
  2093			003304'	20060	.PCAS2= XWD     000,ILCH
  2094			003304'	20070	.PCEX2= XWD     000,ILCH
  2095			003304'	20080	.PCAT2= XWD     000,ILCH
  2096			003304'	20090	.PCCO2= XWD     000,ILCH
  2097			003304'	20100	.PCTE2= XWD     000,ILCH
  2098			003304'	20110	.PCSP2= XWD     000,ILCH
  2099			003304'	20120	.PCPO2= XWD     000,ILCH
  2100			003304'	20130	.PCQU2= XWD     000,ILCH
  2101			003304'	20140	.PCPU2= XWD     000,ILCH
  2102			003304'	20150	.PCDA2= XWD     000,ILCH
  2103
  2104			003304'	20170	.PXIC2= XWD     000,ILCH
  2105		000044	001437'	20180	.PXAL2= XWD     PE2,PEN
  2106		000045	000511'	20190	.PXNU2= XWD     PS2,ACCNUM
  2107			003304'	20200	.PXRP2= XWD     000,ILCH
  2108		000043	000442'	20210	.PXIG2= XWD     PX2,NXTCHR
  2109			003304'	20220	.PXLP2= XWD     000,ILCH
  2110			003304'	20230	.PXAS2= XWD     000,ILCH
  2111			003304'	20240	.PXEX2= XWD     000,ILCH
  2112			003304'	20250	.PXAT2= XWD     000,ILCH
  2113			003304'	20260	.PXCO2= XWD     000,ILCH
  2114			003304'	20270	.PXTE2= XWD     000,ILCH
  2115			003304'	20280	.PXSP2= XWD     000,ILCH
  2116			003304'	20290	.PXPO2= XWD     000,ILCH
CMD     03/21/74	MACRO 12.5-46.0 17:25 13-JAN-81 PAGE 1-39
CMD.MAC	23-MAR-79 11:42

  2117			003304'	20300	.PXQU2= XWD     000,ILCH
  2118			003304'	20310	.PXPU2= XWD     000,ILCH
  2119			003304'	20320	.PXDA2= XWD     000,ILCH
  2120
  2121			003304'	20340	.PEIC2= XWD     000,ILCH
  2122			003304'	20350	.PEAL2= XWD     000,ILCH
  2123			003304'	20360	.PENU2= XWD     000,ILCH
  2124			003304'	20370	.PERP2= XWD     000,ILCH
  2125		000044	000442'	20380	.PEIG2= XWD     PE2,NXTCHR
  2126			003304'	20390	.PELP2= XWD     000,ILCH
  2127			003304'	20400	.PEAS2= XWD     000,ILCH
  2128			003304'	20410	.PEEX2= XWD     000,ILCH
  2129			003304'	20420	.PEAT2= XWD     000,ILCH
  2130		000042	001433'	20430	.PECO2= XWD     PC2,PCO
  2131			001421'	20440	.PETE2= XWD     KF2,PTE
  2132			001423'	20450	.PESP2= XWD     KF2,PSP
  2133			003304'	20460	.PEPO2= XWD     000,ILCH
  2134			003304'	20470	.PEQU2= XWD     000,ILCH
  2135			003304'	20480	.PEPU2= XWD     000,ILCH
  2136			003304'	20490	.PEDA2= XWD     000,ILCH
  2137
  2138			003304'	20510	.PSIC2= XWD     000,ILCH
  2139			003304'	20520	.PSAL2= XWD     000,ILCH
  2140		000045	000511'	20530	.PSNU2= XWD     PS2,ACCNUM
  2141			003304'	20540	.PSRP2= XWD     000,ILCH
  2142		000045	000442'	20550	.PSIG2= XWD     PS2,NXTCHR
  2143			003304'	20560	.PSLP2= XWD     000,ILCH
  2144			003304'	20570	.PSAS2= XWD     000,ILCH
  2145			003304'	20580	.PSEX2= XWD     000,ILCH
  2146			003304'	20590	.PSAT2= XWD     000,ILCH
  2147		000042	001433'	20600	.PSCO2= XWD     PC2,PCO
  2148			001421'	20610	.PSTE2= XWD     KF2,PTE
  2149			001423'	20620	.PSSP2= XWD     KF2,PSP
  2150			003304'	20630	.PSPO2= XWD     000,ILCH
  2151			003304'	20640	.PSQU2= XWD     000,ILCH
  2152			003304'	20650	.PSPU2= XWD     000,ILCH
  2153			003304'	20660	.PSDA2= XWD     000,ILCH
  2154
  2155			003304'	20680	.TDIC2= XWD     000,ILCH
  2156			003304'	20690	.TDAL2= XWD     000,ILCH
  2157			003304'	20700	.TDNU2= XWD     000,ILCH
  2158			003304'	20710	.TDRP2= XWD     000,ILCH
  2159		000046	000442'	20720	.TDIG2= XWD     TD2,NXTCHR
  2160		000047	002256'	20730	.TDLP2= XWD     TL2,T137LP
  2161			003304'	20740	.TDAS2= XWD     000,ILCH
  2162			003304'	20750	.TDEX2= XWD     000,ILCH
  2163			003304'	20760	.TDAT2= XWD     000,ILCH
  2164			003304'	20770	.TDCO2= XWD     000,ILCH
  2165			003304'	20780	.TDTE2= XWD     000,ILCH
  2166			003304'	20790	.TDSP2= XWD     000,ILCH
  2167			003304'	20800	.TDPO2= XWD     000,ILCH
  2168			003304'	20810	.TDQU2= XWD     000,ILCH
  2169			003304'	20820	.TDPU2= XWD     000,ILCH
CMD     03/21/74	MACRO 12.5-46.0 17:25 13-JAN-81 PAGE 1-40
CMD.MAC	23-MAR-79 11:42

  2170			003304'	20830	.TDDA2= XWD     000,ILCH
  2171
  2172			003304'	20850	.TLIC2= XWD     000,ILCH
  2173		000050	002261'	20860	.TLAL2= XWD     TN2,TRTCHR
  2174		000050	002261'	20870	.TLNU2= XWD     TN2,TRTCHR
  2175			003304'	20880	.TLRP2= XWD     000,ILCH
  2176		000047	000442'	20890	.TLIG2= XWD     TL2,NXTCHR
  2177			003304'	20900	.TLLP2= XWD     000,ILCH
  2178		000050	002261'	20910	.TLAS2= XWD     TN2,TRTCHR
  2179		000050	002261'	20920	.TLEX2= XWD     TN2,TRTCHR
  2180			003304'	20930	.TLAT2= XWD     000,ILCH
  2181			003304'	20940	.TLCO2= XWD     000,ILCH
  2182			003304'	20950	.TLTE2= XWD     000,ILCH
  2183			003304'	20960	.TLSP2= XWD     000,ILCH
  2184			003304'	20970	.TLPO2= XWD     000,ILCH
  2185			003304'	20980	.TLQU2= XWD     000,ILCH
  2186		000050	002261'	20990	.TLPU2= XWD     TN2,TRTCHR
  2187		000050	002261'	21000	.TLDA2= XWD     TN2,TRTCHR
  2188
  2189			003304'	21020	.TNIC2= XWD     000,ILCH
  2190		000050	002261'	21030	.TNAL2= XWD     TN2,TRTCHR
  2191		000050	002261'	21040	.TNNU2= XWD     TN2,TRTCHR
  2192		000052	002265'	21050	.TNRP2= XWD     TY2,TRST
  2193		000050	000442'	21060	.TNIG2= XWD     TN2,NXTCHR
  2194			003304'	21070	.TNLP2= XWD     000,ILCH
  2195		000050	002261'	21080	.TNAS2= XWD     TN2,TRTCHR
  2196		000050	002261'	21090	.TNEX2= XWD     TN2,TRTCHR
  2197			003304'	21100	.TNAT2= XWD     000,ILCH
  2198			003304'	21110	.TNCO2= XWD     000,ILCH
  2199			003304'	21120	.TNTE2= XWD     000,ILCH
  2200		000050	002261'	21130	.TNSP2= XWD     TN2,TRTCHR
  2201			003304'	21140	.TNPO2= XWD     000,ILCH
  2202			003304'	21150	.TNQU2= XWD     000,ILCH
  2203		000050	002261'	21160	.TNPU2= XWD     TN2,TRTCHR
  2204		000050	002261'	21170	.TNDA2= XWD     TN2,TRTCHR
  2205
  2206			003304'	21190	.TRIC2= XWD     000,ILCH
  2207			003304'	21200	.TRAL2= XWD     000,ILCH
  2208			003304'	21210	.TRNU2= XWD     000,ILCH
  2209			003304'	21220	.TRRP2= XWD     000,ILCH
  2210		000051	000442'	21230	.TRIG2= XWD     TR2,NXTCHR
  2211			003304'	21240	.TRLP2= XWD     000,ILCH
  2212			003304'	21250	.TRAS2= XWD     000,ILCH
  2213			003304'	21260	.TREX2= XWD     000,ILCH
  2214			003304'	21270	.TRAT2= XWD     000,ILCH
  2215		000022	000522'	21280	.TRCO2= XWD     PD2,ACCCOM
  2216		000002	000562'	21290	.TRTE2= XWD     UF2,TRMEOL
  2217		000002	000563'	21300	.TRSP2= XWD     UF2,TRMNAT
  2218			003304'	21310	.TRPO2= XWD     000,ILCH
  2219			003304'	21320	.TRQU2= XWD     000,ILCH
  2220			003304'	21330	.TRPU2= XWD     000,ILCH
  2221			003304'	21340	.TRDA2= XWD     000,ILCH
  2222
CMD     03/21/74	MACRO 12.5-46.0 17:25 13-JAN-81 PAGE 1-41
CMD.MAC	23-MAR-79 11:42

  2223			003304'	21360	.TYIC2= XWD     000,ILCH
  2224		000031	000467'	21370	.TYAL2= XWD     FN2,ENDUN
  2225		000031	000467'	21380	.TYNU2= XWD     FN2,ENDUN
  2226			003304'	21390	.TYRP2= XWD     000,ILCH
  2227		000052	000442'	21400	.TYIG2= XWD     TY2,NXTCHR
  2228			003304'	21410	.TYLP2= XWD     000,ILCH
  2229		000031	000467'	21420	.TYAS2= XWD     FN2,ENDUN
  2230			003304'	21430	.TYEX2= XWD     000,ILCH
  2231			003304'	21440	.TYAT2= XWD     000,ILCH
  2232		000022	000522'	21450	.TYCO2= XWD     PD2,ACCCOM
  2233		000002	000562'	21460	.TYTE2= XWD     UF2,TRMEOL
  2234		000002	000563'	21470	.TYSP2= XWD     UF2,TRMNAT
  2235		000031	000467'	21480	.TYPO2= XWD     FN2,ENDUN
  2236		000031	000467'	21490	.TYQU2= XWD     FN2,ENDUN
  2237			003304'	21500	.TYPU2= XWD     000,ILCH
  2238			003304'	21510	.TYDA2= XWD     000,ILCH
  2239
  2240				21530	;INTERMEDIATE STATES FOR SECOND PART OF COMMAND
  2241
  2242	003513'			21550	ISTAB2: BLOCK   0
  2243	003513'	000000	005446'	21560	        ISTATE  IS,2;   INITIAL STATE
  2244	003514'	000000	005465'	21570	        ISTATE  KN,2;   KEYWORD PARTIALLY READ
  2245	003515'	000000	005503'	21580	        ISTATE  GA,2;   GAN - "G" JUST READ
  2246	003516'	000000	005521'	21590	        ISTATE  GN,2;   GAN - PARTIALLY READ
  2247	003517'	000000	005541'	21600	        ISTATE  GC,2;   GAN - COMMA JUST READ
  2248	003520'	000000	005560'	21610	        ISTATE  GD,2;   GAN - DASH JUST READ
  2249	003521'	000000	005576'	21620	        ISTATE  GS,2;   GAN - SECOND GAN OF RANGE PARTIALLY READ
  2250	003522'	000000	005612'	21630	        ISTATE  GE,2;   GAN - E FOR END JUST READ IN 2ND HALF OF RANGE
  2251	003523'	000000	005630'	21640	        ISTATE  YL,2;   PPN OR F - LEFT BRACKET JUST READ
  2252	003524'	000000	005646'	21650	        ISTATE  YA,2;   PPN OR F - ACCT NUMBER PARTIALLY READ
  2253	003525'	000000	005664'	21660	        ISTATE  YC,2;   PPN OR F - COMMA JUST READ
  2254	003526'	000000	005702'	21670	        ISTATE  YU,2;   PPN OR F - USER NUMBER PARTIALLY READ
  2255	003527'	000000	005722'	21680	        ISTATE  YR,2;   PPN OR F - RIGHT BRACKET JUST READ
  2256	003530'	000000	005740'	21690	        ISTATE  PL,2;   PPN - LEFT BRACKET JUST READ
  2257	003531'	000000	005756'	21700	        ISTATE  PA,2;   PPN - ACCT NUMBER PARTIALLY READ
  2258	003532'	000000	005774'	21710	        ISTATE  PB,2;   PPN - COMMA BETWEEN GAN AND UUN JUST READ
  2259	003533'	000000	006012'	21720	        ISTATE  PU,2;   PPN - USER NUMBER PARTIALLY READ
  2260	003534'	000000	006032'	21730	        ISTATE  PR,2;   PPN - RIGHT BRACKET JUST READ
  2261	003535'	000000	006046'	21740	        ISTATE  PD,2;   PPN - COMMA BETWEEN PPNS JUST READ
  2262	003536'	000000	006065'	21750	        ISTATE  UL,2;   UN - LEFT PAREN JUST READ
  2263	003537'	000000	006105'	21760	        ISTATE  UN,2;   UN - NAME PARTIALLY READ
  2264	003540'	000000	006125'	21770	        ISTATE  XL,2;   UN OR F - LEFT PAREN JUST READ
  2265	003541'	000000	006145'	21780	        ISTATE  XN,2;   UN OR F - NAME PARTIALLY READ
  2266	003542'	000000	006165'	21790	        ISTATE  FX,2;   F - EXTENSION PARTIALLY READ
  2267	003543'	000000	006204'	21800	        ISTATE  FC,2;   F - COMMA JUST READ
  2268	003544'	000000	006223'	21810	        ISTATE  FN,2;   F - NAME PARTIALLY READ
  2269	003545'	000000	006242'	21820	        ISTATE  CA,2;   @ JUST READ TO START NAMES FILE
  2270	003546'	000000	006261'	21830	        ISTATE  CL,2;   LEFT PAREN READ
  2271	003547'	000000	006301'	21840	        ISTATE  CC,2;   USER NAME PARTLY READ
  2272	003550'	000000	006321'	21850	        ISTATE  CR,2;    RIGHT PAREN READ
  2273	003551'	000000	006340'	21860	        ISTATE  CN,2;   NAME PARTLY READ
  2274	003552'	000000	006357'	21870	        ISTATE  CX,2;   EXTENSION PARTLY READ
  2275	003553'	000000	006375'	21880	        ISTATE  PP,2;   POS - "P" OR "#" JUST READ
CMD     03/21/74	MACRO 12.5-46.0 17:25 13-JAN-81 PAGE 1-42
CMD.MAC	23-MAR-79 11:42

  2276	003554'	000000	006413'	21890	        ISTATE  PN,2;   POS - NUMBER PARTIALLY READ
  2277	003555'	000000	006433'	21900	        ISTATE  PC,2;   POS - COMMA JUST READ
  2278	003556'	000000	006452'	21910	        ISTATE  PX,2;   POS - DASH JUST READ
  2279	003557'	000000	006466'	21920	        ISTATE  PE,2;   POS - E JUST READ TO END RANGE
  2280	003560'	000000	006504'	21930	        ISTATE  PS,2;   POS - 2ND HALF OF RANGE PARTIALLY READ
  2281	003561'	000000	006520'	21940	        ISTATE  TD,2;   BACK ARROW READ AFTER USER NAME
  2282	003562'	000000	006537'	21950	        ISTATE  TL,2;   LEFT PAREN JUST READ FOR TAPE USER NAME
  2283	003563'	000000	006554'	21960	        ISTATE  TN,2;   TAPE USER NAME PARTIALLY READ
  2284	003564'	000000	006574'	21970	        ISTATE  TR,2;   RT PAREN READ (LIKE PR BUT BACKARROW DISALLOWED)
  2285	003565'	000000	006613'	21980	        ISTATE  TY,2;   RT PAREN READ (LIKE YR BUT BACKARROW DISALLOWED)
  2286
  2287				22000	;TERMINAL STATES FOR SECOND PART OF COMMAND
  2288
  2289	003566'			22020	TSTAB2: BLOCK   0
  2290	003566'	000664'	006633'	22030	        TSTATE  KF,2;   KEYWORD FOUND
  2291	003567'	000670'	006634'	22040	        TSTATE  GF,2;   GAN FOUND
  2292	003570'	000670'	006635'	22050	        TSTATE  UF,2;   USER NAME FOUND
  2293	003571'	000677'	006636'	22060	        TSTATE  FF,2;   FILE NAME FOUND
  2294				22070	       ;TSTATE  PF,2;   POSITION NUMBER FOUND
  2295
  2296				22090	;SYMBOLS FORMING STATE DIAGRAM FOR THIRD PART OF COMMAND
  2297
  2298			003304'	22110	.ISIC3= XWD     000,ILCH
  2299		000001	000502'	22120	.ISAL3= XWD     KN3,STOCHR
  2300			003304'	22130	.ISNU3= XWD     000,ILCH
  2301			003304'	22140	.ISRP3= XWD     000,ILCH
  2302			000442'	22150	.ISIG3= XWD     IS3,NXTCHR
  2303			003304'	22160	.ISLP3= XWD     000,ILCH
  2304			003304'	22170	.ISAS3= XWD     000,ILCH
  2305			003304'	22180	.ISEX3= XWD     000,ILCH
  2306			003304'	22190	.ISAT3= XWD     000,ILCH
  2307			003304'	22200	.ISCO3= XWD     000,ILCH
  2308			000370'	22210	.ISTE3= XWD     000,CDISP
  2309			000442'	22220	.ISSP3= XWD     IS3,NXTCHR
  2310			003304'	22230	.ISPO3= XWD     000,ILCH
  2311		000001	000502'	22240	.ISQU3= XWD     KN3,STOCHR
  2312			003304'	22250	.ISPU3= XWD     000,ILCH
  2313			003304'	22260	.ISDA3= XWD     000,ILCH
  2314
  2315			003304'	22280	.KNIC3= XWD     000,ILCH
  2316		000001	000502'	22290	.KNAL3= XWD     KN3,STOCHR
  2317			003304'	22300	.KNNU3= XWD     000,ILCH
  2318			003304'	22310	.KNRP3= XWD     000,ILCH
  2319		000001	000442'	22320	.KNIG3= XWD     KN3,NXTCHR
  2320			003304'	22330	.KNLP3= XWD     000,ILCH
  2321			003304'	22340	.KNAS3= XWD     000,ILCH
  2322			003304'	22350	.KNEX3= XWD     000,ILCH
  2323			003304'	22360	.KNAT3= XWD     000,ILCH
  2324			003304'	22370	.KNCO3= XWD     000,ILCH
  2325			000562'	22380	.KNTE3= XWD     KF3,TRMEOL
  2326			000563'	22390	.KNSP3= XWD     KF3,TRMNAT
  2327			003304'	22400	.KNPO3= XWD     000,ILCH
  2328		000001	000502'	22410	.KNQU3= XWD     KN3,STOCHR
CMD     03/21/74	MACRO 12.5-46.0 17:25 13-JAN-81 PAGE 1-43
CMD.MAC	23-MAR-79 11:42

  2329			003304'	22420	.KNPU3= XWD     000,ILCH
  2330			003304'	22430	.KNDA3= XWD     000,ILCH
  2331
  2332				22450	;INTERMEDIATE STATE FOR THIRD PART OF COMMAND
  2333
  2334	003572'			22470	ISTAB3: BLOCK   0
  2335	003572'	000000	005406'	22480	        ISTATE  IS,3;   INITIAL STATE
  2336	003573'	000000	005422'	22490	        ISTATE  KN,3;   KEYWORD PARTIALLY READ
  2337
  2338
  2339				22520	;TERMINAL STATES FOR THIRD PART OF COMMAND
  2340
  2341
  2342	003574'			22550	TSTAB3: BLOCK   0
  2343	003574'	000664'	006637'	22560	        TSTATE  KF,3;   KEYWORD FOUND
  2344
  2345				22580	;*
  2346
  2347	003575'			22600	        VAR
  2348				22610	        END
  2349
NO ERRORS DETECTED
PROGRAM BREAK IS 006640
10K CORE USED
CMD     03/21/74	MACRO 12.5-46.0 17:25 13-JAN-81 PAGE 2
CMD.MAC	23-MAR-79 11:42		SYMBOL TABLE

ABORT		003364'		CNTFD		000523'	EXT	CRETRM		003161'		FFTRM		000677'
ABORTA		003360'	INT	CNTFP		000000	EXT	CREY		003203'		FIL		000006	SPD
ACCCOM		000522'		CNTFT		000570'	EXT	CRLS		000401'	EXT	FILBUF		003272'	EXT
ACCDSH		000523'		CNVDAT		003176'	EXT	CT		000007	SPD	FILCNT		000424'	EXT
ACCEND		000516'		CNVFMT		003165'	EXT	CTABL2		003461'	INT	FILCOM		000464'
ACCNUM		000511'		CNVTIM		003174'	EXT	CTABLE		003465'		FILDI1		005314'	EXT
ACMLTR		003575'		CNYI		003301'		CURPPN		000423'	EXT	FILDI2		003246'	EXT
AFSTG		000662'		CO		000011		CURUN1		002303'	EXT	FILDI3		003247'	EXT
AFTSTR		003070'		COF		000002	SPD	CURUN2		002306'	EXT	FILDIR		003275'	EXT
AL		000001	SPD	COFABT		003057'		CUTROU		003744'	EXT	FILDOT		000461'
ALLFSW		001003'	EXT	COFBUF		002744'		CX2		000037		FILHED		003270'	EXT
ALLLST		001004'	EXT	COFCHR		002761'		DA		000017		FILN		003274'	EXT
ALLREE		000631'		COFDEV		002743'		DATE		000014	SPD	FINGAN		003243'	EXT
ALLROU		001003'		COFENE		002322'		DATUUO	047000	777723		FINUN		002276'	INT
APPR9		001333'		COFENT		002317'		DEC	011000	000000		FINUN0		002277'
APPROU		001332'	INT	COFEXN		002324'		DEVROU		004104'	EXT	FINUN1		002310'
APRENB	047000	000016		COFEXT		002774'		DEVTAB		002330'		FINUN2		002314'
APTR		003411'		COFFIL		002323'		DEVTBE		002334'		FIXLL		000534'
AS		000006		COFHED		002754'	EXT	DEVWRD		002327'		FLGOFF		001257'	EXT
ASTRSK		000052		COFLUP		003020'		DIRROU		003674'	EXT	FLGROU		004211'	EXT
AT		000010		COFN		000002	SPD	DISABL	017000	000000		FN2		000031
BARROW		000137		COFNEW		003055'		DKY		100000	SPD	FSTROU		003705'	EXT
BEFSTR		003072'		COFRET		003053'		DKYROU		000643'		FX2		000027
CA2		000032		COFRLS		002745'	EXT	DOTCHR		000056		GA2		000002
CC2		000034		COFROU		002745'		DUM		400000	SPD	GAN		003601'
CDISP		000370'	INT	COFSTS		002742'		ECHR		000105	SIN	GC2		000004
CDLP		000707'		COFTRM		003007'		ENABLE	016000	000000		GCD	005000	000000
CDLP0		000762'		COFTST		003040'		ENDUN		000467'		GCI	004000	000000
CDLP1		000714'		COFXBF		002334'		EOLFLG		003576'		GD2		000005
CDLP2		000741'		COFXCH		003000'		EOLIT		000000	SPD	GE2		000007
CDLP3		000751'		COFXTR		003011'		EOTFLG		001334'	EXT	GETADR		000142'
CEOL		003232'		COLON		000072		ERB	024000	000000		GETCMD		000135'
CH		000004	SPD	COMBFE		000360'		ERO	022000	000000		GETFLG		000137'
CHANGD		001374'	EXT	COMBUF		000160'	INT	EROSW		003374'	EXT	GETHLP		000133'
CHARC		000000		COMPT1		000156'		ERROR	015000	000000		GETPPN	047000	000024
CHARET		001100'		COMPT2		000157'		ERT	023000	000000		GETROU		004116'	EXT
CHAROU		001374'		COMPTR		000155'	INT	ESCDI		003331'	EXT	GETTAB	047000	000041
CHKG		001417'		CONVUN		000541'		ESCFLG		003577'		GETTST		000145'
CHKGP		001404'		CONVUU		000544'		ESCR		003336'	INT	GF2		000001
CHRCNT		000405'	EXT	CONVVV		000553'		ESCR1		003316'		GF2TAB		000105'
CIN		000000'	INT	COUT		003053'	EXT	ESCR2		003353'		GF2TBE		000106'
CINFLG		003277'	EXT	CPOPJ		000134'	EXT	EX		000007		GFTRM		000670'
CKSUM		001134'	EXT	CPPN		002246'	EXT	EXIT	047000	000012		GN2		000003
CL2		000033		CPRMPT		000640'		EXTCOM		000457'		GOODC		003602'
CLDSP		000361'	INT	CR2		000035		F		000010		GS2		000006
CLRBFO	051500	000000		CRCHR		000015		FAKFLG		003600'		HELLP		000770'
CLRIN	013000	000000		CREDAT		003177'	EXT	FAKPPN		003214'		HELLP1		000766'
CLRTRT		002271'		CREDMY		003212'		FC2		000030		HELROU		000764'
CM1		000001	SPD	CREMY		003206'		FCRROU		003720'	EXT	HX		003603'
CMDSRC		000706'		CREROU		003074'		FERR		003374'	INT	IC		000000
CN2		000036		CRETIM		003175'	EXT	FF2		000003	INT	IG		000004
CNAT		003233'		CRETR1		003162'		FF2TAB		000107'		ILCH		003304'
CNTFC		004641'	EXT	CRETR2		003163'		FF2TBE		000110'		INIFLG		001321'	EXT
CMD     03/21/74	MACRO 12.5-46.0 17:25 13-JAN-81 PAGE 2-2
CMD.MAC	23-MAR-79 11:42		SYMBOL TABLE

IPTR		003405'		MOCROU		001210'		PA2		000016		READPP		001170'
IS1		000000		MODROU		001207'		PB2		000017		READUN		001140'
IS2		000000		MODTMP		001202'		PC2		000042		REDUN1		001160'
IS3		000000		MODWRD		001201'		PCO		001433'		REDUN2		001147'
IS4		000000	SPD	MOK		200000	SPD	PD2		000022		RESABO		003371'
IS5		000000	SPD	MOMCON		000003	SIN	PE2		000044		RESROU		003662'	EXT
IS6		000000	SPD	MOMDIS		000002	SIN	PEN		001437'		REWROU		004014'	EXT
ISTAB		003470'		MOMNEW		000000	SIN	PL2		000015		REWWAI		001335'	EXT
ISTAB1		003505'		MOMTAP		000001	SIN	PN2		000041		RKWBAT		003453'
ISTAB2		003513'		MONROU		001213'		PND		040000	SPD	RP		000003
ISTAB3		003572'		MOPTR		001205'	INT	PNU		001411'		RPAREN		000051	SPD
ISTAB4		003505'	SPD	MORMSK		000037	SPD	PO		000014		RPTCNT		001401'	EXT
ISTAB5		003505'	SPD	MOROU		001231'		PP2		000040		RPTFIL		000000	EXT
ISTAB6		003505'	SPD	MOTROU		001214'		PPNUSR		000536'	EXT	RPTFLG		001402'	EXT
JIFFPM		003121'	EXT	MRPTR		001204'	INT	PR2		000021		RST		000040	SPD
JIFFPS		003171'	EXT	MRROU		001226'		PRAFLG		001255'	EXT	RWNROU		004023'	EXT
JOBAPR		000364'	EXT	MS3		000005	SPD	PRIDEV		003061'		S		000006
JOBCNI		003316'	EXT	MSFROU		001216'		PROMPT		000641'		S6PTR		003402'	INT
JOBFF		003273'	EXT	MSMFIL		000003	SIN	PRONUM		003400'	EXT	SAMCHR		000444'
JOBTPC		003335'	EXT	MSMTOT		000000	SIN	PRROU		004163'	EXT	SCDISP		000363'	INT
KF0TAB		000043'		MSMUSR		000002	SIN	PS2		000045		SCOUNT		005344'	EXT
KF1		000000		MSPTR		001203'	INT	PSP		001423'		SENTAB		000000	EXT
KF1TAB		000044'		MSROU		001223'		PTE		001421'		SETN		001511'
KF1TBE		000100'		MSTROU		001220'		PTE1		001450'		SETN12		001474'	INT
KF2		000000		MSUROU		001221'		PTE2		001445'		SETTTY	014000	000000
KF2TAB		000100'		MSYPTR		001206'	INT	PTE3		001453'		SKI1		001351'
KF2TBE		000105'		MSYROU		001234'		PTEP		001444'		SKI2		001350'	INT
KF3		000000		MTCLS		003337'	EXT	PU		000016		SKIEND		001367'
KF3TAB		000110'		N1		001522'	INT	PU2		000020		SKILUP		001354'
KF3TBE		000115'		N2		001523'	INT	PX2		000043		SKIROU		001340'
KF4		000000		NCSEC		000006	SPD	PXA		001425'		SKITRM		001373'	EXT
KF4TAB		000115'		NEWR1A		001315'	INT	QU		000015		SP		000013
KF4TBE		000122'		NEWR2		001320'		QUIROU		004065'	EXT	SPACE		000040
KF5		000000		NEWR3		001323'		QUOTE		000042		SPTR		003407'
KF5TAB		000122'		NEWROU		001302'		R0		000000		SR2		000002	SPD
KF5TBE		000126'		NFLROU		004223'	EXT	R1		000001		SR3		000003	SPD
KF6		000000		NPARTS		000003	SPD	R2		000002		SSKE	020000	000000
KF6TAB		000126'		NPRROU		004177'	EXT	R3		000003		STACH1		001076'
KF6TBE		000133'		NPTR		003406'		RANCMD		001414'	EXT	STACH2		001115'
KFTRM		000664'		NPTR1		003427'		RANFST		001524'	INT	STACH3		001122'
KN1		000001		NTS1		000001		RANGE		001526'	INT	STACK		000001'	INT
KN2		000001		NTS2		000004		RANLAS		001525'	INT	STACKE		000042'
KN3		000001		NTS3		000001		RANO		001470'	INT	STACKL		000040
LBROK		000074	SPD	NTS4		000001		RANO1		001462'		STALBR		001031'
LP		000005		NTS5		000001		RANSIZ		000400	SIN	STAPMT		001027'
LPAREN		000050	SPD	NTS6		000001		RANZ		001457'	INT	STARED		001030'
LPTFLG		003066'	EXT	NU		000002	INT	RBROK		000076	SPD	STAROU		001007'
LUDL		000550'	EXT	NUPROU		004153'	EXT	RCOUNT		005355'	EXT	STASIX		001105'
LUDLC		000000	EXT	NWFLG		000371'	EXT	RDDNUM		003154'	EXT	STASX1		001110'
MDEROU		001237'		NXTCHR		000442'		RDLINE	003000	000000		STATRM		001066'
MM2		000004	SPD	NXTPRT		000432'		RDMON		003142'	EXT	STOCHR		000502'
MO3		000006	SPD	OUTSTR	051140	000000		RDONUM		001174'	EXT	STOGAN		000505'
MOCOM		001211'		P		000017		READKW		003444'		STOROU		003650'	EXT
CMD     03/21/74	MACRO 12.5-46.0 17:25 13-JAN-81 PAGE 2-3
CMD.MAC	23-MAR-79 11:42		SYMBOL TABLE

STOSIX		000501'		TYPOM		001271'		.CCDA2	000034	000501'		.CRNU2	000036	000467'
STRBLK		001075'	EXT	TYPSRM		001262'		.CCEX2	000034	000501'		.CRPO2		003304'
STREXT		001070'	EXT	U		000015		.CCIC2		003304'		.CRPU2		003304'
STRFIL		001055'	EXT	UF2		000002		.CCIG2	000034	000442'		.CRQU2		003304'
STRPPN		002215'	EXT	UF2TAB		000106'		.CCLP2		003304'		.CRRP2		003304'
STRTUN		000472'		UF2TBE		000107'		.CCNU2	000034	000501'		.CRSP2		003304'
T137A		002224'		UFTRM		000670'		.CCPO2		003304'		.CRTE2		003304'
T137B		002246'		UL2		000023		.CCPU2	000034	000501'		.CXAL2	000037	000501'
T137C		002236'		UN2		000024		.CCQU2		003304'		.CXAS2		003304'
T137LP		002256'		UNISW		000377'	EXT	.CCRP2	000035	000541'		.CXAT2		003304'
TAB	021000	000000		UNIT		000012	SPD	.CCSP2	000034	000501'		.CXCO2		003304'
TAPSTG		001327'		UNLROU		004035'	EXT	.CCTE2		003304'		.CXDA2		003304'
TCI	001000	000000		UNTROU		002211'		.CLAL2	000034	000472'		.CXEX2		003304'
TCL	002000	000000		UPDFLG		001253'	EXT	.CLAS2	000034	000472'		.CXIC2		003304'
TCO	010000	000000		UPDROU		004144'	EXT	.CLAT2		003304'		.CXIG2	000037	000442'
TD2		000046		USRPPN		001162'	EXT	.CLCO2		003304'		.CXLP2		003304'
TE		000012	INT	UU1RE2		001165'		.CLDA2	000034	000472'		.CXNU2	000037	000501'
THRROU		001376'		UUORET		003333'	EXT	.CLEX2	000034	000472'		.CXPO2		003304'
TL2		000047		VERPAT		000013	SPD	.CLIC2		003304'		.CXPU2		003304'
TN2		000050		VERSIO		000015	SPD	.CLIG2	000033	000442'		.CXQU2		003304'
TOFCHR		000014		W		000005		.CLLP2		003304'		.CXRP2		003304'
TOTCNT		000425'	EXT	WCD	007000	000000		.CLNU2	000034	000472'		.CXSP2		003233'
TR2		000051		WCI	006000	000000		.CLPO2		003304'		.CXTE2		003232'
TRAROU		002213'		WHEROU		003770'	EXT	.CLPU2	000034	000472'		.FCAL2	000031	000501'
TRMEOL		000562'		WRISTG		001330'		.CLQU2		003304'		.FCAS2	000031	000501'
TRMNA1		000620'		X		000006	SPD	.CLRP2		003304'		.FCAT2		003304'
TRMNA2		000620'		XL2		000025		.CLSP2		003304'		.FCCO2		003304'
TRMNA3		000635'		XN2		000026		.CLTE2		003304'		.FCDA2		003304'
TRMNAT		000563'		YA2		000011		.CNAL2	000036	000501'		.FCEX2		003304'
TRST		002265'		YC2		000012		.CNAS2		003304'		.FCIC2		003304'
TRT		002126'		YL2		000010		.CNAT2		003304'		.FCIG2	000030	000442'
TRTCHR		002261'		YR2		000014		.CNCO2		003304'		.FCLP2		003304'
TRTF		000000	EXT	YU2		000013		.CNDA2		003304'		.FCNU2	000031	000501'
TRTFG2		002233'	EXT	.CAAL2	000036	003214'		.CNEX2	000037	000461'		.FCPO2	000031	000501'
TRTFG3		002211'	EXT	.CAAS2		003304'		.CNIC2		003304'		.FCPU2		003304'
TRTFLG		000431'	EXT	.CAAT2		003304'		.CNIG2	000036	000442'		.FCQU2	000031	000501'
TRTM		000020	SPD	.CACO2		003304'		.CNLP2		003304'		.FCRP2		003304'
TRTN		002207'		.CADA2		003304'		.CNNU2	000036	000501'		.FCSP2		003304'
TRTPTR		002210'		.CAEX2		003304'		.CNPO2		003304'		.FCTE2		003304'
TRTS		002206'		.CAIC2		003304'		.CNPU2		003304'		.FNAL2	000031	000501'
TSTAB		003476'		.CAIG2		003304'		.CNQU2		003304'		.FNAS2		003304'
TSTAB1		003507'		.CALP2	000033	003227'		.CNRP2		003304'		.FNAT2		003304'
TSTAB2		003566'		.CANU2	000036	003214'		.CNSP2	000037	000464'		.FNCO2	000027	000464'
TSTAB3		003574'		.CAPO2		003304'		.CNTE2	000037	000464'		.FNDA2		003304'
TSTAB4		003510'		.CAPU2		003304'		.CRAL2	000036	000467'		.FNEX2	000027	000461'
TSTAB5		003511'		.CAQU2		003304'		.CRAS2		003304'		.FNIC2		003304'
TSTAB6		003512'		.CARP2		003304'		.CRAT2		003304'		.FNIG2	000031	000442'
TSTL		003227'		.CASP2		003304'		.CRCO2		003304'		.FNLP2		003304'
TSTLPI		000526'		.CATE2		003304'		.CRDA2		003304'		.FNNU2	000031	000501'
TSTLPP		000531'		.CCAL2	000034	000501'		.CREX2		003304'		.FNPO2	000031	000501'
TWIROU		001400'		.CCAS2	000034	000501'		.CRIC2		003304'		.FNPU2		003304'
TY2		000052		.CCAT2		003304'		.CRIG2	000035	000442'		.FNQU2	000031	000501'
TYPE	012000	000000		.CCCO2		003304'		.CRLP2		003304'		.FNRP2		003304'
CMD     03/21/74	MACRO 12.5-46.0 17:25 13-JAN-81 PAGE 2-4
CMD.MAC	23-MAR-79 11:42		SYMBOL TABLE

.FNSP2	000027	000464'		.GDCO2		003304'		.GSLP2		003304'		.ISTE1		000370'
.FNTE2	000027	000464'		.GDDA2		003304'		.GSNU2	000006	000511'		.ISTE2		000641'
.FXAL2	000027	000501'		.GDEX2		003304'		.GSPO2		003304'		.ISTE3		000370'
.FXAS2	000027	000501'		.GDIC2		003304'		.GSPU2		003304'		.KNAL1	000001	000502'
.FXAT2		003304'		.GDIG2	000005	000442'		.GSQU2		003304'		.KNAL2	000001	000502'
.FXCO2	000030	000457'		.GDLP2		003304'		.GSRP2		003304'		.KNAL3	000001	000502'
.FXDA2		003304'		.GDNU2	000006	000511'		.GSSP2	000001	000563'		.KNAS1		003304'
.FXEX2		003304'		.GDPO2		003304'		.GSTE2	000001	000562'		.KNAS2		003304'
.FXIC2		003304'		.GDPU2		003304'		.ISAL1	000001	000502'		.KNAS3		003304'
.FXIG2	000027	000442'		.GDQU2		003304'		.ISAL2	000001	001404'		.KNAT1		003304'
.FXLP2		003304'		.GDRP2		003304'		.ISAL3	000001	000502'		.KNAT2		003304'
.FXNU2	000027	000501'		.GDSP2		003304'		.ISAS1		003304'		.KNAT3		003304'
.FXPO2	000027	000501'		.GDTE2		003304'		.ISAS2		003304'		.KNCO1		003304'
.FXPU2		003304'		.GEAL2		003304'		.ISAS3		003304'		.KNCO2		003304'
.FXQU2	000027	000501'		.GEAS2		003304'		.ISAT1		003304'		.KNCO3		003304'
.FXRP2		003304'		.GEAT2		003304'		.ISAT2	000032	000442'		.KNDA1		003304'
.FXSP2	000003	000563'		.GECO2	000004	000522'		.ISAT3		003304'		.KNDA2		003304'
.FXTE2	000003	000562'		.GEDA2		003304'		.ISCO1		003304'		.KNDA3		003304'
.GAAL2		003304'		.GEEX2		003304'		.ISCO2		003304'		.KNEX1		003304'
.GAAS2		003304'		.GEIC2		003304'		.ISCO3		003304'		.KNEX2		003304'
.GAAT2		003304'		.GEIG2	000007	000442'		.ISDA1		003304'		.KNEX3		003304'
.GACO2		003304'		.GELP2		003304'		.ISDA2		003304'		.KNIC1		003304'
.GADA2		003304'		.GENU2		003304'		.ISDA3		003304'		.KNIC2		003304'
.GAEX2		003304'		.GEPO2		003304'		.ISEX1		003304'		.KNIC3		003304'
.GAIC2		003304'		.GEPU2		003304'		.ISEX2		003304'		.KNIG1	000001	000442'
.GAIG2	000002	000442'		.GEQU2		003304'		.ISEX3		003304'		.KNIG2	000001	000442'
.GALP2		003304'		.GERP2		003304'		.ISIC1		003304'		.KNIG3	000001	000442'
.GANU2	000003	000511'		.GESP2	000001	000563'		.ISIC2		003304'		.KNLP1		003304'
.GAPO2		003304'		.GETE2	000001	000562'		.ISIC3		003304'		.KNLP2		003304'
.GAPU2		003304'		.GNAL2		003304'		.ISIG1		000442'		.KNLP3		003304'
.GAQU2		003304'		.GNAS2		003304'		.ISIG2		000442'		.KNNU1		003304'
.GARP2		003304'		.GNAT2		003304'		.ISIG3		000442'		.KNNU2		003304'
.GASP2		003304'		.GNCO2	000004	000522'		.ISLP1		003304'		.KNNU3		003304'
.GATE2		003304'		.GNDA2	000005	000523'		.ISLP2	000025	000526'		.KNPO1		003304'
.GCAL2		003304'		.GNEX2		003304'		.ISLP3		003304'		.KNPO2		003304'
.GCAS2		003304'		.GNIC2		003304'		.ISNU1		003304'		.KNPO3		003304'
.GCAT2		003304'		.GNIG2	000003	000442'		.ISNU2		003304'		.KNPU1		003304'
.GCCO2		003304'		.GNLP2		003304'		.ISNU3		003304'		.KNPU2		003304'
.GCDA2		003304'		.GNNU2	000003	000511'		.ISPO1		003304'		.KNPU3		003304'
.GCEX2		003304'		.GNPO2		003304'		.ISPO2	000040	001411'		.KNQU1	000001	000502'
.GCIC2		003304'		.GNPU2		003304'		.ISPO3		003304'		.KNQU2		003304'
.GCIG2	000004	000442'		.GNQU2		003304'		.ISPU1		003304'		.KNQU3	000001	000502'
.GCLP2		003304'		.GNRP2		003304'		.ISPU2		003304'		.KNRP1		003304'
.GCNU2	000003	000511'		.GNSP2	000001	000563'		.ISPU3		003304'		.KNRP2		003304'
.GCPO2		003304'		.GNTE2	000001	000562'		.ISQU1	000001	000502'		.KNRP3		003304'
.GCPU2		003304'		.GSAL2		003304'		.ISQU2	000001	000502'		.KNSP1		000563'
.GCQU2		003304'		.GSAS2		003304'		.ISQU3	000001	000502'		.KNSP2		000563'
.GCRP2		003304'		.GSAT2		003304'		.ISRP1		003304'		.KNSP3		000563'
.GCSP2		003304'		.GSCO2	000004	000522'		.ISRP2		003304'		.KNTE1		000562'
.GCTE2		003304'		.GSDA2		003304'		.ISRP3		003304'		.KNTE2		000562'
.GDAL2	000007	000516'		.GSEX2		003304'		.ISSP1		000442'		.KNTE3		000562'
.GDAS2		003304'		.GSIC2		003304'		.ISSP2		000442'		.PAAL2		003304'
.GDAT2		003304'		.GSIG2	000006	000442'		.ISSP3		000442'		.PAAS2		003304'
CMD     03/21/74	MACRO 12.5-46.0 17:25 13-JAN-81 PAGE 2-5
CMD.MAC	23-MAR-79 11:42		SYMBOL TABLE

.PAAT2		003304'		.PDIG2	000022	000442'		.PNQU2		003304'		.PUAS2		003304'
.PACO2	000017	000505'		.PDLP2	000023	000531'		.PNRP2		003304'		.PUAT2		003304'
.PADA2		003304'		.PDNU2		003304'		.PNSP2		001423'		.PUCO2		003304'
.PAEX2		003304'		.PDPO2		003304'		.PNTE2		001421'		.PUDA2		003304'
.PAIC2		003304'		.PDPU2		003304'		.PPAL2		003304'		.PUEX2		003304'
.PAIG2	000016	000442'		.PDQU2		003304'		.PPAS2		003304'		.PUIC2		003304'
.PALP2		003304'		.PDRP2		003304'		.PPAT2		003304'		.PUIG2	000020	000442'
.PANU2	000016	000511'		.PDSP2		003304'		.PPCO2		003304'		.PULP2		003304'
.PAPO2		003304'		.PDTE2		003304'		.PPDA2		003304'		.PUNU2	000020	000511'
.PAPU2		003304'		.PEAL2		003304'		.PPEX2		003304'		.PUPO2		003304'
.PAQU2		003304'		.PEAS2		003304'		.PPIC2		003304'		.PUPU2		003304'
.PARP2		003304'		.PEAT2		003304'		.PPIG2	000040	000442'		.PUQU2		003304'
.PASP2		003304'		.PECO2	000042	001433'		.PPLP2		003304'		.PURP2	000021	000534'
.PATE2		003304'		.PEDA2		003304'		.PPNU2	000041	000511'		.PUSP2		003304'
.PBAL2		003304'		.PEEX2		003304'		.PPPO2		003304'		.PUTE2		003304'
.PBAS2		003304'		.PEIC2		003304'		.PPPU2		003304'		.PXAL2	000044	001437'
.PBAT2		003304'		.PEIG2	000044	000442'		.PPQU2		003304'		.PXAS2		003304'
.PBCO2		003304'		.PELP2		003304'		.PPRP2		003304'		.PXAT2		003304'
.PBDA2		003304'		.PENU2		003304'		.PPSP2		003304'		.PXCO2		003304'
.PBEX2		003304'		.PEPO2		003304'		.PPTE2		003304'		.PXDA2		003304'
.PBIC2		003304'		.PEPU2		003304'		.PRAL2		003304'		.PXEX2		003304'
.PBIG2	000017	000442'		.PEQU2		003304'		.PRAS2		003304'		.PXIC2		003304'
.PBLP2		003304'		.PERP2		003304'		.PRAT2		003304'		.PXIG2	000043	000442'
.PBNU2	000020	000511'		.PESP2		001423'		.PRCO2	000022	000522'		.PXLP2		003304'
.PBPO2		003304'		.PETE2		001421'		.PRDA2		003304'		.PXNU2	000045	000511'
.PBPU2		003304'		.PLAL2		003304'		.PREX2		003304'		.PXPO2		003304'
.PBQU2		003304'		.PLAS2		003304'		.PRIC2	000021	002224'		.PXPU2		003304'
.PBRP2		003304'		.PLAT2		003304'		.PRIG2	000021	000442'		.PXQU2		003304'
.PBSP2		003304'		.PLCO2		003304'		.PRLP2		003304'		.PXRP2		003304'
.PBTE2		003304'		.PLDA2		003304'		.PRNU2		003304'		.PXSP2		003304'
.PCAL2		003304'		.PLEX2		003304'		.PRPO2		003304'		.PXTE2		003304'
.PCAS2		003304'		.PLIC2		003304'		.PRPU2		003304'		.TDAL2		003304'
.PCAT2		003304'		.PLIG2	000015	000442'		.PRQU2		003304'		.TDAS2		003304'
.PCCO2		003304'		.PLLP2		003304'		.PRRP2		003304'		.TDAT2		003304'
.PCDA2		003304'		.PLNU2	000016	000511'		.PRSP2	000002	000563'		.TDCO2		003304'
.PCEX2		003304'		.PLPO2		003304'		.PRTE2	000002	000562'		.TDDA2		003304'
.PCIC2		003304'		.PLPU2		003304'		.PSAL2		003304'		.TDEX2		003304'
.PCIG2	000042	000442'		.PLQU2		003304'		.PSAS2		003304'		.TDIC2		003304'
.PCLP2		003304'		.PLRP2		003304'		.PSAT2		003304'		.TDIG2	000046	000442'
.PCNU2	000041	000511'		.PLSP2		003304'		.PSCO2	000042	001433'		.TDLP2	000047	002256'
.PCPO2		003304'		.PLTE2		003304'		.PSDA2		003304'		.TDNU2		003304'
.PCPU2		003304'		.PNAL2		003304'		.PSEX2		003304'		.TDPO2		003304'
.PCQU2		003304'		.PNAS2		003304'		.PSIC2		003304'		.TDPU2		003304'
.PCRP2		003304'		.PNAT2		003304'		.PSIG2	000045	000442'		.TDQU2		003304'
.PCSP2		003304'		.PNCO2	000042	001433'		.PSLP2		003304'		.TDRP2		003304'
.PCTE2		003304'		.PNDA2	000043	001425'		.PSNU2	000045	000511'		.TDSP2		003304'
.PDAL2		003304'		.PNEX2		003304'		.PSPO2		003304'		.TDTE2		003304'
.PDAS2		003304'		.PNIC2		003304'		.PSPU2		003304'		.TLAL2	000050	002261'
.PDAT2		003304'		.PNIG2	000041	000442'		.PSQU2		003304'		.TLAS2	000050	002261'
.PDCO2		003304'		.PNLP2		003304'		.PSRP2		003304'		.TLAT2		003304'
.PDDA2		003304'		.PNNU2	000041	000511'		.PSSP2		001423'		.TLCO2		003304'
.PDEX2		003304'		.PNPO2		003304'		.PSTE2		001421'		.TLDA2	000050	002261'
.PDIC2		003304'		.PNPU2		003304'		.PUAL2		003304'		.TLEX2	000050	002261'
CMD     03/21/74	MACRO 12.5-46.0 17:25 13-JAN-81 PAGE 2-6
CMD.MAC	23-MAR-79 11:42		SYMBOL TABLE

.TLIC2		003304'		.TYPU2		003304'		.XNAL2	000026	000501'		.YLEX2		003304'
.TLIG2	000047	000442'		.TYQU2	000031	000467'		.XNAS2	000026	000501'		.YLIC2		003304'
.TLLP2		003304'		.TYRP2		003304'		.XNAT2		003304'		.YLIG2	000010	000442'
.TLNU2	000050	002261'		.TYSP2	000002	000563'		.XNCO2		003304'		.YLLP2		003304'
.TLPO2		003304'		.TYTE2	000002	000562'		.XNDA2	000026	000501'		.YLNU2	000011	000511'
.TLPU2	000050	002261'		.ULAL2	000024	000472'		.XNEX2	000026	000501'		.YLPO2		003304'
.TLQU2		003304'		.ULAS2	000024	000472'		.XNIC2		003304'		.YLPU2		003304'
.TLRP2		003304'		.ULAT2		003304'		.XNIG2	000026	000442'		.YLQU2		003304'
.TLSP2		003304'		.ULCO2		003304'		.XNLP2		003304'		.YLRP2		003304'
.TLTE2		003304'		.ULDA2	000024	000472'		.XNNU2	000026	000501'		.YLSP2		003304'
.TNAL2	000050	002261'		.ULEX2	000024	000472'		.XNPO2		003304'		.YLTE2		003304'
.TNAS2	000050	002261'		.ULIC2		003304'		.XNPU2	000026	000501'		.YRAL2	000031	000467'
.TNAT2		003304'		.ULIG2	000023	000442'		.XNQU2		003304'		.YRAS2	000031	000467'
.TNCO2		003304'		.ULLP2		003304'		.XNRP2	000014	000541'		.YRAT2		003304'
.TNDA2	000050	002261'		.ULNU2	000024	000472'		.XNSP2	000026	000501'		.YRCO2	000022	000522'
.TNEX2	000050	002261'		.ULPO2		003304'		.XNTE2		003304'		.YRDA2		003304'
.TNIC2		003304'		.ULPU2	000024	000472'		.YAAL2		003304'		.YREX2		003304'
.TNIG2	000050	000442'		.ULQU2		003304'		.YAAS2		003304'		.YRIC2	000014	002224'
.TNLP2		003304'		.ULRP2		003304'		.YAAT2		003304'		.YRIG2	000014	000442'
.TNNU2	000050	002261'		.ULSP2		003304'		.YACO2	000012	000505'		.YRLP2		003304'
.TNPO2		003304'		.ULTE2		003304'		.YADA2		003304'		.YRNU2	000031	000467'
.TNPU2	000050	002261'		.UNAL2	000024	000501'		.YAEX2		003304'		.YRPO2	000031	000467'
.TNQU2		003304'		.UNAS2	000024	000501'		.YAIC2		003304'		.YRPU2		003304'
.TNRP2	000052	002265'		.UNAT2		003304'		.YAIG2	000011	000442'		.YRQU2	000031	000467'
.TNSP2	000050	002261'		.UNCO2		003304'		.YALP2		003304'		.YRRP2		003304'
.TNTE2		003304'		.UNDA2	000024	000501'		.YANU2	000011	000511'		.YRSP2	000002	000563'
.TRAL2		003304'		.UNEX2	000024	000501'		.YAPO2		003304'		.YRTE2	000002	000562'
.TRAS2		003304'		.UNIC2		003304'		.YAPU2		003304'		.YUAL2		003304'
.TRAT2		003304'		.UNIG2	000024	000442'		.YAQU2		003304'		.YUAS2		003304'
.TRCO2	000022	000522'		.UNLP2		003304'		.YARP2		003304'		.YUAT2		003304'
.TRDA2		003304'		.UNNU2	000024	000501'		.YASP2		003304'		.YUCO2		003304'
.TREX2		003304'		.UNPO2		003304'		.YATE2		003304'		.YUDA2		003304'
.TRIC2		003304'		.UNPU2	000024	000501'		.YCAL2		003304'		.YUEX2		003304'
.TRIG2	000051	000442'		.UNQU2		003304'		.YCAS2		003304'		.YUIC2		003304'
.TRLP2		003304'		.UNRP2	000021	000541'		.YCAT2		003304'		.YUIG2	000013	000442'
.TRNU2		003304'		.UNSP2	000024	000501'		.YCCO2		003304'		.YULP2		003304'
.TRPO2		003304'		.UNTE2		003304'		.YCDA2		003304'		.YUNU2	000013	000511'
.TRPU2		003304'		.XLAL2	000026	000472'		.YCEX2		003304'		.YUPO2		003304'
.TRQU2		003304'		.XLAS2	000026	000472'		.YCIC2		003304'		.YUPU2		003304'
.TRRP2		003304'		.XLAT2		003304'		.YCIG2	000012	000442'		.YUQU2		003304'
.TRSP2	000002	000563'		.XLCO2		003304'		.YCLP2		003304'		.YURP2	000014	000534'
.TRTE2	000002	000562'		.XLDA2	000026	000472'		.YCNU2	000013	000511'		.YUSP2		003304'
.TYAL2	000031	000467'		.XLEX2	000026	000472'		.YCPO2		003304'		.YUTE2		003304'
.TYAS2	000031	000467'		.XLIC2		003304'		.YCPU2		003304'
.TYAT2		003304'		.XLIG2	000025	000442'		.YCQU2		003304'
.TYCO2	000022	000522'		.XLLP2		003304'		.YCRP2		003304'
.TYDA2		003304'		.XLNU2	000026	000472'		.YCSP2		003304'
.TYEX2		003304'		.XLPO2		003304'		.YCTE2		003304'
.TYIC2		003304'		.XLPU2	000026	000472'		.YLAL2		003304'
.TYIG2	000052	000442'		.XLQU2		003304'		.YLAS2		003304'
.TYLP2		003304'		.XLRP2		003304'		.YLAT2		003304'

CMD     03/21/74	MACRO 12.5-46.0 17:25 13-JAN-81
CMD.MAC	23-MAR-79 11:42		Symbol cross reference

ABORT	  1331	  1333#
ABORTA	  1329#
ACCCOM	   351#	  1569	  1620	  1637	  1722	  1807	  2215	  2232
ACCDSH	   352#	  1575
ACCEND	   347#	  1595
ACCNUM	   342#	  1545	  1562	  1579	  1596	  1613	  1647	  1664	  1681	  1698	  1732	  1749	  1766	  1783
	  2055	  2072	  2089	  2106	  2140
ACMLTR	   338	   342	   345	   349	   364	   375	   378	   385	   463	   466	   468	   849	   863	   868
	   871	   955	   969	  1380#	  1380
AFSTG	   446	   455#
AFTSTR	  1126#	  1133
AL	    73#	   554	   557	   571	   614	  1035#	  1046
ALLFSW	   542%	   542
ALLLST	   543%	   543
ALLREE	   428#	   545	   607	   691
ALLROU	   161	   542#
APPR9	   759	   778#
APPROU	   132	   777#
APTR	  1352	  1357#
AS	    73#
ASTRSK	    93#	   272
AT	    73#	   586
BARROW	    26#	   949	  1322	  1323
BEFSTR	  1127#	  1130
CA2	  1517	  2269#
CC2	  1969	  1970	  1974	  1975	  1982	  1983	  1986	  1987	  1989	  1991	  1992	  1996	  1999	  2000
	  2271#
CDISP	   249	   256#	   540	   703	   706	   709	   712	   732	   768	   937	   947	  1028	  1029	  1113
	  1117	  1458	  2308
CDLP	   480#	   485
CDLP0	   444	   489	   523#	   754	   772
CDLP1	   482	   485#
CDLP2	   506#	   522
CDLP3	   499	   514#
CEOL	  1236#	  2046
CH	     8#	   299	   331	   332	   342	   343	   344	   345	   347	   356	   360	   549	   556	   564
	   569	   599	   602	   609	   610	   612	   617	   618	   626	   633	   639	   644	   647	   651
	   786	   787	   796	   799	   804	   808	   828	   830	   837	   860	   949	   976	   980	   982
	  1053	  1056	  1061	  1062	  1068	  1072	  1073	  1101	  1103	  1106	  1141	  1170	  1229	  1286
	  1291	  1385	  1389	  1392	  1393
CHANGD	   283%	   283	   813
CHARC	    73#	    73	  1485#	  1486#	  2243#	  2244#	  2245#	  2246#	  2247#	  2248#	  2249#	  2250#	  2251#	  2252#
	  2253#	  2254#	  2255#	  2256#	  2257#	  2258#	  2259#	  2260#	  2261#	  2262#	  2263#	  2264#	  2265#	  2266#
	  2267#	  2268#	  2269#	  2270#	  2271#	  2272#	  2273#	  2274#	  2275#	  2276#	  2277#	  2278#	  2279#	  2280#
	  2281#	  2282#	  2283#	  2284#	  2285#	  2335#	  2336#
CHARET	   573	   604#	   619	   814	   821
CHAROU	   183	   813#
CHKG	   829	   839#
CHKGP	   828#	  1510
CHRCNT	    87%	   270
CIN	    86	   103#
CINFLG	  1278%	  1278
CKSUM	   623%	   623	   632%	   632
CMD     03/21/74	MACRO 12.5-46.0 17:25 13-JAN-81
CMD.MAC	23-MAR-79 11:42		Symbol cross reference

CL2	  1956	  1972	  2270#
CLDSP	   248#	   513	   765	  1277	  1293	  1332	  1337	  1340	  1348
CLRTRT	   957	   992#
CM1	   119#	   128
CMDSRC	   403	   479#
CN2	  1952	  1953	  2003	  2004	  2020	  2021	  2023	  2273#
CNAT	  1237#	  2047
CNTFC	   313	   351%	   351
CNTFD	   352%	   352
CNTFP	   463%	   463	   475
CNTFT	   321	   394%	   394
CNVDAT	  1184%	  1184	  1187	  1195
CNVFMT	  1186%	  1186
CNVTIM	  1151%	  1151	  1191	  1192	  1193
CNYI	  1280#
CO	    73#	   624	   627	   662
COF	  1036#	  1092	  1094	  1097	  1100	  1110	  1116	  1120	  1122
COFABT	  1107	  1116#
COFBUF	  1034#	  1049
COFCHR	  1053#	  1060	  1063
COFDEV	  1033#	  1091	  1119
COFENE	  1018#	  1096	  1109
COFENT	  1017#	  1018	  1095	  1097	  1108	  1110
COFEXN	  1021#	  1078
COFEXT	  1059	  1064#
COFFIL	  1020#	  1064	  1076	  1095	  1108
COFHED	  1048%	  1048
COFLUP	  1085#	  1087
COFN	  1037#	  1094	  1122
COFNEW	  1098	  1114#
COFRET	  1112#	  1124
COFRLS	  1041%	  1041
COFROU	   142	  1041#
COFSTS	  1032#	  1047	  1092	  1120
COFTRM	  1055	  1076#
COFTST	  1101#	  1115
COFXBF	  1031#	  1044
COFXCH	  1068#	  1071	  1074
COFXTR	  1070	  1078#
COLON	    94#	  1141
COMBFE	   244#	   328	   578	  1222	  1255	  1264	  1372
COMBUF	   239	   240	   243#	   442	   752	   769	  1353
COMPT1	   240#	   326	   327	   465	   474	   576	   577	  1220	  1221	  1262	  1354	  1362	  1368	  1371
COMPT2	   241#	   330	   580	  1224	  1266	  1379
COMPTR	   239#	   296	   315	   318	   325	   332	   370	   458	   464	   471	   575	   582	   584	   594
	   610	  1056	  1080	  1083	  1137	  1219	  1241	  1248	  1261	  1361	  1369	  1370	  1389	  1393
	  1395
CONVUN	   370#	  1852	  1886	  1988
CONVUU	   368	   373#
CONVVV	   367	   380#
COUT	  1112%	  1112
CPOPJ	   215%	   215
CPPN	   376	   384	   961	   967%	   967
CMD     03/21/74	MACRO 12.5-46.0 17:25 13-JAN-81
CMD.MAC	23-MAR-79 11:42		Symbol cross reference

CPRMPT	   417	   437#
CR2	  1988	  2006	  2272#
CRCHR	    23#	   271	   537	   764	  1106	  1236
CREDAT	   281%	   281	  1196
CREDMY	  1153	  1207#
CREMY	  1162	  1203#
CREROU	   181	  1129#
CRETIM	   282%	   282	  1194
CRETR1	  1183#	  1206
CRETR2	  1184#	  1208
CRETRM	  1182#	  1202
CREY	  1172	  1200#
CRLS	   266%	   266
CT	     9#	   299	   308	   443	   449	   549	   550	   552	   554	   556	   557	   559	   561	   564
	   565	   569	   570	   571	   586	   588	   589	   591	   604	   606	   612	   613	   614	   617
	   624	   626	   627	   644	   645	   662	   667	   753	   784	   786	   796	   797	   801	   808
	   809	  1053	  1054	  1058	  1068	  1069	  1101	  1103	  1104	  1135	  1152	  1154	  1161	  1163
	  1164	  1170	  1171	  1173	  1174	  1197	  1385	  1386	  1387
CTABL2	   275	   298	   401	   411	   544	   940	  1258	  1426#
CTABLE	   231	   274	   291	   301	   380	   410	   413	   420	   425	  1428#
CURPPN	   284%	   284
CURUN1	  1004%	  1004
CURUN2	  1007%	  1007
CUTROU	   139%	   139
CX2	  2026	  2029	  2030	  2037	  2038	  2040	  2274#
DA	    73#	  1164	  1174
DATE	   101#	  1200	  1203	  1207
DEVROU	   150%	   150
DEVTAB	  1024	  1025#
DEVTBE	  1024	  1030#
DEVWRD	  1024#	  1082
DIRROU	   135%	   135
DKY	   116#	   139	   406
DKYROU	   407	   440#
DOTCHR	    21#	    97#	   512
DUM	   114#	   165	   166	   169	   172	   175	   402	   424
ECHR	    96#	   347	   799
ENDUN	   321#	  1225	  1714	  1715	  1719	  1725	  1726	  2003	  2004	  2224	  2225	  2229	  2235	  2236
EOLFLG	   390#	   390	   433	   437	   451	   547	   793	  1042
EOLIT	    25#	   457	  1079	  1392
EOTFLG	   779%	   779
EROSW	   256%	   256	  1320	  1343
ESCDI	   265%	   265	  1305
ESCFLG	   255#	   255	   300	  1324	  1326
ESCR	  1310#
ESCR1	   251	  1294#
ESCR2	  1318	  1324#
EX	    73#	   591	  1058
EXTCOM	   313#	  1909
F	    12#	   258	   287	   288	   289	   290	   760	   767	   779	   820	   836	   936	   944	   946
	   953	   956	  1123
FAKFLG	   267	  1215#	  1215	  1243
FAKPPN	  1215#	  1952	  1953
CMD     03/21/74	MACRO 12.5-46.0 17:25 13-JAN-81
CMD.MAC	23-MAR-79 11:42		Symbol cross reference

FC2	  1909	  1921	  2267#
FCRROU	   137%	   137
FERR	   430	   459	  1297	  1342#
FF2	    86	  1910	  1911	  2293#
FF2TAB	   175#	  2293
FF2TBE	   176#	  2293
FFTRM	   314	   471#	  2293
FIL	    17#	  1268	  1274	  1275	  1310
FILBUF	  1272%	  1272
FILCNT	   285%	   285
FILCOM	   318#	  1943	  1944	  1945	  2029	  2030
FILDI1	  1247%	  1247	  1276
FILDI2	  1249%	  1249
FILDI3	  1250%	  1250
FILDIR	  1240%	  1240	  1275
FILDOT	   315#	  1941	  2026
FILHED	  1270%	  1270
FILN	  1274%	  1274
FINGAN	  1246%	  1246
FINUN	   999#
FINUN0	  1000#	  1011
FINUN1	  1005	  1009#
FINUN2	  1008	  1013#
FIXLL	   364#	  1699	  1784
FLGOFF	   730%	   730
FLGROU	   157%	   157
FN2	  1714	  1715	  1719	  1725	  1726	  1918	  1919	  1923	  1929	  1930	  1935	  1936	  1938	  1946
	  1947	  2224	  2225	  2229	  2235	  2236	  2268#
FSTROU	   136%	   136
FX2	  1901	  1902	  1904	  1906	  1912	  1913	  1941	  1943	  1944	  1945	  2266#
GA2	   839	  1547	  2245#
GAN	   339#	   339	   365
GC2	  1569	  1581	  1620	  1637	  2247#
GD2	  1575	  1598	  2248#
GE2	  1595	  1632	  2250#
GETADR	   225#	   426
GETCMD	   217#	   480	   501	   508	   515	   530	  1281
GETFLG	   220#	   232	   292	   302	   381	   400	   405	   412	   423
GETHLP	   213#	   534
GETROU	   151%	   151
GETTST	   230#	   391	   396	   419	   494	   526
GF2	  1570	  1571	  1621	  1622	  1638	  1639	  2291#
GF2TAB	   169#	  2291
GF2TBE	   170#	  2291
GFTRM	   353	   463#	  2291
GN2	  1545	  1562	  1564	  1579	  2246#
GOODC	   479#	   479	   483	   484	   487	   493	   520
GS2	  1596	  1613	  1615	  2249#
HELLP	   530#	   538
HELLP1	   528#	   539
HELROU	   146	   147	   163	   164	   191	   197	   204	   526#
HX	   531#	   531	   532	   535	   536
IC	    73#
CMD     03/21/74	MACRO 12.5-46.0 17:25 13-JAN-81
CMD.MAC	23-MAR-79 11:42		Symbol cross reference

IG	    73#
ILCH	   566	   592	   608	   625	   628	   635	   663	   668	   861	   950	   977	  1230	  1284#	  1448
	  1450	  1451	  1453	  1454	  1455	  1456	  1457	  1460	  1462	  1463	  1465	  1467	  1468	  1470
	  1471	  1472	  1473	  1474	  1477	  1479	  1480	  1509	  1511	  1512	  1515	  1516	  1518	  1523
	  1524	  1526	  1528	  1529	  1531	  1532	  1533	  1534	  1535	  1538	  1539	  1540	  1541	  1543
	  1544	  1546	  1548	  1549	  1550	  1551	  1552	  1553	  1554	  1555	  1556	  1557	  1558	  1560
	  1561	  1563	  1565	  1566	  1567	  1568	  1572	  1573	  1574	  1577	  1578	  1580	  1582	  1583
	  1584	  1585	  1586	  1587	  1588	  1589	  1590	  1591	  1592	  1594	  1597	  1599	  1600	  1601
	  1602	  1603	  1604	  1605	  1606	  1607	  1608	  1609	  1611	  1612	  1614	  1616	  1617	  1618
	  1619	  1623	  1624	  1625	  1626	  1628	  1629	  1630	  1631	  1633	  1634	  1635	  1636	  1640
	  1641	  1642	  1643	  1645	  1646	  1648	  1650	  1651	  1652	  1653	  1654	  1655	  1656	  1657
	  1658	  1659	  1660	  1662	  1663	  1665	  1667	  1668	  1669	  1670	  1672	  1673	  1674	  1675
	  1676	  1677	  1679	  1680	  1682	  1684	  1685	  1686	  1687	  1688	  1689	  1690	  1691	  1692
	  1693	  1694	  1696	  1697	  1701	  1702	  1703	  1704	  1705	  1706	  1707	  1708	  1709	  1710
	  1711	  1716	  1718	  1720	  1721	  1727	  1728	  1730	  1731	  1733	  1735	  1736	  1737	  1738
	  1739	  1740	  1741	  1742	  1743	  1744	  1745	  1747	  1748	  1750	  1752	  1753	  1754	  1755
	  1757	  1758	  1759	  1760	  1761	  1762	  1764	  1765	  1767	  1769	  1770	  1771	  1772	  1773
	  1774	  1775	  1776	  1777	  1778	  1779	  1781	  1782	  1786	  1787	  1788	  1789	  1790	  1791
	  1792	  1793	  1794	  1795	  1796	  1799	  1800	  1801	  1803	  1804	  1805	  1806	  1810	  1811
	  1812	  1813	  1815	  1816	  1817	  1818	  1821	  1822	  1823	  1824	  1825	  1826	  1827	  1828
	  1829	  1830	  1832	  1835	  1837	  1840	  1841	  1842	  1843	  1844	  1845	  1849	  1854	  1857
	  1858	  1859	  1861	  1862	  1866	  1869	  1871	  1874	  1875	  1876	  1877	  1878	  1879	  1883
	  1888	  1891	  1892	  1893	  1895	  1896	  1900	  1903	  1905	  1907	  1908	  1914	  1915	  1917
	  1920	  1922	  1924	  1925	  1926	  1927	  1928	  1931	  1932	  1934	  1937	  1939	  1940	  1942
	  1948	  1949	  1951	  1954	  1955	  1957	  1958	  1959	  1960	  1961	  1962	  1963	  1964	  1965
	  1966	  1968	  1971	  1973	  1976	  1977	  1978	  1979	  1980	  1981	  1985	  1990	  1993	  1994
	  1995	  1997	  1998	  2002	  2005	  2007	  2008	  2009	  2010	  2011	  2012	  2013	  2014	  2015
	  2016	  2017	  2019	  2022	  2024	  2025	  2027	  2028	  2031	  2032	  2033	  2034	  2036	  2039
	  2041	  2042	  2043	  2044	  2045	  2048	  2049	  2050	  2051	  2053	  2054	  2056	  2058	  2059
	  2060	  2061	  2062	  2063	  2064	  2065	  2066	  2067	  2068	  2070	  2071	  2073	  2075	  2076
	  2077	  2078	  2082	  2083	  2084	  2087	  2088	  2090	  2092	  2093	  2094	  2095	  2096	  2097
	  2098	  2099	  2100	  2101	  2102	  2104	  2107	  2109	  2110	  2111	  2112	  2113	  2114	  2115
	  2116	  2117	  2118	  2119	  2121	  2122	  2123	  2124	  2126	  2127	  2128	  2129	  2133	  2134
	  2135	  2136	  2138	  2139	  2141	  2143	  2144	  2145	  2146	  2150	  2151	  2152	  2153	  2155
	  2156	  2157	  2158	  2161	  2162	  2163	  2164	  2165	  2166	  2167	  2168	  2169	  2170	  2172
	  2175	  2177	  2180	  2181	  2182	  2183	  2184	  2185	  2189	  2194	  2197	  2198	  2199	  2201
	  2202	  2206	  2207	  2208	  2209	  2211	  2212	  2213	  2214	  2218	  2219	  2220	  2221	  2223
	  2226	  2228	  2230	  2231	  2237	  2238	  2298	  2300	  2301	  2303	  2304	  2305	  2306	  2307
	  2310	  2312	  2313	  2315	  2317	  2318	  2320	  2321	  2322	  2323	  2324	  2327	  2329	  2330
INIFLG	   760	   767%	   767
IPTR	   268	  1353#
IS1	  1431	  1452	  1459	  1485#	  1499	  1500	  1501
IS2	  1432	  1513	  1519	  1520	  2046	  2047	  2243#
IS3	  1433	  2302	  2309	  2335#
IS4	  1434	  1499#
IS5	  1435	  1500#
IS6	  1436	  1501#
ISTAB	   295	   305	  1431#
ISTAB1	  1431	  1484#	  1485	  1486	  1495	  1496	  1497
ISTAB2	  1432	  2242#	  2243	  2244	  2245	  2246	  2247	  2248	  2249	  2250	  2251	  2252	  2253	  2254
	  2255	  2256	  2257	  2258	  2259	  2260	  2261	  2262	  2263	  2264	  2265	  2266	  2267	  2268
	  2269	  2270	  2271	  2272	  2273	  2274	  2275	  2276	  2277	  2278	  2279	  2280	  2281	  2282
	  2283	  2284	  2285
CMD     03/21/74	MACRO 12.5-46.0 17:25 13-JAN-81
CMD.MAC	23-MAR-79 11:42		Symbol cross reference

ISTAB3	  1433	  2334#	  2335	  2336
ISTAB4	  1434	  1495#
ISTAB5	  1435	  1496#
ISTAB6	  1436	  1497#
JIFFPM	  1150%	  1150
JIFFPS	  1190%	  1190
JOBAPR	    88%	   252
JOBCNI	    88%	  1294
JOBFF	  1045%	  1045	  1273
JOBTPC	  1298%	  1298	  1309
KF0TAB	   128#	  1428
KF1	  1475	  1476	  1493#
KF1TAB	   130#	  1493
KF1TBE	   159#	  1493
KF2	  1536	  1537	  2080	  2081	  2131	  2132	  2148	  2149	  2290#
KF2TAB	   161#	  2290
KF2TBE	   167#	  2290
KF3	  2325	  2326	  2343#
KF3TAB	   178#	  2343
KF3TBE	   185#	  2343
KF4	  1503#
KF4TAB	   187#	  1503
KF4TBE	   192#	  1503
KF5	  1504#
KF5TAB	   194#	  1504
KF5TBE	   198#	  1504
KF6	  1505#
KF6TAB	   200#	  1505
KF6TBE	   205#	  1505
KFTRM	   457#	  1493	  1503	  1504	  1505	  2290	  2343
KN1	  1449	  1461	  1466	  1469	  1478	  1486#
KN2	  1510	  1522	  1527	  1530	  2244#
KN3	  2299	  2311	  2316	  2319	  2328	  2336#
LBROK	    98#	   599	   618
LP	    73#	   565
LPAREN	    19#	   356	   360	   639	   976	  1229	  1285
LPTFLG	  1123%	  1123
LUDL	   377%	   377
LUDLC	   378%	   378
MDEROU	   152	   714#
MM2	   122#	   152
MO3	   124#	   189	   190
MOCOM	   690#	   694	   696	   699
MOCROU	   203	   689#
MODROU	   202	   688#
MODTMP	   672#	   690	   701	   704	   707	   710
MODWRD	   671#	   674	   675	   676	   677
MOK	   115#	   152	   161	   165	   166	   169	   172	   175	   414
MOMCON	   671	   686#	   689	   748
MOMDIS	   685#	   688	   746
MOMNEW	   683#	   692	   742
MOMTAP	   684#	   693	   744
MONROU	   200	   692#
CMD     03/21/74	MACRO 12.5-46.0 17:25 13-JAN-81
CMD.MAC	23-MAR-79 11:42		Symbol cross reference

MOPTR	   676#	   708	   721
MORMSK	   126#	   234	   294	   304	   416
MOROU	   189	   707#
MOTROU	   201	   693#
MRPTR	   675#	   705	   718
MRROU	   188	   704#
MS3	   123#	   187	   188
MSFROU	   196	   695#
MSMFIL	   681#	   695	   738
MSMTOT	   679#	   697	   734
MSMUSR	   671	   680#	   698	   736
MSPTR	   674#	   702	   715
MSROU	   187	   701#
MSTROU	   194	   697#
MSUROU	   195	   698#
MSYPTR	   677#	   711	   724
MSYROU	   190	   710#
MTCLS	   259	  1311%	  1311
N1	   850	   872	   900	   908	   913	   920	   922#
N2	   873	   906	   914	   923#
NCSEC	   125#	  1431	  1438
NEWR1A	   763#
NEWR2	   762	   766#
NEWR3	   447	   757	   769#	   791
NEWROU	   131	   752#
NFLROU	   158%	   158
NPARTS	   273	  1416#	  1426	  1429
NPRROU	   156%	   156
NPTR	   323	   408	   486	  1354#
NPTR1	  1363	  1371#
NTS1	  1438	  1494#
NTS2	  1439	  2291#	  2292#	  2293#	  2294#
NTS3	  1440	  2344#
NTS4	  1441	  1504#
NTS5	  1442	  1505#
NTS6	  1443	  1506#
NU	    73#	    86	   570	   613	   801
NUPROU	   154%	   154
NWFLG	   258%	   258
NXTCHR	   299#	   317	   334	   340	   346	   350	   354	   358	   362	   379	   386	   840	   853	   858
	   864	   974	   978	   983	   988	  1231	  1279	  1452	  1459	  1469	  1513	  1517	  1520	  1530
	  1547	  1564	  1581	  1598	  1615	  1632	  1649	  1666	  1683	  1700	  1717	  1734	  1751	  1768
	  1785	  1802	  1819	  1836	  1853	  1870	  1887	  1904	  1921	  1938	  1972	  1989	  2006	  2023
	  2040	  2057	  2074	  2091	  2108	  2125	  2142	  2159	  2176	  2193	  2210	  2227	  2302	  2309
	  2319
NXTPRT	   291#	   434	   439	   605	  1198
P	    15#	   218	   223	   228	   230	   232	   236	   237	   259	   260	   266	   268	   292	   302
	   314	   316	   319	   322	   323	   353	   366	   373	   381	   391	   395	   396	   400	   403
	   404	   405	   407	   408	   409	   412	   419	   423	   426	   430	   440	   441	   445	   452
	   453	   454	   459	   460	   469	   477	   480	   486	   491	   494	   501	   508	   515	   526
	   530	   534	   567	   581	   583	   593	   597	   600	   616	   620	   629	   637	   638	   641
	   655	   657	   658	   659	   660	   661	   665	   716	   719	   722	   725	   740	   750	   755
	   766	   780	   789	   835	   842	   845	   855	   874	   876	   888	   903	   909	   912	   915
CMD     03/21/74	MACRO 12.5-46.0 17:25 13-JAN-81
CMD.MAC	23-MAR-79 11:42		Symbol cross reference

	   957	   996	  1002	  1012	  1013	  1015	  1041	  1129	  1138	  1139	  1146	  1156	  1167	  1177	  1246
	  1281	  1287	  1297	  1298	  1299	  1308	  1309	  1311	  1345	  1347	  1350	  1355	  1358	  1364
	  1369	  1381	  1382	  1383	  1397
PA2	  1732	  1749	  1751	  2257#
PB2	  1756	  1768	  2258#
PC2	  2079	  2091	  2130	  2147	  2277#
PCO	   855#	  2079	  2130	  2147
PD2	  1722	  1807	  1819	  2215	  2232	  2261#
PE2	  2105	  2125	  2279#
PEN	   860#	  2105
PL2	   361	  1734	  2256#
PN2	  2055	  2072	  2074	  2089	  2276#
PND	   117#	   151	   382
PNU	   833#	  1521
PO	    73#
PP2	   832	  1521	  2057	  2275#
PPNUSR	   366%	   366
PR2	   986	  1784	  1798	  1802	  1852	  2260#
PRAFLG	   728%	   728
PRIDEV	  1025	  1026	  1118#
PROMPT	   438#	  1519
PRONUM	    87%	  1287	  1347
PRROU	   155%	   155
PS2	  2106	  2140	  2142	  2280#
PSP	   845#	  2081	  2132	  2149
PTE	   842#	  2080	  2131	  2148
PTE1	   833	   856	   866	   870#
PTE2	   851	   867#
PTE3	   869	   873#
PTEP	   834	   842	   845	   852	   855	   857	   866#
PU	    73#
PU2	  1766	  1783	  1785	  2259#
PX2	  2085	  2108	  2278#
PXA	   848#	  2085
QU	    73#
QUIROU	   148%	   148
QUOTE	    95#	  1290	  1292
R0	     4#	   337	   338	   364	   365	   371	   375	   385	   568	   598	   601	   621	   623	   630
	   632	   642	   648	   649	   651	   653	   664	   666	   781	   795	   803	   804	   805	   807
	   833	   848	   849	   851	   856	   867	   868	   870	   871	   880	   893	   917	   940	   942
	   954	   955	   959	   960	   961	   968	   972	   986	  1000	  1001	  1003	  1006	  1014	  1044
	  1045	  1046	  1047	  1048	  1049	  1052	  1060	  1067	  1071	  1140	  1147	  1149	  1157	  1158
	  1160	  1178	  1179	  1181	  1182	  1183	  1200	  1201	  1203	  1204	  1205	  1286	  1299	  1302
	  1303	  1304	  1306	  1308	  1345	  1346	  1350	  1351	  1355	  1356	  1357	  1359	  1360	  1375
	  1376	  1377	  1378	  1382
R1	     5#	   214	   217	   221	   226	   231	   235	   251	   252	   253	   254	   291	   296	   297
	   298	   301	   313	   315	   318	   321	   324	   325	   326	   327	   328	   329	   330	   351
	   352	   370	   371	   372	   377	   378	   380	   392	   393	   394	   397	   398	   399	   404
	   409	   413	   421	   422	   425	   457	   458	   463	   466	   467	   475	   484	   485	   487
	   488	   490	   492	   493	   495	   496	   497	   503	   507	   510	   517	   527	   528	   529
	   538	   574	   575	   576	   577	   578	   579	   580	   582	   584	   585	   594	   595	   637
	   654	   659	   688	   689	   690	   692	   693	   695	   697	   698	   701	   702	   704	   705
	   707	   708	   710	   711	   715	   718	   721	   724	   734	   736	   738	   742	   744	   746
CMD     03/21/74	MACRO 12.5-46.0 17:25 13-JAN-81
CMD.MAC	23-MAR-79 11:42		Symbol cross reference

	   748	   769	   770	   816	   818	   819	   881	   884	   885	   886	   887	   894	   913	   914	   916
	   919	   939	   940	   993	   994	   995	  1079	  1080	  1082	  1085	  1087	  1088	  1089	  1090
	  1091	  1095	  1096	  1108	  1109	  1118	  1119	  1137	  1218	  1219	  1220	  1221	  1222	  1223
	  1224	  1239	  1240	  1241	  1242	  1245	  1252	  1253	  1254	  1256	  1258	  1259	  1260	  1261
	  1262	  1263	  1264	  1265	  1266	  1272	  1273	  1294	  1295	  1296	  1300	  1301	  1313	  1314
	  1315	  1316	  1317	  1327	  1328	  1353	  1354	  1359	  1361	  1362	  1364	  1365	  1366	  1367
	  1368	  1370	  1371	  1373	  1374	  1375	  1376	  1378	  1379
R2	     6#	   214	   215	   217	   221	   222	   226	   227	   230	   233	   234	   235	   236	   293
	   294	   295	   303	   304	   305	   306	   307	   308	   309	   310	   311	   382	   388	   389
	   390	   393	   395	   402	   406	   414	   416	   424	   427	   431	   440	   448	   450	   451
	   453	   464	   465	   467	   471	   472	   476	   481	   492	   498	   502	   504	   509	   511
	   516	   518	   531	   535	   543	   544	   595	   596	   638	   643	   653	   658	   664	   666
	   792	   918	   958	   959	   963	   964	   965	   968	   969	   970	   971	   999	  1000	  1003
	  1006	  1009	  1010	  1011	  1014	  1050	  1051	  1064	  1065	  1066	  1076	  1077	  1078	  1085
	  1086	  1088	  1089	  1168	  1169	  1248	  1249	  1250	  1255	  1256	  1282	  1358	  1372	  1373
	  1377	  1381
R3	     7#	   401	   420	   421	   422	   441	   442	   446	   452	   472	   473	   475	   476	   481
	   502	   509	   516	   523	   527	   528	   539	   641	   643	   654	   657	   752	   756	   790
	  1050	  1062	  1066	  1073	  1083	  1084	  1086	  1130	  1133	  1140	  1143	  1145	  1149	  1150
	  1151	  1160	  1169	  1183	  1184	  1185	  1186	  1187	  1188	  1190	  1191	  1192	  1193	  1194
	  1195	  1196	  1207	  1236	  1237	  1278	  1395	  1396
RANCMD	   288%	   288	   836
RANFST	   884	   904	   905	   924#
RANGE	   882	   885	   886	   887	   892	   919	   926#
RANLAS	   883	   910	   911	   925#
RANO	   892#
RANO1	   883#	   895
RANSIZ	   104#	   862	   887	   893	   901	   907	   926
RANZ	   835	   880#
RBROK	    99#	   602	   633
RCOUNT	  1329%	  1329	  1333	  1338	  1339
RDDNUM	   600	  1139%	  1139	  1146	  1156	  1177
RDMON	  1167%	  1167
RDONUM	   620	   629	   661%	   661	   665
READKW	   445	   755	   789	  1129	  1385#	  1391
READPP	   640	   661#
READUN	   567	   637#
REDUN1	   646	   653#
REDUN2	   644#	   652
RESABO	  1334	  1338#
RESROU	   134%	   134
REWROU	   143%	   143
REWWAI	   766%	   766	   780
RKWBAT	  1388	  1392#
RP	    73#	   645	   667
RPAREN	    20#	  1288
RPTCNT	   819%	   819
RPTFIL	   287%	   287
RPTFLG	   287	   820%	   820
RST	    18#	  1310
RWNROU	   144%	   144
S	    92#	   295	   306	   309	   357	   361	   392	   397	   410	   411	   495	   832	   839	   951
	   952	   987
CMD     03/21/74	MACRO 12.5-46.0 17:25 13-JAN-81
CMD.MAC	23-MAR-79 11:42		Symbol cross reference

S6PTR	   316	   319	   583	   597	  1350#
SAMCHR	   301#	   320
SCDISP	   251#
SCOUNT	  1330%	  1330	  1335	  1336
SENTAB	   758	   777%	   777
SETN	   913#	   921
SETN12	   874	   900#
SKI1	   785	   788	   793#
SKI2	   792#	   792
SKIEND	   800	   807#
SKILUP	   796#	   806
SKIROU	   149	   784#
SKITRM	   782%	   782	   798	   811%	   811
SP	    73#	   443	   449	   550	   559	   589	   604	   753	   784	  1154	  1163	  1173	  1386
SPACE	    24#	   505	  1237	  1289
SPTR	  1138	  1355#
SR2	   120#	   133	   134	   135	   138	   139	   151
SR3	   121#	   161	   165	   166	   169	   172	   175
STACH1	   602#	   634
STACH2	   603	   617#
STACH3	   622#	   631
STACK	   106#	   260
STACKE	   108#	   261	   263
STACKL	   105#	   106	   107
STALBR	   555	   562	   565#
STAPMT	   548	   553	   563#
STARED	   560	   564#
STAROU	   184	   547#
STASIX	   581	   609#	   615
STASX1	   593	   612#
STATRM	   587	   590	   594#
STOCHR	   332#	   831	   838	  1449	  1461	  1466	  1478	  1522	  1527	  2299	  2311	  2316	  2328
STOGAN	   337#	  1671	  1756
STOROU	   133%	   133
STOSIX	   331#	  1850	  1851	  1855	  1856	  1860	  1863	  1864	  1884	  1885	  1889	  1890	  1894	  1897
	  1898	  1901	  1902	  1906	  1912	  1913	  1918	  1919	  1923	  1929	  1930	  1935	  1936	  1946
	  1947	  1986	  1987	  1991	  1992	  1996	  1999	  2000	  2020	  2021	  2037	  2038
STRBLK	   280%	   280	   601
STREXT	   596%	   596
STRFIL	   279%	   279	   585
STRPPN	   278%	   278	   568	   941
STRTUN	   324#	  1833	  1834	  1838	  1839	  1846	  1847	  1867	  1868	  1872	  1873	  1880	  1881	  1969
	  1970	  1974	  1975	  1982	  1983
T137A	   949#	  1713	  1798
T137B	   962	   967#
T137C	   959#	   965
T137LP	   976#	  2160
TAPSTG	   756	   774#
TD2	   952	  2159	  2281#
TE	    73#	    86	   552	   561	   588	   606	   797	   809	  1054	  1069	  1104	  1135	  1152	  1161
	  1171	  1197	  1387
THRROU	   179	   816#
TL2	  2160	  2176	  2282#
CMD     03/21/74	MACRO 12.5-46.0 17:25 13-JAN-81
CMD.MAC	23-MAR-79 11:42		Symbol cross reference

TN2	  2173	  2174	  2178	  2179	  2186	  2187	  2190	  2191	  2193	  2195	  2196	  2200	  2203	  2204
	  2283#
TOFCHR	    22#
TOTCNT	   286%	   286
TR2	   987	  2210	  2284#
TRAROU	   138	   939#
TRMEOL	   388#	   843	  1475	  1536	  1570	  1621	  1638	  1723	  1808	  1910	  2216	  2233	  2325
TRMNA1	   419#	   428
TRMNA2	   418#	   435	  1199
TRMNA3	   415	   433#
TRMNAT	   389#	   846	  1476	  1537	  1571	  1622	  1639	  1724	  1809	  1911	  2217	  2234	  2326
TRST	   985#	  2192
TRT	   931#	   958	   992	   993	   994	   995	   999
TRTCHR	   980#	  2173	  2174	  2178	  2179	  2186	  2187	  2190	  2191	  2195	  2196	  2200	  2203	  2204
TRTF	   955%	   955
TRTFG2	   288%	   288	   944	   956%	   956
TRTFG3	   289%	   289	   936	   946	   953
TRTFLG	   290	   946	   953%	   953
TRTM	   930#	   931	   958	   995	   999
TRTN	   933#	   973	   981
TRTPTR	   934#	   971	   982
TRTS	   932#	   951	   985
TSTAB	   235	  1438#
TSTAB1	  1438	  1492#	  1493	  1494
TSTAB2	  1439	  2289#	  2290	  2291	  2292	  2293	  2294
TSTAB3	  1440	  2342#	  2343	  2344
TSTAB4	  1441	  1503#	  1503	  1504
TSTAB5	  1442	  1504#	  1504	  1505
TSTAB6	  1443	  1505#	  1505	  1506
TSTL	  1229#	  1956
TSTLPI	   356#	  1514
TSTLPP	   360#	  1820
TWIROU	   178	   818#
TY2	  2192	  2227	  2285#
TYPOM	   722	   725	   742#
TYPSRM	   716	   719	   734#
U	    13#	  1216	  1245	  1247
UF2	  1723	  1724	  1808	  1809	  2216	  2217	  2233	  2234	  2292#
UF2TAB	   172#	  2292
UF2TBE	   173#	  2292
UFTRM	   322	   462#	  2292
UL2	  1820	  1836	  2262#
UN2	  1833	  1834	  1838	  1839	  1846	  1847	  1850	  1851	  1853	  1855	  1856	  1860	  1863	  1864
	  2263#
UNISW	   264%	   264
UNIT	    16#
UNLROU	   145%	   145
UNTROU	   140	   936#
UPDFLG	   726%	   726
UPDROU	   153%	   153
USRPPN	   373%	   373	   655
UU1RE2	   658#	   669
UUOFLG	    28	    33	    34	    35	    36	    37	    38	    39	    40	    41	    42	    43	    44	    45
CMD     03/21/74	MACRO 12.5-46.0 17:25 13-JAN-81
CMD.MAC	23-MAR-79 11:42		Symbol cross reference

	    46	    47	    48	    49	    50	    51	    52
UUORET	  1307%	  1307
VERPAT	     3#
VERSIO	     2#
W	    91#	   231	   273	   274	   275	   276	   277	   291	   298	   301	   380	   401	   410	   411
	   413	   417	   420	   425	   428	   429	   434	   544	  1199	  1258
WHEROU	   141%	   141
WRISTG	   775#	   790
X	    32#	    33	    33#	    34	    34#	    35	    35#	    36	    36#	    37	    37#	    38	    38#	    39
	    39#	    40	    40#	    41	    41#	    42	    42#	    43	    43#	    44	    44#	    45	    45#	    46
	    46#	    47	    47#	    48	    48#	    49	    49#	    50	    50#	    51	    51#	    52	    52#	  1431#
	  1431	  1432	  1432#	  1433	  1433#	  1434	  1434#	  1435	  1435#	  1436	  1436#	  1438#	  1438	  1439
	  1439#	  1440	  1440#	  1441	  1441#	  1442	  1442#	  1443	  1443#
XL2	  1514	  1870	  2264#
XN2	  1867	  1868	  1872	  1873	  1880	  1881	  1884	  1885	  1887	  1889	  1890	  1894	  1897	  1898
	  2265#
YA2	  1647	  1664	  1666	  2252#
YC2	  1671	  1683	  2253#
YL2	   357	  1649	  2251#
YR2	  1699	  1713	  1717	  1886	  2255#
YU2	  1681	  1698	  1700	  2254#
.CAAL2	  1952#	  2269
.CAAS2	  1957#	  2269
.CAAT2	  1959#	  2269
.CACO2	  1960#	  2269
.CADA2	  1966#	  2269
.CAEX2	  1958#	  2269
.CAIC2	  1951#	  2269
.CAIG2	  1955#	  2269
.CALP2	  1956#	  2269
.CANU2	  1953#	  2269
.CAPO2	  1963#	  2269
.CAPU2	  1965#	  2269
.CAQU2	  1964#	  2269
.CARP2	  1954#	  2269
.CASP2	  1962#	  2269
.CATE2	  1961#	  2269
.CCAL2	  1986#	  2271
.CCAS2	  1991#	  2271
.CCAT2	  1993#	  2271
.CCCO2	  1994#	  2271
.CCDA2	  2000#	  2271
.CCEX2	  1992#	  2271
.CCIC2	  1985#	  2271
.CCIG2	  1989#	  2271
.CCLP2	  1990#	  2271
.CCNU2	  1987#	  2271
.CCPO2	  1997#	  2271
.CCPU2	  1999#	  2271
.CCQU2	  1998#	  2271
.CCRP2	  1988#	  2271
.CCSP2	  1996#	  2271
.CCTE2	  1995#	  2271
CMD     03/21/74	MACRO 12.5-46.0 17:25 13-JAN-81
CMD.MAC	23-MAR-79 11:42		Symbol cross reference

.CLAL2	  1969#	  2270
.CLAS2	  1974#	  2270
.CLAT2	  1976#	  2270
.CLCO2	  1977#	  2270
.CLDA2	  1983#	  2270
.CLEX2	  1975#	  2270
.CLIC2	  1968#	  2270
.CLIG2	  1972#	  2270
.CLLP2	  1973#	  2270
.CLNU2	  1970#	  2270
.CLPO2	  1980#	  2270
.CLPU2	  1982#	  2270
.CLQU2	  1981#	  2270
.CLRP2	  1971#	  2270
.CLSP2	  1979#	  2270
.CLTE2	  1978#	  2270
.CNAL2	  2020#	  2273
.CNAS2	  2025#	  2273
.CNAT2	  2027#	  2273
.CNCO2	  2028#	  2273
.CNDA2	  2034#	  2273
.CNEX2	  2026#	  2273
.CNIC2	  2019#	  2273
.CNIG2	  2023#	  2273
.CNLP2	  2024#	  2273
.CNNU2	  2021#	  2273
.CNPO2	  2031#	  2273
.CNPU2	  2033#	  2273
.CNQU2	  2032#	  2273
.CNRP2	  2022#	  2273
.CNSP2	  2030#	  2273
.CNTE2	  2029#	  2273
.CRAL2	  2003#	  2272
.CRAS2	  2008#	  2272
.CRAT2	  2010#	  2272
.CRCO2	  2011#	  2272
.CRDA2	  2017#	  2272
.CREX2	  2009#	  2272
.CRIC2	  2002#	  2272
.CRIG2	  2006#	  2272
.CRLP2	  2007#	  2272
.CRNU2	  2004#	  2272
.CRPO2	  2014#	  2272
.CRPU2	  2016#	  2272
.CRQU2	  2015#	  2272
.CRRP2	  2005#	  2272
.CRSP2	  2013#	  2272
.CRTE2	  2012#	  2272
.CXAL2	  2037#	  2274
.CXAS2	  2042#	  2274
.CXAT2	  2044#	  2274
.CXCO2	  2045#	  2274
.CXDA2	  2051#	  2274
CMD     03/21/74	MACRO 12.5-46.0 17:25 13-JAN-81
CMD.MAC	23-MAR-79 11:42		Symbol cross reference

.CXEX2	  2043#	  2274
.CXIC2	  2036#	  2274
.CXIG2	  2040#	  2274
.CXLP2	  2041#	  2274
.CXNU2	  2038#	  2274
.CXPO2	  2048#	  2274
.CXPU2	  2050#	  2274
.CXQU2	  2049#	  2274
.CXRP2	  2039#	  2274
.CXSP2	  2047#	  2274
.CXTE2	  2046#	  2274
.FCAL2	  1918#	  2267
.FCAS2	  1923#	  2267
.FCAT2	  1925#	  2267
.FCCO2	  1926#	  2267
.FCDA2	  1932#	  2267
.FCEX2	  1924#	  2267
.FCIC2	  1917#	  2267
.FCIG2	  1921#	  2267
.FCLP2	  1922#	  2267
.FCNU2	  1919#	  2267
.FCPO2	  1929#	  2267
.FCPU2	  1931#	  2267
.FCQU2	  1930#	  2267
.FCRP2	  1920#	  2267
.FCSP2	  1928#	  2267
.FCTE2	  1927#	  2267
.FNAL2	  1935#	  2268
.FNAS2	  1940#	  2268
.FNAT2	  1942#	  2268
.FNCO2	  1943#	  2268
.FNDA2	  1949#	  2268
.FNEX2	  1941#	  2268
.FNIC2	  1934#	  2268
.FNIG2	  1938#	  2268
.FNLP2	  1939#	  2268
.FNNU2	  1936#	  2268
.FNPO2	  1946#	  2268
.FNPU2	  1948#	  2268
.FNQU2	  1947#	  2268
.FNRP2	  1937#	  2268
.FNSP2	  1945#	  2268
.FNTE2	  1944#	  2268
.FXAL2	  1901#	  2266
.FXAS2	  1906#	  2266
.FXAT2	  1908#	  2266
.FXCO2	  1909#	  2266
.FXDA2	  1915#	  2266
.FXEX2	  1907#	  2266
.FXIC2	  1900#	  2266
.FXIG2	  1904#	  2266
.FXLP2	  1905#	  2266
.FXNU2	  1902#	  2266
CMD     03/21/74	MACRO 12.5-46.0 17:25 13-JAN-81
CMD.MAC	23-MAR-79 11:42		Symbol cross reference

.FXPO2	  1912#	  2266
.FXPU2	  1914#	  2266
.FXQU2	  1913#	  2266
.FXRP2	  1903#	  2266
.FXSP2	  1911#	  2266
.FXTE2	  1910#	  2266
.GAAL2	  1544#	  2245
.GAAS2	  1549#	  2245
.GAAT2	  1551#	  2245
.GACO2	  1552#	  2245
.GADA2	  1558#	  2245
.GAEX2	  1550#	  2245
.GAIC2	  1543#	  2245
.GAIG2	  1547#	  2245
.GALP2	  1548#	  2245
.GANU2	  1545#	  2245
.GAPO2	  1555#	  2245
.GAPU2	  1557#	  2245
.GAQU2	  1556#	  2245
.GARP2	  1546#	  2245
.GASP2	  1554#	  2245
.GATE2	  1553#	  2245
.GCAL2	  1578#	  2247
.GCAS2	  1583#	  2247
.GCAT2	  1585#	  2247
.GCCO2	  1586#	  2247
.GCDA2	  1592#	  2247
.GCEX2	  1584#	  2247
.GCIC2	  1577#	  2247
.GCIG2	  1581#	  2247
.GCLP2	  1582#	  2247
.GCNU2	  1579#	  2247
.GCPO2	  1589#	  2247
.GCPU2	  1591#	  2247
.GCQU2	  1590#	  2247
.GCRP2	  1580#	  2247
.GCSP2	  1588#	  2247
.GCTE2	  1587#	  2247
.GDAL2	  1595#	  2248
.GDAS2	  1600#	  2248
.GDAT2	  1602#	  2248
.GDCO2	  1603#	  2248
.GDDA2	  1609#	  2248
.GDEX2	  1601#	  2248
.GDIC2	  1594#	  2248
.GDIG2	  1598#	  2248
.GDLP2	  1599#	  2248
.GDNU2	  1596#	  2248
.GDPO2	  1606#	  2248
.GDPU2	  1608#	  2248
.GDQU2	  1607#	  2248
.GDRP2	  1597#	  2248
.GDSP2	  1605#	  2248
CMD     03/21/74	MACRO 12.5-46.0 17:25 13-JAN-81
CMD.MAC	23-MAR-79 11:42		Symbol cross reference

.GDTE2	  1604#	  2248
.GEAL2	  1629#	  2250
.GEAS2	  1634#	  2250
.GEAT2	  1636#	  2250
.GECO2	  1637#	  2250
.GEDA2	  1643#	  2250
.GEEX2	  1635#	  2250
.GEIC2	  1628#	  2250
.GEIG2	  1632#	  2250
.GELP2	  1633#	  2250
.GENU2	  1630#	  2250
.GEPO2	  1640#	  2250
.GEPU2	  1642#	  2250
.GEQU2	  1641#	  2250
.GERP2	  1631#	  2250
.GESP2	  1639#	  2250
.GETE2	  1638#	  2250
.GNAL2	  1561#	  2246
.GNAS2	  1566#	  2246
.GNAT2	  1568#	  2246
.GNCO2	  1569#	  2246
.GNDA2	  1575#	  2246
.GNEX2	  1567#	  2246
.GNIC2	  1560#	  2246
.GNIG2	  1564#	  2246
.GNLP2	  1565#	  2246
.GNNU2	  1562#	  2246
.GNPO2	  1572#	  2246
.GNPU2	  1574#	  2246
.GNQU2	  1573#	  2246
.GNRP2	  1563#	  2246
.GNSP2	  1571#	  2246
.GNTE2	  1570#	  2246
.GSAL2	  1612#	  2249
.GSAS2	  1617#	  2249
.GSAT2	  1619#	  2249
.GSCO2	  1620#	  2249
.GSDA2	  1626#	  2249
.GSEX2	  1618#	  2249
.GSIC2	  1611#	  2249
.GSIG2	  1615#	  2249
.GSLP2	  1616#	  2249
.GSNU2	  1613#	  2249
.GSPO2	  1623#	  2249
.GSPU2	  1625#	  2249
.GSQU2	  1624#	  2249
.GSRP2	  1614#	  2249
.GSSP2	  1622#	  2249
.GSTE2	  1621#	  2249
.ISAL1	  1449#	  1485
.ISAL2	  1510#	  2243
.ISAL3	  2299#	  2335
.ISAS1	  1454#	  1485
CMD     03/21/74	MACRO 12.5-46.0 17:25 13-JAN-81
CMD.MAC	23-MAR-79 11:42		Symbol cross reference

.ISAS2	  1515#	  2243
.ISAS3	  2304#	  2335
.ISAT1	  1456#	  1485
.ISAT2	  1517#	  2243
.ISAT3	  2306#	  2335
.ISCO1	  1457#	  1485
.ISCO2	  1518#	  2243
.ISCO3	  2307#	  2335
.ISDA1	  1463#	  1485
.ISDA2	  1524#	  2243
.ISDA3	  2313#	  2335
.ISEX1	  1455#	  1485
.ISEX2	  1516#	  2243
.ISEX3	  2305#	  2335
.ISIC1	  1448#	  1485
.ISIC2	  1509#	  2243
.ISIC3	  2298#	  2335
.ISIG1	  1452#	  1485
.ISIG2	  1513#	  2243
.ISIG3	  2302#	  2335
.ISLP1	  1453#	  1485
.ISLP2	  1514#	  2243
.ISLP3	  2303#	  2335
.ISNU1	  1450#	  1485
.ISNU2	  1511#	  2243
.ISNU3	  2300#	  2335
.ISPO1	  1460#	  1485
.ISPO2	  1521#	  2243
.ISPO3	  2310#	  2335
.ISPU1	  1462#	  1485
.ISPU2	  1523#	  2243
.ISPU3	  2312#	  2335
.ISQU1	  1461#	  1485
.ISQU2	  1522#	  2243
.ISQU3	  2311#	  2335
.ISRP1	  1451#	  1485
.ISRP2	  1512#	  2243
.ISRP3	  2301#	  2335
.ISSP1	  1459#	  1485
.ISSP2	  1520#	  2243
.ISSP3	  2309#	  2335
.ISTE1	  1458#	  1485
.ISTE2	  1519#	  2243
.ISTE3	  2308#	  2335
.KNAL1	  1466#	  1486
.KNAL2	  1527#	  2244
.KNAL3	  2316#	  2336
.KNAS1	  1471#	  1486
.KNAS2	  1532#	  2244
.KNAS3	  2321#	  2336
.KNAT1	  1473#	  1486
.KNAT2	  1534#	  2244
.KNAT3	  2323#	  2336
CMD     03/21/74	MACRO 12.5-46.0 17:25 13-JAN-81
CMD.MAC	23-MAR-79 11:42		Symbol cross reference

.KNCO1	  1474#	  1486
.KNCO2	  1535#	  2244
.KNCO3	  2324#	  2336
.KNDA1	  1480#	  1486
.KNDA2	  1541#	  2244
.KNDA3	  2330#	  2336
.KNEX1	  1472#	  1486
.KNEX2	  1533#	  2244
.KNEX3	  2322#	  2336
.KNIC1	  1465#	  1486
.KNIC2	  1526#	  2244
.KNIC3	  2315#	  2336
.KNIG1	  1469#	  1486
.KNIG2	  1530#	  2244
.KNIG3	  2319#	  2336
.KNLP1	  1470#	  1486
.KNLP2	  1531#	  2244
.KNLP3	  2320#	  2336
.KNNU1	  1467#	  1486
.KNNU2	  1528#	  2244
.KNNU3	  2317#	  2336
.KNPO1	  1477#	  1486
.KNPO2	  1538#	  2244
.KNPO3	  2327#	  2336
.KNPU1	  1479#	  1486
.KNPU2	  1540#	  2244
.KNPU3	  2329#	  2336
.KNQU1	  1478#	  1486
.KNQU2	  1539#	  2244
.KNQU3	  2328#	  2336
.KNRP1	  1468#	  1486
.KNRP2	  1529#	  2244
.KNRP3	  2318#	  2336
.KNSP1	  1476#	  1486
.KNSP2	  1537#	  2244
.KNSP3	  2326#	  2336
.KNTE1	  1475#	  1486
.KNTE2	  1536#	  2244
.KNTE3	  2325#	  2336
.PAAL2	  1748#	  2257
.PAAS2	  1753#	  2257
.PAAT2	  1755#	  2257
.PACO2	  1756#	  2257
.PADA2	  1762#	  2257
.PAEX2	  1754#	  2257
.PAIC2	  1747#	  2257
.PAIG2	  1751#	  2257
.PALP2	  1752#	  2257
.PANU2	  1749#	  2257
.PAPO2	  1759#	  2257
.PAPU2	  1761#	  2257
.PAQU2	  1760#	  2257
.PARP2	  1750#	  2257
CMD     03/21/74	MACRO 12.5-46.0 17:25 13-JAN-81
CMD.MAC	23-MAR-79 11:42		Symbol cross reference

.PASP2	  1758#	  2257
.PATE2	  1757#	  2257
.PBAL2	  1765#	  2258
.PBAS2	  1770#	  2258
.PBAT2	  1772#	  2258
.PBCO2	  1773#	  2258
.PBDA2	  1779#	  2258
.PBEX2	  1771#	  2258
.PBIC2	  1764#	  2258
.PBIG2	  1768#	  2258
.PBLP2	  1769#	  2258
.PBNU2	  1766#	  2258
.PBPO2	  1776#	  2258
.PBPU2	  1778#	  2258
.PBQU2	  1777#	  2258
.PBRP2	  1767#	  2258
.PBSP2	  1775#	  2258
.PBTE2	  1774#	  2258
.PCAL2	  2088#	  2277
.PCAS2	  2093#	  2277
.PCAT2	  2095#	  2277
.PCCO2	  2096#	  2277
.PCDA2	  2102#	  2277
.PCEX2	  2094#	  2277
.PCIC2	  2087#	  2277
.PCIG2	  2091#	  2277
.PCLP2	  2092#	  2277
.PCNU2	  2089#	  2277
.PCPO2	  2099#	  2277
.PCPU2	  2101#	  2277
.PCQU2	  2100#	  2277
.PCRP2	  2090#	  2277
.PCSP2	  2098#	  2277
.PCTE2	  2097#	  2277
.PDAL2	  1816#	  2261
.PDAS2	  1821#	  2261
.PDAT2	  1823#	  2261
.PDCO2	  1824#	  2261
.PDDA2	  1830#	  2261
.PDEX2	  1822#	  2261
.PDIC2	  1815#	  2261
.PDIG2	  1819#	  2261
.PDLP2	  1820#	  2261
.PDNU2	  1817#	  2261
.PDPO2	  1827#	  2261
.PDPU2	  1829#	  2261
.PDQU2	  1828#	  2261
.PDRP2	  1818#	  2261
.PDSP2	  1826#	  2261
.PDTE2	  1825#	  2261
.PEAL2	  2122#	  2279
.PEAS2	  2127#	  2279
.PEAT2	  2129#	  2279
CMD     03/21/74	MACRO 12.5-46.0 17:25 13-JAN-81
CMD.MAC	23-MAR-79 11:42		Symbol cross reference

.PECO2	  2130#	  2279
.PEDA2	  2136#	  2279
.PEEX2	  2128#	  2279
.PEIC2	  2121#	  2279
.PEIG2	  2125#	  2279
.PELP2	  2126#	  2279
.PENU2	  2123#	  2279
.PEPO2	  2133#	  2279
.PEPU2	  2135#	  2279
.PEQU2	  2134#	  2279
.PERP2	  2124#	  2279
.PESP2	  2132#	  2279
.PETE2	  2131#	  2279
.PLAL2	  1731#	  2256
.PLAS2	  1736#	  2256
.PLAT2	  1738#	  2256
.PLCO2	  1739#	  2256
.PLDA2	  1745#	  2256
.PLEX2	  1737#	  2256
.PLIC2	  1730#	  2256
.PLIG2	  1734#	  2256
.PLLP2	  1735#	  2256
.PLNU2	  1732#	  2256
.PLPO2	  1742#	  2256
.PLPU2	  1744#	  2256
.PLQU2	  1743#	  2256
.PLRP2	  1733#	  2256
.PLSP2	  1741#	  2256
.PLTE2	  1740#	  2256
.PNAL2	  2071#	  2276
.PNAS2	  2076#	  2276
.PNAT2	  2078#	  2276
.PNCO2	  2079#	  2276
.PNDA2	  2085#	  2276
.PNEX2	  2077#	  2276
.PNIC2	  2070#	  2276
.PNIG2	  2074#	  2276
.PNLP2	  2075#	  2276
.PNNU2	  2072#	  2276
.PNPO2	  2082#	  2276
.PNPU2	  2084#	  2276
.PNQU2	  2083#	  2276
.PNRP2	  2073#	  2276
.PNSP2	  2081#	  2276
.PNTE2	  2080#	  2276
.PPAL2	  2054#	  2275
.PPAS2	  2059#	  2275
.PPAT2	  2061#	  2275
.PPCO2	  2062#	  2275
.PPDA2	  2068#	  2275
.PPEX2	  2060#	  2275
.PPIC2	  2053#	  2275
.PPIG2	  2057#	  2275
CMD     03/21/74	MACRO 12.5-46.0 17:25 13-JAN-81
CMD.MAC	23-MAR-79 11:42		Symbol cross reference

.PPLP2	  2058#	  2275
.PPNU2	  2055#	  2275
.PPPO2	  2065#	  2275
.PPPU2	  2067#	  2275
.PPQU2	  2066#	  2275
.PPRP2	  2056#	  2275
.PPSP2	  2064#	  2275
.PPTE2	  2063#	  2275
.PRAL2	  1799#	  2260
.PRAS2	  1804#	  2260
.PRAT2	  1806#	  2260
.PRCO2	  1807#	  2260
.PRDA2	  1813#	  2260
.PREX2	  1805#	  2260
.PRIC2	  1798#	  2260
.PRIG2	  1802#	  2260
.PRLP2	  1803#	  2260
.PRNU2	  1800#	  2260
.PRPO2	  1810#	  2260
.PRPU2	  1812#	  2260
.PRQU2	  1811#	  2260
.PRRP2	  1801#	  2260
.PRSP2	  1809#	  2260
.PRTE2	  1808#	  2260
.PSAL2	  2139#	  2280
.PSAS2	  2144#	  2280
.PSAT2	  2146#	  2280
.PSCO2	  2147#	  2280
.PSDA2	  2153#	  2280
.PSEX2	  2145#	  2280
.PSIC2	  2138#	  2280
.PSIG2	  2142#	  2280
.PSLP2	  2143#	  2280
.PSNU2	  2140#	  2280
.PSPO2	  2150#	  2280
.PSPU2	  2152#	  2280
.PSQU2	  2151#	  2280
.PSRP2	  2141#	  2280
.PSSP2	  2149#	  2280
.PSTE2	  2148#	  2280
.PUAL2	  1782#	  2259
.PUAS2	  1787#	  2259
.PUAT2	  1789#	  2259
.PUCO2	  1790#	  2259
.PUDA2	  1796#	  2259
.PUEX2	  1788#	  2259
.PUIC2	  1781#	  2259
.PUIG2	  1785#	  2259
.PULP2	  1786#	  2259
.PUNU2	  1783#	  2259
.PUPO2	  1793#	  2259
.PUPU2	  1795#	  2259
.PUQU2	  1794#	  2259
CMD     03/21/74	MACRO 12.5-46.0 17:25 13-JAN-81
CMD.MAC	23-MAR-79 11:42		Symbol cross reference

.PURP2	  1784#	  2259
.PUSP2	  1792#	  2259
.PUTE2	  1791#	  2259
.PXAL2	  2105#	  2278
.PXAS2	  2110#	  2278
.PXAT2	  2112#	  2278
.PXCO2	  2113#	  2278
.PXDA2	  2119#	  2278
.PXEX2	  2111#	  2278
.PXIC2	  2104#	  2278
.PXIG2	  2108#	  2278
.PXLP2	  2109#	  2278
.PXNU2	  2106#	  2278
.PXPO2	  2116#	  2278
.PXPU2	  2118#	  2278
.PXQU2	  2117#	  2278
.PXRP2	  2107#	  2278
.PXSP2	  2115#	  2278
.PXTE2	  2114#	  2278
.TDAL2	  2156#	  2281
.TDAS2	  2161#	  2281
.TDAT2	  2163#	  2281
.TDCO2	  2164#	  2281
.TDDA2	  2170#	  2281
.TDEX2	  2162#	  2281
.TDIC2	  2155#	  2281
.TDIG2	  2159#	  2281
.TDLP2	  2160#	  2281
.TDNU2	  2157#	  2281
.TDPO2	  2167#	  2281
.TDPU2	  2169#	  2281
.TDQU2	  2168#	  2281
.TDRP2	  2158#	  2281
.TDSP2	  2166#	  2281
.TDTE2	  2165#	  2281
.TLAL2	  2173#	  2282
.TLAS2	  2178#	  2282
.TLAT2	  2180#	  2282
.TLCO2	  2181#	  2282
.TLDA2	  2187#	  2282
.TLEX2	  2179#	  2282
.TLIC2	  2172#	  2282
.TLIG2	  2176#	  2282
.TLLP2	  2177#	  2282
.TLNU2	  2174#	  2282
.TLPO2	  2184#	  2282
.TLPU2	  2186#	  2282
.TLQU2	  2185#	  2282
.TLRP2	  2175#	  2282
.TLSP2	  2183#	  2282
.TLTE2	  2182#	  2282
.TNAL2	  2190#	  2283
.TNAS2	  2195#	  2283
CMD     03/21/74	MACRO 12.5-46.0 17:25 13-JAN-81
CMD.MAC	23-MAR-79 11:42		Symbol cross reference

.TNAT2	  2197#	  2283
.TNCO2	  2198#	  2283
.TNDA2	  2204#	  2283
.TNEX2	  2196#	  2283
.TNIC2	  2189#	  2283
.TNIG2	  2193#	  2283
.TNLP2	  2194#	  2283
.TNNU2	  2191#	  2283
.TNPO2	  2201#	  2283
.TNPU2	  2203#	  2283
.TNQU2	  2202#	  2283
.TNRP2	  2192#	  2283
.TNSP2	  2200#	  2283
.TNTE2	  2199#	  2283
.TRAL2	  2207#	  2284
.TRAS2	  2212#	  2284
.TRAT2	  2214#	  2284
.TRCO2	  2215#	  2284
.TRDA2	  2221#	  2284
.TREX2	  2213#	  2284
.TRIC2	  2206#	  2284
.TRIG2	  2210#	  2284
.TRLP2	  2211#	  2284
.TRNU2	  2208#	  2284
.TRPO2	  2218#	  2284
.TRPU2	  2220#	  2284
.TRQU2	  2219#	  2284
.TRRP2	  2209#	  2284
.TRSP2	  2217#	  2284
.TRTE2	  2216#	  2284
.TYAL2	  2224#	  2285
.TYAS2	  2229#	  2285
.TYAT2	  2231#	  2285
.TYCO2	  2232#	  2285
.TYDA2	  2238#	  2285
.TYEX2	  2230#	  2285
.TYIC2	  2223#	  2285
.TYIG2	  2227#	  2285
.TYLP2	  2228#	  2285
.TYNU2	  2225#	  2285
.TYPO2	  2235#	  2285
.TYPU2	  2237#	  2285
.TYQU2	  2236#	  2285
.TYRP2	  2226#	  2285
.TYSP2	  2234#	  2285
.TYTE2	  2233#	  2285
.ULAL2	  1833#	  2262
.ULAS2	  1838#	  2262
.ULAT2	  1840#	  2262
.ULCO2	  1841#	  2262
.ULDA2	  1847#	  2262
.ULEX2	  1839#	  2262
.ULIC2	  1832#	  2262
CMD     03/21/74	MACRO 12.5-46.0 17:25 13-JAN-81
CMD.MAC	23-MAR-79 11:42		Symbol cross reference

.ULIG2	  1836#	  2262
.ULLP2	  1837#	  2262
.ULNU2	  1834#	  2262
.ULPO2	  1844#	  2262
.ULPU2	  1846#	  2262
.ULQU2	  1845#	  2262
.ULRP2	  1835#	  2262
.ULSP2	  1843#	  2262
.ULTE2	  1842#	  2262
.UNAL2	  1850#	  2263
.UNAS2	  1855#	  2263
.UNAT2	  1857#	  2263
.UNCO2	  1858#	  2263
.UNDA2	  1864#	  2263
.UNEX2	  1856#	  2263
.UNIC2	  1849#	  2263
.UNIG2	  1853#	  2263
.UNLP2	  1854#	  2263
.UNNU2	  1851#	  2263
.UNPO2	  1861#	  2263
.UNPU2	  1863#	  2263
.UNQU2	  1862#	  2263
.UNRP2	  1852#	  2263
.UNSP2	  1860#	  2263
.UNTE2	  1859#	  2263
.XLAL2	  1867#	  2264
.XLAS2	  1872#	  2264
.XLAT2	  1874#	  2264
.XLCO2	  1875#	  2264
.XLDA2	  1881#	  2264
.XLEX2	  1873#	  2264
.XLIC2	  1866#	  2264
.XLIG2	  1870#	  2264
.XLLP2	  1871#	  2264
.XLNU2	  1868#	  2264
.XLPO2	  1878#	  2264
.XLPU2	  1880#	  2264
.XLQU2	  1879#	  2264
.XLRP2	  1869#	  2264
.XLSP2	  1877#	  2264
.XLTE2	  1876#	  2264
.XNAL2	  1884#	  2265
.XNAS2	  1889#	  2265
.XNAT2	  1891#	  2265
.XNCO2	  1892#	  2265
.XNDA2	  1898#	  2265
.XNEX2	  1890#	  2265
.XNIC2	  1883#	  2265
.XNIG2	  1887#	  2265
.XNLP2	  1888#	  2265
.XNNU2	  1885#	  2265
.XNPO2	  1895#	  2265
.XNPU2	  1897#	  2265
CMD     03/21/74	MACRO 12.5-46.0 17:25 13-JAN-81
CMD.MAC	23-MAR-79 11:42		Symbol cross reference

.XNQU2	  1896#	  2265
.XNRP2	  1886#	  2265
.XNSP2	  1894#	  2265
.XNTE2	  1893#	  2265
.YAAL2	  1663#	  2252
.YAAS2	  1668#	  2252
.YAAT2	  1670#	  2252
.YACO2	  1671#	  2252
.YADA2	  1677#	  2252
.YAEX2	  1669#	  2252
.YAIC2	  1662#	  2252
.YAIG2	  1666#	  2252
.YALP2	  1667#	  2252
.YANU2	  1664#	  2252
.YAPO2	  1674#	  2252
.YAPU2	  1676#	  2252
.YAQU2	  1675#	  2252
.YARP2	  1665#	  2252
.YASP2	  1673#	  2252
.YATE2	  1672#	  2252
.YCAL2	  1680#	  2253
.YCAS2	  1685#	  2253
.YCAT2	  1687#	  2253
.YCCO2	  1688#	  2253
.YCDA2	  1694#	  2253
.YCEX2	  1686#	  2253
.YCIC2	  1679#	  2253
.YCIG2	  1683#	  2253
.YCLP2	  1684#	  2253
.YCNU2	  1681#	  2253
.YCPO2	  1691#	  2253
.YCPU2	  1693#	  2253
.YCQU2	  1692#	  2253
.YCRP2	  1682#	  2253
.YCSP2	  1690#	  2253
.YCTE2	  1689#	  2253
.YLAL2	  1646#	  2251
.YLAS2	  1651#	  2251
.YLAT2	  1653#	  2251
.YLCO2	  1654#	  2251
.YLDA2	  1660#	  2251
.YLEX2	  1652#	  2251
.YLIC2	  1645#	  2251
.YLIG2	  1649#	  2251
.YLLP2	  1650#	  2251
.YLNU2	  1647#	  2251
.YLPO2	  1657#	  2251
.YLPU2	  1659#	  2251
.YLQU2	  1658#	  2251
.YLRP2	  1648#	  2251
.YLSP2	  1656#	  2251
.YLTE2	  1655#	  2251
.YRAL2	  1714#	  2255
CMD     03/21/74	MACRO 12.5-46.0 17:25 13-JAN-81
CMD.MAC	23-MAR-79 11:42		Symbol cross reference

.YRAS2	  1719#	  2255
.YRAT2	  1721#	  2255
.YRCO2	  1722#	  2255
.YRDA2	  1728#	  2255
.YREX2	  1720#	  2255
.YRIC2	  1713#	  2255
.YRIG2	  1717#	  2255
.YRLP2	  1718#	  2255
.YRNU2	  1715#	  2255
.YRPO2	  1725#	  2255
.YRPU2	  1727#	  2255
.YRQU2	  1726#	  2255
.YRRP2	  1716#	  2255
.YRSP2	  1724#	  2255
.YRTE2	  1723#	  2255
.YUAL2	  1697#	  2254
.YUAS2	  1702#	  2254
.YUAT2	  1704#	  2254
.YUCO2	  1705#	  2254
.YUDA2	  1711#	  2254
.YUEX2	  1703#	  2254
.YUIC2	  1696#	  2254
.YUIG2	  1700#	  2254
.YULP2	  1701#	  2254
.YUNU2	  1698#	  2254
.YUPO2	  1708#	  2254
.YUPU2	  1710#	  2254
.YUQU2	  1709#	  2254
.YURP2	  1699#	  2254
.YUSP2	  1707#	  2254
.YUTE2	  1706#	  2254
CMD     03/21/74	MACRO 12.5-46.0 17:25 13-JAN-81
CMD.MAC	23-MAR-79 11:42		Macro/Opdef cross reference

APRENB	   254	  1301	  1328
CHARDO	    54#	    73	  1485	  1486	  2243	  2244	  2245	  2246	  2247	  2248	  2249	  2250	  2251	  2252
	  2253	  2254	  2255	  2256	  2257	  2258	  2259	  2260	  2261	  2262	  2263	  2264	  2265	  2266
	  2267	  2268	  2269	  2270	  2271	  2272	  2273	  2274	  2275	  2276	  2277	  2278	  2279	  2280
	  2281	  2282	  2283	  2284	  2285	  2335	  2336
CHRDEF	    71#	    73
CLRBFO	  1319
CLRIN	    43#	   248
CMND	   111#	   128	   131	   132	   133	   134	   135	   136	   137	   138	   139	   140	   141	   142
	   143	   144	   145	   146	   147	   148	   149	   150	   151	   152	   153	   154	   155	   156
	   157	   158	   161	   163	   164	   165	   166	   169	   172	   175	   178	   179	   180	   182
	   184	   187	   188	   189	   190	   191	   194	   195	   196	   197	   200	   201	   202	   203
	   204
DATUUO	  1188
DEC	    41#
DISABL	    47#
ENABLE	    46#
ERB	    52#
ERO	    50#	   532	   536
ERROR	    45#	   333	   348	   374	   383	   524	   611	   622	   650	   656	   761	   778	   802	   875
	   943	   945	   966	  1057	  1081	  1093	  1111	  1121	  1132	  1134	  1142	  1144	  1148	  1155
	  1159	  1166	  1176	  1180	  1271	  1283	  1390	  1394
ERT	    51#	   762	  1276	  1335	  1338
EXIT	  1325
GCD	    37#
GCI	    36#
GETPPN	  1216
GETTAB	  1303	  1314
ISTATE	  1404#	  1485	  1486	  2243	  2244	  2245	  2246	  2247	  2248	  2249	  2250	  2251	  2252	  2253
	  2254	  2255	  2256	  2257	  2258	  2259	  2260	  2261	  2262	  2263	  2264	  2265	  2266	  2267
	  2268	  2269	  2270	  2271	  2272	  2273	  2274	  2275	  2276	  2277	  2278	  2279	  2280	  2281
	  2282	  2283	  2284	  2285	  2335	  2336
OPD	    29#	    33	    34	    35	    36	    37	    38	    39	    40	    41	    42	    43	    44	    45
	    46	    47	    48	    49	    50	    51	    52
OUTSTR	   563
RDLINE	    35#
SETTTY	    44#
SSKE	    48#	   446	   481	   502	   509	   516	   756	   790	  1086	  1130	  1133
STATBT	  1401#	  1485	  1486	  2243	  2244	  2245	  2246	  2247	  2248	  2249	  2250	  2251	  2252	  2253
	  2254	  2255	  2256	  2257	  2258	  2259	  2260	  2261	  2262	  2263	  2264	  2265	  2266	  2267
	  2268	  2269	  2270	  2271	  2272	  2273	  2274	  2275	  2276	  2277	  2278	  2279	  2280	  2281
	  2282	  2283	  2284	  2285	  2335	  2336
TAB	    49#	   533
TCI	    33#	   299	   549	   556	   564	   569	   612	   617	   626	   644	   796	   808	  1053	  1068
	  1101	  1103	  1170	  1385
TCL	    34#	   786
TCO	    40#	   271	   272	   505	   512	   537	   763	   764	   771	  1285	  1288	  1289	  1290	  1291
	  1292	  1322	  1323
TSTATE	  1411#	  1493	  1503	  1504	  1505	  2290	  2291	  2292	  2293	  2343
TYPE	    42#	   262	   269	   438	   500	   504	   506	   511	   514	   518	   519	   523	   714	   717
	   720	   723	   727	   729	   731	   735	   737	   739	   743	   745	   747	   749	   770	   794
	  1043	  1099	  1114	  1136	  1282	  1284	  1321	  1344
WCD	    39#
CMD     03/21/74	MACRO 12.5-46.0 17:25 13-JAN-81
CMD.MAC	23-MAR-79 11:42		Macro/Opdef cross reference

WCI	    38#	   332	   458	   610	  1056	  1080	  1389	  1393
XSTABM	  1421#	  1431	  1438
XWDM	  1418#	  1431	  1432	  1433	  1434	  1435	  1436	  1438	  1439	  1440	  1441	  1442	  1443@\<