UUO     02/20/74	MACRO 12.5-46.0 17:26 13-JAN-81 PAGE 1
UUOFLG.MAC	23-MAR-79 11:42

     1			000001	UUOFLG=1
     2				00010	;COM    05/25/77
     3			000015	00020	VERSION==15
     4			000013	00030	VERPAT==13
     5			000000	00040	R0=     0
     6			000001	00050	R1=     1
     7			000002	00060	R2=     2
     8			000003	00070	R3=     3
     9			000004	00080	CH==    4                       ;CURRENT CHARACTER
    10			000007	00090	CT==    7                       ;CURRENT CHARACTER'S TYPE
    11				00100	;W=5                            ;USED BY CMD
    12				00110	;S=6                            ;USED BY CMD
    13			000010	00120	F=      10                      ;USED BY TAP
    14			000015	00130	U=15                            ;USED BY TAP
    15				00140	;W=16                           ;USED BY TAP
    16			000017	00150	P=      17
    17			000012	00160	UNIT== 12               ;USED BY TAP
    18			000006	00170	FIL==   6               ;CHANNEL FOR USER FILE
    19			000040	00180	RST==   40              ;DO NOT PUT FILE IN DIRECTORY ON A CLOSE
    20			000050	00190	LPAREN==50
    21			000051	00200	RPAREN==51
    22			000056	00210	DOTCHR= 56
    23			000014	00220	TOFCHR= 14
    24			000015	00230	CRCHR=  15
    25			000040	00240	SPACE=  40
    26			000000	00250	EOLIT== 0
    27			000137	00260	BARROW= 137
    28				00270	        SALL                    ;SUPPRESS ALL MACRO EXPANSIONS
    29	000000'			00280	IFDEF   UUOFLG  <UUOTAB: BLOCK 0>
    30				00290	DEFINE  OPD     (A,B) <X==X+1
    31				00300	OPDEF A [X*1000000000]
    32				00310	IFDEF UUOFLG<JRST B>>
    33			000000	00320	X==0
    34	000000'	254000	000240'	00330	        OPD     TCI,TCIUUO;    001
    35	000001'	254000	000275'	00340	        OPD     TCL,TCLUUO;    002
    36	000002'	254000	000513'	00350	        OPD     RDLINE,RDUUO;  003
    37	000003'	254000	000426'	00360	        OPD     GCI,GCIUUO;    004
    38	000004'	254000	000444'	00370	        OPD     GCD,GCDUUO;    005
    39	000005'	254000	000455'	00380	        OPD     WCI,WCIUUO;    006
    40	000006'	254000	000475'	00390	        OPD     WCD,WCDUUO;    007
    41	000007'	254000	001060'	00400	        OPD     TCO,TCOUU ;    010
    42	000010'	254000	001173'	00410	        OPD     DEC,DECUUO;    011
    43	000011'	254000	001207'	00420	        OPD     TYPE,TYPUUO;   012
    44	000012'	254000	001543'	00430	        OPD     CLRIN,CLRUUO;  013
    45	000013'	254000	001557'	00440	        OPD     SETTTY,TTYUUO; 014
    46	000014'	254000	001624'	00450	        OPD     ERROR,ERRUUO;  015
    47	000015'	254000	001635'	00460	        OPD     ENABLE,ENUUO;  016
    48	000016'	254000	001642'	00470	        OPD     DISABL,DISUUO; 017
    49	000017'	254000	000214'	00480	        OPD     SSKE,SSKUUO;   020
    50	000020'	254000	000421'	00490	        OPD     TAB,TABUUO;    021
    51	000021'	254000	001242'	00500	        OPD     ERO,EROUUO;    022
    52	000022'	254000	001234'	00510	        OPD     ERT,ERTUUO;     023
    53	000023'	254000	001237'	00520	        OPD     ERB,ERBUUO;     024
UUO     02/20/74	MACRO 12.5-46.0 17:26 13-JAN-81 PAGE 1
CHR.MAC	23-MAR-79 11:41

    54					;CHR    07/08/72
    55					DEFINE  CHARDO(A) <CHARC=0
    56					A'IC;;      ILLEGAL CHARACTER
    57					A'AL;;      ALPHABETIC CHARACTER
    58					A'NU;;      NUMERIC CHARACTER
    59					A'RP;;      LEAVE USER MODE ")"
    60					A'IG;;      IGNORED CHARACTER
    61					A'LP;;      ENTER USER NAME MODE "("
    62					A'AS;;      ALL FILES CHAR (*)
    63					A'EX;;      FILE EXTENSION DELIMITER (.)
    64					A'AT;;      COMMAND FILE CHAR (@)
    65					A'CO;;      COMMA
    66					A'TE;;      LINE TERMINATION (CR LF)
    67					A'SP;;      SPACE
    68					A'PO;;      POUND SIGN (#)
    69					A'QU;;      QUESTION MARK (?)
    70					A'PU;;      PUNCTUATION ALLOWED IN USER NAMES (/ ' $)
    71					A'DA>;      DASH (-)
    72					DEFINE  CHRDEF(C) <C=CHARC
    73					CHARC=CHARC+1>
    74			000020		        CHARDO  <CHRDEF >
    75
    76					TITLE   UUO     02/20/74
    77					;*LAST LINE EDITING WOULD BE NICE
    78					;*REDO RDLINE ROUTINE TO USE TABLE
    79					;
    80					;
    81					; THIS PACKAGE CONTAINS A UUO DISPATCHER AND SOME TELETYPE
    82					; UUOS.
    83					;
    84					; IT IS ASSUMED THAT REGISTER P IS SET UP FOR A PUSH STACK.
    85					; IT IS USED EXTENSIVELY BY THIS CODE BUT IS NOT SET UP.
    86					;
    87					; IT IS ASSUMED THAT LOCATION 41 OCTAL CONTAINS THE INSTRUCTION
    88					; 'PUSHJ P,UUO'.
    89					;
    90					; TO ADD NEW UUOS, PUT THE UUO NAME AND ROUTINE ADDRESS INTO
    91					; THE TABLE 'UUOTAB'. THE FORMAT OF AN ENTRY IS:
    92					; NAME,ROUTINE. THE LOCATIION OF THE UUO IN THE TABLE
    93					; DEFINES IT'S OPCODE FIELD. IN OTHER WORDS, THE FIRST ENTRY
    94					; IN THE TABLE HAS OPCODE 1, THE SECOND ENTRY HAS OPCODE 2.
    95					; IN GENERAL, THE NTH ENTRY IN THE TABLE HAS OPCODE N.
    96					; UNUSED ENTRIES SHOULD BE ZERO.
    97					;
    98					; WHEN THE UUO DISPATCHER BRANCHES TO THE UUO ROUTINE,
    99					; THE RETURN ADDRESS AND THE ORIGINAL CONTENTS OF REGISTER ZERO
   100					; WILL HAVE BEEN PUSHED ONTO THE STACK. CELL ZERO IS ON THE
   101					; TOP OF THE STACK. THE RETURN ADDRESS IS NEXT. CELL ZERO
   102					; WILL HAVE BEEN CLOBBERED.
   103					        EXTERNAL CDISP,ESCR,CIN,FERR
   104
   105			000001		SAVBEG=1
   106			000016		SAVEND=16
UUO     02/20/74	MACRO 12.5-46.0 17:26 13-JAN-81 PAGE 1
UUO.MAC	23-MAR-79 11:42

   107			000040		FORTY=40
   108
   109			000133		LBRACK==133
   110			000135		RBRACK==135
   111			000131		YCHR=   131
   112			000012		LFCHR=12
   113			000007		BELCHR=7
   114			000134		BSLASH=134
   115			000136		UARROW=136
   116			000377		RUBOUT=377
   117			000177		RUB177=177
   118			000141		LOWERA=141
   119			000172		LOWERZ=172
   120			000021		CTRLQ=21
   121			000072		COLON==72
   122			000055		DASH==55
   123			000054		COMMA=54
   124			000044		DOLLAR=44
   125
   126			000041		FORTY1= 41
   127	000041				        LOC     FORTY1
   128	000041	260740	000172'		        PUSHJ   P,UUO                   ;SET UP BRANCH TO UUOS IN LOC 41
   129	000024'				        RELOC
   130
   131	000024'				SAVR1:  BLOCK   SAVEND-SAVBEG
   132	000041'				SAVR1E: BLOCK   1
   133	000042'				SAVR2:  BLOCK   SAVEND-SAVBEG
   134	000057'				SAVR2E: BLOCK   1
   135	000060'				SPTR:   BLOCK   3
   136	000063'				LBUFF:  BLOCK   64
   137	000147'	000000	000000		SAVE1:  0
   138	000150'	000000	000000		SAVE2:  0
   139	000151'	000000	000000		SAVE3:  0
   140	000152'	000000	000000		CTEST2: 0
   141	000153'	000000	000000		CTEST:  0
   142	000154'	000000	000000		TTYSTA: 0
   143	000155'	000000	000000		TTYFLG: 0
   144	000156'	000000	000000		CHRCNT::        0               ;CHAR COUNT FOR TCO UUO
   145	000157'	000000	000000		CNT:    0
   146	000160'	000000	000000		ESCFLG: 0
   147	000161'	000000	000000		SAVESC: 0
   148	000162'	263740	000000		CLIN:   POPJ    P,              ;*CHANGE THIS*
   149	000163'	263740	000000		CLOUT:  POPJ    P,              ;*CHANGE THIS*
   150	000164'	000000	000077		LPTCTR: ^D63    ;LPT LINE COUNTER.  0-65.
   151	000165'	000000	000012		PRVCHR: 12      ;PREVIOUS CHAR PRINTED ON LPT:
   152	000166'	000000	000000		COUT::  0
   153	000167'	000000	000000		SCHAR:  0
   154					; BOTH OF THESE CELLS NEED TO BE INITIALIZED ZERO
   155	000170'	000000	000000		CINFLG::0       ;NORMALLY ZERO.  WHEN NONZERO CONTAINS TERMINATING
   156					;               CHARACTER FOR NAMES FILE.
   157	000171'	000000	000000		GCHB::0         ;BUFFER TO HOLD CHAR AFTER CR/LF PAIR
   158	000172'	250000	002166'		UUO:    EXCH    R0,STKCNT#      ;EXCHANGE R0 AND STACK CONTENTS OF UUO
   159	000173'	553017	000000		        HRRZS   (P)             ;SET ALL FLAGS TO ZERO
UUO     02/20/74	MACRO 12.5-46.0 17:26 13-JAN-81 PAGE 1-2
UUO.MAC	23-MAR-79 11:42

   160	000174'	250740	002167'		        EXCH    P,STKPTR        ;EXCHANGE OLD AND NEW STACK POINTERS
   161	000175'	315740	002167'		        CAMGE   P,STKPTR#       ;SKIP IF LOWER OR SAME LEVEL UUO CALL
   162	000176'	312017	000000		        CAME    R0,(P)          ;SKIP IF NOT A NEW UUO CALL
   163	000177'	200740	002167'		        MOVE    P,STKPTR        ;SAVE NEW STACK POINTER
   164	000200'	316740	002167'		        CAMN    P,STKPTR        ;SKIP IF NOT A NEW UUO CALL
   165	000201'	200017	000000		        MOVE    R0,(P)          ;SAVE CURRENT CONTENTS OF RETURN CELL
   166	000202'	250740	002167'		        EXCH    P,STKPTR        ;RE-EXCHANGE P AND STACK POINTER
   167	000203'	250000	002166'		        EXCH    R0,STKCNT       ;RE-EXCHANGE R0 AND STACK CONTENTS
   168	000204'	261740	000000		        PUSH    P,R0
   169	000205'	135000	002172'		        LDB     R0,[POINT 9,FORTY,8]
   170	000206'	303000	000024		        CAILE   R0,X            ;SKIP IF UUO NOT TOO BIG
   171	000207'	254000	000212'		        JRST    UUOERR          ;GO TO ERROR ROUTINE
   172	000210'	271000	777777'		        ADDI    R0,UUOTAB-1
   173	000211'	254020	000000		        JRST    @R0
   174	000212'	402000	000212'		UUOERR: SETZM   .               ;EE THIS ROUTINE ONLY ONCE
   175	000213'	015000	002173'		        ERROR   [ASCIZ "ATTEMPT TO EXECUTE AN ILLEGAL UUO"]
   176					;THE SSKE UUO SKIPS IF TWO STRINGS ARE EQUAL
   177
   178	000214'				SSKUUO: BLOCK   0
   179	000214'	135000	002202'		        LDB     R0,[POINT 4,FORTY,12] ;GET AC FIELD OF UUO
   180	000215'	336000	000000		        SKIPN   R0              ;SKIP IF IT'S NOT ZERO
   181	000216'	540000	000017		        HRR     R0,P            ;POINT TO STACK FOR R0
   182	000217'	550020	000000		        HRRZ    R0,@R0          ;GET ADDRESS OF STRING PTR
   183	000220'	270000	002203'		        ADD     R0,[7B11-1]     ;DEC AND MAKE BYTE POINTER FOR 7 BIT
   184	000221'	202000	000237'		        MOVEM   R0,SKPT2        ;SAVE POINTER TO STRING
   185	000222'	540000	000040		        HRR     R0,FORTY        ;GET ADDRESS OF FIRST STRING PTR
   186	000223'	275000	000001		        SUBI    R0,1            ;DECREMENT TO POINT TO PRECEDING WORD
   187	000224'	202000	000236'		        MOVEM   R0,SKPT1        ;SAVE POINTER TO STRING
   188	000225'	134000	000237'		SSKELP: ILDB    R0,SKPT2        ;GET NEXT CHAR FROM SECOND STRING
   189	000226'	306000	000000		        CAIN    R0,EOLIT        ;SKIP IF IT'S NOT THE END OF STRING
   190	000227'	254000	000472'		        JRST    UUOSKR          ;EVERYTHING MATCHES SO SKIP RETURN
   191	000230'	202000	000235'		        MOVEM   R0,SSKET        ;SAVE THE CHARACTER
   192	000231'	134000	000236'		        ILDB    R0,SKPT1        ;GET NEXT CHAR FROM FIRST STRING
   193	000232'	312000	000235'		        CAME    R0,SSKET        ;SKIP IF THE CHARACTERS ARE THE SAME
   194	000233'	254000	001232'		        JRST    UUORET          ;NOT EQUAL SO RETURN WITHOUT SKIPPING
   195	000234'	254000	000225'		        JRST    SSKELP          ;LOOP
   196
   197	000235'	000000	000000		SSKET:  0                       ;TEMP CELL
   198
   199	000236'	000000	000000		SKPT1:  0                       ;ADDRESS OF FIRST STRING
   200
   201	000237'	000000	000000		SKPT2:  0                       ;ADDRESS OF SECOND STRING
   202					; THE TCI UUO READS ONE CHARACTER FROM THE TERMINAL. THE CHARACTER
   203					; IS RETURNED IN THE CORE ADDRESS SPECIFIED AND IN THE AC
   204					; SPECIFIED (UNLESS THE AC IS ZERO). CARRIAGE RETURN/LINEFEED
   205					; PAIRS ARE REDUCED TO A SINGLE CARRIAGE RETURN.
   206					; LINEFEEDS ARE ECHOED AS LINEFEED, CARRIAGE RETURN, RUBOUT.
   207					; EDITTING AND BREAK CHARACTERS ARE DEFINED BY THE SETTTY UUO.
   208	000240'	261740	000040		TCIUUO: PUSH    P,FORTY
   209	000241'	331000	000153'		        SKIPL   CTEST   ;IS THERE A LOOKAHEAD CHAR
   210	000242'	254000	000270'		        JRST    TCI3    ;NO
   211	000243'	350000	000153'		        AOS     CTEST   ;YES, CONSUME IT
   212	000244'	200000	000167'		TCI1:   MOVE    R0,SCHAR
UUO     02/20/74	MACRO 12.5-46.0 17:26 13-JAN-81 PAGE 1-3
UUO.MAC	23-MAR-79 11:42

   213	000245'	262740	000040		TCI4:   POP     P,FORTY
   214	000246'	202000	000167'		        MOVEM   R0,SCHAR
   215	000247'	260740	000361'		        PUSHJ   P,CHATYP        ;GET THE CHARACTER TYPE
   216	000250'	306000	000012		        CAIN    R0,TE           ;SKIP IF NOT A LINE TERMINATOR
   217	000251'	402000	000156'		        SETZM   CHRCNT          ;ZERO CHAR COUNT FOR NEW LINE
   218	000252'	261740	000000		        PUSH    P,R0            ;SAVE THE TYPE ON THE STACK
   219	000253'	135000	002202'		        LDB     R0,[POINT 4,FORTY,12]
   220	000254'	262760	000000		        POP     P,@R0           ;STORE TYPE IN APPROPRIATE REGISTER
   221	000255'	200000	000167'		        MOVE    R0,SCHAR
   222	000256'	250017	000000		        EXCH    R0,0(P)
   223	000257'	262760	000040		        POP     P,@FORTY
   224	000260'	263740	000000		        POPJ    P,
   225	000261'	200000	002204'		TCI2:   MOVE    R0,[POINT 7,LBUFF-1,34]
   226	000262'	202000	000060'		        MOVEM   R0,SPTR
   227	000263'	202000	000061'		        MOVEM   R0,SPTR+1
   228	000264'	201000	000404		        MOVEI   R0,^D260
   229	000265'	202000	000062'		        MOVEM   R0,SPTR+2
   230	000266'	003000	000060'		        RDLINE  SPTR
   231	000267'	254000	000270'		        JRST    .+1
   232	000270'	332000	000170'		TCI3:   SKIPE CINFLG
   233	000271'	254000	000302'		        JRST TCI5
   234	000272'	004000	000060'		        GCI     R0,SPTR
   235	000273'	254000	000261'		        JRST    TCI2
   236	000274'	254000	000245'		        JRST    TCI4
   237					; THE TCL UUO IS IDENTICAL TO THE TCI UUO EXCEPT THAT THE
   238					; CHARACTER IS NOT REMOVED FROM THE INPUT STRING.
   239	000275'	261740	000040		TCLUUO: PUSH    P,FORTY
   240	000276'	335000	000153'		        SKIPGE  CTEST   ;IS THERE A LOOKAHEAD CHAR
   241	000277'	254000	000244'		        JRST    TCI1    ;YES, THIS TCL WAS PRECEDED BY ANOTHER TCL
   242	000300'	370000	000153'		        SOS     CTEST   ;NO, GET AND CREATE A LOOKAHEAD CELL
   243	000301'	254000	000270'		        JRST    TCI3
   244
   245
   246					; GET CHAR FROM NAMES FILE
   247
   248
   249	000302'	336000	000171'		TCI5:   SKIPN GCHB      ;CHAR IN GCH BUFFER
   250	000303'	254000	000307'		        JRST TCI6       ;NO
   251	000304'	200000	000171'		        MOVE GCHB
   252	000305'	402000	000171'		        SETZM GCHB
   253	000306'	254000	000245'		        JRST TCI4
   254					; READ ONE FROM FILE, REPLACE CR/LF PAIRS WITH COMMA
   255	000307'	260740	000332'		TCI6:   PUSHJ P,GCH
   256	000310'	254000	000325'		        JRST TCI8       ;EOF
   257	000311'	302000	000015		        CAIE R0,CRCHR
   258	000312'	306000	000012		        CAIN R0,12
   259	000313'	254000	000315'		        JRST TCI7
   260	000314'	254000	000245'		        JRST TCI4
   261					; SAVE FIRST CHAR PAST CR/LF IN GCHB
   262	000315'	260740	000332'		TCI7:   PUSHJ P,GCH
   263	000316'	254000	000325'		        JRST TCI8
   264	000317'	302000	000015		        CAIE R0,CRCHR
   265	000320'	306000	000012		        CAIN R0,12
UUO     02/20/74	MACRO 12.5-46.0 17:26 13-JAN-81 PAGE 1-4
UUO.MAC	23-MAR-79 11:42

   266	000321'	254000	000315'		        JRST TCI7       ;THROW AWAY
   267	000322'	202000	000171'		        MOVEM GCHB
   268					; REPLACE CR/LF'S WITH SINGLE COMMA
   269	000323'	201000	000054		        MOVEI R0,54
   270	000324'	254000	000245'		        JRST TCI4
   271					; END OF NAMES FILE.  PLUG IN CHAR READ AT CEOL.
   272	000325'	071300	000000		TCI8:   RELEASE FIL,
   273	000326'	200000	000170'		        MOVE CINFLG
   274	000327'	402000	000171'		        SETZM GCHB
   275	000330'	402000	000170'		        SETZM CINFLG
   276	000331'	254000	000245'		        JRST TCI4
   277
   278					; PULL A CHAR FROM NAMES FILE AND SKIP IF NOT EOF
   279	000332'	375000	000000*		GCH:    SOSGE FILHD2##
   280	000333'	254000	000341'		        JRST GCH1
   281	000334'	134000	000000*		        ILDB R0,FILHD1##
   282	000335'	306000	000000		        CAIN R0,0
   283	000336'	254000	000332'		        JRST GCH
   284	000337'	350017	000000		        AOS (P)
   285	000340'	263740	000000		        POPJ P,
   286	000341'	056300	000000		GCH1:   IN FIL,
   287	000342'	254000	000332'		        JRST GCH
   288	000343'	062300	000000		        GETSTS FIL,R0
   289	000344'	606000	740000		        TRNN R0,740000
   290	000345'	254000	000351'		        JRST GCH2       ;PROBABLY EOF
   291	000346'	022000	002215'		        ERO [XWD[FILDI1##],[ASCIZ"TROUBLE READING NAMES FILE _J--"]]
   292	000347'	260740	000000*		        PUSHJ P,DWHY##
   293	000350'	015000	002216'		        ERROR [ASCIZ"ABORT"]
   294	000351'	602000	020000		GCH2:   TRNE R0,020000
   295	000352'	263740	000000		        POPJ P,
   296	000353'	254000	000332'		        JRST GCH
   297
   298					; CLOSE NAMES FILE.  USED AT CDISP AND ELSEWHERE
   299
   300	000354'	332000	000170'		CRLS::  SKIPE CINFLG
   301	000355'	071300	000000		        RELEASE FIL,
   302	000356'	402000	000170'		        SETZM CINFLG
   303	000357'	402000	000171'		        SETZM GCHB
   304	000360'	263740	000000		        POPJ P,
   305
   306	000361'	261740	000001		CHATYP: PUSH    P,R1            ;SAVE R1 ON THE STACK
   307	000362'	261740	000002		        PUSH    P,R2            ;SAVE R2 ON THE STACK
   308	000363'	200040	000000		        MOVE    R1,R0           ;GET THE CHAR FROM R0
   309	000364'	231040	000011		        IDIVI   R1,11           ;DIVIDE CHAR BY 9 TO LOOK UP TYPE
   310	000365'	135002	000371'		        LDB     R0,FS3(R2)      ;GET THE CHAR TYPE
   311	000366'	262740	000002		        POP     P,R2            ;RESTORE R2 FROM STACK
   312	000367'	262740	000001		        POP     P,R1            ;RESTORE R1 FROM STACK
   313	000370'	263740	000000		        POPJ    P,              ;RETURN FROM SUBROUTINE
   314
   315					;INPUT CHARACTER DISPATCH MATRIX
   316
   317	000371'	400401	000402'		FS3:    POINT   4,FS4(R1),3      ;BYTE POINTERS TO CLASSIFICATION TABLE
   318	000372'	340401	000402'		        POINT   4,FS4(R1),7
UUO     02/20/74	MACRO 12.5-46.0 17:26 13-JAN-81 PAGE 1-5
UUO.MAC	23-MAR-79 11:42

   319	000373'	300401	000402'		        POINT   4,FS4(R1),11
   320	000374'	240401	000402'		        POINT   4,FS4(R1),15
   321	000375'	200401	000402'		        POINT   4,FS4(R1),19
   322	000376'	140401	000402'		        POINT   4,FS4(R1),23
   323	000377'	100401	000402'		        POINT   4,FS4(R1),27
   324	000400'	040401	000402'		        POINT   4,FS4(R1),31
   325	000401'	000401	000402'		        POINT   4,FS4(R1),35
   326
   327					;       CLASSIFICATION TABLE FOR INPUT CHARACTERS
   328					;       SECOND ALPHABET REPRESENTS LOWER CASE CHARACTER CODES
   329
   330	000402'				FS4:    BLOCK   0
   331	000402'	200000	000000		BYTE (4)IG,IC,IC,IC,IC,IC,IC,IC,IC ;NUL SOH STX ETX EOT ENQ ACK BEL BS
   332	000403'	224422	400000		BYTE (4)IG,TE,IG,IG,TE,IC,IC,IC,IC ;HT  LF  VT  FF  CR  SO  SI  DLE DC1
   333	000404'	000000	000000		BYTE (4)IC,IC,IC,IC,IC,IC,IC,IC,IC ;DC2 DC3 DC4 NAK SYN ETB CAN EM  SUB
   334	000405'	000000	130014		BYTE (4)IC,IC,IC,IC,IC,SP,IC,IC,PO ;ESC FS  GS  RS  US  SP  !   "   #
   335	000406'	700071	233011		BYTE (4)PU,IC,IC,PU,LP,RP,AS,IC,CO ;$   %   &   '   (   )   *   +   ,
   336	000407'	757610	421042		BYTE (4)DA,EX,PU,NU,NU,NU,NU,NU,NU ;-   .   /   0   1   2   3   4   5
   337	000410'	104210	000000		BYTE (4)NU,NU,NU,NU,IC,IC,IC,IC,IC ;6   7   8   9   :   ;   <   =   >
   338	000411'	660104	210421		BYTE (4)QU,AT,AL,AL,AL,AL,AL,AL,AL ;?   @   A   B   C   D   E   F   G
   339	000412'	042104	210421		BYTE (4)AL,AL,AL,AL,AL,AL,AL,AL,AL ;H   I   J   K   L   M   N   O   P
   340	000413'	042104	210421		BYTE (4)AL,AL,AL,AL,AL,AL,AL,AL,AL ;Q   R   S   T   U   V   W   X   Y
   341	000414'	052014	000000		BYTE (4)AL,LP,IC,RP,IC,IC,IC,IC,IC ;Z   [   \   ]   ^   _   '   A   B
   342	000415'	000000	000000		BYTE (4)IC,IC,IC,IC,IC,IC,IC,IC,IC ;C   D   E   F   G   H   I   J   K
   343	000416'	000000	000000		BYTE (4)IC,IC,IC,IC,IC,IC,IC,IC,IC ;L   M   N   O   P   Q   R   S   T
   344	000417'	000000	000000		BYTE (4)IC,IC,IC,IC,IC,IC,IC,IC,IC ;U   V   W   X   Y   Z   173 174 175
   345	000420'	010000	000000		BYTE (4)IC,IG                      ;176 DEL
   346
   347	000421'	550000	000040		TABUUO: HRRZ    R0,FORTY
   348	000422'	274000	000156'		        SUB     R0,CHRCNT
   349	000423'	361000	001232'		TABLP:  SOJL    R0,UUORET
   350	000424'	010000	002220'		        TCO     [SPACE]
   351	000425'	254000	000423'		        JRST    TABLP
   352
   353					; THE GCI UUO READS ONE CHARACTER FROM THE FRONT OF A STRING
   354					; AND INCREMENTS THE FIRST CHARACTER POINTER.
   355					; IT SKIPS IF THE STRING IS NOT EMPTY.
   356					; THE CHARACTER IS RETURNED IN THE SPECIFIED AC.
   357					; THE ADDRESS PORTION OF THE INSTRUCTION POINTS TO A 3 WORD
   358					; STRING POINTER. THE FORMAT OF THE STRING POINTER IS:
   359					;
   360					; PTR:   BYTE POINTER. POINTS TO THE CHARACTER POSITION PRECEEDING
   361					;        THE FIRST CHARACTER IN THE STRING.
   362					; PTR+1: BYTE POINTER. POINTS TO THE LAST CHARACTER IN THE STRING.
   363					; PTR+2: LPTR,,RPTR
   364					;
   365					; LPTR IS THE NUMBER OF CHARACTER POSITIONS TO THE LEFT
   366					; OF THE 1ST CHARACTER IN THE STRING. RPTR IS THE NUMBER
   367					; OF CHARACTER POSITIONS TO THE RIGHT OF THE LAST
   368					; CHARACTER IN THE STRING.
   369	000426'	261740	000001		GCIUUO: PUSH    P,R1
   370	000427'	200040	000040		        MOVE    R1,FORTY
   371	000430'	200001	000000		        MOVE    R0,0(R1)
UUO     02/20/74	MACRO 12.5-46.0 17:26 13-JAN-81 PAGE 1-6
UUO.MAC	23-MAR-79 11:42

   372	000431'	316001	000001		        CAMN    R0,1(R1)
   373	000432'	254000	001231'		        JRST    UUORE1
   374	000433'	515000	000001		        HRLZI   R0,1
   375	000434'	272001	000002		        ADDM    R0,2(R1)
   376	000435'	134001	000000		        ILDB    R0,0(R1)
   377	000436'	135040	002221'		GCI2:   LDB     R1,[POINT 4,R1,12]
   378	000437'	202040	000040		        MOVEM   R1,FORTY
   379	000440'	262740	000001		        POP     P,R1
   380	000441'	250017	000000		        EXCH    R0,0(P)
   381	000442'	262760	000040		        POP     P,@FORTY
   382	000443'	254000	000473'		        JRST    UUOSK1
   383					; THE GCD UUO READS ONE CHARACTER FROM THE END OF A STRING AND
   384					; DECREMENTS THE LAST CHARACTER POINTER. THE CHARACTER IS
   385					; RETURNED IN THE SPECIFIED AC. SEE 'GCI' UUO FOR A
   386					; DESCRIPTION OF STRING POINTER WHICH IS ADDRESSED BY GCL UUO.
   387					; GCL SKIPS IF THE STRING WAS NOT EMPTY.
   388	000444'	261740	000001		GCDUUO: PUSH    P,R1
   389	000445'	200040	000040		        MOVE    R1,FORTY
   390	000446'	200001	000000		        MOVE    R0,0(R1)
   391	000447'	316001	000001		        CAMN    R0,1(R1)
   392	000450'	254000	001231'		        JRST    UUORE1
   393	000451'	350001	000002		        AOS     2(R1)
   394	000452'	135001	000001		        LDB     R0,1(R1)
   395	000453'	011001	000001		        DEC     1(R1)
   396	000454'	254000	000436'		        JRST    GCI2
   397					; THE WCI UUO WRITES ONE CHARACTER TO THE END OF A STRING.
   398					; IT SKIPS IF THE STRING DOES NOT OVERFLOW.
   399					; THE LAST CHARACTER POINTER IS INCREMENTED.
   400					; THE CHARACTER IS TAKEN FROM THE SPECIFIED AC. THE ADDRESS FIELD
   401					; IS USED TO ADDRESS A SET OF STRING POINTERS.
   402	000455'	261740	000001		WCIUUO: PUSH    P,R1
   403	000456'	200040	000040		        MOVE    R1,FORTY
   404	000457'	200001	000002		        MOVE    R0,2(R1)
   405	000460'	606000	777777		        TRNN    R0,-1
   406	000461'	254000	001231'		        JRST    UUORE1
   407	000462'	370001	000002		        SOS     2(R1)
   408	000463'	350000	000040		        AOS     FORTY
   409	000464'	262740	000001		        POP     P,R1
   410	000465'	135000	002202'		        LDB     R0,[POINT 4,FORTY,12]
   411	000466'	202017	000001		        MOVEM   R0,1(P)
   412	000467'	200017	000000		        MOVE    R0,0(P)
   413	000470'	200037	000001		        MOVE    R0,@R1(P)
   414	000471'	136020	000040		        IDPB    R0,@FORTY
   415	000472'	262740	000000		UUOSKR: POP     P,R0
   416	000473'	350017	000000		UUOSK1: AOS     0(P)
   417	000474'	263740	000000		        POPJ    P,
   418					; THE WCD UUO WRITES ONE CHARACTER TO THE FRONT OF A STRING.
   419					; THE FIRST CHARACTER POINTER IS DECREMENTED. THE CHARACTER
   420					; IS TAKEN FROM THE SPECIFIED AC. THE ADDRESS FIELD
   421					; IS USED TO ADDRESS A SET OF STRING POINTERS.
   422					; THE WCD UUO SKIPS IF THE STRING DOES NOT UNDERFLOW.
   423	000475'	261740	000001		WCDUUO: PUSH    P,R1
   424	000476'	200040	000040		        MOVE    R1,FORTY
UUO     02/20/74	MACRO 12.5-46.0 17:26 13-JAN-81 PAGE 1-7
UUO.MAC	23-MAR-79 11:42

   425	000477'	607000	777777		        TLNN    R0,-1
   426	000500'	254000	000472'		        JRST    UUOSKR
   427	000501'	515000	000001		        HRLZI   R0,1
   428	000502'	276001	000002		        SUBM    2(R1)
   429	000503'	262740	000001		        POP     P,R1
   430	000504'	135000	002202'		        LDB     R0,[POINT 4,FORTY,12]
   431	000505'	202017	000001		        MOVEM   R0,1(P)
   432	000506'	200017	000000		        MOVE    R0,0(P)
   433	000507'	200037	000001		        MOVE    R0,@1(P)
   434	000510'	137020	000040		        DPB     R0,@FORTY
   435	000511'	011020	000040		        DEC     @FORTY
   436	000512'	254000	000472'		        JRST    UUOSKR
   437					; THE RDLINE UUO READS ONE LINE FROM THE TELETYPE INTO A STRING
   438					; DEFINED BY STRING POINTERS ADDRESSED BY THE UUO.
   439					; EDITTING AND BREAK CHARACTERS ARE DEFINED BY THE SETTTY UUO.
   440					; IF THE STRING OVERFLOWS, IT IS TREATED AS A BREAK CHARACTER.
   441	000513'	261740	000001		RDUUO:  PUSH    P,R1
   442	000514'	261740	000002		        PUSH    P,R2
   443	000515'	550100	000040		        HRRZ    R2,FORTY
   444	000516'	200002	000000		        MOVE    R0,0(R2)
   445	000517'	202000	000147'		        MOVEM   R0,SAVE1
   446	000520'	200002	000001		        MOVE    R0,1(R2)
   447	000521'	202000	000150'		        MOVEM   R0,SAVE2
   448	000522'	200002	000002		        MOVE    R0,2(R2)
   449	000523'	202000	000151'		        MOVEM   R0,SAVE3
   450	000524'	402000	000157'		        SETZM   CNT
   451	000525'	331000	000155'		        SKIPL   TTYFLG  ;HAS TTY STATUS BEEN SET?
   452	000526'	014000	002217'		        SETTTY  [0]     ;INITIALIZE TTY STATUS TO DEFAULT
   453	000527'	260740	001022'		RDL1:   PUSHJ   P,GETCHR
   454	000530'	306000	000015		        CAIN    R0,CRCHR
   455	000531'	254000	000774'		        JRST    CR
   456	000532'	306000	000012		        CAIN    R0,LFCHR
   457	000533'	254000	000763'		        JRST    LF
   458	000534'	200040	000154'		        MOVE    R1,TTYSTA
   459	000535'	606040	002000		        TRNN    R1,2000
   460	000536'	254000	000542'		        JRST    RDX1
   461	000537'	306000	000003		        CAIN    R0,3
   462	000540'	254000	000547'		        JRST    RDX2
   463	000541'	254000	000552'		        JRST    RDX
   464	000542'	515040	777775		RDX1:   HRLZI   R1,-3
   465	000543'	316001	000777'		        CAMN    R0,ESCTAB(R1)
   466	000544'	254000	000547'		        JRST    .+3
   467	000545'	253040	000543'		        AOBJN   R1,.-2
   468	000546'	254000	000552'		        JRST    RDX
   469	000547'	331000	000160'		RDX2:   SKIPL   ESCFLG
   470	000550'	254000	000000*		        JRST    ESCR
   471	000551'	476000	000161'		        SETOM   SAVESC
   472	000552'	335000	000000*		RDX:    SKIPGE  CIN
   473	000553'	254000	000574'		        JRST    RDC
   474	000554'	200040	000154'		        MOVE    R1,TTYSTA
   475	000555'	607040	040000		        TLNN    R1,40000
   476	000556'	607040	600000		        TLNN    R1,600000
   477	000557'	254000	000574'		        JRST    RDC
UUO     02/20/74	MACRO 12.5-46.0 17:26 13-JAN-81 PAGE 1-8
UUO.MAC	23-MAR-79 11:42

   478	000560'	200040	000154'		        MOVE    R1,TTYSTA
   479	000561'	606040	002000		        TRNN    R1,2000
   480	000562'	254000	000570'		        JRST    RDX3
   481	000563'	306000	000025		        CAIN    R0,25
   482	000564'	254000	000644'		        JRST    CQ
   483	000565'	306000	000177		        CAIN    R0,RUB177
   484	000566'	254000	000660'		        JRST    CA
   485	000567'	254000	000574'		        JRST    RDC
   486	000570'	515040	777774		RDX3:   HRLZI   R1,-4
   487	000571'	316001	001012'		        CAMN    R0,CTAB1(R1)
   488	000572'	254021	001016'		        JRST    @CTAB2(R1)
   489	000573'	253040	000571'		        AOBJN   R1,.-2
   490	000574'	307000	000172		RDC:    CAIG    R0,LOWERZ
   491	000575'	305000	000141		        CAIGE   R0,LOWERA
   492	000576'	254000	000602'		        JRST    NCV
   493	000577'	200040	000154'		        MOVE    R1,TTYSTA
   494	000600'	602040	000400		        TRNE    R1,400
   495	000601'	275000	000040		        SUBI    R0,40
   496	000602'	006020	000002		NCV:    WCI     R0,@R2
   497	000603'	260740	000000*		        PUSHJ   P,FERR
   498	000604'	550042	000002		        HRRZ    R1,2(R2)
   499	000605'	322040	000643'		        JUMPE   R1,RDONE+1
   500	000606'	350000	000157'		        AOS     CNT
   501	000607'	200040	000154'		        MOVE    R1,TTYSTA
   502	000610'	607040	440000		        TLNN    R1,440000
   503	000611'	254000	000616'		        JRST    RDC2
   504	000612'	302000	000015		        CAIE    R0,CRCHR
   505	000613'	306000	000012		        CAIN    R0,LFCHR
   506	000614'	254000	000642'		        JRST    RDONE
   507	000615'	254000	000527'		        JRST    RDL1
   508	000616'	515040	777770		RDC2:   HRLZI   R1,-8
   509	000617'	311001	001002'		        CAML    R0,BITTAB(R1)
   510	000620'	254000	000622'		        JRST    .+2
   511	000621'	253040	000617'		        AOBJN   R1,.-2
   512	000622'	574040	000001		        HLRE    R1,R1
   513	000623'	271040	000010		        ADDI    R1,10
   514	000624'	302040	000007		        CAIE    R1,7
   515	000625'	254000	000636'		        JRST    RDC3
   516	000626'	200040	000154'		        MOVE    R1,TTYSTA
   517	000627'	607040	200000		        TLNN    R1,200000
   518	000630'	254000	000635'		        JRST    RDC3-1
   519	000631'	515040	777774		        HRLZI   R1,-4
   520	000632'	316001	001012'		        CAMN    R0,CTAB1(R1)
   521	000633'	254000	000527'		        JRST    RDL1
   522	000634'	253040	000632'		        AOBJN   R1,.-2
   523	000635'	201040	000007		        MOVEI   R1,7
   524	000636'	201000	000001		RDC3:   MOVEI   R0,1
   525	000637'	242001	000000		        LSH     0(R1)
   526	000640'	616000	000154'		        TDNN    R0,TTYSTA
   527	000641'	254000	000527'		        JRST    RDL1
   528	000642'	350017	777775		RDONE:  AOS     -3(P)
   529	000643'	254000	001230'		        JRST    UUORE2
   530	000644'	051040	002222'		CQ:     OUTCHR  [UARROW]
UUO     02/20/74	MACRO 12.5-46.0 17:26 13-JAN-81 PAGE 1-9
UUO.MAC	23-MAR-79 11:42

   531	000645'	051040	002223'		        OUTCHR  [CRCHR]
   532	000646'	051040	002224'		        OUTCHR  [LFCHR]
   533	000647'	331000	000154'		        SKIPL   TTYSTA
   534	000650'	254000	000574'		        JRST    RDC
   535	000651'	200000	000147'		        MOVE    R0,SAVE1
   536	000652'	202002	000000		        MOVEM   R0,0(R2)
   537	000653'	200000	000150'		        MOVE    R0,SAVE2
   538	000654'	202002	000001		        MOVEM   R0,1(R2)
   539	000655'	200000	000151'		        MOVE    R0,SAVE3
   540	000656'	202002	000002		        MOVEM   R0,2(R2)
   541	000657'	254000	000527'		        JRST    RDL1
   542	000660'	331000	000154'		CA:     SKIPL   TTYSTA
   543	000661'	254000	000666'		        JRST    CA2
   544	000662'	005020	000002		        GCD     R0,@R2
   545	000663'	254000	000761'		        JRST    BELL
   546	000664'	051040	002225'		        OUTCHR  [BARROW]
   547	000665'	254000	000527'		        JRST    RDL1
   548	000666'	051040	002225'		CA2:    OUTCHR  [BARROW]
   549	000667'	254000	000574'		        JRST    RDC
   550	000670'	331000	000154'		CW:     SKIPL   TTYSTA
   551	000671'	254000	000710'		        JRST    CW2
   552	000672'	005020	000002		        GCD     R0,@R2
   553	000673'	254000	000761'		        JRST    BELL
   554	000674'	051040	002226'		        OUTCHR  [BSLASH]
   555	000675'	254000	000700'		        JRST    .+3
   556	000676'	005020	000002		        GCD     R0,@R2
   557	000677'	254000	000527'		        JRST    RDL1
   558	000700'	306000	000040		        CAIN    R0,SPACE
   559	000701'	254000	000676'		        JRST    .-3
   560	000702'	005020	000002		        GCD     R0,@R2
   561	000703'	254000	000527'		        JRST    RDL1
   562	000704'	302000	000040		        CAIE    R0,SPACE
   563	000705'	306000	000054		        CAIN    R0,COMMA
   564	000706'	254000	000574'		        JRST    RDC
   565	000707'	254000	000702'		        JRST    .-5
   566	000710'	051040	002226'		CW2:    OUTCHR  [BSLASH]
   567	000711'	254000	000574'		        JRST    RDC
   568	000712'	200000	000157'		CI:     MOVE    R0,CNT
   569	000713'	515040	777766		        HRLZI   R1,-12
   570	000714'	315001	000747'		        CAMGE   R0,TAB(R1)
   571	000715'	254000	000723'		        JRST    CI2
   572	000716'	253040	000714'		        AOBJN   R1,.-2
   573	000717'	271040	000010		        ADDI    R1,10
   574	000720'	311000	000001		        CAML    R0,R1
   575	000721'	254000	000717'		        JRST    .-2
   576	000722'	254000	000724'		        JRST    .+2
   577	000723'	200041	000747'		CI2:    MOVE    R1,TAB(R1)
   578	000724'	274040	000157'		        SUB     R1,CNT
   579	000725'	201000	000040		        MOVEI   R0,40
   580	000726'	500000	000154'		        HLL     R0,TTYSTA
   581	000727'	621000	010000		        TLZ     R0,10000
   582	000730'	603000	400000		        TLNE    R0,400000
   583	000731'	254000	000733'		        JRST    .+2
UUO     02/20/74	MACRO 12.5-46.0 17:26 13-JAN-81 PAGE 1-10
UUO.MAC	23-MAR-79 11:42

   584	000732'	603000	100000		        TLNE    R0,100000
   585	000733'	661000	010000		        TLO     R0,10000
   586	000734'	607000	010000		        TLNN    R0,10000
   587	000735'	254000	000740'		        JRST    .+3
   588	000736'	006020	000002		        WCI     R0,@R2
   589	000737'	254000	000642'		        JRST    RDONE
   590	000740'	350000	000157'		        AOS     CNT
   591	000741'	275040	000001		        SUBI    R1,1
   592	000742'	327040	000734'		        JUMPG   R1,.-6
   593	000743'	603000	010000		        TLNE    R0,10000
   594	000744'	254000	000527'		        JRST    RDL1
   595	000745'	201000	000021		        MOVEI   R0,CTRLQ
   596	000746'	254000	000574'		        JRST    RDC
   597	000747'	000000	000010		TAB:    EXP     10,20,30,40,50,60,70,100,110,120
	000750'	000000	000020
	000751'	000000	000030
	000752'	000000	000040
	000753'	000000	000050
	000754'	000000	000060
	000755'	000000	000070
	000756'	000000	000100
	000757'	000000	000110
	000760'	000000	000120
   598	000761'	051040	002227'		BELL:   OUTCHR  [BELCHR]
   599	000762'	254000	000527'		        JRST    RDL1
   600	000763'	201000	000015		LF:     MOVEI   R0,CRCHR
   601	000764'	260740	001044'		        PUSHJ   P,GIVCHR
   602	000765'	201000	000012		        MOVEI   R0,LFCHR
   603	000766'	200040	000154'		        MOVE    R1,TTYSTA
   604	000767'	602040	001000		        TRNE    R1,1000
   605	000770'	201000	000015		        MOVEI   R0,CRCHR
   606	000771'	331000	000166'		        SKIPL   COUT
   607	000772'	051040	002230'		        OUTCHR  [RUBOUT]
   608	000773'	254000	000574'		        JRST    RDC
   609	000774'	260740	001022'		CR:     PUSHJ   P,GETCHR
   610	000775'	201000	000015		        MOVEI   R0,CRCHR
   611	000776'	254000	000574'		        JRST    RDC
   612	000777'	000000	000175		ESCTAB: EXP     175,33,37              ;*DO SOMETHING ABOUT THIS*
	001000'	000000	000033
	001001'	000000	000037
   613	001002'	000000	000173		BITTAB: EXP     173,141,133,101,72,60,40,0
	001003'	000000	000141
	001004'	000000	000133
	001005'	000000	000101
	001006'	000000	000072
	001007'	000000	000060
	001010'	000000	000040
	001011'	000000	000000
   614	001012'	000000	000001		CTAB1:  EXP     R1,27,21,11
	001013'	000000	000027
	001014'	000000	000021
	001015'	000000	000011
   615	001016'	000000	000660'		CTAB2:  EXP     CA,CW,CQ,CI
UUO     02/20/74	MACRO 12.5-46.0 17:26 13-JAN-81 PAGE 1-11
UUO.MAC	23-MAR-79 11:42

	001017'	000000	000670'
	001020'	000000	000644'
	001021'	000000	000712'
   616	001022'	331000	000552*		GETCHR: SKIPL   CIN
   617	001023'	254000	001032'		        JRST    RDTTY
   618	001024'	015000	002231'		        ERROR   [ASCIZ "COMMAND INPUT FILE NOT YET IMPLEMENTED"]
   619	001025'	017000	000000		EOF:    DISABL
   620	001026'	260740	000162'		        PUSHJ   P,CLIN
   621	001027'	016000	000000		        ENABLE
   622	001030'	200000	002241'		        MOVE    R0,[XWD SAVR1,SAVBEG]
   623	001031'	251000	000016		        BLT     R0,SAVEND
   624	001032'	200000	000154'		RDTTY:  MOVE    R0,TTYSTA
   625	001033'	607000	040000		        TLNN    R0,40000
   626	001034'	254000	001037'		        JRST    RDTTY2
   627	001035'	051200	000000		        INCHWL  R0
   628
   629	001036'	254000	001040'		        JRST    TTYDON
   630	001037'	051000	000000		RDTTY2: INCHRW  R0
   631
   632	001040'	331000	001022*		TTYDON: SKIPL   CIN
   633	001041'	335000	000166'		        SKIPGE  COUT
   634	001042'	254000	001043'		        JRST .+1        ;USED TO BE JRST GIVCHR
   635	001043'	263740	000000		        POPJ    P,
   636					; THE TCO UUO OUTPUTS ONE CHARACTER TO THE TERMINAL. CARRIAGE
   637					; RETURN AND LINEFEED ARE TREATED SPECIALLY.
   638					; FOR CARRIAGE RETURN, A CARRIAGE RETURN AND LINEFEED ARE SENT.
   639					; FOR LINEFEED, A LINEFEED, CARRIAGE RETURN, AND RUBOUT ARE SENT.
   640					; IF COUT IS NEGATIVE, THE RUBOUT IS NOT SENT. *CHANGE THIS*
   641	001044'	331000	000166'		GIVCHR: SKIPL   COUT
   642	001045'	254000	001056'		        JRST    WRTTY
   643	001046'	261740	000000		        PUSH    P,R0
   644	001047'	200000	002242'		        MOVE    R0,[XWD SAVBEG,SAVR2]
   645	001050'	251000	000057'		        BLT     R0,SAVR2E
   646	001051'	260740	001123'		        PUSHJ   P,BYO
   647	001052'	015000	002243'		        ERROR   [ASCIZ "WRITE ERROR"]
   648	001053'	200000	002246'		        MOVE    R0,[XWD SAVR2,SAVBEG]
   649	001054'	251000	000016		        BLT     R0,SAVEND       ;*THIS MAY NOT BE NECESSARY
   650	001055'	254000	001232'		        JRST    UUORET          ;RETURN FROM GIVCHR
   651	001056'	051040	000000		WRTTY:  OUTCHR  R0
   652	001057'	263740	000000		        POPJ    P,
   653
   654					;NEW TCO UUO 5/28/72
   655	001060'	200017	000000		TCOUU:  MOVE    R0,(P)          ;RESTORE R0 IN CASE IT CONTAINED CHAR
   656	001061'	261740	000001		        PUSH    P,R1            ;STACK R1
   657	001062'	200020	000040		        MOVE    R0,@FORTY       ;LOAD CHAR INTO R0
   658	001063'	405000	000177		        ANDI    R0,177          ;USE ONLY SEVEN BITS
   659	001064'	201040	000000		        MOVEI   R1,0            ;ASSUME WE START IN STATE 0
   660	001065'	350000	000156'		        AOS     CHRCNT          ;INCREMENT CHARACTER COUNT
   661	001066'	306000	000015		        CAIN    R0,CRCHR        ;SKIP IF CHAR IS NOT CARRIAGE RETURN
   662	001067'	201040	000001		        MOVEI   R1,1            ;START IN STATE 1 FOR CARRIAGE RETURN
   663	001070'	302000	000012		        CAIE    R0,LFCHR        ;SKIP IF CHAR IS NOT A LINE FEED
   664	001071'	254000	001075'		        JRST    TCOUU1          ;NOT A LINE FEED
   665	001072'	376000	002170'		        SOSN    TCOSTA          ;SKIP IF LAST CHAR WAS NOT A CR
UUO     02/20/74	MACRO 12.5-46.0 17:26 13-JAN-81 PAGE 1-12
UUO.MAC	23-MAR-79 11:42

   666	001073'	254000	001231'		        JRST    UUORE1          ;IGNORE A LINE FEED AFTER A CR
   667	001074'	201040	000002		        MOVEI   R1,2            ;START IN STATE 2 FOR LINE FEED
   668	001075'	302040	000000		TCOUU1: CAIE    R1,0            ;SKIP IF NOT END OF LINE
   669	001076'	402000	000156'		        SETZM   CHRCNT          ;ZERO THE CHARACTER COUNT
   670	001077'	202040	002170'		        MOVEM   R1,TCOSTA#      ;SAVE STATE OF LAST CHAR OUTPUT
   671	001100'	334000	000000		        SKIPA                   ;SKIP TO START OF THE ROUTINE
   672	001101'	135040	002247'		TCOLP:  LDB     R1,[POINT 2,TCOTAB(R1),21] ;LOAD NEW STATE
   673	001102'	254020	001115'		        JRST @TCOUU7    ;GO TO APPROPRIATE OUTPUT ROUTINE
   674	001103'	331000	000166'		TCOUU4: SKIPL   COUT            ;SKIP IF OUTPUT NOT TO TERMINAL
   675	001104'	051040	000000		TCOUU5: OUTCHR  R0              ;OUTPUT CHAR TO TERMINAL
   676	001105'	335000	000166'		        SKIPGE  COUT            ;DON'T SKIP IF OUTPUT TO FILE
   677	001106'	260740	001123'		        PUSHJ   P,BYO           ;OUTPUT CHAR TO FILE
   678	001107'	135000	002250'		TCOUU8: LDB     R0,[POINT 7,TCOTAB(R1),17] ;LOAD NEXT CHAR
   679	001110'	331001	001117'		        SKIPL   TCOTAB(R1)      ;SKIP IF WE ARE ALL DONE
   680	001111'	254000	001101'		        JRST    TCOLP           ;LOOP FOR NEXT CHAR
   681	001112'	254000	001231'		        JRST    UUORE1
   682	001113'	051040	000000		TCOUU6: OUTCHR R0
   683	001114'	254000	001107'		        JRST TCOUU8
   684	001115'	254000	001103'		TCOUU7: JRST TCOUU4
   685	001116'	777777	777777		EROSW:: -1
   686
   687	001117'	777777	000000		TCOTAB: XWD     -1,0            ;STATE 0 - RETURN FROM UUO
   688	001120'	000012	000000		        XWD     LFCHR,0         ;STATE 1 - GO TO STATE 0 AND OUTPUT LF
   689	001121'	003015	000000		        XWD     3000+CRCHR,0    ;STATE 2 - GO TO STATE 3 AND OUTPUT CR
   690	001122'	000377	000000		        XWD     RUBOUT,0        ;STATE 3 - GO TO STATE 0 AND OUTPUT RUBOUT
   691
   692			000002		COF==   2                       ;*THIS SHOULD NOT BE HERE
   693	001123'	606400	000000*		BYO:    TRNN F,LPTFLG##         ;ARE WE OUTPUTING TO LPT:
   694	001124'	254000	001162'		        JRST LPT6               ;NO
   695	001125'	302000	000014		        CAIE TOFCHR
   696	001126'	254000	001133'		        JRST LPT3       ;NOT TOP OF FORM
   697	001127'	402000	000164'		LPT2:   SETZM LPTCTR    ;SET TO LINE 0
   698	001130'	402000	000165'		        SETZM PRVCHR    ;SET TO NO PREVIOUS CHARACTER
   699	001131'	260740	001164'		        PUSHJ P,BYOO
   700	001132'	263740	000000		        POPJ P,
   701	001133'	261740	000000		LPT3:   PUSH P,R0       ;SAVE R0 ON THE STACK
   702	001134'	200000	000165'		        MOVE PRVCHR
   703	001135'	302000	000012		        CAIE LFCHR   ;WAS PREVIOUS CHAR LF
   704	001136'	254000	001144'		        JRST LPT4       ;NO
   705	001137'	200000	000164'		        MOVE LPTCTR
   706	001140'	302000	000077		        CAIE ^D63    ;TIME TO EJECT PAGE
   707	001141'	254000	001144'		        JRST LPT4       ;NO
   708	001142'	201000	000014		        MOVEI TOFCHR
   709	001143'	260740	001127'		        PUSHJ P,LPT2
   710	001144'	332000	000164'		LPT4:   SKIPE LPTCTR    ;ARE WE AT TOP OF FORM
   711	001145'	254000	001156'		        JRST LPT5       ;NO
   712	001146'	201000	000003		        MOVEI 3
   713	001147'	272000	000164'		        ADDM LPTCTR     ;ADVANCE TO LINE 3
   714	001150'	201000	000015		        MOVEI CRCHR
   715	001151'	260740	001164'		        PUSHJ P,BYOO
   716	001152'	201000	000012		        MOVEI LFCHR
   717	001153'	260740	001164'		        PUSHJ P,BYOO
   718	001154'	260740	001164'		        PUSHJ P,BYOO
UUO     02/20/74	MACRO 12.5-46.0 17:26 13-JAN-81 PAGE 1-13
UUO.MAC	23-MAR-79 11:42

   719	001155'	260740	001164'		        PUSHJ P,BYOO
   720	001156'	262740	000000		LPT5:   POP P,R0        ;RETRIEVE R0
   721	001157'	202000	000165'		        MOVEM PRVCHR    ;SAVE LAST CHAR
   722	001160'	306000	000012		        CAIN LFCHR
   723	001161'	350000	000164'		        AOS LPTCTR
   724	001162'	260740	001164'		LPT6:   PUSHJ P,BYOO
   725	001163'	263740	000000		        POPJ P,
   726	001164'	377000	000000*		BYOO:   SOSG    COFHD2##        ;DECREMENT CHAR COUNT - SKIP IF BUFF NOT FULL
   727	001165'	260740	001170'		        PUSHJ   P,COFOUT        ;OUTPUT THE BUFFER
   728	001166'	136000	000000*		        IDPB    R0,COFHD1##     ;DEPOSIT THE BYTE
   729	001167'	263740	000000		        POPJ    P,              ;RETURN
   730	001170'	057100	000000		COFOUT: OUT     COF,            ;OUTPUT THE BUFFER
   731	001171'	263740	000000		        POPJ    P,              ;SUCCESSFUL SO RETURN
   732	001172'	015000	002251'		        ERROR   [ASCIZ "ERROR IN WRITING TO OUTPUT FILE"]
   733
   734					; THE DEC UUO DECREMENTS A BYTE POINTER. THE ADDRESS FIELD
   735					; SHOULD ADDRESS A PDP10 BYTE POINTER.
   736	001173'	261740	000001		DECUUO: PUSH    P,R1
   737	001174'	135040	002260'		        LDB     R1,[POINT 6,@FORTY,5]
   738	001175'	135000	002261'		        LDB     R0,[POINT 6,@FORTY,11]
   739	001176'	270040	000000		        ADD     R1,R0
   740	001177'	305040	000044		        CAIGE   R1,^D36
   741	001200'	254000	001205'		        JRST    DEC2
   742	001201'	200040	000000		        MOVE    R1,R0
   743	001202'	201000	000044		        MOVEI   R0,^D36
   744	001203'	230000	000001		        IDIV    R0,R1
   745	001204'	370020	000040		        SOS     @FORTY
   746	001205'	137040	002260'		DEC2:   DPB     R1,[POINT 6,@FORTY,5]
   747	001206'	254000	001231'		        JRST    UUORE1
   748					; THE TYPE UUO OUTPUTS A STRING TO THE TERMINAL.
   749					; THE ADDRESS SHOULD POINT TO THE DESIRED MESSAGE.
   750					; DOLLAR SIGNS ARE INTERPRETED AS CARRIAGE RETURNS
   751	001207'	261740	000001		TYPUUO: PUSH    P,R1
   752	001210'	261740	000002		        PUSH P,R2       ;NOT NEEDED BUT LETS US SHARE CODE AT UUORE3
   753	001211'	201040	001113'		        MOVEI R1,TCOUU6
   754	001212'	356000	001116'		        AOSN EROSW
   755	001213'	202040	001115'		        MOVEM R1,TCOUU7
   756	001214'	550040	000040		        HRRZ    R1,FORTY
   757	001215'	505040	010700		        HRLI    R1,10700
   758	001216'	275040	000001		        SUBI    R1,1
   759	001217'	134000	000001		TYP1:   ILDB    R0,R1
   760	001220'	306000	000044		        CAIN    R0,DOLLAR
   761	001221'	201000	000015		        MOVEI   R0,CRCHR
   762	001222'	306000	000000		        CAIN    R0,EOLIT        ;SKIP IF NOT END OF STRING
   763	001223'	254000	001226'		        JRST    UUORE3
   764	001224'	010000	000000		        TCO     R0
   765	001225'	254000	001217'		        JRST    TYP1
   766	001226'	331000	001116'		UUORE3: SKIPL EROSW
   767	001227'	370000	001116'		        SOS EROSW
   768	001230'	262740	000002		UUORE2::POP     P,R2
   769	001231'	262740	000001		UUORE1: POP     P,R1
   770	001232'	262740	000000		UUORET::POP     P,R0
   771	001233'	263740	000000		        POPJ    P,
UUO     02/20/74	MACRO 12.5-46.0 17:26 13-JAN-81 PAGE 1-14
UUO.MAC	23-MAR-79 11:42

   772
   773					; OUTPUT TO TERMINAL ONLY
   774	001234'	261740	000001		ERTUUO: PUSH P,R1
   775	001235'	201040	001113'		        MOVEI R1,TCOUU6
   776	001236'	254000	001244'		        JRST ERO1A
   777					; OUTPUT TO BOTH TERMINAL AND OUTPUT MEDIUM
   778	001237'	261740	000001		ERBUUO: PUSH P,R1
   779	001240'	201040	001104'		        MOVEI R1,TCOUU5
   780	001241'	254000	001244'		        JRST ERO1A
   781					; OUTPUT TO OUTPUT MEDIUM ONLY
   782	001242'	261740	000001		EROUUO: PUSH    P,R1
   783	001243'	201040	001103'		        MOVEI R1,TCOUU4
   784	001244'	356000	001116'		ERO1A:  AOSN EROSW
   785	001245'	202040	001115'		        MOVEM R1,TCOUU7
   786	001246'	261740	000002		        PUSH    P,R2
   787	001247'	550040	000040		        HRRZ    R1,FORTY
   788	001250'	554101	000000		        HLRZ    R2,(R1)
   789	001251'	550001	000000		        HRRZ    R0,(R1)
   790	001252'	505000	010700		        HRLI    R0,10700
   791	001253'	275000	000001		        SUBI    R0,1
   792	001254'	134040	000000		ERO1:   ILDB    R1,R0
   793	001255'	306040	000044		        CAIN    R1,DOLLAR       ;SKIP IF CHAR IS A DOLLAR SIGN
   794	001256'	201040	000015		        MOVEI   R1,CRCHR        ;CONVERT DOLLAR INTO CR
   795	001257'	331000	002166'		        SKIPL   STKCNT          ;SKIP IF RET ADDR HAS BEEN CHANGED
   796	001260'	306040	000000		        CAIN    R1,EOLIT        ;SKIP IF NOT END OF STRING
   797	001261'	254000	001226'		        JRST    UUORE3          ;DONE WITH MESSAGE
   798	001262'	306040	000137		        CAIN    R1,BARROW       ;SKIP NO CONTROL CHARACTER FOLLOWS
   799	001263'	254000	001266'		        JRST    ERO2            ;PROCESS CONTROL CHARACTER
   800	001264'	010000	000001		        TCO     R1
   801	001265'	254000	001254'		        JRST    ERO1            ;LOOP
   802	001266'	134040	000000		ERO2:   ILDB    R1,R0           ;GET CONTROL CHAR FROM STRING
   803	001267'	271040	001200'		        ADDI    R1,EROTAB-101   ;GET ADDRESS OF ENTRY IN TABLE
   804	001270'	200041	000000		        MOVE    R1,(R1)         ;GET ADDRESS OF ROUTINE
   805	001271'	261740	000000		        PUSH    P,R0            ;ROUTINES MUST PRESERVE ALL BUT R0 & R1
   806	001272'	200002	000000		        MOVE    R0,(R2)         ;GET NEXT VARIABLE FROM LIST
   807	001273'	603040	400000		        TLNE    R1,400000       ;SKIP IF WE WANT THE ADDRESS
   808	001274'	200020	000000		        MOVE    R0,@R0          ;GET VALUE POINTED TO BY THE ADDRESS
   809	001275'	340100	000000		        AOJ     R2,             ;POINT TO NEXT VARIABLE IN LIST
   810	001276'	260741	000000		        PUSHJ   P,(R1)          ;BRANCH TO PROPER ROUTINE
   811	001277'	262740	000000		        POP     P,R0            ;RESTORE R0 FROM STACK
   812	001300'	254000	001254'		        JRST    ERO1            ;LOOP
   813	001301'				EROTAB: BLOCK   0               ;ADDRESSES OF ROUTINES FOR ERO FORMAT CHARACTERS
   814	001301'	400000	001344'		        XWD     400000,EROUN    ;A - USER NAME
   815	001302'	000000	001465'		        XWD     000000,EROFN    ;B - FILE NAME
   816	001303'	400000	001655'		        XWD     400000,PRDNUM   ;C - DECIMAL NUMBER
   817	001304'	000000	001333'		        XWD     000000,EROMG    ;D - MESSAGE
   818	001305'	000000	001532'		        XWD     000000,EROBR    ;E - BRANCH
   819	001306'	000000	001336'		        XWD     000000,EROCL    ;F - CLEAR INPUT
   820	001307'	000000	001517'		        XWD     000000,EROCB    ;G - BRANCH ON CONFIRMATION
   821	001310'	400000	001644'		        XWD     400000,PRONUM   ;H - OCTAL NUMBER
   822	001311'	000000	001537'		        XWD     000000,ERODF    ;I - QUIT IF DEFAULT FLAG NOT SET
   823	001312'	000000	001460'		        XWD     000000,EROUF    ;J - USER NAME AND FILE NAME
   824	001313'	400000	001376'		        XWD     400000,EROPP    ;K - PPN
UUO     02/20/74	MACRO 12.5-46.0 17:26 13-JAN-81 PAGE 1-15
UUO.MAC	23-MAR-79 11:42

   825	001314'	400000	002015'		        XWD     400000,ERODT    ;L - DATE AND TIME
   826	001315'	400000	001411'		        XWD     400000,EROTD    ;M - PRINT TAPE DIR. USER NAME
   827	001316'	400000	001701'		        XWD     400000,EROISC   ;N - PRINT FW INTEGER FOR RADIX GIVEN
   828	001317'	400000	001723'		        XWD     400000,EROBPI   ;O - PRINT BPI FROM LH AND TRACKS FROM RH
   829	001320'	400000	001727'		        XWD     400000,EROSYS   ;P - PRINT STRING FROM BYTE PTR
   830	001321'	400000	001406'		        XWD     400000,EROFF    ;Q - PRINT TAPE DIR. FILENAME
   831	001322'	400000	001437'		        XWD     400000,EROFD    ;R - PRINT TAPE DIR. CREATION DATE
   832	001323'	000000	001665'		        XWD     000000,EROSE    ;S - PRINT TAPE SERIAL OR DEV NAME
   833	001324'	000000	000000		        XWD     0,0             ;T - UNASSIGNED
   834	001325'	000000	000000		        XWD     0,0             ;U - UNASSIGNED
   835	001326'	000000	000000		        XWD     0,0             ;V - UNASSIGNED
   836	001327'	000000	000000		        XWD     0,0             ;W - UNASSIGNED
   837	001330'	000000	000000		        XWD     0,0             ;X - UNASSIGNED
   838	001331'	400000	001340'		        XWD     400000,EROUY    ;Y - PRINT USER NAME FROM DUL
   839	001332'	000000	001454'		        XWD     0,EROUZ    ;Z - PRINT USERNAME AND FILENAME USING DUL
   840
   841	001333'	550000	000000		EROMG:  HRRZ    R0,R0           ;CLEAR ALL BUT ADDRESS FOR INDIRECT REFERENCE
   842	001334'	022020	000000		        ERO     @R0             ;RECURSIVE CALL TO MESSAGE ROUTINE
   843	001335'	263740	000000		        POPJ    P,              ;RETURN
   844
   845					;CLEAR INPUT BUFFER
   846	001336'				EROCL:
   847	001336'	013000	000000		        CLRIN                   ;CLEAR INPUT BUFFER
   848	001337'	364100	000000*		        SOJA    R2,CPOPJ##      ;PUT BACK UNNEEDED VARIABLE AND RETURN
   849	001340'	602400	000000*		EROUY:  TRNE F,TRTFLG## ;ARE WE TRANSLATING
   850	001341'	660400	000000*		        TRO F,FSTFLG##  ;YES, SET FLAG TO USE DUL INSTEAD OF FAST DUL
   851	001342'	260740	001344'		        PUSHJ P,EROUN
   852	001343'	263740	000000		        POPJ P,
   853	001344'	260740	002130'		EROUN:  PUSHJ   P,FSTDUL        ;CONVERT PPN TO USER NAME
   854	001345'	254000	001376'		        JRST    EROPP           ;NO USER NAME FOUND SO PRINT PPN
   855	001346'	261740	000002		        PUSH    P,R2            ;SAVE R2 ON STACK
   856	001347'	261740	000000		        PUSH    P,R0            ;PUT FIRST HALF OF USER NAME ON STACK
   857	001350'	261740	000001		        PUSH    P,R1            ;PUT SECOND HALF OF USER NAME ON STACK
   858	001351'	201017	777776		        MOVEI   R0,-2(P)        ;GET POINTER TO USER NAME -1
   859	001352'	505000	000600		        HRLI    R0,0600         ;MAKE A SIXBIT STRING POINTER
   860	001353'	200040	002262'		        MOVE    R1,[XWD -14,1]  ;GET LOOP INDEX AND CHAR COUNT
   861	001354'	261740	000001		        PUSH    P,R1            ;PUT CHAR COUNT ON STACK
   862	001355'	134100	000000		        ILDB    R2,R0           ;GET NEXT CHAR FROM USER NAME
   863	001356'	332000	000002		        SKIPE   R2              ;SKIP IF IT'S A BLANK
   864	001357'	552057	000000		        HRRZM   R1,(P)          ;UPDATE POS OF LAST NONBLANK CHAR
   865	001360'	253040	001355'		        AOBJN   R1,.-3          ;LOOP
   866	001361'	262740	000001		        POP     P,R1            ;GET CHAR COUNT FROM THE STACK
   867	001362'	201017	777776		        MOVEI   R0,-2(P)        ;GET POINTER TO USER NAME -1 AGAIN
   868	001363'	505000	000600		        HRLI    R0,0600         ;MAKE SIXBIT STRING POINTER AGAIN
   869	001364'	010000	002263'		        TCO     [LPAREN]        ;OUTPUT LEFT PAREN BEFORE USER NAME
   870	001365'	134100	000000		        ILDB    R2,R0           ;GET NEXT CHAR FROM USER NAME
   871	001366'	271100	000040		        ADDI    R2,40           ;CONVERT FROM SIXBIT TO ASCII
   872	001367'	010000	000002		        TCO     R2              ;OUTPUT THIS CHAR OF USER NAME
   873	001370'	367040	001365'		        SOJG    R1,.-3          ;LOOP UNTIL ALL OF USER NAME IS TYPED
   874	001371'	010000	002264'		        TCO     [RPAREN]        ;OUTPUT RIGHT PAREN AFTER USER NAME
   875	001372'	262740	000001		        POP     P,R1            ;GET SECOND HALF OF USER NAME FROM STACK
   876	001373'	262740	000000		        POP     P,R0            ;GET FIRST  HALF OF USER NAME FROM STACK
   877	001374'	262740	000002		        POP     P,R2            ;RESTORE R2 FROM STACK
UUO     02/20/74	MACRO 12.5-46.0 17:26 13-JAN-81 PAGE 1-16
UUO.MAC	23-MAR-79 11:42

   878	001375'	263740	000000		        POPJ    P,              ;RETURN FROM EROUN
   879	001376'	010000	002265'		EROPP:  TCO     [LBRACK]        ;OUTPUT A LEFT BRACKET
   880	001377'	246000	777756		        LSHC    R0,-22          ;RIGHT SHIFT HALF WORD INTO R1
   881	001400'	260740	001644'		        PUSHJ   P,PRONUM        ;PRINT GLOBAL ACCT NUMBER
   882	001401'	010000	002266'		        TCO     [COMMA]
   883	001402'	554000	000001		        HLRZ    R0,R1           ;PUT USER NUMBER BACK IN R0
   884	001403'	260740	001644'		        PUSHJ   P,PRONUM        ;PRINT UNIVERSAL USER NUMBER
   885	001404'	010000	002267'		        TCO     [RBRACK]        ;PRINT A RIGHT BRACKET
   886	001405'	263740	000000		        POPJ    P,              ;RETURN
   887					; PRINT FILENAME WITH RESPECT TO TAPHED
   888	001406'	271000	000006		EROFF:  ADDI R0,6 ;POINT TO FILENAME
   889	001407'	260740	001465'		        PUSHJ P,EROFN ;PRINT FILENAME
   890	001410'	263740	000000		        POPJ P,
   891					; PRINT USERNAME OF FILE ENTRY WITH RESPECT TO TAPHED
   892	001411'	200040	000000		EROTD:  MOVE R1,R0
   893	001412'	200001	000005		        MOVE R0,5(R1)
   894	001413'	260740	002130'		        PUSHJ P,FSTDUL
   895	001414'	254000	001433'		        JRST EROTD2     ;JUST TAB 12 SPACES
   896	001415'	261740	000002		        PUSH P,R2       ;SAVE R2 ON STACK
   897	001416'	261740	000000		        PUSH P,R0       ;SAVE USER NAME ON STACK
   898	001417'	261740	000001		        PUSH P,R1       ;SAVE 2ND HALF OF USER NAME ON STACK
   899	001420'	201017	777776		        MOVEI R0,-2(P)  ;BYTE POINTER TO USER NAME -1
   900	001421'	505000	000600		        HRLI R0,0600    ;MAKE SIXBIT POINTER
   901	001422'	201040	000014		        MOVEI R1,14
   902	001423'	134100	000000		        ILDB R2,R0
   903	001424'	271100	000040		        ADDI R2,40
   904	001425'	010000	000002		        TCO R2
   905	001426'	367040	001423'		        SOJG R1,.-3
   906	001427'	262740	000001		        POP P,R1        ;UNWIND STACK
   907	001430'	262740	000000		        POP P,R0
   908	001431'	262740	000002		        POP P,R2
   909	001432'	263740	000000		        POPJ P,
   910	001433'	201040	000014		EROTD2: MOVEI R1,14
   911	001434'	010000	002220'		        TCO [40]
   912	001435'	367040	001434'		        SOJG R1,.-1
   913	001436'	263740	000000		        POPJ P,
   914					; PRINT DATE OF FILE ENTRY WITH RESPECT TO TAPHED
   915	001437'	271000	000006		EROFD:  ADDI R0,6       ;POINT TO FILENAME
   916	001440'	200040	000000		        MOVE R1,R0
   917	001441'	200001	000002		        MOVE    R0,2(R1)        ;GET CREATION DATE AND TIME
   918	001442'	607400	000000*		        TLNN    F,T12FLG        ;SKIP IF NEW FORMAT TAPE
   919	001443'	254000	001452'		        JRST    EROFD1          ;DATE AND TIME ALREADY IN RIGHT FMT
   920	001444'	261740	000002		        PUSH    P,R2            ;SAVE R2 ON STACK
   921	001445'	135100	002270'		        LDB     R2,[POINT 2,1(R1),21];GET HIGH BITS OF CRE DATE
   922	001446'	137100	002271'		        DPB     R2,[POINT 2,R0,23];SAVE HIGH BITS OF CRE DATE
   923	001447'	135100	002272'		        LDB     R2,[POINT 11,2(R1),23];GET CREATION TIME
   924	001450'	137100	002273'		        DPB     R2,[POINT 11,R0,21];SAVE CREATION TIME
   925	001451'	262740	000002		        POP     P,R2            ;RESTORE R2 FROM STACK
   926	001452'	260740	002015'		EROFD1: PUSHJ   P,ERODT         ;PRINT DATE AND TIME
   927	001453'	263740	000000		        POPJ    P,              ;RETURN FROM EROFD
   928	001454'	602400	001340*		EROUZ:  TRNE F,TRTFLG   ;ARE WE TRANSLATING
   929	001455'	660400	001341*		        TRO F,FSTFLG    ;YES, USE DUL
   930	001456'	260740	001460'		        PUSHJ P,EROUF
UUO     02/20/74	MACRO 12.5-46.0 17:26 13-JAN-81 PAGE 1-17
UUO.MAC	23-MAR-79 11:42

   931	001457'	263740	000000		        POPJ P,
   932	001460'	261740	000000		EROUF:  PUSH    P,R0            ;SAVE ADDRESS OF FILE NAME ON STK
   933	001461'	200020	000000		        MOVE    R0,@R0          ;GET PPN
   934	001462'	260740	001344'		        PUSHJ   P,EROUN         ;PRINT USER NAME
   935	001463'	262740	000000		        POP     P,R0            ;RESTORE R0 FROM STACK (ADDR OF ARG)
   936	001464'	340000	000000		        AOJ     R0,             ;POINT TO FILE INSTEAD OF PPN
   937	001465'	261740	000002		EROFN:  PUSH    P,R2            ;SAVE R2 ON STACK
   938	001466'	200100	000000		        MOVE    R2,R0           ;PUT ADDRESS OF FILE NAME IN R2
   939	001467'	505100	000600		        HRLI    R2,0600         ;MAKE SIXBIT BYTE STRING
   940	001470'	554042	000001		        HLRZ    R1,1(R2)        ;GET THE EXTENSION
   941	001471'	306040	654644		        CAIN    R1,(SIXBIT /UFD/);SKIP IF NOT A UUFD
   942	001472'	254000	001511'		        JRST    EROUFD          ;*SHOULD ALSO CHECK PPN
   943	001473'	360100	000000		        SOJ     R2,             ;DECREMENT TO POINT TO WORD BEFORE
   944	001474'	201040	000006		        MOVEI   R1,6            ;PRINT SIX CHARACTER FILE NAME
   945	001475'	134000	000002		EROFN1: ILDB    R0,R2           ;GET NEXT CHARACTER
   946	001476'	271000	000040		        ADDI    R0,40           ;CONVERT FROM SIXBIT TO ASCII
   947	001477'	010000	000000		        TCO     R0              ;PRINT THE CHARACTER
   948	001500'	367040	001475'		        SOJG    R1,EROFN1       ;LOOP IF NOT DONE
   949	001501'	010000	002274'		ERODOT: TCO     [DOTCHR]        ;PRINT DOT FOR FILE OR UFD
   950	001502'	201040	000003		        MOVEI   R1,3            ;PRINT THREE CHARACTERS
   951	001503'	134000	000002		EROFN2: ILDB    R0,R2           ;GET NEXT CHARACTER
   952	001504'	271000	000040		        ADDI    R0,40           ;CONVERT FROM SIXBIT TO ASCII
   953	001505'	010000	000000		        TCO     R0              ;OUTPUT NEXT CHAR OF EXTENSION
   954	001506'	367040	001503'		        SOJG    R1,EROFN2       ;LOOP IF NOT DONE WITH EXTENSION
   955	001507'	262740	000002		        POP     P,R2            ;RESTORE R2 FROM STACK
   956	001510'	263740	000000		        POPJ    P,              ;RETURN
   957	001511'	554002	000000		EROUFD: HLRZ    R0,(R2)         ;GET THE GLOBAL ACCT NUMBER
   958	001512'	260740	001644'		        PUSHJ   P,PRONUM        ;PRINT THE GAN
   959	001513'	010000	002266'		        TCO     [COMMA]         ;PRINT A COMMA
   960	001514'	550002	000000		        HRRZ    R0,(R2)         ;GET THE UNIVERSAL USER NUMBER
   961	001515'	260740	001644'		        PUSHJ   P,PRONUM        ;PRINT THE UUN
   962	001516'	254000	001501'		        JRST    ERODOT          ;PRINT DOT AND THE EXTENSION
   963	001517'	261740	000002		EROCB:  PUSH    P,R2            ;SAVE R2 ON STACK
   964	001520'	553000	000000		        HRRZS   R0              ;TURN OFF SIGN BIT ON ADDR FOR FAIL RET
   965	001521'	001040	000002		        TCI     R1,R2           ;INPUT FIRST CHAR OF RESPONSE
   966	001522'	302100	000015		        CAIE    R2,CRCHR        ;SKIP IF IT'S A CARRIAGE RETURN
   967	001523'	306100	000131		        CAIN    R2,YCHR         ;SKIP IF IT'S NOT THE CHAR Y
   968	001524'	665000	400000		        TLOA    R0,400000       ;SET SIGN BIT ON ADDR FOR YES RET & SKIP
   969	001525'	001040	000002		        TCI     R1,R2           ;INPUT NEXT CHAR OF RESPONSE
   970	001526'	302040	000012		        CAIE    R1,TE           ;SKIP IF END OF LINE
   971	001527'	254000	001525'		        JRST    .-2             ;READ MORE UNTIL END OF LINE
   972	001530'	262740	000002		        POP     P,R2            ;RESTORE R2 FROM STACK
   973	001531'	325000	001337*		        JUMPGE  R0,CPOPJ        ;RETURN IF NO
   974	001532'	505000	400000		EROBR:  HRLI    R0,400000       ;SET SIGN BIT TO MARK RET AS CHANGED
   975	001533'	200040	002167'		        MOVE    R1,STKPTR       ;GET INDEX INTO STACK
   976	001534'	202001	000000		        MOVEM   R0,(R1)         ;PUT NEW RETURN ADDR IN STACK
   977	001535'	202000	002166'		        MOVEM   R0,STKCNT       ;ALSO UPDATE CURRENT STACK CONTENTS
   978	001536'	263740	000000		        POPJ    P,              ;RETURN TO RESTORE REGISTERS ETC.
   979	001537'	404000	002161'		ERODF:  AND     R0,DEFALT#      ;IF ZERO WE SHOULD QUIT
   980	001540'	326000	001531*		        JUMPN   R0,CPOPJ        ;RETURN IF NON ZERO
   981	001541'	200000	002166'		        MOVE    R0,STKCNT       ;RETURN TO SAME PLACE WE WOULD ANYWAY
   982	001542'	254000	001532'		        JRST    EROBR           ;TURN ON BIT TO END FORMAT
   983					;*-
UUO     02/20/74	MACRO 12.5-46.0 17:26 13-JAN-81 PAGE 1-18
UUO.MAC	23-MAR-79 11:42

   984
   985	001543'	051440	000000		CLRUUO: CLRBFI  0              ;*THIS UUO SHOULD ALSO KILL CMD FILES*
   986	001544'	200000	002204'		        MOVE    R0,[POINT 7,LBUFF-1,34]
   987	001545'	202000	000060'		        MOVEM   R0,SPTR
   988	001546'	202000	000061'		        MOVEM   R0,SPTR+1
   989	001547'	201000	000404		        MOVEI   R0,^D260
   990	001550'	202000	000062'		        MOVEM   R0,SPTR+2
   991	001551'	402000	000153'		        SETZM   CTEST
   992	001552'	402000	000152'		        SETZM   CTEST2
   993	001553'	260740	000354'		        PUSHJ P,CRLS    ;CLOSE NAMES FILE IF OPEN
   994	001554'	260740	000162'		        PUSHJ   P,CLIN
   995	001555'	260740	000163'		        PUSHJ   P,CLOUT
   996	001556'	254000	001232'		        JRST    UUORET
   997					; THE TTY UUO IS USED TO DEFINE EDITTING AND BREAK CHARACTERS
   998					; FOR TCI, TCL, AND RDLINE. THE ADRESS PORTION SHOULD POINT
   999					; TO THE NEW TTY STATUS WORD. THE OLD ONE IS RETURNED IN THE
  1000					; SPECIFIED AC (UNLESS THE AC IS ZERO). IF THE NEW STATUS WORD
  1001					; IS ILLEGAL, IT DOES NOT REPLACE THE OLD ONE, BUT THE OLD ONE
  1002					; IS STILL RETURNED IN THE SPECIFIED AC. THIS ALLOWS
  1003					; READING OF THE STATUS WORD WITHOUT CHANGING IT BY SPECIFYING
  1004					; AN ILLEGAL STATUS WORD.
  1005					; A STATUS WORD MUST EITHER HAVE BIT 0, BIT 3 OR ANY ONE OF BITS
  1006					; 28-35 TURNED ON TO BE LEGAL.
  1007					; THE BIT DEFINITIONS ARE:
  1008					;  0 - COMMAND EDIT MODE. CONTROL A, W, Q, AND I EDITTING ARE
  1009					;      DONE. BREAKS ONLY ON CARRIAGE RETURN OR LINEFEED.
  1010					;      CONTROL A ECHOES "_". CONTROL W ECHOES "\". CONTROL Q
  1011					;      ECHOES "^", CARRIAGE RETURN, LINEFEED.
  1012					;      CONTROL I (TAB) ECHOES THE PROPER NUMBER OF BLANKS WHICH
  1013					;      ARE ALSO SENT TO THE PROGRAM.
  1014					;  1 - SPECIAL ECHO MODE. THE CONTROL CHARACTERS A, W, AND Q
  1015					;      ARE ECHOED AS IN COMMAND EDIT MODE. HOWEVER, NO EDITTING
  1016					;      IS DONE. THE EDITTING CHRACTERS ARE PASSED TO THE
  1017					;      PROGRAM. BREAKS ACCORDING TO BREAK BITS BUT WILL NOT
  1018					;      BREAK ON CONTROL A, W, Q, OR I.
  1019					;      CONTROL I STILL SENDS THE PROPER NUMBER OF BLANKS TO THE
  1020					;      PROGRAM AND THE CONTROL I IS NOT SENT.
  1021					;  2 - SUPPRESS TABS. THIS BIT CAUSED "SPECIAL ECHO" MODE
  1022					;      TO SUPPRESS TABS. CONTROL I WILL STILL ECHO BLANKS
  1023					;      BUT THE BLANKS WILL NOT BE SENT TO THE PROGRAM. THE
  1024					;      CONTROL I WILL BE SENT INSTEAD.
  1025					;  3 - SYSTEM EDITTING. EDITTING IS DONE BY THE MONITOR. BREAK
  1026					;      CHARACTERS ARE CARRIAGE RETURN AND LINEFEED.
  1027					; 25 - PDP10/TYMEX FLAG. NOT SETTABLE BY USER. 1 = PDP10.
  1028					;      0 = TYMEX.
  1029					; 26 - CONVERT LINEFEEDS TO CARRIAGE RETURNS.
  1030					; 27 - CONVERT LOWER CASE ALPHA TO UPPER CASE ALPHA.
  1031					; 28 - BREAK ON CONTROL CHARACTERS (001-037).
  1032					; 29 - BREAK ON PUNCTUATION GROUP 1 (40-57).
  1033					; 30 - BREAK ON NUMBERS (60-71).
  1034					; 31 - BREAK ON PUNCTUATION GROUP 2 (72-100).
  1035					; 32 - BREAK ON UPPER CASE ALPHA (101-132).
  1036					; 33 - BREAK ON PUNCTUATION GROUP 3 (133-140).
UUO     02/20/74	MACRO 12.5-46.0 17:26 13-JAN-81 PAGE 1-19
UUO.MAC	23-MAR-79 11:42

  1037					; 34 - BREAK ON LOWER CASE ALPHA (141-172).
  1038					; 35 - BREAK ON PUNCTUATION GROUP 4 (173-176).
  1039					;
  1040					; TTY STATUS IS EFFECTIVEY INITIALIZED AS "40000,,400".
  1041	001557'	335000	000155'		TTYUUO: SKIPGE  TTYFLG
  1042	001560'	254000	001567'		        JRST    TTY2
  1043	001561'	261740	000040		        PUSH    P,FORTY
  1044	001562'	017000	000000		        DISABL
  1045	001563'	370000	000155'		        SOS     TTYFLG
  1046	001564'	014000	002275'		        SETTTY  [XWD 40000,400]
  1047	001565'	016000	000000		        ENABLE
  1048	001566'	262740	000040		        POP     P,FORTY
  1049	001567'	261740	000001		TTY2:   PUSH    P,R1
  1050	001570'	200040	002276'		        MOVE    R1,[XWD -1,6]
  1051	001571'	047040	000041		        GETTAB  R1,
  1052	001572'	260740	000603*		        PUSHJ   P,FERR          ;FATAL ERROR
  1053	001573'	200020	000040		        MOVE    R0,@FORTY
  1054	001574'	421000	002000		        ANDCMI  R0,2000
  1055	001575'	606040	000200		        TRNN    R1,200
  1056	001576'	435000	002000		        IORI    R0,2000
  1057	001577'	262740	000001		        POP     P,R1
  1058	001600'	607000	440000		        TLNN    R0,440000
  1059	001601'	602000	000377		        TRNE    R0,377
  1060	001602'	254000	001604'		        JRST    .+2
  1061	001603'	200000	000154'		        MOVE    R0,TTYSTA
  1062	001604'	250000	000154'		        EXCH    R0,TTYSTA
  1063	001605'	261740	000000		        PUSH    P,R0
  1064	001606'	135000	002202'		        LDB     R0,[POINT 4,FORTY,12]
  1065	001607'	262760	000000		        POP     P,@R0
  1066	001610'	254000	001232'		        JRST    UUORET
  1067
  1068	001611'	332000	000166'		COFRLS::SKIPE COUT
  1069	001612'	071100	000000		        RELEASE COF,
  1070	001613'	402000	000166'		        SETZM COUT
  1071	001614'	261740	000000		        PUSH P,R0
  1072	001615'	201000	000077		        MOVEI ^D63
  1073	001616'	202000	000164'		        MOVEM LPTCTR
  1074	001617'	201000	000012		        MOVEI LFCHR
  1075	001620'	202000	000165'		        MOVEM PRVCHR
  1076	001621'	620400	001123*		        TRZ F,LPTFLG    ;NOT USING LPT:
  1077	001622'	262740	000000		        POP P,R0
  1078	001623'	263740	000000		        POPJ P,
  1079
  1080	001624'	200000	000040		ERRUUO: MOVE    R0,FORTY
  1081	001625'	476000	000000*		        SETOM DULL##
  1082	001626'	476000	000000*		        SETOM LUDL##
  1083					;*      SKIPG UNISW             ;DON'T RESET COUT IN NXTTAP CODE
  1084					;*      PUSHJ P,COFRLS          ;CLOSE COF FILE
  1085	001627'	012020	000000		        TYPE    @R0
  1086	001630'	013000	000000		        CLRIN                   ;CLEAR INPUT BUFFER
  1087	001631'	337000	000000*		        SKIPG   UNISW##         ;HAVE WE ENTERED UNIT YET
  1088	001632'	254000	000000*		        JRST    CDISP           ;RETURN TO COMMAND DISPATCHER
  1089	001633'	200740	000000*		        MOVE P,ERRSTP##         ;RESTORE STACK PTR
UUO     02/20/74	MACRO 12.5-46.0 17:26 13-JAN-81 PAGE 1-20
UUO.MAC	23-MAR-79 11:42

  1090	001634'	254020	001631*		        JRST    @UNISW          ;LET THEM RETYPE TAPE DEVICE NAME
  1091	001635'	262740	000000		ENUUO:  POP     P,R0
  1092	001636'	351000	000160'		        AOSL    ESCFLG
  1093	001637'	331000	000161'		        SKIPL   SAVESC
  1094	001640'	263740	000000		        POPJ    P,
  1095	001641'	254000	000550*		        JRST    ESCR
  1096	001642'	370000	000160'		DISUUO: SOS     ESCFLG
  1097	001643'	254000	001232'		        JRST    UUORET
  1098
  1099
  1100					;PRINT OCTAL NUMBER ON TERMINAL
  1101					; CALL WITH NUMBER IN R0
  1102
  1103	001644'	506017	000000		PRONUM::HRLM    R0,(P)          ;PUT THAT DIGIT ON THE STACK
  1104	001645'	242000	777775		        LSH     R0,-3           ;RIGHT SHIFT THREE
  1105	001646'	332000	000000		        SKIPE   R0              ;SKIP IF THERE ARE NO MORE DIGITS
  1106	001647'	260740	001644'		        PUSHJ   P,PRONUM        ;DO IT AGAIN
  1107	001650'	554017	000000		        HLRZ    R0,(P)          ;GET NEXT DIGIT OFF THE STACK
  1108	001651'	620000	777770		        TRZ     R0,777770       ;SAVE ONLY RIGHT THREE BITS
  1109	001652'	271000	000060		        ADDI    R0,"0"          ;CONVERT IT TO A CHARACTER
  1110	001653'	010000	000000		        TCO     R0              ;TYPE IT
  1111	001654'	263740	000000		        POPJ    P,              ;TYPE NEXT DIGIT OR RETURN
  1112
  1113					;PRINT DECIMAL NUMBER ON TERMINAL
  1114					; CALL WITH NUMBER IN R0
  1115
  1116	001655'	231000	000012		PRDNUM::IDIVI   R0,12           ;DIVIDE BY TEN FOR NEXT DIGIT
  1117	001656'	506057	000000		        HRLM    R1,(P)          ;STICK THE DIGIT IN THE STACK
  1118	001657'	332000	000000		        SKIPE   R0              ;SKIP IF WE'VE GOT ALL THE DIGITS
  1119	001660'	260740	001655'		        PUSHJ   P,PRDNUM        ;GET THE NEXT DIGIT
  1120	001661'	554017	000000		        HLRZ    R0,(P)          ;GET THE NEXT DIGIT FROM THE STACK
  1121	001662'	271000	000060		        ADDI    R0,"0"          ;CONVERT NUMBER TO CHARACTER
  1122	001663'	010000	000000		        TCO     R0              ;OUTPUT THE CHARACTER
  1123	001664'	263740	000000		        POPJ    P,              ;GET NEXT DIGIT OR RETURN
  1124					; PRINT DEVICE NAME FOR VERSION>14
  1125	001665'	261740	000002		EROSE:  PUSH P,R2
  1126	001666'	201100	000006		        MOVEI R2,6
  1127	001667'	275000	000001		        SUBI R0,1
  1128	001670'	505000	000600		        HRLI R0,0600
  1129	001671'	134040	000000		EROSE2: ILDB R1,R0
  1130	001672'	306040	000000		        CAIN R1,0
  1131	001673'	254000	001677'		        JRST EROSE3
  1132	001674'	271040	000040		        ADDI R1,40
  1133	001675'	010000	000001		        TCO R1
  1134	001676'	367100	001671'		        SOJG R2,EROSE2
  1135	001677'	262740	000002		EROSE3: POP P,R2
  1136	001700'	263740	000000		        POPJ P,
  1137
  1138					;PRINT OCTAL OR DECIMAL NO. IN GIVEN FIELD WIDTH WITH LEADING BLANKS
  1139					;REQUIRES TWO ARGUMENTS:  FIRST THE CELL TO BE PRINTED OUT, SECOND
  1140					;CONTAINS RADIX IN LH AND FIELD WIDTH IN RH.  THE NO. TO BE PRINTED
  1141					;IS IN R0 AND R2 POINTS AT THE SECOND ARG.
  1142	001701'	200042	000000		EROISC: MOVE R1,(R2)
UUO     02/20/74	MACRO 12.5-46.0 17:26 13-JAN-81 PAGE 1-21
UUO.MAC	23-MAR-79 11:42

  1143	001702'	556040	002165'		        HLRZM R1,RADIX#
  1144	001703'	552040	002162'		        HRRZM R1,FW#
  1145	001704'	350000	000002		        AOS R2
  1146	001705'	230000	002165'		EROIS:  IDIV R0,RADIX
  1147	001706'	506057	000000		        HRLM R1,(P)             ;SAVE DIGIT IN LH OF STACK
  1148	001707'	370000	002162'		        SOS FW
  1149	001710'	332000	000000		        SKIPE R0
  1150	001711'	260740	001705'		        PUSHJ P,EROIS
  1151	001712'	337000	002162'		EROIS1: SKIPG FW
  1152	001713'	254000	001717'		        JRST EROIS2
  1153	001714'	010000	002220'		        TCO [40]
  1154	001715'	370000	002162'		        SOS FW
  1155	001716'	254000	001712'		        JRST EROIS1
  1156	001717'	554017	000000		EROIS2: HLRZ R0,(P)
  1157	001720'	271000	000060		        ADDI R0,"0"
  1158	001721'	010000	000000		        TCO R0
  1159	001722'	263740	000000		        POPJ P,
  1160
  1161					;PRINT BPI AND NO. OF TRACKS
  1162	001723'	556000	002160'		EROBPI: HLRZM R0,BP#
  1163	001724'	552000	002171'		        HRRZM R0,TR#
  1164					        ERO [XWD[BP
  1165	001725'	022000	002305'		TR],[ASCIZ"_C BPI _C TRACK"]]
  1166	001726'	263740	000000		        POPJ P,
  1167					;PRINT STRING OF WIDTH N CHARS FROM BYTE POINTER IN R0
  1168					; WIDTH N IS IN BITS 12-17 OF R0 WHICH ARE CLEARED SO INDEXING IS
  1169					; NOT POSSIBLE
  1170	001727'	261740	000001		EROSYS: PUSH P,R1
  1171	001730'	261740	000002		        PUSH P,R2
  1172	001731'	400040	000000		        SETZ R1,
  1173	001732'	135100	002306'		        LDB R2,[POINT 6,R0,11]
  1174	001733'	306100	000006		        CAIN R2,6
  1175	001734'	201040	000040		        MOVEI R1,40
  1176	001735'	202040	002162'		        MOVEM R1,FW
  1177	001736'	135100	002307'		        LDB R2,[POINT 6,R0,17]
  1178	001737'	621000	000077		        TLZ R0,77
  1179	001740'	134040	000000		        ILDB R1,R0
  1180	001741'	270040	002162'		        ADD R1,FW
  1181	001742'	010000	000001		        TCO R1
  1182	001743'	367100	001740'		        SOJG R2,.-3
  1183	001744'	262740	000002		        POP P,R2
  1184	001745'	262740	000001		        POP P,R1
  1185	001746'	263740	000000		        POPJ P,
  1186
  1187					;PRINT A TWO DIGIT DECIMAL NUMBER TO THE TERMINAL
  1188					; CALL WITH NUMBER IN R0
  1189
  1190	001747'	231000	000012		PRD2N:: IDIVI   R0,12           ;DIVIDE BY TEN TO SEPARATE DIGITS
  1191	001750'	271000	000060		        ADDI    R0,60           ;CONVERT FIRST NUMBER TO CHARACTER
  1192	001751'	010000	000000		        TCO     R0              ;OUTPUT THE CHARACTER
  1193	001752'	271040	000060		        ADDI    R1,60           ;CONVERT SECOND NUMBER TO CHARACTER
  1194	001753'	010000	000001		        TCO     R1              ;OUTPUT THAT CHARACTER
  1195	001754'	263740	000000		        POPJ    P,              ;RETURN
UUO     02/20/74	MACRO 12.5-46.0 17:26 13-JAN-81 PAGE 1-22
UUO.MAC	23-MAR-79 11:42

  1196
  1197					;READ DECIMAL/OCTAL NUMBER
  1198					; RETURN NUMBER IN R0, TERMINATING CHAR IN CH, TYPE IN CT
  1199					; RETURN NUMBER OF CHARACTERS IN NUMBER IN R1
  1200
  1201	001755'	334040	002310'		RDONUM::SKIPA   R1,[10]         ;SET BASE TO EIGHT
  1202	001756'	201040	000012		RDDNUM::MOVEI   R1,12           ;SET BASE TO TEN
  1203	001757'	261740	000001		        PUSH    P,R1            ;SAVE BASE ON THE STACK
  1204	001760'	403040	000000		        SETZB   R1,R0           ;ZERO THE ACCUMULATOR AND CHAR COUNT
  1205	001761'	001340	000004		RDNU1:  TCI     CT,CH           ;READ NEXT CHAR
  1206	001762'	302340	000002		        CAIE    CT,NU           ;SKIP IF IT'S A DIGIT
  1207	001763'	254000	001770'		        JRST    RDNRET          ;ANYTHING ELSE IS A TERMINATOR SO RET
  1208	001764'	220017	000000		        IMUL    R0,(P)          ;MULTIPLY ACCUMULATOR BY BASE
  1209	001765'	270000	000004		        ADD     R0,CH           ;ADD IN THE NEW DIGIT
  1210	001766'	275000	000060		        SUBI    R0,60           ;CONVERT NEW DIGIT FROM CHAR TO NUMBER
  1211	001767'	344040	001761'		        AOJA    R1,RDNU1        ;INCREMENT CHAR COUNT AND GET NEXT CHAR
  1212	001770'	262757	000000		RDNRET: POP     P,(P)           ;POP STACK TO THROW AWAY THE BASE
  1213	001771'	263740	000000		        POPJ    P,              ;RETURN FROM RDDNUM OR RDONUM
  1214					;
  1215					;READ SIXBIT STRING FOR DEVICE NAME
  1216					;NAME RETURNED IN R0 AND COMBUF
  1217
  1218	001772'	200040	002311'		RDUNI:: MOVE R1,[-7,,0]
  1219	001773'	402000	000000		        SETZM R0
  1220	001774'	200100	002312'		        MOVE R2,[POINT 6,-1,35]
  1221	001775'	001340	000004		RUNI:   TCI     CT,CH           ;READ A CHAR
  1222	001776'	302340	000013		        CAIE    CT,SP           ;IS IT A SPACE
  1223	001777'	306340	000012		        CAIN    CT,TE           ;IS IT A TERMINATOR
  1224	002000'	263740	000000		        POPJ P,
  1225	002001'	306200	000072		        CAIN CH,COLON
  1226	002002'	254000	002010'		        JRST RUNI1
  1227	002003'	271200	000040		        ADDI    CH,40           ;CONVERT TO SIXBIT
  1228	002004'	253040	002006'		        AOBJN R1,.+2
  1229	002005'	015000	002313'		        ERROR [ASCIZ"DEVICE NAME TOO VERBOSE."]
  1230	002006'	136200	000002		        IDPB CH,R2
  1231	002007'	254000	001775'		        JRST RUNI
  1232	002010'	001340	000004		RUNI1:  TCI CT,CH
  1233	002011'	302340	000013		        CAIE CT,SP
  1234	002012'	306340	000012		        CAIN CT,TE
  1235	002013'	263740	000000		        POPJ P,
  1236	002014'	254000	002010'		        JRST RUNI1
  1237
  1238					;PRINT THE DATE AND TIME FROM AC A
  1239					;FOR MONITORS P012 OR LATER THE DATE IS DAYS SINCE JAN 1, 1964 GMT
  1240					; AND THE TIME IS MINUTES SINCE MIDNIGHT GMT
  1241					; WITH THE DATE IN BITS 22-35 AND THE TIME IN BITS 11-21.
  1242					;THE OLD FORMAT IS:
  1243					;DATE = ((Y-1964)*12+M-1)*31+D-1 IN BITS 24-35
  1244					;TIME IN MINUTES SINCE MIDNITE IN BITS 13-23
  1245
  1246	002015'	261740	000002		ERODT:  PUSH    P,R2            ;SAVE R2 ON THE STACK
  1247	002016'	607400	001442*		        TLNN    F,T12FLG##      ;SKIP IF TAPE MADE ON P012 OR LATER
  1248	002017'	254000	002040'		        JRST    ERODT1          ;TAPE IS IN OLD FORMAT
UUO     02/20/74	MACRO 12.5-46.0 17:26 13-JAN-81 PAGE 1-23
UUO.MAC	23-MAR-79 11:42

  1249	002020'	607400	000000*		        TLNN    F,P12FLG##      ;SKIP IF NEW MONITOR IS RUNNING
  1250	002021'	254000	002070'		        JRST    ERODT3          ;CANNOT CALCULATE DATE SO PRINT OCTAL
  1251	002022'	135100	002320'		        LDB     R2,[POINT 14,R0,35] ;GET THE DATE
  1252	002023'	202100	000000*		        MOVEM   R2,CNVDAT##     ;SAVE THE DATE FOR CONVERSION
  1253	002024'	135100	002273'		        LDB     R2,[POINT 11,R0,21] ;GET THE TIME
  1254	002025'	220100	000000*		        IMUL    R2,JIFFPM##     ;CONVERT MINUTES TO JIFFIES
  1255	002026'	202100	000000*		        MOVEM   R2,CNVTIM##     ;SAVE THE TIME
  1256	002027'	200100	002321'		        MOVE    R2,[XWD 400020,0] ;CONVERT NEW TO OLD FORMAT
  1257	002030'	202100	000000*		        MOVEM   R2,CNVFMT##     ;SAVE THE CONVERSION FORMAT
  1258	002031'	201100	002023*		        MOVEI   R2,CNVDAT       ;GET ADDRESS OF CONVERSION TABLE
  1259	002032'	047100	777723		        DATUUO  R2,             ;CONVERT DATE AND TIME
  1260	002033'	012000	002322'		        TYPE    [ASCIZ "ERROR IN CONVERTING DATE."]
  1261	002034'	200000	002026*		        MOVE    R0,CNVTIM       ;GET THE NEW TIME
  1262	002035'	230000	002025*		        IDIV    R0,JIFFPM       ;CONVERT FROM MINUTES TO JIFFIES TO MINUTES
  1263	002036'	200100	002031*		        MOVE    R2,CNVDAT       ;GET THE NEW DATE
  1264	002037'	254000	002042'		        JRST    ERODT2          ;CONTINUE PRINTING DATE AND TIME
  1265	002040'	135100	002330'		ERODT1: LDB     R2,[POINT 12,R0,35] ;GET DATE
  1266	002041'	135000	002331'		        LDB     R0,[POINT 11,R0,23] ;GET THE TIME
  1267	002042'	231000	000074		ERODT2: IDIVI   R0,^D60         ;DIVIDE INTO HOURS AND MINS
  1268	002043'	261740	000001		        PUSH    P,R0+1          ;SAVE MINUTES
  1269	002044'	260740	001747'		        PUSHJ   P,PRD2N         ;PUBLISH HOURS
  1270	002045'	010000	002332'		        TCO     [COLON]
  1271	002046'	262740	000000		        POP     P,R0            ;PUBLISH MINUTES
  1272	002047'	260740	001747'		        PUSHJ   P,PRD2N         ;PRINT TWO DIGIT DECIMAL NUMBER
  1273	002050'	010000	002220'		        TCO     [SPACE]
  1274	002051'	200000	000002		        MOVE    R0,R2           ;PUT DATE IN R0
  1275	002052'	231000	000564		        IDIVI   R0,^D31*^D12    ;GET YEARS
  1276	002053'	261740	000000		        PUSH    P,R0            ;SAVE YEAR ON STACK
  1277	002054'	231040	000037		        IDIVI   R1,^D31         ;GET MONTH AND DAY
  1278	002055'	201002	000001		        MOVEI   R0,1(R2)        ;NEED TO ADD ONE TO DAY OF MONTH
  1279	002056'	200100	000001		        MOVE    R2,R1           ;PUT MONTH IN R2
  1280	002057'	260740	001747'		        PUSHJ   P,PRD2N         ;PRINT DAY OF MONTH
  1281	002060'	010000	002333'		        TCO     [DASH]
  1282	002061'	012002	002072'		        TYPE    MONTAB(R2)      ;TYPE MONTH
  1283	002062'	010000	002333'		        TCO     [DASH]
  1284	002063'	262740	000000		        POP     P,R0            ;GET YEAR FROM STACK
  1285	002064'	271000	000100		        ADDI    R0,^D64         ;PUBLISH YEAR
  1286	002065'	260740	001747'		        PUSHJ   P,PRD2N         ;PRINT TWO DIGIT DECIMAL NUMBER
  1287	002066'	262740	000002		        POP     P,R2            ;RESTORE R2 FROM STACK
  1288	002067'	263740	000000		        POPJ    P,              ;RETURN
  1289	002070'	262740	000002		ERODT3: POP     P,R2            ;RESTORE R2
  1290	002071'	254000	001644'		        JRST    PRONUM          ;PRINT OCTAL NUM FROM R0 AND RETURN
  1291
  1292	002072'	452031	600000		MONTAB: ASCIZ   "JAN"          ;TABLE OF MONTH NAMES
  1293	002073'	432130	200000		        ASCIZ   "FEB"
  1294	002074'	466032	200000		        ASCIZ   "MAR"
  1295	002075'	406412	200000		        ASCIZ   "APR"
  1296	002076'	466033	100000		        ASCIZ   "MAY"
  1297	002077'	452531	600000		        ASCIZ   "JUN"
  1298	002100'	452531	400000		        ASCIZ   "JUL"
  1299	002101'	406530	700000		        ASCIZ   "AUG"
  1300	002102'	516132	000000		        ASCIZ   "SEP"
  1301	002103'	476072	400000		        ASCIZ   "OCT"
UUO     02/20/74	MACRO 12.5-46.0 17:26 13-JAN-81 PAGE 1-24
UUO.MAC	23-MAR-79 11:42

  1302	002104'	472372	600000		        ASCIZ   "NOV"
  1303	002105'	422130	300000		        ASCIZ   "DEC"
  1304
  1305	002106'	200000	002334'		RDMON:: MOVE    R0,[XWD 0700,R1-1] ;BLANK STRING POINTER TO R1
  1306	002107'	400040	000000		        SETZ    R1,             ;CLEAR R1
  1307	002110'	202000	002164'		        MOVEM   R0,MONPTR#      ;SAVE IN TEMP CELL
  1308	002111'	201000	000003		        MOVEI   R0,3            ;READ THREE CHARACTERS
  1309	002112'	202000	002163'		        MOVEM   R0,MONCNT#      ;SAVE IN ANOTHER TEMP CELL
  1310	002113'	001100	000000		RDMON1: TCI     R2,R0           ;READ CHAR OF MONTH
  1311	002114'	136000	002164'		        IDPB    R0,MONPTR       ;DEPOSIT CHAR IN STRING
  1312	002115'	302100	000001		        CAIE    R2,AL           ;SKIP IF ALPHABETIC CHARACTER READ
  1313	002116'	015000	002335'		MONBMT: ERROR   [ASCIZ "BAD MONTH READ."]
  1314	002117'	373000	002163'		        SOSLE   MONCNT          ;SKIP IF DONE
  1315	002120'	254000	002113'		        JRST    RDMON1          ;LOOP
  1316	002121'	201000	000000		        MOVEI   R0,EOLIT        ;END THE STRING
  1317	002122'	136000	002164'		        IDPB    R0,MONPTR       ;DEPOSIT BACK ARROW IN STRING
  1318	002123'	201100	000013		        MOVEI   R2,13           ;LOOP TWELVE TIMES TO FIND MONTH
  1319	002124'	312042	002072'		        CAME    R1,MONTAB(R2)   ;SKIP IF THIS IS MONTH JUST READ
  1320	002125'	365100	002124'		        SOJGE   R2,.-1          ;TRY THE NEXT MONTH
  1321	002126'	321100	002116'		        JUMPL   R2,MONBMT       ;BAD MONTH TYPED
  1322	002127'	263740	000000		        POPJ    P,              ;RETURN
  1323
  1324					; REPLACE CALLS TO PPNUSR.  TRY TO MATCH CURPPN OR LSTPPN FIRST.
  1325
  1326					; R0=PPN  RETURNS R0,R1 WITH 6BIT USERNAME.  SKIP IF FOUND.
  1327
  1328	002130'	622400	001455*		FSTDUL: TRZE F,FSTFLG
  1329	002131'	254000	002155'		        JRST FSTD3      ;USE DUL WHEN TRANSLATING
  1330	002132'	312000	000000*		        CAME R0,CURPPN##
  1331	002133'	254000	002144'		        JRST FSTD2
  1332	002134'	200040	000000*		        MOVE R1,CURVER##
  1333	002135'	332000	000000*		        SKIPE CURUN1
  1334	002136'	307040	000012		        CAIG R1,12
  1335	002137'	254000	002144'		        JRST FSTD2
  1336	002140'	200000	002135*		        MOVE CURUN1##
  1337	002141'	200040	000000*		        MOVE R1,CURUN2##
  1338	002142'	350017	000000		FSTD1:  AOS (P)
  1339	002143'	263740	000000		        POPJ P,
  1340	002144'	312000	000000*		FSTD2:  CAME R0,LSTPPN##
  1341	002145'	254000	002155'		        JRST FSTD3
  1342	002146'	200040	000000*		        MOVE R1,LSTVER##
  1343	002147'	332000	000000*		        SKIPE LSTUN1
  1344	002150'	307040	000012		        CAIG R1,12
  1345	002151'	254000	002155'		        JRST FSTD3
  1346	002152'	200000	002147*		        MOVE LSTUN1##
  1347	002153'	200040	000000*		        MOVE R1,LSTUN2##
  1348	002154'	254000	002142'		        JRST FSTD1
  1349	002155'	260740	000000*		FSTD3:  PUSHJ P,PPNUSR##;LOOK IN DUL
  1350	002156'	263740	000000		        POPJ P,         ;NOT FOUND
  1351	002157'	254000	002142'		        JRST FSTD1
  1352
  1353	002160'				        VAR
  1354					        END
UUO     02/20/74	MACRO 12.5-46.0 17:26 13-JAN-81 PAGE 1-26
UUO.MAC	23-MAR-79 11:42

  1355
NO ERRORS DETECTED
PROGRAM BREAK IS 002341
3K CORE USED
UUO     02/20/74	MACRO 12.5-46.0 17:26 13-JAN-81 PAGE 2
UUO.MAC	23-MAR-79 11:42		SYMBOL TABLE

AL		000001		CURUN2		002141'	EXT	EROSYS		001727'		LBUFF		000063'
AS		000006		CURVER		002134'	EXT	EROTAB		001301'		LF		000763'
AT		000010		CW		000670'		EROTD		001411'		LFCHR		000012
BARROW		000137		CW2		000710'		EROTD2		001433'		LOWERA		000141
BELCHR		000007		DA		000017		EROUF		001460'		LOWERZ		000172
BELL		000761'		DASH		000055	SPD	EROUFD		001511'		LP		000005
BITTAB		001002'		DATUUO	047000	777723		EROUN		001344'		LPAREN		000050	SPD
BP		002160'		DEC	011000	000000		EROUUO		001242'		LPT2		001127'
BSLASH		000134		DEC2		001205'		EROUY		001340'		LPT3		001133'
BYO		001123'		DECUUO		001173'		EROUZ		001454'		LPT4		001144'
BYOO		001164'		DEFALT		002161'		ERROR	015000	000000		LPT5		001156'
CA		000660'		DISABL	017000	000000		ERRSTP		001633'	EXT	LPT6		001162'
CA2		000666'		DISUUO		001642'		ERRUUO		001624'		LPTCTR		000164'
CDISP		001632'	EXT	DOLLAR		000044		ERT	023000	000000		LPTFLG		001621'	EXT
CH		000004	SPD	DOTCHR		000056		ERTUUO		001234'		LSTPPN		002144'	EXT
CHARC		000020		DULL		001625'	EXT	ESCFLG		000160'		LSTUN1		002152'	EXT
CHATYP		000361'		DWHY		000347'	EXT	ESCR		001641'	EXT	LSTUN2		002153'	EXT
CHRCNT		000156'	INT	ENABLE	016000	000000		ESCTAB		000777'		LSTVER		002146'	EXT
CI		000712'		ENUUO		001635'		EX		000007		LUDL		001626'	EXT
CI2		000723'		EOF		001025'		F		000010		MONBMT		002116'
CIN		001040'	EXT	EOLIT		000000	SPD	FERR		001572'	EXT	MONCNT		002163'
CINFLG		000170'	INT	ERB	024000	000000		FIL		000006	SPD	MONPTR		002164'
CLIN		000162'		ERBUUO		001237'		FILDI1		002205'	EXT	MONTAB		002072'
CLOUT		000163'		ERO	022000	000000		FILHD1		000334'	EXT	NCV		000602'
CLRBFI	051440	000000		ERO1		001254'		FILHD2		000332'	EXT	NU		000002
CLRIN	013000	000000		ERO1A		001244'		FORTY		000040		OUTCHR	051040	000000
CLRUUO		001543'		ERO2		001266'		FORTY1		000041		P		000017
CNT		000157'		EROBPI		001723'		FS3		000371'		P12FLG		002020'	EXT
CNVDAT		002036'	EXT	EROBR		001532'		FS4		000402'		PO		000014
CNVFMT		002030'	EXT	EROCB		001517'		FSTD1		002142'		PPNUSR		002155'	EXT
CNVTIM		002034'	EXT	EROCL		001336'		FSTD2		002144'		PRD2N		001747'	INT
CO		000011		ERODF		001537'		FSTD3		002155'		PRDNUM		001655'	INT
COF		000002	SPD	ERODOT		001501'		FSTDUL		002130'		PRONUM		001644'	INT
COFHD1		001166'	EXT	ERODT		002015'		FSTFLG		002130'	EXT	PRVCHR		000165'
COFHD2		001164'	EXT	ERODT1		002040'		FW		002162'		PU		000016
COFOUT		001170'		ERODT2		002042'		GCD	005000	000000		QU		000015
COFRLS		001611'	INT	ERODT3		002070'		GCDUUO		000444'		R0		000000
COLON		000072	SPD	EROFD		001437'		GCH		000332'		R1		000001
COMMA		000054		EROFD1		001452'		GCH1		000341'		R2		000002
COUT		000166'	INT	EROFF		001406'		GCH2		000351'		R3		000003
CPOPJ		001540'	EXT	EROFN		001465'		GCHB		000171'	INT	RADIX		002165'
CQ		000644'		EROFN1		001475'		GCI	004000	000000		RBRACK		000135	SPD
CR		000774'		EROFN2		001503'		GCI2		000436'		RDC		000574'
CRCHR		000015		EROIS		001705'		GCIUUO		000426'		RDC2		000616'
CRLS		000354'	INT	EROIS1		001712'		GETCHR		001022'		RDC3		000636'
CT		000007	SPD	EROIS2		001717'		GETTAB	047000	000041		RDDNUM		001756'	INT
CTAB1		001012'		EROISC		001701'		GIVCHR		001044'		RDL1		000527'
CTAB2		001016'		EROMG		001333'		IC		000000		RDLINE	003000	000000
CTEST		000153'		EROPP		001376'		IG		000004		RDMON		002106'	INT
CTEST2		000152'		EROSE		001665'		INCHRW	051000	000000		RDMON1		002113'
CTRLQ		000021		EROSE2		001671'		INCHWL	051200	000000		RDNRET		001770'
CURPPN		002132'	EXT	EROSE3		001677'		JIFFPM		002035'	EXT	RDNU1		001761'
CURUN1		002140'	EXT	EROSW		001116'	INT	LBRACK		000133	SPD	RDONE		000642'
UUO     02/20/74	MACRO 12.5-46.0 17:26 13-JAN-81 PAGE 2-2
UUO.MAC	23-MAR-79 11:42		SYMBOL TABLE

RDONUM		001755'	INT	TCIUUO		000240'
RDTTY		001032'		TCL	002000	000000
RDTTY2		001037'		TCLUUO		000275'
RDUNI		001772'	INT	TCO	010000	000000
RDUUO		000513'		TCOLP		001101'
RDX		000552'		TCOSTA		002170'
RDX1		000542'		TCOTAB		001117'
RDX2		000547'		TCOUU		001060'
RDX3		000570'		TCOUU1		001075'
RP		000003		TCOUU4		001103'
RPAREN		000051	SPD	TCOUU5		001104'
RST		000040	SPD	TCOUU6		001113'
RUB177		000177		TCOUU7		001115'
RUBOUT		000377		TCOUU8		001107'
RUNI		001775'		TE		000012
RUNI1		002010'		TOFCHR		000014
SAVBEG		000001		TR		002171'
SAVE1		000147'		TRTFLG		001454'	EXT
SAVE2		000150'		TTY2		001567'
SAVE3		000151'		TTYDON		001040'
SAVEND		000016		TTYFLG		000155'
SAVESC		000161'		TTYSTA		000154'
SAVR1		000024'		TTYUUO		001557'
SAVR1E		000041'		TYP1		001217'
SAVR2		000042'		TYPE	012000	000000
SAVR2E		000057'		TYPUUO		001207'
SCHAR		000167'		U		000015
SETTTY	014000	000000		UARROW		000136
SKPT1		000236'		UNISW		001634'	EXT
SKPT2		000237'		UNIT		000012	SPD
SP		000013		UUO		000172'
SPACE		000040		UUOERR		000212'
SPTR		000060'		UUOFLG		000001
SSKE	020000	000000		UUORE1		001231'
SSKELP		000225'		UUORE2		001230'	INT
SSKET		000235'		UUORE3		001226'
SSKUUO		000214'		UUORET		001232'	INT
STKCNT		002166'		UUOSK1		000473'
STKPTR		002167'		UUOSKR		000472'
T12FLG		002016'	EXT	UUOTAB		000000'
TAB		000747'		VERPAT		000013	SPD
TAB	021000	000000		VERSIO		000015	SPD
TABLP		000423'		WCD	007000	000000
TABUUO		000421'		WCDUUO		000475'
TCI	001000	000000		WCI	006000	000000
TCI1		000244'		WCIUUO		000455'
TCI2		000261'		WRTTY		001056'
TCI3		000270'		X		000024	SPD
TCI4		000245'		YCHR		000131
TCI5		000302'
TCI6		000307'

UUO     02/20/74	MACRO 12.5-46.0 17:26 13-JAN-81
UUO.MAC	23-MAR-79 11:42		Symbol cross reference

AL	    74#	   338	   339	   340	   341	  1312
AS	    74#	   335
AT	    74#	   338
BARROW	    27#	   546	   548	   798
BELCHR	   113#	   598
BELL	   545	   553	   598#
BITTAB	   509	   613#
BP	  1162#	  1162	  1164
BSLASH	   114#	   554	   566
BYO	   646	   677	   693#
BYOO	   699	   715	   717	   718	   719	   724	   726#
CA	   484	   542#	   615
CA2	   543	   548#
CDISP	   103%	  1088
CH	     9#	  1205	  1209	  1221	  1225	  1227	  1230	  1232
CHARC	    74#	    74
CHATYP	   215	   306#
CHRCNT	   144#	   217	   348	   660	   669
CI	   568#	   615
CI2	   571	   577#
CIN	   103%	   472	   616	   632
CINFLG	   155#	   232	   273	   275	   300	   302
CLIN	   148#	   620	   994
CLOUT	   149#	   995
CLRUUO	    44	   985#
CNT	   145#	   450	   500	   568	   578	   590
CNVDAT	  1252%	  1252	  1258	  1263
CNVFMT	  1257%	  1257
CNVTIM	  1255%	  1255	  1261
CO	    74#	   335
COF	   692#	   730	  1069
COFHD1	   728%	   728
COFHD2	   726%	   726
COFOUT	   727	   730#
COFRLS	  1068#
COLON	   121#	  1225	  1270
COMMA	   123#	   563	   882	   959
COUT	   152#	   606	   633	   641	   674	   676	  1068	  1070
CPOPJ	   848%	   848	   973	   980
CQ	   482	   530#	   615
CR	   455	   609#
CRCHR	    24#	   257	   264	   454	   504	   531	   600	   605	   610	   661	   689	   714	   761	   794
	   966
CRLS	   300#	   993
CT	    10#	  1205	  1206	  1221	  1222	  1223	  1232	  1233	  1234
CTAB1	   487	   520	   614#
CTAB2	   488	   615#
CTEST	   141#	   209	   211	   240	   242	   991
CTEST2	   140#	   992
CTRLQ	   120#	   595
CURPPN	  1330%	  1330
CURUN1	  1333	  1336%	  1336
CURUN2	  1337%	  1337
UUO     02/20/74	MACRO 12.5-46.0 17:26 13-JAN-81
UUO.MAC	23-MAR-79 11:42		Symbol cross reference

CURVER	  1332%	  1332
CW	   550#	   615
CW2	   551	   566#
DA	    74#	   336
DASH	   122#	  1281	  1283
DEC2	   741	   746#
DECUUO	    42	   736#
DEFALT	   979#	   979
DISUUO	    48	  1096#
DOLLAR	   124#	   760	   793
DOTCHR	    22#	   949
DULL	  1081%	  1081
DWHY	   292%	   292
ENUUO	    47	  1091#
EOF	   619#
EOLIT	    26#	   189	   762	   796	  1316
ERBUUO	    53	   778#
ERO1	   792#	   801	   812
ERO1A	   776	   780	   784#
ERO2	   799	   802#
EROBPI	   828	  1162#
EROBR	   818	   974#	   982
EROCB	   820	   963#
EROCL	   819	   846#
ERODF	   822	   979#
ERODOT	   949#	   962
ERODT	   825	   926	  1246#
ERODT1	  1248	  1265#
ERODT2	  1264	  1267#
ERODT3	  1250	  1289#
EROFD	   831	   915#
EROFD1	   919	   926#
EROFF	   830	   888#
EROFN	   815	   889	   937#
EROFN1	   945#	   948
EROFN2	   951#	   954
EROIS	  1146#	  1150
EROIS1	  1151#	  1155
EROIS2	  1152	  1156#
EROISC	   827	  1142#
EROMG	   817	   841#
EROPP	   824	   854	   879#
EROSE	   832	  1125#
EROSE2	  1129#	  1134
EROSE3	  1131	  1135#
EROSW	   685#	   754	   766	   767	   784
EROSYS	   829	  1170#
EROTAB	   803	   813#
EROTD	   826	   892#
EROTD2	   895	   910#
EROUF	   823	   930	   932#
EROUFD	   942	   957#
EROUN	   814	   851	   853#	   934
UUO     02/20/74	MACRO 12.5-46.0 17:26 13-JAN-81
UUO.MAC	23-MAR-79 11:42		Symbol cross reference

EROUUO	    51	   782#
EROUY	   838	   849#
EROUZ	   839	   928#
ERRSTP	  1089%	  1089
ERRUUO	    46	  1080#
ERTUUO	    52	   774#
ESCFLG	   146#	   469	  1092	  1096
ESCR	   103%	   470	  1095
ESCTAB	   465	   612#
EX	    74#	   336
F	    13#	   693	   849	   850	   918	   928	   929	  1076	  1247	  1249	  1328
FERR	   103%	   497	  1052
FIL	    18#	   272	   286	   288	   301
FILDI1	   291%	   291
FILHD1	   281%	   281
FILHD2	   279%	   279
FORTY	   107#	   169	   179	   185	   208	   213	   219	   223	   239	   347	   370	   378	   381	   389
	   403	   408	   410	   414	   424	   430	   434	   435	   443	   657	   737	   738	   745	   746
	   756	   787	  1043	  1048	  1053	  1064	  1080
FORTY1	   126#	   127
FS3	   310	   317#
FS4	   317	   318	   319	   320	   321	   322	   323	   324	   325	   330#
FSTD1	  1338#	  1348	  1351
FSTD2	  1331	  1335	  1340#
FSTD3	  1329	  1341	  1345	  1349#
FSTDUL	   853	   894	  1328#
FSTFLG	   850%	   850	   929	  1328
FW	  1144#	  1144	  1148	  1151	  1154	  1176	  1180
GCDUUO	    38	   388#
GCH	   255	   262	   279#	   283	   287	   296
GCH1	   280	   286#
GCH2	   290	   294#
GCHB	   157#	   249	   251	   252	   267	   274	   303
GCI2	   377#	   396
GCIUUO	    37	   369#
GETCHR	   453	   609	   616#
GIVCHR	   601	   641#
IC	    74#	   331	   332	   333	   334	   335	   337	   341	   342	   343	   344	   345
IG	    74#	   331	   332	   345
JIFFPM	  1254%	  1254	  1262
LBRACK	   109#	   879
LBUFF	   136#	   225	   986
LF	   457	   600#
LFCHR	   112#	   456	   505	   532	   602	   663	   688	   703	   716	   722	  1074
LOWERA	   118#	   491
LOWERZ	   119#	   490
LP	    74#	   335	   341
LPAREN	    20#	   869
LPT2	   697#	   709
LPT3	   696	   701#
LPT4	   704	   707	   710#
LPT5	   711	   720#
LPT6	   694	   724#
UUO     02/20/74	MACRO 12.5-46.0 17:26 13-JAN-81
UUO.MAC	23-MAR-79 11:42		Symbol cross reference

LPTCTR	   150#	   697	   705	   710	   713	   723	  1073
LPTFLG	   693%	   693	  1076
LSTPPN	  1340%	  1340
LSTUN1	  1343	  1346%	  1346
LSTUN2	  1347%	  1347
LSTVER	  1342%	  1342
LUDL	  1082%	  1082
MONBMT	  1313#	  1321
MONCNT	  1309#	  1309	  1314
MONPTR	  1307#	  1307	  1311	  1317
MONTAB	  1282	  1292#	  1319
NCV	   492	   496#
NU	    74#	   336	   337	  1206
P	    16#	   128	   148	   149	   159	   160	   161	   162	   163	   164	   165	   166	   168	   181
	   208	   213	   215	   218	   220	   222	   223	   224	   239	   255	   262	   284	   285	   292
	   295	   304	   306	   307	   311	   312	   313	   369	   379	   380	   381	   388	   402	   409
	   411	   412	   413	   415	   416	   417	   423	   429	   431	   432	   433	   441	   442	   453
	   497	   528	   601	   609	   620	   635	   643	   646	   652	   655	   656	   677	   699	   700
	   701	   709	   715	   717	   718	   719	   720	   724	   725	   727	   729	   731	   736	   751
	   752	   768	   769	   770	   771	   774	   778	   782	   786	   805	   810	   811	   843	   851
	   852	   853	   855	   856	   857	   858	   861	   864	   866	   867	   875	   876	   877	   878
	   881	   884	   886	   889	   890	   894	   896	   897	   898	   899	   906	   907	   908	   909
	   913	   920	   925	   926	   927	   930	   931	   932	   934	   935	   937	   955	   956	   958
	   961	   963	   972	   978	   993	   994	   995	  1043	  1048	  1049	  1052	  1057	  1063	  1065
	  1071	  1077	  1078	  1089	  1091	  1094	  1103	  1106	  1107	  1111	  1117	  1119	  1120	  1123
	  1125	  1135	  1136	  1147	  1150	  1156	  1159	  1166	  1170	  1171	  1183	  1184	  1185	  1195
	  1203	  1208	  1212	  1213	  1224	  1235	  1246	  1268	  1269	  1271	  1272	  1276	  1280	  1284
	  1286	  1287	  1288	  1289	  1322	  1338	  1339	  1349	  1350
P12FLG	  1249%	  1249
PO	    74#	   334
PPNUSR	  1349%	  1349
PRD2N	  1190#	  1269	  1272	  1280	  1286
PRDNUM	   816	  1116#	  1119
PRONUM	   821	   881	   884	   958	   961	  1103#	  1106	  1290
PRVCHR	   151#	   698	   702	   721	  1075
PU	    74#	   335	   336
QU	    74#	   338
R0	     5#	   158	   162	   165	   167	   168	   169	   170	   172	   173	   179	   180	   181	   182
	   183	   184	   185	   186	   187	   188	   189	   191	   192	   193	   212	   214	   216	   218
	   219	   220	   221	   222	   225	   226	   227	   228	   229	   234	   257	   258	   264	   265
	   269	   281	   282	   288	   289	   294	   308	   310	   347	   348	   349	   371	   372	   374
	   375	   376	   380	   390	   391	   394	   404	   405	   410	   411	   412	   413	   414	   415
	   425	   427	   430	   431	   432	   433	   434	   444	   445	   446	   447	   448	   449	   454
	   456	   461	   465	   481	   483	   487	   490	   491	   495	   496	   504	   505	   509	   520
	   524	   526	   535	   536	   537	   538	   539	   540	   544	   552	   556	   558	   560	   562
	   563	   568	   570	   574	   579	   580	   581	   582	   584	   585	   586	   588	   593	   595
	   600	   602	   605	   610	   622	   623	   624	   625	   627	   630	   643	   644	   645	   648
	   649	   651	   655	   657	   658	   661	   663	   675	   678	   682	   701	   720	   728	   738
	   739	   742	   743	   744	   759	   760	   761	   762	   764	   770	   789	   790	   791	   792
	   802	   805	   806	   808	   811	   841	   842	   856	   858	   859	   862	   867	   868	   870
	   876	   880	   883	   888	   892	   893	   897	   899	   900	   902	   907	   915	   916	   917
	   922	   924	   932	   933	   935	   936	   938	   945	   946	   947	   951	   952	   953	   957
	   960	   964	   968	   973	   974	   976	   977	   979	   980	   981	   986	   987	   988	   989
UUO     02/20/74	MACRO 12.5-46.0 17:26 13-JAN-81
UUO.MAC	23-MAR-79 11:42		Symbol cross reference

	   990	  1053	  1054	  1056	  1058	  1059	  1061	  1062	  1063	  1064	  1065	  1071	  1077	  1080	  1085
	  1091	  1103	  1104	  1105	  1107	  1108	  1109	  1110	  1116	  1118	  1120	  1121	  1122	  1127
	  1128	  1129	  1146	  1149	  1156	  1157	  1158	  1162	  1163	  1173	  1177	  1178	  1179	  1190
	  1191	  1192	  1204	  1208	  1209	  1210	  1219	  1251	  1253	  1261	  1262	  1265	  1266	  1267
	  1268	  1271	  1274	  1275	  1276	  1278	  1284	  1285	  1305	  1307	  1308	  1309	  1310	  1311
	  1316	  1317	  1330	  1340
R1	     6#	   306	   308	   309	   312	   317	   318	   319	   320	   321	   322	   323	   324	   325
	   369	   370	   371	   372	   375	   376	   377	   378	   379	   388	   389	   390	   391	   393
	   394	   395	   402	   403	   404	   407	   409	   413	   423	   424	   428	   429	   441	   458
	   459	   464	   465	   467	   474	   475	   476	   478	   479	   486	   487	   488	   489	   493
	   494	   498	   499	   501	   502	   508	   509	   511	   512	   513	   514	   516	   517	   519
	   520	   522	   523	   525	   569	   570	   572	   573	   574	   577	   578	   591	   592	   603
	   604	   614	   656	   659	   662	   667	   668	   670	   672	   678	   679	   736	   737	   739
	   740	   742	   744	   746	   751	   753	   755	   756	   757	   758	   759	   769	   774	   775
	   778	   779	   782	   783	   785	   787	   788	   789	   792	   793	   794	   796	   798	   800
	   802	   803	   804	   807	   810	   857	   860	   861	   864	   865	   866	   873	   875	   883
	   892	   893	   898	   901	   905	   906	   910	   912	   916	   917	   921	   923	   940	   941
	   944	   948	   950	   954	   965	   969	   970	   975	   976	  1049	  1050	  1051	  1055	  1057
	  1117	  1129	  1130	  1132	  1133	  1142	  1143	  1144	  1147	  1170	  1172	  1175	  1176	  1179
	  1180	  1181	  1184	  1193	  1194	  1201	  1202	  1203	  1204	  1211	  1218	  1228	  1277	  1279
	  1305	  1306	  1319	  1332	  1334	  1337	  1342	  1344	  1347
R2	     7#	   307	   310	   311	   442	   443	   444	   446	   448	   496	   498	   536	   538	   540
	   544	   552	   556	   560	   588	   752	   768	   786	   788	   806	   809	   848	   855	   862
	   863	   870	   871	   872	   877	   896	   902	   903	   904	   908	   920	   921	   922	   923
	   924	   925	   937	   938	   939	   940	   943	   945	   951	   955	   957	   960	   963	   965
	   966	   967	   969	   972	  1125	  1126	  1134	  1135	  1142	  1145	  1171	  1173	  1174	  1177
	  1182	  1183	  1220	  1230	  1246	  1251	  1252	  1253	  1254	  1255	  1256	  1257	  1258	  1259
	  1263	  1265	  1274	  1278	  1279	  1282	  1287	  1289	  1310	  1312	  1318	  1319	  1320	  1321
R3	     8#
RADIX	  1143#	  1143	  1146
RBRACK	   110#	   885
RDC	   473	   477	   485	   490#	   534	   549	   564	   567	   596	   608	   611
RDC2	   503	   508#
RDC3	   515	   518	   524#
RDDNUM	  1202#
RDL1	   453#	   507	   521	   527	   541	   547	   557	   561	   594	   599
RDMON	  1305#
RDMON1	  1310#	  1315
RDNRET	  1207	  1212#
RDNU1	  1205#	  1211
RDONE	   499	   506	   528#	   589
RDONUM	  1201#
RDTTY	   617	   624#
RDTTY2	   626	   630#
RDUNI	  1218#
RDUUO	    36	   441#
RDX	   463	   468	   472#
RDX1	   460	   464#
RDX2	   462	   469#
RDX3	   480	   486#
RP	    74#	   335	   341
RPAREN	    21#	   874
RST	    19#
UUO     02/20/74	MACRO 12.5-46.0 17:26 13-JAN-81
UUO.MAC	23-MAR-79 11:42		Symbol cross reference

RUB177	   117#	   483
RUBOUT	   116#	   607	   690
RUNI	  1221#	  1231
RUNI1	  1226	  1232#	  1236
SAVBEG	   105#	   131	   133	   622	   644	   648
SAVE1	   137#	   445	   535
SAVE2	   138#	   447	   537
SAVE3	   139#	   449	   539
SAVEND	   106#	   131	   133	   623	   649
SAVESC	   147#	   471	  1093
SAVR1	   131#	   622
SAVR1E	   132#
SAVR2	   133#	   644	   648
SAVR2E	   134#	   645
SCHAR	   153#	   212	   214	   221
SKPT1	   187	   192	   199#
SKPT2	   184	   188	   201#
SP	    74#	   334	  1222	  1233
SPACE	    25#	   350	   558	   562	  1273
SPTR	   135#	   226	   227	   229	   230	   234	   987	   988	   990
SSKELP	   188#	   195
SSKET	   191	   193	   197#
SSKUUO	    49	   178#
STKCNT	   158#	   158	   167	   795	   977	   981
STKPTR	   160	   161#	   161	   163	   164	   166	   975
T12FLG	   918	  1247%	  1247
TAB	   570	   577	   597#
TABLP	   349#	   351
TABUUO	    50	   347#
TCI1	   212#	   241
TCI2	   225#	   235
TCI3	   210	   232#	   243
TCI4	   213#	   236	   253	   260	   270	   276
TCI5	   233	   249#
TCI6	   250	   255#
TCI7	   259	   262#	   266
TCI8	   256	   263	   272#
TCIUUO	    34	   208#
TCLUUO	    35	   239#
TCOLP	   672#	   680
TCOSTA	   665	   670#	   670
TCOTAB	   672	   678	   679	   687#
TCOUU	    41	   655#
TCOUU1	   664	   668#
TCOUU4	   674#	   684	   783
TCOUU5	   675#	   779
TCOUU6	   682#	   753	   775
TCOUU7	   673	   684#	   755	   785
TCOUU8	   678#	   683
TE	    74#	   216	   332	   970	  1223	  1234
TOFCHR	    23#	   695	   708
TR	  1163#	  1163	  1165
TRTFLG	   849%	   849	   928
UUO     02/20/74	MACRO 12.5-46.0 17:26 13-JAN-81
UUO.MAC	23-MAR-79 11:42		Symbol cross reference

TTY2	  1042	  1049#
TTYDON	   629	   632#
TTYFLG	   143#	   451	  1041	  1045
TTYSTA	   142#	   458	   474	   478	   493	   501	   516	   526	   533	   542	   550	   580	   603	   624
	  1061	  1062
TTYUUO	    45	  1041#
TYP1	   759#	   765
TYPUUO	    43	   751#
U	    14#
UARROW	   115#	   530
UNISW	  1087%	  1087	  1090
UNIT	    17#
UUO	   128	   158#
UUOERR	   171	   174#
UUOFLG	     1#	    29	    34	    35	    36	    37	    38	    39	    40	    41	    42	    43	    44	    45
	    46	    47	    48	    49	    50	    51	    52	    53
UUORE1	   373	   392	   406	   666	   681	   747	   769#
UUORE2	   529	   768#
UUORE3	   763	   766#	   797
UUORET	   194	   349	   650	   770#	   996	  1066	  1097
UUOSK1	   382	   416#
UUOSKR	   190	   415#	   426	   436
UUOTAB	    29#	   172
VERPAT	     4#
VERSIO	     3#
WCDUUO	    40	   423#
WCIUUO	    39	   402#
WRTTY	   642	   651#
X	    33#	    34	    34#	    35	    35#	    36	    36#	    37	    37#	    38	    38#	    39	    39#	    40
	    40#	    41	    41#	    42	    42#	    43	    43#	    44	    44#	    45	    45#	    46	    46#	    47
	    47#	    48	    48#	    49	    49#	    50	    50#	    51	    51#	    52	    52#	    53	    53#	   170
YCHR	   111#	   967
UUO     02/20/74	MACRO 12.5-46.0 17:26 13-JAN-81
UUO.MAC	23-MAR-79 11:42		Macro/Opdef cross reference

CHARDO	    55#	    74
CHRDEF	    72#	    74
CLRBFI	   985
CLRIN	    44#	   847	  1086
DATUUO	  1259
DEC	    42#	   395	   435
DISABL	    48#	   619	  1044
ENABLE	    47#	   621	  1047
ERB	    53#
ERO	    51#	   291	   842	  1164
ERROR	    46#	   175	   293	   618	   647	   732	  1229	  1313
ERT	    52#
GCD	    38#	   544	   552	   556	   560
GCI	    37#	   234
GETTAB	  1051
INCHRW	   630
INCHWL	   627
OPD	    30#	    34	    35	    36	    37	    38	    39	    40	    41	    42	    43	    44	    45	    46
	    47	    48	    49	    50	    51	    52	    53
OUTCHR	   530	   531	   532	   546	   548	   554	   566	   598	   607	   651	   675	   682
RDLINE	    36#	   230
SETTTY	    45#	   452	  1046
SSKE	    49#
TAB	    50#
TCI	    34#	   965	   969	  1205	  1221	  1232	  1310
TCL	    35#
TCO	    41#	   350	   764	   800	   869	   872	   874	   879	   882	   885	   904	   911	   947	   949
	   953	   959	  1110	  1122	  1133	  1153	  1158	  1181	  1192	  1194	  1270	  1273	  1281	  1283
TYPE	    43#	  1085	  1260	  1282
WCD	    40#
WCI	    39#	   496	   588O@e