RCDATE - COMMON DATE STUFF FOR REMIND AND SEC	MACRO 12.5-46.0 21:52  2-MAR-81 PAGE 1
RCDATE.MAC	19-JUN-78 15:07

    69				00100	TITLE RCDATE - COMMON DATE STUFF FOR REMIND AND SEC
    70
    71
    72				00400	;DEFINITIONS OF ITEMS
    73			000000	00500	ITMNUM==0
    74			000001	00600	ITMNM1==1
    75			000002	00700	ITMNM2==2
    76			000003	00800	ITMDOT==3
    77			000004	00900	ITMDOW==4
    78			000005	01000	ITMMN==5
    79			000006	01100	ITMOR==6
    80			000007	01200	ITMREF==7
    81			000010	01300	ITMUNT==10
    82			000011	01400	ITMFRV==11
    83			000012	01500	ITMEXC==12
    84			000013	01600	ITMBET==13
    85			000014	01700	ITMAND==14
    86			000015	01800	ITMMON==15
    87			000016	01900	ITMDAY==16
    88			000017	02000	ITMBEF==17
    89			000020	02100	ITMAFT==20
    90			000021	02200	ITMEND==21
    91			000024	02300	ITMTDY==24
    92			000025	02400	ITMYST==25
    93			000026	02500	ITMTMR==26
    94
    95				02700	;NO INTERNAL TO CHECK FOR CONFLICT WITH RDATE
    96				02800	INTERNAL ITMNUM,ITMNM1,ITMNM2,ITMDOT,ITMDOW,ITMMN
    97				02900	INTERNAL ITMOR,ITMREF,ITMUNT,ITMFRV,ITMEXC,ITMBET,ITMAND
    98				03000	INTERNAL ITMMON,ITMDAY,ITMBEF,ITMAFT,ITMEND,ITMTDY,ITMYST,ITMTMR
    99				03100	INTERNAL SVDPTR,GENTDY,YDCNV,GENDAT,PRDAT
   100				03200	INTERNAL MDWDLN,DWDLN3,DWDTB,YEAR,MONTH,DAY,FNDDAT,MTARG
   101				03300	INTERNAL INIDAT,NXTDAT,DATNMB,clralr
   102				03350	internal datcnc,orgref,datwrn,datbuf,datcnt,dattim,dattxt
   103				03400	INTERNAL WKDPTR,MONPTR,PRDAT1,GETNUM,DATREF,DATDL1,LSTTDY,LSTDAT
   104
   105				03600	;IN RCOM
   106				03700	EXTERNAL CPOPJ,CPOPJ1,OUTSIX,OUTNUM
   107				03800	;IN RIO
   108				03900	EXTERNAL RDBUF,BUFDTA,WRTBUF
RCDATE - COMMON DATE STUFF FOR REMIND AND SEC	MACRO 12.5-46.0 21:52  2-MAR-81 PAGE 2
RCDATE.MAC	19-JUN-78 15:07

   109				00010	COMMENT &
   110				00020	THE DATE STRING IS A SERIES OF 5 BIT BYTES AS FOLLOWES
   111
   112				00040	<DOW> STANDS FOR ANY DAY OF THE WEEK (MONDAY, ETC)
   113				00050	<N1>, <N2> ETC. STANDS FOR A NUMBER. A NUMBER IS STORED AS
   114				00060		A SERIES OF 5 BIT FIELDS. THE HIGH ORDER BIT OF
   115				00070		ONE OF THE FIELDS BEING 1 INDICATES MORE FILEDS FOLLOW.
   116				00080		THE FIRST 5 BITS FILED HAS THE LOW ORDER 4 BITS OF
   117				00090		THE NUMBER.
   118				00100	<N'1>, <N'2>, ETC. STANDS FOR A NUMBER WHICH FITS IN 5 BITS.
   119				00110	<MONTH> STANDS FOR THE NAME OF A MONTH.
   120				00120	A MONTH IS STORED WITH JANUARY=1, DECEMBER=12
   121				00130	A DAY OF THE WEEK IS STORED AS SUNDAY=0, SATURDAY=6
   122
   123				00150	BYTE=0 END OF DATE
   124				00160	BYTE=1 USED FOR 'EVERY <N1>TH <DOW>' STORED 1,NUMBER,DOW
   125				00170	BYTE=2 USED FOR 'EVERY <N1> DAYS' STORED 2,NUMBER
   126				00180	BYTE=3 USED FOR 'THE <N'1>TH <DOW> OF EVERY <N2> MONTHS'
   127				00190		STORED AS 3,N'1,DOW,0,NUMBER. IF N'1=0 IT MEANS
   128				00200		'EVERY <DOW> OF EVERY <N2> MONTHS'
   129				00210		ALSO USED FOR 'THE <N'1>TH <DOW> OF <MONTH>'
   130				00220		STORED AS 3,N'1,MONTH
   131				00230	BYTE=4 USED FOR 'THE LAST <DOW> OF EVERY <N2> MONTHS'
   132				00240		STORED AS 4,DOW,0,NUMBER
   133				00250		ALSO USED FOR 'THE LAST <DOW> OF <MONTH>'
   134				00260		STORED AS 4,DOW,MONTH
   135				00270	BYTE=5 USED FOR 'THE <N'1>TH DAY OF EVERY <N2> MONTHS'
   136				00280		STORED AS 5,N'1,0,NUMBER
   137				00290		IF N'1=0 IT MEANS 'EVERY DAY OF EVERY <N2> MONTHS'
   138				00300		ALSO USED FOR 'THE <N'1>TH DAY OF <MONTH>' OR
   139				00310		'<MONTH> <N'1>' STORED AS 5,N'1,MONTH
   140				00320	BYTE=6 USED FOR 'THE LAST DAY OF EVERY <N2> MONTHS'
   141				00330		STORED AS 6,0,NUMBER
   142				00340		ALSO USED FOR 'THE LAST DAY OF <MONTH>
   143				00350		STORED AS 6,MONTH
   144				00360	BYTE=7	USED FOR '<N1> DAYS BEFORE' STORED AS 7,NUMBER
   145				00370	BYTE=8 USED FOR '<N1> DAYS AFTER' STORED AS 8,NUMBER
   146				00380	BYTE=9 USED FOR 'THE <N1>TH <DOW> BEFORE' STORED AS 9,NUMBER,DOW
   147				00390	BYTE=10 USED FOR 'THE <N1>TH <DOW> AFTER'
   148				00400		STORED AS 10,NUMBER,DOW
   149				00410	BYTE=11 USED FOR 'OR' ANOTHER DATE FOLLOWES
   150				00420	BYTE=12 USED FOR 'REFERENCE' ANOTHER DATE FOLLOWES
   151				00430	BYTE=13 USED FOR 'STARTING' ANOTHER DATE FOLLOWES
   152				00440	BYTE=14 USED FOR 'UNTIL' ANOTHER DATE FOLLOWES
   153				00450	BYTE=15 USED FOR 'UNTIL FOREVER'
   154				00460	BYTE=16 USED FOR 'EXCEPT' ANOTHER DATE EXPRESSION FOLLOWES
   155				00470	BYTE=17 USED FOR 'BETWEEN' A DATE EXPRESSION FOLLOWES THEN
   156				00480	BYTE=18 USED FOR 'AND' A DATE EXPRESSION FOLLOWES
   157				00490	BYTE=19 A DATE AS 'JANUARY 25,1972' STORED AS 19,NUMBER
   158				00500		THE NUMBER IS THE NUMBER OF DAYS SINCE JANUARY 1,1964
   159				00510	BYTE=20 USED FOR ( INDICATES NESTING
   160				00520	BYTE=21 USED FOR ) CLOSE NESTING
   161				00530	&
RCDATE - COMMON DATE STUFF FOR REMIND AND SEC	MACRO 12.5-46.0 21:52  2-MAR-81 PAGE 3
RCDATE.MAC	19-JUN-78 15:07

   162				00010		DEFINE DATEB
   163				00020	<	X SUNDAY,ITMDOW,0
   164				00030		X MONDAY,ITMDOW,1
   165				00040		X TUESDAY,ITMDOW,2
   166				00050		X WEDNESDAY,ITMDOW,3
   167				00060		X THURSDAY,ITMDOW,4
   168				00070		X FRIDAY,ITMDOW,5
   169				00080		X SATURDAY,ITMDOW,6
   170				00090		X JANUARY,ITMMN,1
   171				00100		X FEBRUARY,ITMMN,2
   172				00110		X MARCH,ITMMN,3
   173				00120		X APRIL,ITMMN,4
   174				00130		X MAY,ITMMN,5
   175				00140		X JUNE,ITMMN,6
   176				00150		X JULY,ITMMN,7
   177				00160		X AUGUST,ITMMN,8
   178				00170		X SEPTEMBER,ITMMN,9
   179				00180		X OCTOBER,ITMMN,10
   180				00190		X NOVEMBER,ITMMN,11
   181				00200		X DECEMBER,ITMMN,12
   182				00210		X MON,ITMDOW,1
   183				00220		X OR,ITMOR,11
   184				00230		X REFERENCE,ITMREF,12
   185				00240		X BASE,ITMREF,12
   186				00250		X STARTING,ITMREF,13
   187				00260		X ST,-1,-1
   188				00270		X UNTIL,ITMUNT,14
   189				00280		X TODAY,ITMTDY,19
   190				00290		X YESTERDAY,ITMYST,19
   191				00300		X TOMORROW,ITMTMR,19
   192				00310		X FOREVER,ITMFRV,15
   193				00320		X EXCEPT,ITMEXC,16
   194				00330		X BETWEEN,ITMBET,17
   195				00340		X AND,ITMAND,18
   196				00350		X MONTHS,ITMMON,0
   197				00360		X DAYS,ITMDAY,0
   198				00370		X LAST,ITMNM2,0
   199				00380		X END,ITMEND,0
   200				00390		X OTHER,ITMNM1,2
   201				00400		X BEFORE,ITMBEF,0
   202				00410		X AFTER,ITMAFT,0
   203				00420		X FIRST,ITMNUM,1
   204				00430		X SECOND,ITMNUM,2
   205				00440		X THIRD,ITMNUM,3
   206				00450		X FOURTH,ITMNUM,4
   207				00460		X FIFTH,ITMNUM,5
   208				00470		X SIXTH,ITMNUM,6
   209				00480		X SEVENTH,ITMNUM,7
   210				00490		X EIGHTH,ITMNUM,8
   211				00500		X NINTH,ITMNUM,9
   212				00510		X TENTH,ITMNUM,10
   213				00520		X ELEVENTH,ITMNUM,11
   214				00530		X TWELFTH,ITMNUM,12
RCDATE - COMMON DATE STUFF FOR REMIND AND SEC	MACRO 12.5-46.0 21:52  2-MAR-81 PAGE 3-2
RCDATE.MAC	19-JUN-78 15:07

   215				00540		X THIRTEENTH,ITMNUM,13
   216				00550		X FOURTEENTH,ITMNUM,14
   217				00560		X FIFTEENTH,ITMNUM,15
   218				00570		X SIXTEENTH,ITMNUM,16
   219				00580		X SEVENTEENTH,ITMNUM,17
   220				00590		X EIGHTEENTH,ITMNUM,18
   221				00600		X NINETEENTH,ITMNUM,19
   222				00610		X TWENTIETH,ITMNUM,20
   223				00620		X TWENTYFIRST,ITMNUM,21
   224				00630		X TWENTYSECOND,ITMNUM,22
   225				00640		X TWENTYTHIRD,ITMNUM,23
   226				00650		X TWENTYFOURTH,ITMNUM,24
   227				00660		X TWENTYFIFTH,ITMNUM,25
   228				00670		X TWENTYSIXTH,ITMNUM,26
   229				00680		X TWENTYSEVENTH,ITMNUM,27
   230				00690		X TWENTYEIGHTH,ITMNUM,28
   231				00700		X TWENTYNINTH,ITMNUM,29
   232				00710		X THIRTIETH,ITMNUM,30
   233				00720		X THIRTYFIRST,ITMNUM,31>
RCDATE - COMMON DATE STUFF FOR REMIND AND SEC	MACRO 12.5-46.0 21:52  2-MAR-81 PAGE 4
RCDATE.MAC	19-JUN-78 15:07

   234				00010	DWDTB:	TABLE (DATEB)^	DEFINE X(B,C,D,E)
   235					<	WRD (B,0)>
   236	000000'	636556	444171			ZZ1^^
   237	000001'	555756	444171			ZZ1^^
   238	000002'	646545	634441			ZZ1^^
   239	000003'	674544	564563			ZZ1^^
   240	000004'	645065	626344			ZZ1^^
   241	000005'	466251	444171			ZZ1^^
   242	000006'	634164	656244			ZZ1^^
   243	000007'	524156	654162			ZZ1^^
   244	000010'	464542	626541			ZZ1^^
   245	000011'	554162	435000			ZZ1^^
   246	000012'	416062	515400			ZZ1^^
   247	000013'	554171	000000			ZZ1^^
   248	000014'	526556	450000			ZZ1^^
   249	000015'	526554	710000			ZZ1^^
   250	000016'	416547	656364			ZZ1^^
   251	000017'	634560	644555			ZZ1^^
   252	000020'	574364	574245			ZZ1^^
   253	000021'	565766	455542			ZZ1^^
   254	000022'	444543	455542			ZZ1^^
   255	000023'	555756	000000			ZZ1^^
   256	000024'	576200	000000			ZZ1^^
   257	000025'	624546	456245			ZZ1^^
   258	000026'	424163	450000			ZZ1^^
   259	000027'	636441	626451			ZZ1^^
   260	000030'	636400	000000			ZZ1^^
   261	000031'	655664	515400			ZZ1^^
   262	000032'	645744	417100			ZZ1^^
   263	000033'	714563	644562			ZZ1^^
   264	000034'	645755	576262			ZZ1^^
   265	000035'	465762	456645			ZZ1^^
   266	000036'	457043	456064			ZZ1^^
   267	000037'	424564	674545			ZZ1^^
   268	000040'	415644	000000			ZZ1^^
   269	000041'	555756	645063			ZZ1^^
   270	000042'	444171	630000			ZZ1^^
   271	000043'	544163	640000			ZZ1^^
   272	000044'	455644	000000			ZZ1^^
   273	000045'	576450	456200			ZZ1^^
   274	000046'	424546	576245			ZZ1^^
   275	000047'	414664	456200			ZZ1^^
   276	000050'	465162	636400			ZZ1^^
   277	000051'	634543	575644			ZZ1^^
   278	000052'	645051	624400			ZZ1^^
   279	000053'	465765	626450			ZZ1^^
   280	000054'	465146	645000			ZZ1^^
   281	000055'	635170	645000			ZZ1^^
   282	000056'	634566	455664			ZZ1^^
   283	000057'	455147	506450			ZZ1^^
   284	000060'	565156	645000			ZZ1^^
   285	000061'	644556	645000			ZZ1^^
   286	000062'	455445	664556			ZZ1^^
RCDATE - COMMON DATE STUFF FOR REMIND AND SEC	MACRO 12.5-46.0 21:52  2-MAR-81 PAGE 4-2
RCDATE.MAC	19-JUN-78 15:07

   287	000063'	646745	544664			ZZ1^^
   288	000064'	645051	626445			ZZ1^^
   289	000065'	465765	626445			ZZ1^^
   290	000066'	465146	644545			ZZ1^^
   291	000067'	635170	644545			ZZ1^^
   292	000070'	634566	455664			ZZ1^^
   293	000071'	455147	506445			ZZ1^^
   294	000072'	565156	456445			ZZ1^^
   295	000073'	646745	566451			ZZ1^^
   296	000074'	646745	566471			ZZ1^^
   297	000075'	646745	566471			ZZ1^^
   298	000076'	646745	566471			ZZ1^^
   299	000077'	646745	566471			ZZ1^^
   300	000100'	646745	566471			ZZ1^^
   301	000101'	646745	566471			ZZ1^^
   302	000102'	646745	566471			ZZ1^^
   303	000103'	646745	566471			ZZ1^^
   304	000104'	646745	566471			ZZ1^^
   305	000105'	645051	626451			ZZ1^^
   306	000106'	645051	626471			ZZ1^^^
   307	000107'	000000	000000			ZZ1^^
   308	000110'	000000	000000			ZZ1^^
   309	000111'	710000	000000			ZZ1^^
   310	000112'	444171	000000			ZZ1^^
   311	000113'	417100	000000			ZZ1^^
   312	000114'	000000	000000			ZZ1^^
   313	000115'	417100	000000			ZZ1^^
   314	000116'	710000	000000			ZZ1^^
   315	000117'	627100	000000			ZZ1^^
   316	000120'	000000	000000			ZZ1^^
   317	000121'	000000	000000			ZZ1^^
   318	000122'	000000	000000			ZZ1^^
   319	000123'	000000	000000			ZZ1^^
   320	000124'	000000	000000			ZZ1^^
   321	000125'	000000	000000			ZZ1^^
   322	000126'	424562	000000			ZZ1^^
   323	000127'	620000	000000			ZZ1^^
   324	000130'	456200	000000			ZZ1^^
   325	000131'	456200	000000			ZZ1^^
   326	000132'	000000	000000			ZZ1^^
   327	000133'	000000	000000			ZZ1^^
   328	000134'	564345	000000			ZZ1^^
   329	000135'	000000	000000			ZZ1^^
   330	000136'	564700	000000			ZZ1^^
   331	000137'	000000	000000			ZZ1^^
   332	000140'	000000	000000			ZZ1^^
   333	000141'	000000	000000			ZZ1^^
   334	000142'	444171	000000			ZZ1^^
   335	000143'	576700	000000			ZZ1^^
   336	000144'	620000	000000			ZZ1^^
   337	000145'	000000	000000			ZZ1^^
   338	000146'	560000	000000			ZZ1^^
   339	000147'	000000	000000			ZZ1^^
RCDATE - COMMON DATE STUFF FOR REMIND AND SEC	MACRO 12.5-46.0 21:52  2-MAR-81 PAGE 4-3
RCDATE.MAC	19-JUN-78 15:07

   340	000150'	000000	000000			ZZ1^^
   341	000151'	000000	000000			ZZ1^^
   342	000152'	000000	000000			ZZ1^^
   343	000153'	000000	000000			ZZ1^^
   344	000154'	000000	000000			ZZ1^^
   345	000155'	000000	000000			ZZ1^^
   346	000156'	000000	000000			ZZ1^^
   347	000157'	000000	000000			ZZ1^^
   348	000160'	000000	000000			ZZ1^^
   349	000161'	000000	000000			ZZ1^^
   350	000162'	000000	000000			ZZ1^^
   351	000163'	000000	000000			ZZ1^^
   352	000164'	000000	000000			ZZ1^^
   353	000165'	500000	000000			ZZ1^^
   354	000166'	000000	000000			ZZ1^^
   355	000167'	000000	000000			ZZ1^^
   356	000170'	000000	000000			ZZ1^^
   357	000171'	645000	000000			ZZ1^^
   358	000172'	500000	000000			ZZ1^^
   359	000173'	455664	500000			ZZ1^^
   360	000174'	455664	500000			ZZ1^^
   361	000175'	566450	000000			ZZ1^^
   362	000176'	566450	000000			ZZ1^^
   363	000177'	454556	645000			ZZ1^^
   364	000200'	455664	500000			ZZ1^^
   365	000201'	455664	500000			ZZ1^^
   366	000202'	456450	000000			ZZ1^^
   367	000203'	465162	636400			ZZ1^^
   368	000204'	634543	575644			ZZ1^^
   369	000205'	645051	624400			ZZ1^^
   370	000206'	465765	626450			ZZ1^^
   371	000207'	465146	645000			ZZ1^^
   372	000210'	635170	645000			ZZ1^^
   373	000211'	634566	455664			ZZ1^^
   374	000212'	455147	506450			ZZ1^^
   375	000213'	565156	645000			ZZ1^^
   376	000214'	456450	000000			ZZ1^^
   377	000215'	465162	636400			ZZ1^^^
   378	000216'	000000	000000			ZZ1^^
   379	000217'	000000	000000			ZZ1^^
   380	000220'	000000	000000			ZZ1^^
   381	000221'	000000	000000			ZZ1^^
   382	000222'	000000	000000			ZZ1^^
   383	000223'	000000	000000			ZZ1^^
   384	000224'	000000	000000			ZZ1^^
   385	000225'	000000	000000			ZZ1^^
   386	000226'	000000	000000			ZZ1^^
   387	000227'	000000	000000			ZZ1^^
   388	000230'	000000	000000			ZZ1^^
   389	000231'	000000	000000			ZZ1^^
   390	000232'	000000	000000			ZZ1^^
   391	000233'	000000	000000			ZZ1^^
   392	000234'	000000	000000			ZZ1^^
RCDATE - COMMON DATE STUFF FOR REMIND AND SEC	MACRO 12.5-46.0 21:52  2-MAR-81 PAGE 4-4
RCDATE.MAC	19-JUN-78 15:07

   393	000235'	000000	000000			ZZ1^^
   394	000236'	000000	000000			ZZ1^^
   395	000237'	000000	000000			ZZ1^^
   396	000240'	000000	000000			ZZ1^^
   397	000241'	000000	000000			ZZ1^^
   398	000242'	000000	000000			ZZ1^^
   399	000243'	000000	000000			ZZ1^^
   400	000244'	000000	000000			ZZ1^^
   401	000245'	000000	000000			ZZ1^^
   402	000246'	000000	000000			ZZ1^^
   403	000247'	000000	000000			ZZ1^^
   404	000250'	000000	000000			ZZ1^^
   405	000251'	000000	000000			ZZ1^^
   406	000252'	000000	000000			ZZ1^^
   407	000253'	000000	000000			ZZ1^^
   408	000254'	000000	000000			ZZ1^^
   409	000255'	000000	000000			ZZ1^^
   410	000256'	000000	000000			ZZ1^^
   411	000257'	000000	000000			ZZ1^^
   412	000260'	000000	000000			ZZ1^^
   413	000261'	000000	000000			ZZ1^^
   414	000262'	000000	000000			ZZ1^^
   415	000263'	000000	000000			ZZ1^^
   416	000264'	000000	000000			ZZ1^^
   417	000265'	000000	000000			ZZ1^^
   418	000266'	000000	000000			ZZ1^^
   419	000267'	000000	000000			ZZ1^^
   420	000270'	000000	000000			ZZ1^^
   421	000271'	000000	000000			ZZ1^^
   422	000272'	000000	000000			ZZ1^^
   423	000273'	000000	000000			ZZ1^^
   424	000274'	000000	000000			ZZ1^^
   425	000275'	000000	000000			ZZ1^^
   426	000276'	000000	000000			ZZ1^^
   427	000277'	000000	000000			ZZ1^^
   428	000300'	000000	000000			ZZ1^^
   429	000301'	000000	000000			ZZ1^^
   430	000302'	000000	000000			ZZ1^^
   431	000303'	000000	000000			ZZ1^^
   432	000304'	000000	000000			ZZ1^^
   433	000305'	000000	000000			ZZ1^^
   434	000306'	000000	000000			ZZ1^^
   435	000307'	000000	000000			ZZ1^^
   436	000310'	000000	000000			ZZ1^^
   437	000311'	000000	000000			ZZ1^^
   438	000312'	000000	000000			ZZ1^^
   439	000313'	000000	000000			ZZ1^^
   440	000314'	000000	000000			ZZ1^^
   441	000315'	000000	000000			ZZ1^^
   442	000316'	000000	000000			ZZ1^^
   443	000317'	000000	000000			ZZ1^^
   444	000320'	500000	000000			ZZ1^^
   445	000321'	000000	000000			ZZ1^^
RCDATE - COMMON DATE STUFF FOR REMIND AND SEC	MACRO 12.5-46.0 21:52  2-MAR-81 PAGE 4-5
RCDATE.MAC	19-JUN-78 15:07

   446	000322'	000000	000000			ZZ1^^
   447	000323'	000000	000000			ZZ1^^
   448	000324'	000000	000000			ZZ1^^^
   449			000325'	00020	DWDLN==.
   450				00030		DEFINE X(A,B,C)
   451				00040	<	XWD ^D'C,B>
   452	000325'	000000	000004	00050		DATEB^	X SUNDAY,ITMDOW,0^	XWD ^D0,ITMDOW^
   453	000326'	000001	000004			X MONDAY,ITMDOW,1^	XWD ^D1,ITMDOW^
   454	000327'	000002	000004			X TUESDAY,ITMDOW,2^	XWD ^D2,ITMDOW^
   455	000330'	000003	000004			X WEDNESDAY,ITMDOW,3^	XWD ^D3,ITMDOW^
   456	000331'	000004	000004			X THURSDAY,ITMDOW,4^	XWD ^D4,ITMDOW^
   457	000332'	000005	000004			X FRIDAY,ITMDOW,5^	XWD ^D5,ITMDOW^
   458	000333'	000006	000004			X SATURDAY,ITMDOW,6^	XWD ^D6,ITMDOW^
   459	000334'	000001	000005			X JANUARY,ITMMN,1^	XWD ^D1,ITMMN^
   460	000335'	000002	000005			X FEBRUARY,ITMMN,2^	XWD ^D2,ITMMN^
   461	000336'	000003	000005			X MARCH,ITMMN,3^	XWD ^D3,ITMMN^
   462	000337'	000004	000005			X APRIL,ITMMN,4^	XWD ^D4,ITMMN^
   463	000340'	000005	000005			X MAY,ITMMN,5^	XWD ^D5,ITMMN^
   464	000341'	000006	000005			X JUNE,ITMMN,6^	XWD ^D6,ITMMN^
   465	000342'	000007	000005			X JULY,ITMMN,7^	XWD ^D7,ITMMN^
   466	000343'	000010	000005			X AUGUST,ITMMN,8^	XWD ^D8,ITMMN^
   467	000344'	000011	000005			X SEPTEMBER,ITMMN,9^	XWD ^D9,ITMMN^
   468	000345'	000012	000005			X OCTOBER,ITMMN,10^	XWD ^D10,ITMMN^
   469	000346'	000013	000005			X NOVEMBER,ITMMN,11^	XWD ^D11,ITMMN^
   470	000347'	000014	000005			X DECEMBER,ITMMN,12^	XWD ^D12,ITMMN^
   471	000350'	000001	000004			X MON,ITMDOW,1^	XWD ^D1,ITMDOW^
   472	000351'	000013	000006			X OR,ITMOR,11^	XWD ^D11,ITMOR^
   473	000352'	000014	000007			X REFERENCE,ITMREF,12^	XWD ^D12,ITMREF^
   474	000353'	000014	000007			X BASE,ITMREF,12^	XWD ^D12,ITMREF^
   475	000354'	000015	000007			X STARTING,ITMREF,13^	XWD ^D13,ITMREF^
   476	000355'	777777	777777			X ST,-1,-1^	XWD ^D-1,-1^
   477	000356'	000016	000010			X UNTIL,ITMUNT,14^	XWD ^D14,ITMUNT^
   478	000357'	000023	000024			X TODAY,ITMTDY,19^	XWD ^D19,ITMTDY^
   479	000360'	000023	000025			X YESTERDAY,ITMYST,19^	XWD ^D19,ITMYST^
   480	000361'	000023	000026			X TOMORROW,ITMTMR,19^	XWD ^D19,ITMTMR^
   481	000362'	000017	000011			X FOREVER,ITMFRV,15^	XWD ^D15,ITMFRV^
   482	000363'	000020	000012			X EXCEPT,ITMEXC,16^	XWD ^D16,ITMEXC^
   483	000364'	000021	000013			X BETWEEN,ITMBET,17^	XWD ^D17,ITMBET^
   484	000365'	000022	000014			X AND,ITMAND,18^	XWD ^D18,ITMAND^
   485	000366'	000000	000015			X MONTHS,ITMMON,0^	XWD ^D0,ITMMON^
   486	000367'	000000	000016			X DAYS,ITMDAY,0^	XWD ^D0,ITMDAY^
   487	000370'	000000	000002			X LAST,ITMNM2,0^	XWD ^D0,ITMNM2^
   488	000371'	000000	000021			X END,ITMEND,0^	XWD ^D0,ITMEND^
   489	000372'	000002	000001			X OTHER,ITMNM1,2^	XWD ^D2,ITMNM1^
   490	000373'	000000	000017			X BEFORE,ITMBEF,0^	XWD ^D0,ITMBEF^
   491	000374'	000000	000020			X AFTER,ITMAFT,0^	XWD ^D0,ITMAFT^
   492	000375'	000001	000000			X FIRST,ITMNUM,1^	XWD ^D1,ITMNUM^
   493	000376'	000002	000000			X SECOND,ITMNUM,2^	XWD ^D2,ITMNUM^
   494	000377'	000003	000000			X THIRD,ITMNUM,3^	XWD ^D3,ITMNUM^
   495	000400'	000004	000000			X FOURTH,ITMNUM,4^	XWD ^D4,ITMNUM^
   496	000401'	000005	000000			X FIFTH,ITMNUM,5^	XWD ^D5,ITMNUM^
   497	000402'	000006	000000			X SIXTH,ITMNUM,6^	XWD ^D6,ITMNUM^
   498	000403'	000007	000000			X SEVENTH,ITMNUM,7^	XWD ^D7,ITMNUM^
RCDATE - COMMON DATE STUFF FOR REMIND AND SEC	MACRO 12.5-46.0 21:52  2-MAR-81 PAGE 4-6
RCDATE.MAC	19-JUN-78 15:07

   499	000404'	000010	000000			X EIGHTH,ITMNUM,8^	XWD ^D8,ITMNUM^
   500	000405'	000011	000000			X NINTH,ITMNUM,9^	XWD ^D9,ITMNUM^
   501	000406'	000012	000000			X TENTH,ITMNUM,10^	XWD ^D10,ITMNUM^
   502	000407'	000013	000000			X ELEVENTH,ITMNUM,11^	XWD ^D11,ITMNUM^
   503	000410'	000014	000000			X TWELFTH,ITMNUM,12^	XWD ^D12,ITMNUM^
   504	000411'	000015	000000			X THIRTEENTH,ITMNUM,13^	XWD ^D13,ITMNUM^
   505	000412'	000016	000000			X FOURTEENTH,ITMNUM,14^	XWD ^D14,ITMNUM^
   506	000413'	000017	000000			X FIFTEENTH,ITMNUM,15^	XWD ^D15,ITMNUM^
   507	000414'	000020	000000			X SIXTEENTH,ITMNUM,16^	XWD ^D16,ITMNUM^
   508	000415'	000021	000000			X SEVENTEENTH,ITMNUM,17^	XWD ^D17,ITMNUM^
   509	000416'	000022	000000			X EIGHTEENTH,ITMNUM,18^	XWD ^D18,ITMNUM^
   510	000417'	000023	000000			X NINETEENTH,ITMNUM,19^	XWD ^D19,ITMNUM^
   511	000420'	000024	000000			X TWENTIETH,ITMNUM,20^	XWD ^D20,ITMNUM^
   512	000421'	000025	000000			X TWENTYFIRST,ITMNUM,21^	XWD ^D21,ITMNUM^
   513	000422'	000026	000000			X TWENTYSECOND,ITMNUM,22^	XWD ^D22,ITMNUM^
   514	000423'	000027	000000			X TWENTYTHIRD,ITMNUM,23^	XWD ^D23,ITMNUM^
   515	000424'	000030	000000			X TWENTYFOURTH,ITMNUM,24^	XWD ^D24,ITMNUM^
   516	000425'	000031	000000			X TWENTYFIFTH,ITMNUM,25^	XWD ^D25,ITMNUM^
   517	000426'	000032	000000			X TWENTYSIXTH,ITMNUM,26^	XWD ^D26,ITMNUM^
   518	000427'	000033	000000			X TWENTYSEVENTH,ITMNUM,27^	XWD ^D27,ITMNUM^
   519	000430'	000034	000000			X TWENTYEIGHTH,ITMNUM,28^	XWD ^D28,ITMNUM^
   520	000431'	000035	000000			X TWENTYNINTH,ITMNUM,29^	XWD ^D29,ITMNUM^
   521	000432'	000036	000000			X THIRTIETH,ITMNUM,30^	XWD ^D30,ITMNUM^
   522	000433'	000037	000000			X THIRTYFIRST,ITMNUM,31^	XWD ^D31,ITMNUM^^
   523			000107	00060	DWDLN==.-DWDLN
   524
   525			000000'	00080	WKDPTR==DWDTB
   526			000007'	00090	MONPTR==DWDTB+7
   527
   528		777777	777671	00110	MDWDLN==-DWDLN
   529			000325	00120	DWDLN3==DWDLN*3
RCDATE - COMMON DATE STUFF FOR REMIND AND SEC	MACRO 12.5-46.0 21:52  2-MAR-81 PAGE 5
RCDATE.MAC	19-JUN-78 15:07

   530	000434'	200040	002437'	00010	YDCNV:	MOVE T1,YEAR#
   531	000435'	301040	003554	00020		CAIL T1,^D1900
   532	000436'	275040	003554	00030		SUBI T1,^D1900
   533	000437'	275040	000100	00040		SUBI T1,^D64
   534	000440'	321040	000000*	00050		JUMPL T1,CPOPJ
   535	000441'	200100	000001	00060		MOVE T2,T1
   536	000442'	405100	000003	00070		ANDI T2,3
   537	000443'	202100	002421'	00080		MOVEM T2,LEAP#	;FLAG FOR LEAP YEARS
   538	000444'	201100	000555	00090		MOVEI T2,^D365
   539	000445'	220100	000001	00100		IMUL T2,T1
   540	000446'	271040	000003	00110		ADDI T1,3
   541	000447'	242040	777776	00120		LSH T1,-2
   542	000450'	270040	000002	00130		ADD T1,T2	;COMPENSATE FOR LEAP YEARS
   543	000451'	200100	002422'	00140		MOVE T2,MONTH#
   544	000452'	303100	000014	00150		CAILE T2,^D12
   545	000453'	263740	000000	00160		POPJ P,
   546	000454'	270042	000472'	00170		ADD T1,MONTAB-1(T2)
   547	000455'	303100	000002	00180		CAILE T2,2
   548	000456'	332000	002421'	00190		SKIPE LEAP
   549	000457'	334000	000000	00200		SKIPA
   550	000460'	271040	000001	00210		ADDI T1,1
   551	000461'	200140	002417'	00220		MOVE T3,DAY#
   552	000462'	271043	777777	00230		ADDI T1,-1(T3)
   553	000463'	317142	000524'	00240		CAMG T3,MONDAY-1(T2)
   554	000464'	254000	000000*	00250		JRST CPOPJ1
   555	000465'	306100	000002	00260		CAIN T2,2
   556	000466'	332000	002421'	00270		SKIPE LEAP	;WORRY ABOUT FEB 29
   557	000467'	263740	000000	00280		POPJ P,
   558	000470'	306140	000035	00290		CAIN T3,^D29
   559	000471'	350017	000000	00300		AOS (P)
   560	000472'	263740	000000	00310		POPJ P,
   561
   562				00330		DEFINE MSIZE
   563				00340	<X <31,28,31,30,31,30,31,31,30,31,30,31>>
   564
   565				00360		DEFINE X (A)
   566				00370	<ZZ==0
   567				00380	IRP A,<	ZZ==ZZ+^D'A
   568				00390		ZZ>>
   569
   570	000473'	000000	000000	00410	MONTAB:	0
   571			000000	00420		MSIZE^X <31,28,31,30,31,30,31,31,30,31,30,31>^ZZ==0
   572	000474'	000000	000037			ZZ
   573	000475'	000000	000073			ZZ
   574	000476'	000000	000132			ZZ
   575	000477'	000000	000170			ZZ
   576	000500'	000000	000227			ZZ
   577	000501'	000000	000265			ZZ
   578	000502'	000000	000324			ZZ
   579	000503'	000000	000363			ZZ
   580	000504'	000000	000421			ZZ
   581	000505'	000000	000460			ZZ
   582	000506'	000000	000516			ZZ
RCDATE - COMMON DATE STUFF FOR REMIND AND SEC	MACRO 12.5-46.0 21:52  2-MAR-81 PAGE 5-2
RCDATE.MAC	19-JUN-78 15:07

   583	000507'	000000	000555			ZZ
   584
   585	000510'	000000	000000	00440	MONTB2:	0
   586			000000	00450		X <31,29,31,30,31,30,31,31,30,31,30,31>^ZZ==0
   587	000511'	000000	000037			ZZ
   588	000512'	000000	000074			ZZ
   589	000513'	000000	000133			ZZ
   590	000514'	000000	000171			ZZ
   591	000515'	000000	000230			ZZ
   592	000516'	000000	000266			ZZ
   593	000517'	000000	000325			ZZ
   594	000520'	000000	000364			ZZ
   595	000521'	000000	000422			ZZ
   596	000522'	000000	000461			ZZ
   597	000523'	000000	000517			ZZ
   598	000524'	000000	000556			ZZ
   599
   600				00470		DEFINE X(A)
   601				00480	<IRP A,<^D'A>>
   602
   603	000525'			00500	MONDAY:	MSIZE^X <31,28,31,30,31,30,31,31,30,31,30,31>^IRP
   604	000525'	000000	000037		^D31
   605	000526'	000000	000034		^D28
   606	000527'	000000	000037		^D31
   607	000530'	000000	000036		^D30
   608	000531'	000000	000037		^D31
   609	000532'	000000	000036		^D30
   610	000533'	000000	000037		^D31
   611	000534'	000000	000037		^D31
   612	000535'	000000	000036		^D30
   613	000536'	000000	000037		^D31
   614	000537'	000000	000036		^D30
   615	000540'	000000	000037		^D31
   616
RCDATE - COMMON DATE STUFF FOR REMIND AND SEC	MACRO 12.5-46.0 21:52  2-MAR-81 PAGE 6
RCDATE.MAC	19-JUN-78 15:07

   617	000541'	047040	000014	00010	GENTDY:	DATE T1,
   618	000542'	231040	000037	00020		IDIVI T1,^D31
   619	000543'	271100	000001	00030		ADDI T2,1
   620	000544'	202100	002417'	00040		MOVEM T2,DAY
   621	000545'	231040	000014	00050		IDIVI T1,^D12
   622	000546'	271100	000001	00060		ADDI T2,1
   623	000547'	202100	002422'	00070		MOVEM T2,MONTH
   624	000550'	271040	000100	00080		ADDI T1,^D64
   625	000551'	202040	002437'	00090		MOVEM T1,YEAR
   626	000552'	260740	000434'	00100		PUSHJ P,YDCNV
   627	000553'	254000	000724'	00110		 JRST SYSERR
   628	000554'	263740	000000	00120		POPJ P,
RCDATE - COMMON DATE STUFF FOR REMIND AND SEC	MACRO 12.5-46.0 21:52  2-MAR-81 PAGE 7
RCDATE.MAC	19-JUN-78 15:07

   629	000555'	261740	000001	00010	PRDAT1:	PUSH P,T1	;SAVE DATE (FOR GETTING WEEKDAY
   630	000556'	260740	000602'	00020		PUSHJ P,BREAK	;BREAK IT UP
   631	000557'	200140	002422'	00030		MOVE T3,MONTH	;GET THE MONTH
   632	000560'	270140	002440'	00040		ADD T3,[XWD -DWDLN,MONPTR-1]
   633	000561'	260740	000000*	00050		PUSHJ P,OUTSIX
   634	000562'	051700	000040	00060		OUTCHI " "
   635	000563'	200140	002417'	00070		MOVE T3,DAY
   636	000564'	260740	000000*	00080		PUSHJ P,OUTNUM
   637	000565'	051700	000054	00085		OUTCHI	","
   638	000566'	200140	002437'	00100		MOVE T3,YEAR
   639	000567'	271140	003554	00110		ADDI T3,^D1900
   640	000570'	260740	000564*	00120		PUSHJ P,OUTNUM
   641	000571'	262740	000001	00130		POP P,T1
   642	000572'	263740	000000	00140		POPJ P,
   643
   644	000573'	260740	000555'	00160	PRDAT:	PUSHJ P,PRDAT1
   645	000574'	051040	002441'	00170		OUTCHR [" "]
   646	000575'	271040	000003	00180		ADDI T1,3
   647	000576'	231040	000007	00190		IDIVI T1,7
   648	000577'	200140	000002	00200		MOVE T3,T2
   649	000600'	270140	002442'	00210		ADD T3,[XWD -DWDLN,WKDPTR]
   650	000601'	254000	000561*	00220		JRST OUTSIX
RCDATE - COMMON DATE STUFF FOR REMIND AND SEC	MACRO 12.5-46.0 21:52  2-MAR-81 PAGE 8
RCDATE.MAC	19-JUN-78 15:07

   651				00010	;BREAK UP A DATE
   652
   653	000602'	231040	002665	00030	BREAK:	IDIVI T1,^D<365*4+1>	;NUMBER OF LEAP YEARS
   654	000603'	221040	000004	00040		IMULI T1,4
   655	000604'	271040	000100	00050		ADDI T1,^D64
   656	000605'	202040	002437'	00060		MOVEM T1,YEAR
   657	000606'	200040	000002	00070		MOVE T1,T2
   658	000607'	305040	000556	00080		CAIGE T1,^D366
   659	000610'	254000	000617'	00090		JRST BREAK1	;T2 STILL HAS NUMBER. ITS A LEAP YEAR
   660	000611'	275040	000556	00100		SUBI T1,^D366	;GET TO NEXT YEAR
   661	000612'	350000	002437'	00110		AOS YEAR
   662	000613'	231040	000555	00120		IDIVI T1,^D365
   663	000614'	272040	002437'	00130		ADDM T1,YEAR
   664	000615'	201140	000474'	00140		MOVEI T3,MONTAB+1
   665	000616'	334000	000000	00150		SKIPA
   666	000617'	201140	000511'	00160	BREAK1:	MOVEI T3,MONTB2+1
   667	000620'	505140	000001	00170		HRLI T3,T1
   668	000621'	205040	777764	00180		MOVSI T1,-^D12
   669	000622'	311120	000003	00190		CAML T2,@T3	;FIND CORRECT MONTH
   670	000623'	253040	000622'	00200		AOBJN T1,.-1
   671	000624'	552040	002422'	00210		HRRZM T1,MONTH
   672	000625'	350000	002422'	00220		AOS MONTH
   673	000626'	275140	000001	00230		SUBI T3,1
   674	000627'	274120	000003	00240		SUB T2,@T3
   675	000630'	271100	000001	00250		ADDI T2,1
   676	000631'	202100	002417'	00260		MOVEM T2,DAY
   677	000632'	263740	000000	00270		POPJ P,
   678
   679	000633'	261740	000001	00290	GETNUM:	PUSH P,T1
   680	000634'	261740	000002	00300		PUSH P,T2
   681	000635'	201100	000000	00310		MOVEI T2,0
   682	000636'	201300	000000	00320		MOVEI CODE,0
   683	000637'	134040	000011	00330	GTNM1:	ILDB T1,DPTR
   684	000640'	626040	000020	00340		TRZN T1,20
   685	000641'	254000	000646'	00350		JRST GTNMFN	;LAST PART
   686	000642'	241300	777774	00360		ROT CODE,-4
   687	000643'	271100	000004	00370		ADDI T2,4	;SAVE UP AMOUNT TO REROTATE
   688	000644'	434300	000001	00380		IOR CODE,T1
   689	000645'	254000	000637'	00390		JRST GTNM1
   690	000646'	241300	777774	00400	GTNMFN:	ROT CODE,-4
   691	000647'	434300	000001	00410		IOR CODE,T1
   692	000650'	241302	000000	00420		ROT CODE,(T2)
   693	000651'	262740	000002	00430		POP P,T2
   694	000652'	262740	000001	00440		POP P,T1
   695	000653'	263740	000000	00450		POPJ P,
RCDATE - COMMON DATE STUFF FOR REMIND AND SEC	MACRO 12.5-46.0 21:52  2-MAR-81 PAGE 9
RCDATE.MAC	19-JUN-78 15:07

   696	000654'	201040	001750	00010	GENDAT:	MOVEI T1,^D1000
   697	000655'	202040	002436'	00020		MOVEM T1,XCPCNT#	;SAVE A COUNTER FOR EXCEPT TRYS
   698	000656'	200040	002416'	00030		MOVE T1,DATREF
   699	000657'	202040	002424'	00040		MOVEM T1,REFRN0#	;THING TO RESET FROM ON EXCEPT
   700	000660'	200040	002423'	00050		MOVE T1,MTARG#		;FAILURE
   701	000661'	202040	002427'	00060		MOVEM T1,STRTN0#
   702	000662'	201040	777777	00070		MOVEI T1,-1
   703	000663'	202040	002434'	00080		MOVEM T1,UNTDT0#
   704	000664'	200440	002431'	00090	GENDT2:	MOVE DPTR,SVDPTR#
   705	000665'	200040	002424'	00100		MOVE T1,REFRN0
   706	000666'	202040	002425'	00110		MOVEM T1,REFRNC#
   707	000667'	200040	002427'	00120		MOVE T1,STRTN0
   708	000670'	202040	002430'	00130		MOVEM T1,STRTNG#
   709	000671'	200040	002434'	00140		MOVE T1,UNTDT0
   710	000672'	202040	002435'	00150		MOVEM T1,UNTLDT#
   711	000673'	620000	000140	00160		TRZ FL,FRDATE!FBEF
   712
   713	000674'			00180	GENOR:
   714	000674'	134340	000011	00190	GENDT1:	ILDB ITEM,DPTR
   715	000675'	256007	000676'	00200		XCT GENTAB(ITEM)
   716
   717	000676'	254000	000771'	00220	GENTAB:	JRST GENEND	;END OF DATE
   718	000677'	254000	000746'	00230		JRST GENSUB	;ONE OF THE DATE ELEMENTS
   719	000700'	254000	000746'	00240		JRST GENSUB
   720	000701'	254000	000746'	00250		JRST GENSUB
   721	000702'	254000	000746'	00260		JRST GENSUB
   722	000703'	254000	000746'	00270		JRST GENSUB
   723	000704'	254000	000746'	00280		JRST GENSUB
   724	000705'	254000	000746'	00290		JRST GENSUB
   725	000706'	254000	000746'	00300		JRST GENSUB
   726	000707'	254000	000746'	00310		JRST GENSUB
   727	000710'	254000	000746'	00320		JRST GENSUB
   728	000711'	254000	000674'	00330		JRST GENOR	;OR
   729	000712'	254000	000755'	00340		JRST GENREF	;REFERENCE
   730	000713'	254000	000761'	00350		JRST GENSTR	;STARTING
   731	000714'	254000	000765'	00360		JRST GENUNT	;UNTIL
   732	000715'	254000	000726'	00370		JRST GENFRV	;UNTIL FOREVER
   733	000716'	254000	000775'	00380		JRST GENXCP	;EXCEPT
   734	000717'	254000	001016'	00390		JRST GENBET	;BETWEEN
   735	000720'	254000	000724'	00400		JRST SYSERR	;AND
   736	000721'	254000	000731'	00410		JRST GENRDT	;A REAL DATE
   737	000722'	254000	000746'	00420		JRST GENSUB		;(
   738	000723'	254000	000771'	00430		JRST GENRPR	;)
   739
   740				00450	SYSERR:	OUTSTR [ASCIZ /
   741	000724'	051140	002443'	00460	Error in date generator./]
   742	000725'	047000	000012	00470		EXIT
   743
   744	000726'	201040	777777	00490	GENFRV:	MOVEI T1,-1
   745	000727'	202040	002435'	00500		MOVEM T1,UNTLDT
   746	000730'	254000	000674'	00510		JRST GENDT1
RCDATE - COMMON DATE STUFF FOR REMIND AND SEC	MACRO 12.5-46.0 21:52  2-MAR-81 PAGE 10
RCDATE.MAC	19-JUN-78 15:07

   747	000731'	260740	000633'	00010	GENRDT:	PUSHJ P,GETNUM	;GET A NUMBER FROM THE STRING
   748	000732'	200040	000006	00020		MOVE T1,CODE
   749	000733'	602000	000100	00030	GENSAV:	TRNE FL,FBEF
   750	000734'	254000	001145'	00040		JRST GENSVB	;SPECIAL CHECKING IF WANT BEFORE
   751	000735'	311040	002423'	00050		CAML T1,MTARG
   752	000736'	315040	002430'	00060		CAMGE T1,STRTNG	;MAKE SURE ITS LATE ENOUGH
   753	000737'	254000	000674'	00070		JRST GENDT1	;NO
   754	000740'	313040	002435'	00080		CAMLE T1,UNTLDT	;AND EARLY ENOUGH
   755	000741'	254000	000674'	00090		JRST GENDT1
   756	000742'	662000	000040	00100		TROE FL,FRDATE		;FLAG AS SEEN
   757	000743'	315040	002420'	00110		CAMGE T1,FNDDAT#	;IF NOT FIRS IS IT EARLIER
   758	000744'	202040	002420'	00120		MOVEM T1,FNDDAT	;FIRST OR EARLIEST
   759	000745'	254000	000674'	00130		JRST GENDT1
   760
   761	000746'	200040	002423'	00150	GENSUB:	MOVE T1,MTARG
   762	000747'	315040	002430'	00160		CAMGE T1,STRTNG	;GET MAX OF 'TODAY' AND STARTING
   763	000750'	200040	002430'	00170		MOVE T1,STRTNG
   764	000751'	202040	002432'	00180		MOVEM T1,TARGET#	;SET TARGET DATE
   765	000752'	260740	001230'	00190		PUSHJ P,SUBDAT
   766	000753'	254000	000674'	00200		 JRST GENDT1	;NO MORE DATES
   767	000754'	254000	000733'	00210		JRST GENSAV	;GO SEE IF REALLY GOOD
   768
   769	000755'	260740	001227'	00230	GENREF:	PUSHJ P,SUBDT1	;SUBDAT BUT WITH ILDB FIRST
   770	000756'	254000	000724'	00240		 JRST SYSERR
   771	000757'	202040	002425'	00250		MOVEM T1,REFRNC
   772	000760'	254000	000674'	00260		JRST GENDT1
   773
   774	000761'	260740	001227'	00280	GENSTR:	PUSHJ P,SUBDT1
   775	000762'	254000	000724'	00290		 JRST SYSERR
   776	000763'	202040	002430'	00300		MOVEM T1,STRTNG
   777	000764'	254000	000674'	00310		JRST GENDT1
   778
   779	000765'	260740	001227'	00330	GENUNT:	PUSHJ P,SUBDT1
   780	000766'	254000	000724'	00340		 JRST SYSERR
   781	000767'	202040	002435'	00350		MOVEM T1,UNTLDT
   782	000770'	254000	000674'	00360		JRST GENDT1
   783
   784	000771'			00380	GENRPR:
   785	000771'	602000	000040	00390	GENEND:	TRNE FL,FRDATE
   786	000772'	350017	000000	00400		AOS (P)
   787	000773'	200040	002420'	00410		MOVE T1,FNDDAT	;RETURN DATE FOUND
   788	000774'	263740	000000	00420		POPJ P,		;SKIP RETURN IF FOUND
   789
   790	000775'	371000	002436'	00440	GENXCP:	SOSL XCPCNT	;TOO MANY?
   791	000776'	626000	000040	00450		TRZN FL,FRDATE	;OR NONE SEEN?
   792	000777'	263740	000000	00460		POPJ P,		;THEN GIVE UP
   793	001000'	620000	000100	00470		TRZ FL,FBEF		;DO NOT NEED THIS ANY MORE
   794	001001'	200040	002420'	00480		MOVE T1,FNDDAT
   795	001002'	261740	000001	00490		PUSH P,T1	;SAVE DATE FOUND
   796	001003'	202040	002423'	00500		MOVEM T1,MTARG	;AND SAVE AS TARGET
   797	001004'	260740	000674'	00510		PUSHJ P,GENDT1
   798	001005'	254000	001013'	00520		 JRST NOXCP	;NO EXCEPTION DATES
   799	001006'	262740	000001	00530		POP P,T1	;RESTORE DATE FOUND
RCDATE - COMMON DATE STUFF FOR REMIND AND SEC	MACRO 12.5-46.0 21:52  2-MAR-81 PAGE 10-2
RCDATE.MAC	19-JUN-78 15:07

   800	001007'	312040	002420'	00540		CAME T1,FNDDAT	;SAME?
   801	001010'	254000	001014'	00550		JRST NOXCP1	;NO
   802	001011'	350000	002423'	00560		AOS MTARG	;TRY FOR NEXT DAY
   803	001012'	254000	000664'	00570		JRST GENDT2	;RESTART SEARCH
   804
   805	001013'	262740	000001	00590	NOXCP:	POP P,T1
   806	001014'	202040	002420'	00600	NOXCP1:	MOVEM T1,FNDDAT
   807	001015'	254000	000464*	00610		JRST CPOPJ1
RCDATE - COMMON DATE STUFF FOR REMIND AND SEC	MACRO 12.5-46.0 21:52  2-MAR-81 PAGE 11
RCDATE.MAC	19-JUN-78 15:07

   808	001016'	261740	002407'	00010	GENBET:	PUSH P,BETCNT#	;COUNTER TO PREVENT LOOPS
   809	001017'	201040	001750	00020		MOVEI T1,^D1000
   810	001020'	202040	002407'	00030		MOVEM T1,BETCNT
   811	001021'	261740	002411'	00040		PUSH P,BETPTR#	;POINTER TO START OF BETWEEN STRING
   812	001022'	202440	002411'	00050		MOVEM DPTR,BETPTR
   813	001023'	261740	002412'	00060		PUSH P,BETSTR#	;STARTING DATE OF PAIR
   814	001024'	261740	002410'	00070		PUSH P,BETEND#	;ENDING DATE OF PAIR
   815	001025'	660000	000100	00080		TRO FL,FBEF
   816	001026'	200040	002430'	00090		MOVE T1,STRTNG
   817	001027'	315040	002423'	00100		CAMGE T1,MTARG
   818	001030'	200040	002423'	00110		MOVE T1,MTARG
   819	001031'	271040	000001	00120		ADDI T1,1	;FIND FIRST DATE OF INTEREST
   820	001032'	202040	002432'	00130		MOVEM T1,TARGET
   821	001033'	476000	002412'	00140		SETOM BETSTR	;FOR A CHECK LATER
   822	001034'	261740	002430'	00150		PUSH P,STRTNG
   823	001035'	211040	777777	00160		MOVNI T1,-1	;A VERY LARGE NEG NUMBER
   824	001036'	202040	002430'	00170		MOVEM T1,STRTNG
   825	001037'	260740	001227'	00180	BETCOM:	PUSHJ P,SUBDT1	;GET A DATE
   826	001040'	254000	001133'	00190		 JRST BETRY0	;NONE, NEVER WILL BE ANY
   827	001041'	311040	002412'	00200		CAML T1,BETSTR	;IS IT LATER THAN PREVIOUS (SEE BETRTY)
   828	001042'	313040	002435'	00210		CAMLE T1,UNTLDT	;IS IT SOON ENOUGH
   829	001043'	254000	001110'	00220		JRST BETABT	;NO, GIVE UP
   830	001044'	202040	002412'	00230		MOVEM T1,BETSTR
   831	001045'	202040	002432'	00240		MOVEM T1,TARGET
   832	001046'	202040	002430'	00250		MOVEM T1,STRTNG
   833	001047'	620000	000100	00260		TRZ FL,FBEF
   834	001050'	133000	000011	00270		IBP DPTR	;SKIP THE AND
   835	001051'	260740	001227'	00280		PUSHJ P,SUBDT1	;FIND ENDING DATE AFTER STARTING
   836	001052'	254000	001142'	00290		 JRST BETRY1	;NONE, GIVE UP
   837	001053'	315040	002412'	00300		CAMGE T1,BETSTR	;MUST BE AFTER OR EQUAL TO START
   838	001054'	254000	001114'	00310		JRST BETAB1
   839	001055'	200117	000000	00320		MOVE T2,(P)
   840	001056'	202100	002430'	00330		MOVEM T2,STRTNG
   841	001057'	311040	002430'	00340		CAML T1,STRTNG
   842	001060'	315040	002423'	00350		CAMGE T1,MTARG	;END AT LEAST MUST BE IN RANGE
   843	001061'	254000	001124'	00360		JRST BETRTY	;RETRY
   844	001062'	202040	002410'	00370		MOVEM T1,BETEND
   845	001063'	200040	002412'	00380		MOVE T1,BETSTR
   846	001064'	315040	002430'	00390		CAMGE T1,STRTNG
   847	001065'	200040	002430'	00400		MOVE T1,STRTNG
   848	001066'	315040	002423'	00410		CAMGE T1,MTARG
   849	001067'	200040	002423'	00420		MOVE T1,MTARG	;GET LASTES OF ALL 3
   850	001070'	202040	002432'	00430		MOVEM T1,TARGET
   851	001071'	260740	001227'	00440		PUSHJ P,SUBDT1	;NOW GET THE FINAL DATE
   852	001072'	254000	001124'	00450		 JRST BETRTY	;NONE
   853	001073'	311040	002430'	00460		CAML T1,STRTNG
   854	001074'	315040	002423'	00470		CAMGE T1,MTARG
   855	001075'	254000	001116'	00480		JRST BETAB2	;WILL NEVER GET A GOOD ONE
   856	001076'	315040	002412'	00490		CAMGE T1,BETSTR
   857	001077'	254000	001116'	00500		JRST BETAB2	;SAME STORY
   858	001100'	313040	002410'	00510		CAMLE T1,BETEND
   859	001101'	254000	001124'	00520		JRST BETRTY	;TOO LATE, RETRY
   860	001102'	262740	002430'	00530		POP P,STRTNG
RCDATE - COMMON DATE STUFF FOR REMIND AND SEC	MACRO 12.5-46.0 21:52  2-MAR-81 PAGE 11-2
RCDATE.MAC	19-JUN-78 15:07

   861	001103'	262740	002410'	00540		POP P,BETEND
   862	001104'	262740	002412'	00550		POP P,BETSTR
   863	001105'	262740	002411'	00560		POP P,BETPTR
   864	001106'	262740	002407'	00570		POP P,BETCNT
   865	001107'	254000	000733'	00580		JRST GENSAV	;GO PUT DATE AWAY
RCDATE - COMMON DATE STUFF FOR REMIND AND SEC	MACRO 12.5-46.0 21:52  2-MAR-81 PAGE 12
RCDATE.MAC	19-JUN-78 15:07

   866	001110'	620000	000100	00010	BETABT:	TRZ FL,FBEF
   867	001111'	133000	000011	00020		IBP DPTR	;SKIP AND
   868	001112'	260740	001227'	00030		PUSHJ P,SUBDT1
   869	001113'	255000	000000	00040		 JFCL	;JUST USING IT TO ADVANCE POINTER
   870	001114'	260740	001227'	00050	BETAB1:	PUSHJ P,SUBDT1
   871	001115'	255000	000000	00060		 JFCL
   872	001116'	262740	002430'	00070	BETAB2:	POP P,STRTNG
   873	001117'	262740	002410'	00080		POP P,BETEND
   874	001120'	262740	002412'	00090		POP P,BETSTR
   875	001121'	262740	002411'	00100		POP P,BETPTR
   876	001122'	262740	002407'	00110		POP P,BETCNT
   877	001123'	254000	000674'	00120		JRST GENDT1
   878
   879	001124'	375000	002407'	00140	BETRTY:	SOSGE BETCNT
   880	001125'	254000	001116'	00150		JRST BETAB2	;GIVE UP IF TOO MANY TIMES
   881	001126'	350040	002412'	00160	BETRYC:	AOS T1,BETSTR
   882	001127'	202040	002432'	00170		MOVEM T1,TARGET	;WILL FIND NEXT STARTING DATE
   883	001130'	202040	002430'	00180		MOVEM T1,STRTNG
   884	001131'	200440	002411'	00190		MOVE DPTR,BETPTR
   885	001132'	254000	001037'	00200		JRST BETCOM
   886
   887	001133'	375000	002407'	00220	BETRY0:	SOSGE BETCNT
   888	001134'	254000	001110'	00230		JRST BETABT
   889	001135'	620000	000100	00240		TRZ FL,FBEF
   890	001136'	200040	002423'	00250		MOVE T1,MTARG
   891	001137'	275040	000001	00260		SUBI T1,1
   892	001140'	202040	002412'	00270		MOVEM T1,BETSTR		;MAKE SURE WE START CORRECTLY
   893	001141'	254000	001126'	00280		JRST BETRYC
   894
   895	001142'	375000	002407'	00300	BETRY1:	SOSGE BETCNT
   896	001143'	254000	001114'	00310		JRST BETAB1
   897	001144'	254000	001126'	00320		JRST BETRYC
   898
   899	001145'	315040	002423'	00340	GENSVB:	CAMGE T1,MTARG
   900	001146'	313040	002435'	00350		CAMLE T1,UNTLDT
   901	001147'	254000	000674'	00360		JRST GENDT1	;THIS IS USED ONLY WITH BETWEEN
   902	001150'	315040	002430'	00370		CAMGE T1,STRTNG
   903	001151'	254000	000674'	00380		JRST GENDT1
   904	001152'	662000	000040	00390		TROE FL,FRDATE
   905	001153'	313040	002420'	00400		CAMLE T1,FNDDAT
   906	001154'	202040	002420'	00410		MOVEM T1,FNDDAT
   907	001155'	254000	000674'	00420		JRST GENDT1
RCDATE - COMMON DATE STUFF FOR REMIND AND SEC	MACRO 12.5-46.0 21:52  2-MAR-81 PAGE 13
RCDATE.MAC	19-JUN-78 15:07

   908	001156'	261740	002436'	00010	SUBLPR:	PUSH P,XCPCNT
   909	001157'	201040	001750	00020		MOVEI T1,^D1000
   910	001160'	202040	002436'	00030		MOVEM T1,XCPCNT		;RESET IN CASE OF NESTED EXCEPTS
   911	001161'	261740	002420'	00040		PUSH P,FNDDAT
   912	001162'	261740	000000	00050		PUSH P,FL
   913	001163'	620000	000040	00060		TRZ FL,FRDATE
   914	001164'	261740	002425'	00070		PUSH P,REFRNC
   915	001165'	261740	002424'	00080		PUSH P,REFRN0
   916	001166'	200040	002425'	00090		MOVE T1,REFRNC
   917	001167'	202040	002424'	00100		MOVEM T1,REFRN0
   918	001170'	261740	002430'	00110		PUSH P,STRTNG
   919	001171'	261740	002427'	00120		PUSH P,STRTN0
   920	001172'	200040	002430'	00130		MOVE T1,STRTNG
   921	001173'	202040	002427'	00140		MOVEM T1,STRTN0
   922	001174'	261740	002435'	00150		PUSH P,UNTLDT
   923	001175'	261740	002434'	00160		PUSH P,UNTDT0
   924	001176'	200040	002435'	00170		MOVE T1,UNTLDT
   925	001177'	202040	002434'	00180		MOVEM T1,UNTDT0
   926	001200'	261740	002431'	00190		PUSH P,SVDPTR
   927	001201'	202440	002431'	00200		MOVEM DPTR,SVDPTR
   928	001202'	261740	002432'	00210		PUSH P,TARGET
   929	001203'	261740	002423'	00220		PUSH P,MTARG
   930	001204'	200040	002432'	00230		MOVE T1,TARGET
   931	001205'	202040	002423'	00240		MOVEM T1,MTARG
   932	001206'	260740	000674'	00250		PUSHJ P,GENDT1	;GO GENERATE A DATE
   933	001207'	334000	000000	00260		 SKIPA
   934	001210'	350017	777764	00270		AOS -14(P)	;SET FOR SKIP RETURN
   935	001211'	262740	002423'	00280		POP P,MTARG
   936	001212'	262740	002432'	00290		POP P,TARGET
   937	001213'	262740	002431'	00300		POP P,SVDPTR
   938	001214'	262740	002434'	00310		POP P,UNTDT0
   939	001215'	262740	002435'	00320		POP P,UNTLDT
   940	001216'	262740	002427'	00330		POP P,STRTN0
   941	001217'	262740	002430'	00340		POP P,STRTNG
   942	001220'	262740	002424'	00350		POP P,REFRN0
   943	001221'	262740	002425'	00360		POP P,REFRNC
   944	001222'	262740	000000	00370		POP P,FL
   945	001223'	200040	002420'	00380		MOVE T1,FNDDAT	;GET THE DATE FOUND IF THERE IS ONE
   946	001224'	262740	002420'	00390		POP P,FNDDAT
   947	001225'	262740	002436'	00400		POP P,XCPCNT
   948	001226'	263740	000000	00410		POPJ P,
RCDATE - COMMON DATE STUFF FOR REMIND AND SEC	MACRO 12.5-46.0 21:52  2-MAR-81 PAGE 14
RCDATE.MAC	19-JUN-78 15:07

   949	001227'	134340	000011	00010	SUBDT1:	ILDB ITEM,DPTR
   950	001230'	256007	001231'	00020	SUBDAT:	XCT SUBTAB(ITEM)
   951
   952	001231'	254000	000724'	00040	SUBTAB:	JRST SYSERR	;END
   953	001232'	254000	001276'	00050		JRST SUBDOW	;EVERY WED
   954	001233'	254000	001262'	00060		JRST SUBDAY	;EVERY 5 DAYS
   955	001234'	254000	001626'	00070		JRST SUBMDW	;4TH TUE OF MONTH
   956	001235'	254000	001567'	00080		JRST SUBLDW	;LAST TUE OF MONTH
   957	001236'	254000	001407'	00090		JRST SUBMDY	;25TH OF MONTH
   958	001237'	254000	001544'	00100		JRST SUBLDY	;LAST DAY OF MONTH
   959	001240'	254000	001777'	00110		JRST SUBDBF	;3 DAYS BEFORE
   960	001241'	254000	002004'	00120		JRST SUBDAF	;3 DAYS AFTER
   961	001242'	254000	002030'	00130		JRST SUBWBF	;WED BEFORE
   962	001243'	254000	002013'	00140		JRST SUBWAF	;WED AFTER
   963	001244'	254000	000724'	00150		JRST SYSERR	;OR
   964	001245'	254000	000724'	00160		JRST SYSERR	;REFERENCE
   965	001246'	254000	000724'	00170		JRST SYSERR	;STARTING
   966	001247'	254000	000724'	00180		JRST SYSERR	;UNTIL
   967	001250'	254000	000724'	00190		JRST SYSERR	;UNTIL FOREVER
   968	001251'	254000	000724'	00200		JRST SYSERR	;EXCEPT
   969	001252'	254000	000724'	00210		JRST SYSERR	;BETWEEN
   970	001253'	254000	000724'	00220		JRST SYSERR	;AND
   971	001254'	254000	001257'	00230		JRST SUBRDT	;A DATE NUMBER
   972	001255'	254000	001156'	00240		JRST SUBLPR
   973	001256'	254000	000724'	00250		JRST SYSERR
   974
   975	001257'	260740	000633'	00270	SUBRDT:	PUSHJ P,GETNUM
   976	001260'	200040	000006	00280		MOVE T1,CODE
   977	001261'	254000	001015*	00290		JRST CPOPJ1
RCDATE - COMMON DATE STUFF FOR REMIND AND SEC	MACRO 12.5-46.0 21:52  2-MAR-81 PAGE 15
RCDATE.MAC	19-JUN-78 15:07

   978	001262'	200100	002425'	00010	SUBDAY:	MOVE T2,REFRNC
   979	001263'	260740	000633'	00020		PUSHJ P,GETNUM	;GET INTERVAL
   980	001264'	200040	002432'	00030	SUBDYC:	MOVE T1,TARGET
   981	001265'	274040	000002	00040		SUB T1,T2
   982	001266'	230040	000006	00050		IDIV T1,CODE
   983	001267'	333000	000002	00060		SKIPLE T2
   984	001270'	274100	000006	00070		SUB T2,CODE
   985	001271'	200040	002432'	00080		MOVE T1,TARGET
   986	001272'	274040	000002	00090		SUB T1,T2
   987	001273'	602000	000100	00100		TRNE FL,FBEF
   988	001274'	274040	000006	00110		SUB T1,CODE	;A CYCLE BEFORE IF BETWEEN ARGUMENT
   989	001275'	254000	001261*	00120		JRST CPOPJ1
   990
   991	001276'	260740	000633'	00140	SUBDOW:	PUSHJ P,GETNUM	;GET INTERVAL
   992	001277'	261740	000006	00150		PUSH P,CODE
   993	001300'	134300	000011	00160		ILDB CODE,DPTR	;GET THE DAY OF WEEK
   994	001301'	200040	002425'	00170		MOVE T1,REFRNC
   995	001302'	260740	001311'	00180		PUSHJ P,DOWAFN	;FIND DAY AFTER OR =
   996	001303'	200117	000000	00190		MOVE T2,(P)
   997	001304'	221100	000007	00200		IMULI T2,7	;GET IN CORRECT STEP
   998	001305'	271101	777771	00210		ADDI T2,-7(T1)	;NOW HAVE THE CORRECT REFERENCE DATE
   999	001306'	262740	000006	00220		POP P,CODE	;INTERVAL
  1000	001307'	221300	000007	00230		IMULI CODE,7	;SET TO THAT MANY WEEKS
  1001	001310'	254000	001264'	00240		JRST SUBDYC	;AND GO DO INTERVAL CALC
  1002
  1003	001311'	271040	000001	00260	DOWAFN:	ADDI T1,1	;AFTER AN NOT =
  1004	001312'	261740	000001	00270	DOWAFE:	PUSH P,T1	;AFTER OR =
  1005	001313'	271040	000003	00280		ADDI T1,3	;CORRECT FOR FACT THAT DAY 0 IS WED
  1006	001314'	231040	000007	00290		IDIVI T1,7
  1007	001315'	274100	000006	00300		SUB T2,CODE
  1008	001316'	333000	000002	00310		SKIPLE T2
  1009	001317'	275100	000007	00320		SUBI T2,7	;IN CASE WE WANT EARLIER
  1010	001320'	262740	000001	00330		POP P,T1
  1011	001321'	274040	000002	00340		SUB T1,T2	;GET PROPER DAY
  1012	001322'	263740	000000	00350		POPJ P,
  1013
  1014	001323'	271040	000001	00370	DOWBFE:	ADDI T1,1	;DAY OF WEEK BEFORE OR =
  1015	001324'	261740	000001	00380	DOWBFN:	PUSH P,T1	;BEFORE AND NOT =
  1016	001325'	271040	000003	00390		ADDI T1,3
  1017	001326'	231040	000007	00400		IDIVI T1,7
  1018	001327'	274100	000006	00410		SUB T2,CODE
  1019	001330'	337000	000002	00420		SKIPG T2
  1020	001331'	271100	000007	00430		ADDI T2,7
  1021	001332'	262740	000001	00440		POP P,T1
  1022	001333'	274040	000002	00450		SUB T1,T2
  1023	001334'	263740	000000	00460		POPJ P,
RCDATE - COMMON DATE STUFF FOR REMIND AND SEC	MACRO 12.5-46.0 21:52  2-MAR-81 PAGE 16
RCDATE.MAC	19-JUN-78 15:07

  1024	001335'	261740	000001	00010	SETMON:	PUSH P,T1	;FIND A MONTH N MONTHS FROM REF DATE
  1025	001336'	200040	002425'	00020		MOVE T1,REFRNC	;BUT AFTER OR = MONTH OF DATE IN T1
  1026	001337'	260740	000602'	00030		PUSHJ P,BREAK
  1027	001340'	200040	002422'	00040		MOVE T1,MONTH	;SAVE MONTH AND YEAR OF REFERENCE
  1028	001341'	250057	000000	00050		EXCH T1,(P)	;RESTORE 'CURRENT' DATE
  1029	001342'	261740	002437'	00060		PUSH P,YEAR
  1030	001343'	260740	000602'	00070		PUSHJ P,BREAK
  1031	001344'	200040	002422'	00080		MOVE T1,MONTH
  1032	001345'	202040	002413'	00090		MOVEM T1,CURMON#	;SAVE CURRENT MONTH FOR LATER
  1033	001346'	200040	002437'	00100		MOVE T1,YEAR
  1034	001347'	202040	002414'	00110		MOVEM T1,CURYR#	;YEAR ALSO
  1035	001350'	262740	000002	00120		POP P,T2
  1036	001351'	274040	000002	00130		SUB T1,T2	;DIFFERENCE IN YEARS
  1037	001352'	221040	000014	00140		IMULI T1,^D12
  1038	001353'	270040	002422'	00150		ADD T1,MONTH
  1039	001354'	262740	000002	00160		POP P,T2
  1040	001355'	274040	000002	00170		SUB T1,T2	;NOW HAVE DIFFERENCE IN MMNTHS
  1041	001356'	230040	000006	00180		IDIV T1,CODE
  1042	001357'	210040	000002	00190		MOVN T1,T2
  1043	001360'	332000	000001	00200		SKIPE T1
  1044	001361'	602000	000100	00210		TRNE FL,FBEF
  1045	001362'	334000	000000	00220		SKIPA		;IF WANT BEFORE OR 0 REMAINDER
  1046	001363'	270040	000006	00230		ADD T1,CODE	;DON'T ADD IN EXTRA CYCLE
  1047
  1048	001364'	273040	002422'	00250	ADJUST:	ADDB T1,MONTH	;CHANGE MONTH
  1049	001365'	323040	001373'	00260		JUMPLE T1,MONMIN	;MONTH HAS GOTTEN TOO SMALL
  1050	001366'	307040	000014	00270		CAIG T1,^D12
  1051	001367'	263740	000000	00280		POPJ P,		;OK
  1052	001370'	350000	002437'	00290		AOS YEAR	;TOO LARGE
  1053	001371'	211040	000014	00300		MOVNI T1,^D12	;SO MAKE IT SMALLER
  1054	001372'	254000	001364'	00310		JRST ADJUST	;AND REPEAT CYCLE
  1055
  1056	001373'	370000	002437'	00330	MONMIN:	SOS YEAR
  1057	001374'	201040	000014	00340		MOVEI T1,^D12	;GET IT BACK TO RIGHT SIZE
  1058	001375'	254000	001364'	00350		JRST ADJUST
  1059
  1060	001376'	200100	002422'	00370	SETLDY:	MOVE T2,MONTH	;SET DAY TO LAST DAY OF MONTH
  1061	001377'	200042	000524'	00380		MOVE T1,MONDAY-1(T2)
  1062	001400'	202040	002417'	00390		MOVEM T1,DAY
  1063	001401'	302100	000002	00400		CAIE T2,2	;WORRY ABOUT LEAP YEAR
  1064	001402'	263740	000000	00410		POPJ P,
  1065	001403'	200100	002437'	00420		MOVE T2,YEAR
  1066	001404'	606100	000003	00430		TRNN T2,3
  1067	001405'	350000	002417'	00440		AOS DAY		;FEB IN LEAP YEAR, ONE MORE DAY
  1068	001406'	263740	000000	00450		POPJ P,
RCDATE - COMMON DATE STUFF FOR REMIND AND SEC	MACRO 12.5-46.0 21:52  2-MAR-81 PAGE 17
RCDATE.MAC	19-JUN-78 15:07

  1069	001407'	134300	000011	00010	SUBMDY:	ILDB CODE,DPTR	;GET DAY NUMBER
  1070	001410'	261740	000006	00020		PUSH P,CODE	;SAVE FOR A WHILE
  1071	001411'	134300	000011	00030		ILDB CODE,DPTR
  1072	001412'	326300	001477'	00040		JUMPN CODE,SUBSMD	;SPECIFIC MONTH
  1073	001413'	260740	000633'	00050		PUSHJ P,GETNUM	;EVERY N MONTHS
  1074	001414'	200040	002432'	00060		MOVE T1,TARGET
  1075	001415'	602000	000100	00070		TRNE FL,FBEF
  1076	001416'	275040	000001	00080		SUBI T1,1	;READJUST TARGET DATE
  1077	001417'	260740	001335'	00090		PUSHJ P,SETMON	;FIND THE CORRECT YEAR AND MONTH
  1078	001420'	250317	000000	00100		EXCH CODE,(P)	;NOW GET DAY
  1079	001421'	326300	001442'	00110		JUMPN CODE,SUBMSD	;0 IS EVERY DAY
  1080	001422'	200040	002422'	00120		MOVE T1,MONTH
  1081	001423'	200100	002437'	00130		MOVE T2,YEAR
  1082	001424'	316040	002413'	00140		CAMN T1,CURMON
  1083	001425'	312100	002414'	00150		CAME T2,CURYR	;ARE MONTH AND YEAR SAME AS TARGET?
  1084	001426'	254000	001434'	00160		JRST RDAY1	;GO GIVE BACK DAY 1 OF THIS MONTH
  1085	001427'	262740	000006	00170	RTARG:	POP P,CODE	;YES, ADJUST STACK
  1086	001430'	200040	002432'	00180		MOVE T1,TARGET	;AND RETURN TARGET DATE
  1087	001431'	602000	000100	00190		TRNE FL,FBEF
  1088	001432'	275040	000001	00200		SUBI T1,1
  1089	001433'	254000	001275*	00210		JRST CPOPJ1
  1090
  1091	001434'	262740	000006	00230	RDAY1:	POP P,CODE
  1092	001435'	201040	000001	00240	RDAY11:	MOVEI T1,1
  1093	001436'	202040	002417'	00250		MOVEM T1,DAY
  1094	001437'	602000	000100	00260		TRNE FL,FBEF
  1095	001440'	260740	001376'	00270		PUSHJ P,SETLDY	;SET LAST DAY IF WANT BEFORE
  1096	001441'	254000	000434'	00280		JRST YDCNV	;GO CONVERT TO A NUMBER OF DAYS
  1097
  1098	001442'	200040	002422'	00300	SUBMSD:	MOVE T1,MONTH	;LIKE 25TH DAY OF EVERY MONTH
  1099	001443'	200100	002437'	00310		MOVE T2,YEAR
  1100	001444'	316040	002413'	00320		CAMN T1,CURMON
  1101	001445'	312100	002414'	00330		CAME T2,CURYR	;ARE THEY THE SAME
  1102	001446'	254000	001453'	00340		JRST MDYNSD	;NO, JUST SET DAY AND GO
  1103	001447'	602000	000100	00350		TRNE FL,FBEF
  1104				00360		JRST	[CAMLE CODE,DAY
  1105				00370			JRST MDYNS1	;DIFFERENT TEST FOR BEFORE
  1106	001450'	254000	002451'	00380			JRST MDYNSD]
  1107	001451'	315300	002417'	00390		CAMGE CODE,DAY	;IS IT TOO LATE IN THE MONTH
  1108	001452'	254000	001460'	00400		JRST MDYNS1	;YES,TRY NEXT MONTH
  1109
  1110	001453'	202300	002417'	00420	MDYNSD:	MOVEM CODE,DAY
  1111	001454'	260740	000434'	00430		PUSHJ P,YDCNV
  1112	001455'	334000	000000	00440		 SKIPA
  1113	001456'	254000	001475'	00450		JRST DPOPJ1	;GO TO IT
  1114	001457'	200100	002422'	00460		MOVE T2,MONTH	;TO SEE IF MONTH HAS CHANGED
  1115	001460'	200057	000000	00470	MDYNS1:	MOVE T1,(P)	;THE MONTH INCREMENT. WHEN ENTERED FROM
  1116				00480				;ABOVE, T2 HAS YEAR SO GOES FIRST TIME
  1117	001461'	260740	001623'	00490		PUSHJ P,ADJST1
  1118	001462'	312100	002422'	00500		CAME T2,MONTH	;HAS MONTH CHANGED?
  1119	001463'	254000	001453'	00510		JRST MDYNSD	;YES, SO TRY CONVERSION AGAIN
  1120	001464'	302100	000002	00520		CAIE T2,2	;NO, IS IT FEB?
  1121	001465'	254000	001473'	00530		JRST DPOPJ	;NO, WILL CONTINUE TO FAIL
RCDATE - COMMON DATE STUFF FOR REMIND AND SEC	MACRO 12.5-46.0 21:52  2-MAR-81 PAGE 17-2
RCDATE.MAC	19-JUN-78 15:07

  1122	001466'	302300	000035	00540		CAIE CODE,^D29
  1123	001467'	254000	001473'	00550		JRST DPOPJ	;WILL STILL FAIL IF NOT THE 29TH
  1124	001470'	200057	000000	00560		MOVE T1,(P)	;GET INC AGAIN
  1125	001471'	231040	000060	00570		IDIVI T1,^D48
  1126	001472'	326100	001453'	00580		JUMPN T2,MDYNSD	;STILL WILL FAIL IF EVERY 4 YEARS
  1127	001473'	262740	000006	00590	DPOPJ:	POP P,CODE
  1128	001474'	263740	000000	00600		POPJ P,
  1129
  1130	001475'	262740	000006	00620	DPOPJ1:	POP P,CODE
  1131	001476'	254000	001433*	00630		JRST CPOPJ1
RCDATE - COMMON DATE STUFF FOR REMIND AND SEC	MACRO 12.5-46.0 21:52  2-MAR-81 PAGE 18
RCDATE.MAC	19-JUN-78 15:07

  1132	001477'	200040	002432'	00010	SUBSMD:	MOVE T1,TARGET	;SPECIFIC MONTH GIVEN
  1133	001500'	602000	000100	00020		TRNE FL,FBEF
  1134	001501'	275040	000001	00030		SUBI T1,1
  1135	001502'	260740	000602'	00040		PUSHJ P,BREAK	;AS JUNE 25TH
  1136	001503'	250317	000000	00050		EXCH CODE,(P)
  1137	001504'	326300	001516'	00060		JUMPN CODE,SUBSSD
  1138	001505'	200040	002422'	00070		MOVE T1,MONTH	;EVERY DAY IN JUNE
  1139	001506'	316057	000000	00080		CAMN T1,(P)	;IS MONTH SAME AS CURRENT?
  1140	001507'	254000	001427'	00090		JRST RTARG	;YES, RETURN TARGET DATE
  1141	001510'	311057	000000	00100		CAML T1,(P)	;IS IT TOO LATE IN YEAR
  1142	001511'	350000	002437'	00110		AOS YEAR	;YES, TRY NEXT YEAR
  1143	001512'	602000	000100	00120		TRNE FL,FBEF
  1144	001513'	370000	002437'	00130		SOS YEAR	;ALWAYS A YEAR EARLIER HERE
  1145	001514'	262740	002422'	00140		POP P,MONTH	;SET MONTH
  1146	001515'	254000	001435'	00150		JRST RDAY11	;GIVE DAY1
  1147
  1148	001516'	202300	002417'	00170	SUBSSD:	MOVEM CODE,DAY	;SPECIFIC DAY OF SPECIFIC MONTH
  1149	001517'	262740	002422'	00180		POP P,MONTH	;SET DAY AND MONTH
  1150	001520'	260740	000434'	00190	SUBSS2:	PUSHJ P,YDCNV
  1151	001521'	254000	001530'	00200		 JRST SUBSS1	;FAILED
  1152	001522'	260740	001616'	00210		PUSHJ P,TCOMP	;DO A COMPARE DEPENDING ON FBEF
  1153	001523'	254000	001476*	00220		 JRST CPOPJ1	;IT IS
  1154	001524'	602000	000100	00230		TRNE FL,FBEF
  1155	001525'	374000	002437'	00240		SOSA YEAR	;BACK UP INSTEAD OF FORWARD
  1156	001526'	350000	002437'	00250		AOS YEAR	;NO TRY NEXT YEAR
  1157	001527'	254000	001520'	00260		JRST SUBSS2
  1158
  1159	001530'	200040	002422'	00280	SUBSS1:	MOVE T1,MONTH
  1160	001531'	302040	000002	00290		CAIE T1,2
  1161	001532'	263740	000000	00300		POPJ P,		;NOT FEB, DOOMED TO FAIL
  1162	001533'	200040	002417'	00310		MOVE T1,DAY
  1163	001534'	302040	000035	00320		CAIE T1,^D29
  1164	001535'	263740	000000	00330		POPJ P,		;NOT FEB 29, DOOMED
  1165	001536'	200040	002437'	00340		MOVE T1,YEAR
  1166	001537'	606000	000100	00350		TRNN FL,FBEF	;PREVIOS LEAP YEAR IF BEFORE
  1167	001540'	271040	000004	00360		ADDI T1,4	;MAKE THE NEXT LEAP YEAR
  1168	001541'	620040	000003	00370		TRZ T1,3
  1169	001542'	202040	002437'	00380		MOVEM T1,YEAR
  1170	001543'	254000	001520'	00390		JRST SUBSS2	;SHOULD WORK THIS TIME
RCDATE - COMMON DATE STUFF FOR REMIND AND SEC	MACRO 12.5-46.0 21:52  2-MAR-81 PAGE 19
RCDATE.MAC	19-JUN-78 15:07

  1171	001544'	134300	000011	00010	SUBLDY:	ILDB CODE,DPTR
  1172	001545'	326300	001557'	00020		JUMPN CODE,SUBLSD	;SPECIFIC MONTH
  1173	001546'	260740	000633'	00030		PUSHJ P,GETNUM
  1174	001547'	200040	002432'	00040		MOVE T1,TARGET
  1175	001550'	260740	001335'	00050		PUSHJ P,SETMON		;SET UP A MONTH
  1176	001551'	326100	001555'	00060		JUMPN T2,SUBLDC	;T2 HAS REMAINDER FROM SETMON
  1177	001552'	210040	000006	00070		MOVN T1,CODE
  1178	001553'	602000	000100	00080		TRNE FL,FBEF
  1179	001554'	260740	001364'	00090		PUSHJ P,ADJUST	;ADJUST IF WANT BEFORE AND 0 REMAINDER
  1180	001555'	260740	001376'	00100	SUBLDC:	PUSHJ P,SETLDY		;SET TO LAST DAY
  1181	001556'	254000	000434'	00110		JRST YDCNV
  1182
  1183	001557'	200040	002432'	00130	SUBLSD:	MOVE T1,TARGET
  1184	001560'	260740	000602'	00140		PUSHJ P,BREAK
  1185	001561'	315300	002422'	00150		CAMGE CODE,MONTH	;IS THE DESIRE MONTH AFTER OR > THIS
  1186	001562'	350000	002437'	00160		AOS YEAR		;NO, TRY NEXT YEAR
  1187	001563'	602000	000100	00170		TRNE FL,FBEF
  1188	001564'	370000	002437'	00180		SOS YEAR	;ONE YEAR EARLIER
  1189	001565'	202300	002422'	00190		MOVEM CODE,MONTH
  1190	001566'	254000	001555'	00200		JRST SUBLDC		;GO
  1191
  1192	001567'	134300	000011	00220	SUBLDW:	ILDB CODE,DPTR		;THE DAY OF WEEK
  1193	001570'	261740	000006	00230		PUSH P,CODE
  1194	001571'	134300	000011	00240		ILDB CODE,DPTR
  1195	001572'	326300	001611'	00250		JUMPN CODE,SUBLSW	;SPECIFIC MONTH
  1196	001573'	260740	000633'	00260		PUSHJ P,GETNUM
  1197	001574'	200040	002432'	00270		MOVE T1,TARGET
  1198	001575'	260740	001335'	00280		PUSHJ P,SETMON
  1199	001576'	260740	001376'	00290	SUBLW1:	PUSHJ P,SETLDY		;SET LAST DAY
  1200	001577'	260740	000434'	00300		PUSHJ P,YDCNV		;RECONVERT
  1201	001600'	254000	000724'	00310		 JRST SYSERR		;MUST WORK
  1202	001601'	250317	000000	00320		EXCH CODE,(P)		;GET DOW
  1203	001602'	260740	001323'	00330		PUSHJ P,DOWBFE		;FIND ONE BEFORE OR =
  1204	001603'	260740	001616'	00340		PUSHJ P,TCOMP
  1205	001604'	254000	001475'	00350		 JRST DPOPJ1	;YES, EXIT
  1206	001605'	250317	000000	00360		EXCH CODE,(P)
  1207	001606'	200040	000006	00370		MOVE T1,CODE
  1208	001607'	260740	001623'	00380		PUSHJ P,ADJST1		;TRY NEXT ONE
  1209	001610'	254000	001576'	00390		JRST SUBLW1
  1210
  1211	001611'	200040	002432'	00410	SUBLSW:	MOVE T1,TARGET
  1212	001612'	260740	000602'	00420		PUSHJ P,BREAK
  1213	001613'	202300	002422'	00430		MOVEM CODE,MONTH	;SET DESIRED MONTH
  1214	001614'	201300	000014	00440		MOVEI CODE,^D12		;SET FOR EVERY 12 MONTHS
  1215	001615'	254000	001576'	00450		JRST SUBLW1		;AND GO LOOK FOR IT
  1216
  1217	001616'	606000	000100	00470	TCOMP:	TRNN FL,FBEF
  1218				00480		JRST	[CAMGE T1,TARGET
  1219				00490			AOS (P)
  1220	001617'	254000	002454'	00500			POPJ P,]
  1221	001620'	311040	002432'	00510		CAML T1,TARGET
  1222	001621'	350017	000000	00520		AOS (P)
  1223	001622'	263740	000000	00530		POPJ P,
RCDATE - COMMON DATE STUFF FOR REMIND AND SEC	MACRO 12.5-46.0 21:52  2-MAR-81 PAGE 19-2
RCDATE.MAC	19-JUN-78 15:07

  1224
  1225	001623'	602000	000100	00550	ADJST1:	TRNE FL,FBEF
  1226	001624'	213000	000001	00560		MOVNS T1	;DO OPPOSITE ADJUST IF BEFORE
  1227	001625'	254000	001364'	00570		JRST ADJUST
RCDATE - COMMON DATE STUFF FOR REMIND AND SEC	MACRO 12.5-46.0 21:52  2-MAR-81 PAGE 20
RCDATE.MAC	19-JUN-78 15:07

  1228	001626'	134300	000011	00010	SUBMDW:	ILDB CODE,DPTR		;GET NUMBER OF DOW WANTED
  1229	001627'	261740	000006	00020		PUSH P,CODE
  1230	001630'	134300	000011	00030		ILDB CODE,DPTR	;THE DOW
  1231	001631'	261740	000006	00040		PUSH P,CODE
  1232	001632'	134300	000011	00050		ILDB CODE,DPTR
  1233	001633'	326300	001677'	00060		JUMPN CODE,SUBSMW	;SPECIFIC MONTH
  1234	001634'	260740	000633'	00070		PUSHJ P,GETNUM
  1235	001635'	200040	002432'	00080		MOVE T1,TARGET
  1236	001636'	602000	000100	00090		TRNE FL,FBEF
  1237	001637'	275040	000001	00100		SUBI T1,1
  1238	001640'	260740	001335'	00110		PUSHJ P,SETMON
  1239	001641'	250317	777777	00120		EXCH CODE,-1(P)		;WHICH WED
  1240	001642'	326300	001755'	00130		JUMPN CODE,SUBMSW	;SPECIFIC ONE
  1241	001643'	262740	000006	00140		POP P,CODE		;EVERY ONE
  1242	001644'	200040	002422'	00150		MOVE T1,MONTH
  1243	001645'	200100	002437'	00160		MOVE T2,YEAR		;CHECK IF THIS MONTH
  1244	001646'	316040	002413'	00170		CAMN T1,CURMON
  1245	001647'	312100	002414'	00180		CAME T2,CURYR
  1246	001650'	254000	001666'	00190		JRST MDWNXM		;NO, JUST FIND IT
  1247	001651'	200040	002432'	00200		MOVE T1,TARGET
  1248	001652'	602000	000100	00210		TRNE FL,FBEF
  1249	001653'	275040	000001	00220		SUBI T1,1
  1250	001654'	260740	001722'	00230		PUSHJ P,DOWAFC		;FIND ONE
  1251	001655'	261740	000001	00240		PUSH P,T1		;SAVE DATE GENERATED
  1252	001656'	260740	000602'	00250		PUSHJ P,BREAK
  1253	001657'	262740	000001	00260		POP P,T1
  1254	001660'	200100	002413'	00270		MOVE T2,CURMON
  1255	001661'	316100	002422'	00280		CAMN T2,MONTH		;HAS MONTH CHANGED?
  1256	001662'	254000	001475'	00290		JRST DPOPJ1		;NO, GOOD DATE
  1257	001663'	202100	002422'	00300		MOVEM T2,MONTH		;CHANGED, RESET MONTH
  1258	001664'	200057	000000	00310		MOVE T1,(P)		;GET INCREMENT
  1259	001665'	260740	001623'	00320		PUSHJ P,ADJST1
  1260	001666'	201040	000001	00330	MDWNXM:	MOVEI T1,1
  1261	001667'	202040	002417'	00340		MOVEM T1,DAY
  1262	001670'	602000	000100	00350		TRNE FL,FBEF
  1263	001671'	260740	001376'	00360		PUSHJ P,SETLDY
  1264	001672'	260740	000434'	00370		PUSHJ P,YDCNV
  1265	001673'	254000	000724'	00380		 JRST SYSERR
  1266	001674'	262740	000002	00390		POP P,T2		;GET RID OF MONTH INCREMENT
  1267	001675'	350017	000000	00400		AOS (P)	;SET FOR SKIP RETURN
  1268	001676'	254000	001722'	00410		JRST DOWAFC		;FIND DAY OF WEEK
  1269
  1270	001677'	250317	777777	00430	SUBSMW:	EXCH CODE,-1(P)		;FIND WHICH WED WANTED
  1271	001700'	326300	001765'	00440		JUMPN CODE,SUBSSW	;SPECIFIC ONE
  1272	001701'	200040	002432'	00450		MOVE T1,TARGET		;EVERY ONE
  1273	001702'	602000	000100	00460		TRNE FL,FBEF
  1274	001703'	275040	000001	00470		SUBI T1,1
  1275	001704'	262740	000006	00480		POP P,CODE
  1276	001705'	260740	001722'	00490		PUSHJ P,DOWAFC		;FIND IT
  1277	001706'	261740	000001	00500		PUSH P,T1
  1278	001707'	260740	000602'	00510		PUSHJ P,BREAK
  1279	001710'	262740	000001	00520		POP P,T1
  1280	001711'	200117	000000	00530		MOVE T2,(P)		;DESIRED MONTH
RCDATE - COMMON DATE STUFF FOR REMIND AND SEC	MACRO 12.5-46.0 21:52  2-MAR-81 PAGE 20-2
RCDATE.MAC	19-JUN-78 15:07

  1281	001712'	316100	002422'	00540		CAMN T2,MONTH		;CORRECT ONE?
  1282	001713'	254000	001475'	00550		JRST DPOPJ1		;YES
  1283	001714'	315100	002422'	00560		CAMGE T2,MONTH
  1284	001715'	350000	002437'	00570		AOS YEAR		;MUST TRY NEXT YEAR
  1285	001716'	602000	000100	00580		TRNE FL,FBEF
  1286	001717'	370000	002437'	00590		SOS YEAR
  1287	001720'	202100	002422'	00600		MOVEM T2,MONTH
  1288	001721'	254000	001666'	00610		JRST MDWNXM		;GO GET IT
  1289
  1290	001722'	606000	000100	00630	DOWAFC:	TRNN FL,FBEF
  1291	001723'	254000	001312'	00640		JRST DOWAFE
  1292	001724'	254000	001323'	00650		JRST DOWBFE
RCDATE - COMMON DATE STUFF FOR REMIND AND SEC	MACRO 12.5-46.0 21:52  2-MAR-81 PAGE 21
RCDATE.MAC	19-JUN-78 15:07

  1293	001725'	201040	000001	00010	MDWCOM:	MOVEI T1,1		;A COMMON ROUTINE
  1294	001726'	202040	002417'	00020		MOVEM T1,DAY
  1295	001727'	200040	002422'	00030		MOVE T1,MONTH
  1296	001730'	202040	002413'	00040		MOVEM T1,CURMON		;SAVE THIS MONTH
  1297	001731'	200040	002437'	00050		MOVE T1,YEAR
  1298	001732'	202040	002414'	00060		MOVEM T1,CURYR	;AND YEAR
  1299	001733'	260740	000434'	00070		PUSHJ P,YDCNV
  1300	001734'	254000	000724'	00080		 JRST SYSERR
  1301	001735'	250317	777777	00090		EXCH CODE,-1(P)	;GET DOW OFF STACK
  1302	001736'	260740	001312'	00100		PUSHJ P,DOWAFE	;FIND ONE AFTER
  1303	001737'	250317	777777	00110		EXCH CODE,-1(P)
  1304	001740'	200117	777776	00120		MOVE T2,-2(P)	;NTH DOW
  1305	001741'	221100	000007	00130		IMULI T2,7
  1306	001742'	271042	777771	00140		ADDI T1,-7(T2)
  1307	001743'	261740	000001	00150		PUSH P,T1	;SAVE DATE
  1308	001744'	260740	000602'	00160		PUSHJ P,BREAK
  1309	001745'	262740	000001	00170		POP P,T1
  1310	001746'	200100	002413'	00180		MOVE T2,CURMON	;SEE IF MONTH HAS CHANGED
  1311	001747'	316100	002422'	00190		CAMN T2,MONTH
  1312	001750'	350017	000000	00200		AOS (P)		;NO, SKIP RETURN
  1313	001751'	202100	002422'	00210		MOVEM T2,MONTH	;RESET JUST IN CASE
  1314	001752'	200100	002414'	00220		MOVE T2,CURYR
  1315	001753'	202100	002437'	00230		MOVEM T2,YEAR
  1316	001754'	263740	000000	00240		POPJ P,
  1317
  1318	001755'	250317	777777	00260	SUBMSW:	EXCH CODE,-1(P)	;GET THE INCREMENT IN CODE
  1319	001756'	260740	001725'	00270	SUBSW2:	PUSHJ P,MDWCOM	;CALL COMMON ROUTINE
  1320	001757'	254000	001762'	00280		 JRST SUBSW1	;MONTH CHANGED
  1321	001760'	260740	001616'	00290		PUSHJ P,TCOMP
  1322	001761'	254000	001775'	00300		 JRST DPOPJ2	;NO, ALL OK
  1323	001762'	200040	000006	00310	SUBSW1:	MOVE T1,CODE
  1324	001763'	260740	001623'	00320		PUSHJ P,ADJST1	;TRY NEXT MONTH
  1325	001764'	254000	001756'	00330		JRST SUBSW2
  1326
  1327	001765'	250317	777777	00350	SUBSSW:	EXCH CODE,-1(P)	;GET MONTH BACK
  1328	001766'	200040	002432'	00360		MOVE T1,TARGET	;3RD WED IN NOV ETC
  1329	001767'	602000	000100	00370		TRNE FL,FBEF
  1330	001770'	275040	000001	00380		SUBI T1,1
  1331	001771'	260740	000602'	00390		PUSHJ P,BREAK
  1332	001772'	202300	002422'	00400		MOVEM CODE,MONTH
  1333	001773'	201300	000014	00410		MOVEI CODE,^D12	;SET INCREMENT
  1334	001774'	254000	001756'	00420		JRST SUBSW2	;AND TRY TILL WE GET IT
  1335
  1336	001775'	262740	000006	00440	DPOPJ2:	POP P,CODE
  1337	001776'	254000	001475'	00450		JRST DPOPJ1
RCDATE - COMMON DATE STUFF FOR REMIND AND SEC	MACRO 12.5-46.0 21:52  2-MAR-81 PAGE 22
RCDATE.MAC	19-JUN-78 15:07

  1338	001777'	260740	000633'	00010	SUBDBF:	PUSHJ P,GETNUM
  1339	002000'	272300	002432'	00020	COMDBF:	ADDM CODE,TARGET	;CHANGE TARGET DATE
  1340	002001'	261740	000006	00030		PUSH P,CODE	;SAVE NUMBER
  1341	002002'	261740	002457'	00040		PUSH P,[FINDBF]	;AND ADRESS OF FINISH UP ROUTINE
  1342	002003'	254000	001227'	00050		JRST SUBDT1	;RETURN
  1343
  1344	002004'	260740	000633'	00070	SUBDAF:	PUSHJ P,GETNUM
  1345	002005'	213000	000006	00080		MOVNS CODE	;SET NUMBER MINUS
  1346	002006'	254000	002000'	00090		JRST COMDBF
  1347
  1348	002007'	254000	001473'	00110	FINDBF:	JRST DPOPJ	;A NON-SKIP RETURN
  1349	002010'	262740	000006	00120		POP P,CODE
  1350	002011'	274040	000006	00130		SUB T1,CODE
  1351	002012'	254000	001523*	00140		JRST CPOPJ1
  1352
  1353	002013'	260740	000633'	00160	SUBWAF:	PUSHJ P,GETNUM	;NTH WED AFTER
  1354	002014'	275300	000001	00170		SUBI CODE,1
  1355	002015'	221300	000007	00180		IMULI CODE,7
  1356	002016'	261740	000006	00190		PUSH P,CODE	;PUT RET ADR BACK ON
  1357	002017'	134300	000011	00200		ILDB CODE,DPTR	;GET WHICH DAY OF WEEK
  1358	002020'	506317	000000	00210		HRLM CODE,(P)	;SAVE IN LEFT HALF
  1359	002021'	200040	002432'	00220		MOVE T1,TARGET
  1360	002022'	260740	001324'	00230		PUSHJ P,DOWBFN	;FIND DAY BEFORE AND NOT =
  1361	002023'	550317	000000	00240		HRRZ CODE,(P)
  1362	002024'	274040	000006	00250		SUB T1,CODE	;AND REST OF INCREMENT
  1363	002025'	202040	002432'	00260		MOVEM T1,TARGET
  1364	002026'	261740	002460'	00270		PUSH P,[FINWAF]
  1365	002027'	254000	001227'	00280		JRST SUBDT1
  1366
  1367	002030'	260740	000633'	00300	SUBWBF:	PUSHJ P,GETNUM
  1368	002031'	275300	000001	00310		SUBI CODE,1
  1369	002032'	221300	000007	00320		IMULI CODE,7
  1370	002033'	261740	000006	00330		PUSH P,CODE
  1371	002034'	134300	000011	00340		ILDB CODE,DPTR
  1372	002035'	506317	000000	00350		HRLM CODE,(P)
  1373	002036'	200040	002432'	00360		MOVE T1,TARGET	;NTH WED BEFORE SEE ABOVE
  1374	002037'	260740	001312'	00370		PUSHJ P,DOWAFE
  1375	002040'	550317	000000	00380		HRRZ CODE,(P)
  1376	002041'	271046	000001	00390		ADDI T1,1(CODE)
  1377	002042'	202040	002432'	00400		MOVEM T1,TARGET
  1378	002043'	261740	002461'	00410		PUSH P,[FINWBF]
  1379	002044'	254000	001227'	00420		JRST SUBDT1
RCDATE - COMMON DATE STUFF FOR REMIND AND SEC	MACRO 12.5-46.0 21:52  2-MAR-81 PAGE 23
RCDATE.MAC	19-JUN-78 15:07

  1380	002045'	254000	001473'	00100	FINWAF:	JRST DPOPJ
  1381	002046'	554317	000000	00200		HLRZ CODE,(P)
  1382	002047'	260740	001311'	00300		PUSHJ P,DOWAFN
  1383	002050'	262740	000006	00400		POP P,CODE
  1384	002051'	553000	000006	00500		HRRZS CODE
  1385	002052'	270040	000006	00600		ADD T1,CODE
  1386	002053'	254000	002012*	00700		JRST CPOPJ1
  1387
  1388	002054'	254000	001473'	00900	FINWBF:	JRST DPOPJ
  1389	002055'	554317	000000	01000		HLRZ CODE,(P)
  1390	002056'	260740	001324'	01100		PUSHJ P,DOWBFN
  1391	002057'	262740	000006	01200		POP P,CODE
  1392	002060'	553000	000006	01300		HRRZS CODE
  1393	002061'	274040	000006	01400		SUB T1,CODE
  1394	002062'	254000	002053*	01500		JRST CPOPJ1
  1395
  1396	002063'	000000	000000	01800	datcnt:	0
  1397	002064'	000000	000000	01900	orgref:	0
  1398	002065'	000000	000000	02000	datwrn:	0
  1399	002066'	000000	000000	02100	dattim:	0
  1400	002067'	000000	000000	02200	datcnc:	0
  1401	002070'			02300	dattxt:	block	^d12
  1402	002104'			02400	datbuf:	block	datsiz
RCDATE - COMMON DATE STUFF FOR REMIND AND SEC	MACRO 12.5-46.0 21:52  2-MAR-81 PAGE 24
RCDATE.MAC	19-JUN-78 15:07

  1403				00010	;FIND THE NEXT DATE IN THE DATE LIST
  1404
  1405	002262'	201500	000001	00030	INIDAT:	MOVEI BLK,1
  1406	002263'	260740	000000*	00040		PUSHJ P,RDBUF	;FIND THE FIRST
  1407	002264'	336513	000176*	00050		SKIPN BLK,BUFDTA+176(BUF)
  1408	002265'	263740	000000	00060		POPJ P,	;NONE THERE
  1409	002266'	350017	000000	00070		AOS (P)
  1410	002267'	260740	002263*	00080		PUSHJ P,RDBUF	;READ IN THAT BLOCK
  1411	002270'	201640	000001	00090	INIDCS:	MOVEI CS,1
  1412	002271'	202640	002415'	00100		MOVEM CS,DATNMB#	;SET THE DATE NUMBER
  1413	002272'	201653	000001*	00110	INIDT2:	MOVEI CS,BUFDTA+1(BUF)
  1414	002273'	505640	777772	00120		HRLI CS,-6	;SET UP AN AOBJN POINTER
  1415	002274'	332015	000021	00130		SKIPE ^D17(CS)	;IS THERE A DATE THERE?
  1416	002275'	350017	000000	00140		AOS (P)		;YES, SKIP RETURN
  1417	002276'	263740	000000	00150		POPJ P,		;NO
  1418
  1419	002277'	200115	000000	00170	NXTDAT:	MOVE T2,(CS)
  1420	002300'	231100	000023	00180		IDIVI T2,^D19	;FIND OUT HOW MANY BLOCKS FROM COUNT
  1421	002301'	271640	000022	00190	NXTDCS:	ADDI CS,^D18
  1422	002302'	350000	002415'	00200		AOS DATNMB
  1423	002303'	252640	002310'	00210		AOBJP CS,NXTDBK	;OUT OF DATES IN THIS BLOCK
  1424	002304'	367100	002301'	00220		SOJG T2,NXTDCS	;GET PAST CURRENT ONE
  1425	002305'	332015	000021	00230		SKIPE ^D17(CS)	;IS THERE ONE THERE?
  1426	002306'	350017	000000	00240		AOS (P)
  1427	002307'	254000	002062*	00250		JRST CPOPJ1	;SKIPE IF NO DATE DOUBLE IF DATE
  1428
  1429	002310'	336653	000000*	00270	NXTDBK:	SKIPN CS,BUFDTA(BUF)	;IS THERE A NEXT BLOCK?
  1430	002311'	263740	000000	00280		POPJ P,			;NO
  1431	002312'	200500	000015	00290		MOVE BLK,CS
  1432	002313'	260740	002267*	00300		PUSHJ P,RDBUF
  1433	002314'	350017	000000	00310		AOS (P)
  1434	002315'	254000	002272'	00320		JRST INIDT2
  1435
  1436	002316'	200115	000000	00340	DATDL1:	MOVE T2,(CS)	;GET COUNT OF DATE TO DELETE
  1437	002317'	231100	000023	00350		IDIVI T2,^D19	;SEE HOW MANY BLOCKS
  1438	002320'	201140	000023	00360		MOVEI T3,^D19	;SET TO SET BLOCK COUNT
  1439	002321'	202155	000000	00370	DATDL2:	MOVEM T3,(CS)	;SET COUNT
  1440	002322'	402015	000021	00380		SETZM ^D17(CS)	;AND NOT IN USE
  1441	002323'	271640	000023	00390		ADDI CS,^D19	;JUST IN CASE MORE BLOCKS
  1442	002324'	367100	002321'	00400		SOJG T2,DATDL2	;CONTINUE IF MORE
  1443	002325'	254000	000000*	00410		JRST WRTBUF	;WRITE THE BUFFER BACK OUT
RCDATE - COMMON DATE STUFF FOR REMIND AND SEC	MACRO 12.5-46.0 21:52  2-MAR-81 PAGE 25
RCDATE.MAC	19-JUN-78 15:07

  1444				00100	;ROUTINE TO LIST INFO ON DATES OR ON TODAY
  1445				00200	;PUSHJ P,LSTTDY (OR LSTDAT)
  1446				00300	; INSTR TO BE EXECUTED FOR OLD DATES
  1447				00400	; RETURN
  1448
  1449	002326'	260740	000541'	00600	LSTTDY:	PUSHJ P,GENTDY	;GET TODAYS DATE
  1450	002327'	634100	000002	00700		TDZA T2,T2	;A FLAG TO SAY DOING TODAY
  1451	002330'	201100	000001	00800	LSTDAT:	MOVEI T2,1
  1452	002331'	202100	002433'	00900		MOVEM T2,TDYFLG#
  1453	002332'	202040	002426'	01000		MOVEM T1,SRCDAT#	;ENTER HERE WITH DATE IN T1
  1454	002333'	260740	002262'	01100		PUSHJ P,INIDAT
  1455	002334'	254000	002307*	01200		 JRST CPOPJ1	;NO DATES, DONE
  1456	002335'	254000	002373'	01300		 JRST LSTDTS	;NOT BEING USED
  1457	002336'	201455	000021	01400	LSTDT1:	MOVEI DPTR,^D17(CS)
  1458	002337'	505440	440500	01500		HRLI DPTR,(POINT 5,0)
  1459	002340'	202440	002431'	01600		MOVEM DPTR,SVDPTR	;SET UP POINTER TO IT
  1460	002341'	200055	000001	01700		MOVE T1,1(CS)
  1461	002342'	202040	002416'	01800		MOVEM T1,DATREF#		;AND REFERENCE DATE
  1462	002343'	200040	002426'	01900		MOVE T1,SRCDAT
  1463	002344'	315055	000004	02000		CAMGE T1,4(CS)		;CHECK WITH CANCEL DATE
  1464	002345'	334055	000004	02100		SKIPA T1,4(CS)		;SET CANCEL DATE AS SRC DATE
  1465				02200		JRST	[MOVEM T1,MTARG	;SEE IF NEED TO REMOVE CANCEL
  1466				02300			SKIPLE 4(CS)
  1467				02400			SKIPE TDYFLG
  1468				02500			JRST LSTDT3	;NOT CANCLED OR NOT TODAY
  1469				02600			SETOM 4(CS)
  1470				02700			PUSHJ P,WRTBUF	;REMOVE CANCELATION
  1471	002346'	254000	002462'	02800			JRST LSTDT3]
  1472	002347'	202040	002423'	02900		MOVEM T1,MTARG		;SET THE TARGET DATE
  1473	002350'	260740	000654'	03000	LSTDT3:	PUSHJ P,GENDAT		;GO GET THE NEXT OCCURANCE
  1474	002351'	254000	002377'	03100		 JRST LSTDTO		;DATE IS OBSOLETE
  1475	002352'	316040	002426'	03200		CAMN T1,SRCDAT		;IS THIS EXACTLY THE ONE?
  1476				03300		JRST	[SKIPE 3(CS)	;IS TIME SPECIFIED?
  1477				03400			SKIPE TDYFLG	;OR NOT DOING TODAY
  1478				03500			JRST LSTDTT	;NO, GO LIST THE TEXT
  1479				03600			MSTIME T1,
  1480				03700			IDIVI T1,^D60000
  1481				03800			HRRZ T2,3(CS)
  1482				03900			HLRZ T3,3(CS)
  1483				04000			CAMGE T1,T2	;IS TIME WITHIN RANGE?
  1484				04100			JRST	[pushj	p,clralr
  1485				04400				JRST LSTDTS]
  1486				04500			CAMGE T1,T3	;NO
  1487				04600			JRST LSTDTT	;YES, LIST THIS ONE
  1488				04610			pushj	p,clralr
  1489				04700			AOS MTARG	;TRY FOR A NEXT DATE (SO DON'T RMOVE)
  1490	002353'	254000	002473'	04800			JRST LSTDT3]	;YES, OBSOLETE
  1491	002354'	200100	000001	04900		MOVE T2,T1		;GET A COPY
  1492	002355'	274115	000002	05000		SUB T2,2(CS)		;SUBTRACT WARNING
  1493	002356'	313100	002426'	05100		CAMLE T2,SRCDAT		;EARLY ENOUGH TO WARN?
  1494	002357'	254000	002373'	05200		JRST LSTDTS		;NO SKIP
  1495	002360'	260740	000573'	05300		PUSHJ P,PRDAT		;PRINT THE DATE
  1496	002361'	051700	000055	05400		OUTCHI "-"
RCDATE - COMMON DATE STUFF FOR REMIND AND SEC	MACRO 12.5-46.0 21:52  2-MAR-81 PAGE 25-2
RCDATE.MAC	19-JUN-78 15:07

  1497	002362'	051700	000040	05500		OUTCHI " "
  1498	002363'	051155	000005	05600	LSTDTT:	OUTSTR 5(CS)	;THE TEXT
  1499	002364'	051140	002511'	05700		OUTSTR [ASCIZ / (/]	;PRINT THE NUMBER
  1500	002365'	200140	002415'	05800		MOVE T3,DATNMB
  1501	002366'	260740	000570*	05900		PUSHJ P,OUTNUM
  1502				06000		OUTSTR [ASCIZ /)
  1503	002367'	051140	002512'	06100	/]
  1504	002370'	201040	000001	06200		MOVEI	T1,1		;INHIBIT ALARM FOR THIS DATE
  1505	002371'	436055	000005	06300		IORM	T1,5(CS)
  1506	002372'	260740	002325*	06400		PUSHJ	P,WRTBUF
  1507	002373'	260740	002277'	06500	LSTDTS:	PUSHJ P,NXTDAT		;GET THE NEXT ONE
  1508	002374'	254000	002334*	06600		 JRST CPOPJ1		;FINISHED
  1509	002375'	254000	002373'	06700		 JRST LSTDTS		;SKIP ANOTHER
  1510	002376'	254000	002336'	06800		JRST LSTDT1		;FOUND ONE
  1511
  1512	002377'	256037	000000	07000	LSTDTO:	XCT @(P)
  1513	002400'	254000	002373'	07100		JRST LSTDTS
  1514
  1515	002401'	201040	000001	07120	clralr:	movei	t1,1
  1516	002402'	616055	000005	07130		tdnn	t1,5(cs)
  1517	002403'	263740	000000	07140		popj	p,
  1518	002404'	412055	000005	07150		andcam	t1,5(cs)
  1519	002405'	260740	002372*	07160		pushj	p,wrtbuf
  1520	002406'	263740	000000	07170		popj	p,
  1521
  1522				07300		END
  1523
NO ERRORS DETECTED
PROGRAM BREAK IS 002513
5K CORE USED
RCDATE - COMMON DATE STUFF FOR REMIND AND SEC	MACRO 12.5-46.0 21:52  2-MAR-81 PAGE 26
RCDATE.MAC	19-JUN-78 15:07		SYMBOL TABLE

ADJST1		001623'		DSPIND		200000	SPD	ITMMON		000015	SIN	RDBUF		002313'	EXT
ADJUST		001364'		DWDLN		000107	SPD	ITMNM1		000001	SIN	REFRN0		002424'
BETAB1		001114'		DWDLN3		000325	SIN	ITMNM2		000002	SIN	REFRNC		002425'
BETAB2		001116'		DWDTB		000000'	INT	ITMNUM		000000	SIN	REM		000002	SPD
BETABT		001110'		EXIT	047000	000012		ITMOR		000006	SIN	RSTERR		100000	SPD
BETCNT		002407'		FBEF		000100	SPD	ITMREF		000007	SIN	RTARG		001427'
BETCOM		001037'		FEXCPT		000010	SPD	ITMTDY		000024	SIN	SETLDY		001376'
BETEND		002410'		FINDBF		002007'		ITMTMR		000026	SIN	SETMON		001335'
BETPTR		002411'		FINWAF		002045'		ITMUNT		000010	SIN	SETPRI		040000	SPD
BETRTY		001124'		FINWBF		002054'		ITMYST		000025	SIN	SRCDAT		002426'
BETRY0		001133'		FL		000000		LEAP		002421'		STPSCN		020000	SPD
BETRY1		001142'		FNDDAT		002420'	INT	LSTDAT		002330'	INT	STRTN0		002427'
BETRYC		001126'		FNEED1		000004	SPD	LSTDT1		002336'		STRTNG		002430'
BETSTR		002412'		FRDATE		000040	SPD	LSTDT3		002350'		SUBDAF		002004'
BLK		000012		FREF		000020	SPD	LSTDTO		002377'		SUBDAT		001230'
BREAK		000602'		FREF2		000200	SPD	LSTDTS		002373'		SUBDAY		001262'
BREAK1		000617'		GENBET		001016'		LSTDTT		002363'		SUBDBF		001777'
BUF		000013		GENDAT		000654'	INT	LSTTDY		002326'	INT	SUBDOW		001276'
BUFDTA		002310'	EXT	GENDT1		000674'		MAL		000003	SPD	SUBDT1		001227'
C		000014		GENDT2		000664'		MALHSH		000177	SPD	SUBDYC		001264'
CIRC		000400	SPD	GENEND		000771'		MDWCOM		001725'		SUBLDC		001555'
CLRALR		002401'	INT	GENFRV		000726'		MDWDLN	777777	777671	SIN	SUBLDW		001567'
CODE		000006		GENOR		000674'		MDWNXM		001666'		SUBLDY		001544'
COMDBF		002000'		GENRDT		000731'		MDYNS1		001460'		SUBLPR		001156'
CPOPJ		000440'	EXT	GENREF		000755'		MDYNSD		001453'		SUBLSD		001557'
CPOPJ1		002374'	EXT	GENRPR		000771'		MONDAY		000525'		SUBLSW		001611'
CS		000015		GENSAV		000733'		MONMIN		001373'		SUBLW1		001576'
CURMON		002413'		GENSTR		000761'		MONPTR		000007'	SIN	SUBMDW		001626'
CURYR		002414'		GENSUB		000746'		MONTAB		000473'		SUBMDY		001407'
DATBUF		002104'	INT	GENSVB		001145'		MONTB2		000510'		SUBMSD		001442'
DATCNC		002067'	INT	GENTAB		000676'		MONTH		002422'	INT	SUBMSW		001755'
DATCNT		002063'	INT	GENTDY		000541'	INT	MSTIME	047000	000023		SUBRDT		001257'
DATDL1		002316'	INT	GENUNT		000765'		MTARG		002423'	INT	SUBSMD		001477'
DATDL2		002321'		GENXCP		000775'		NOXCP		001013'		SUBSMW		001677'
DATE	047000	000014		GETNUM		000633'	INT	NOXCP1		001014'		SUBSS1		001530'
DATNMB		002415'	INT	GTNM1		000637'		NUMF		000002	SPD	SUBSS2		001520'
DATREF		002416'	INT	GTNMFN		000646'		NXTDAT		002277'	INT	SUBSSD		001516'
DATSIZ		000156	SPD	IDF		000001	SPD	NXTDBK		002310'		SUBSSW		001765'
DATTIM		002066'	INT	INIDAT		002262'	INT	NXTDCS		002301'		SUBSW1		001762'
DATTXT		002070'	INT	INIDCS		002270'		ORGREF		002064'	INT	SUBSW2		001756'
DATWRN		002065'	INT	INIDT2		002272'		OUTCHI	051700	000000		SUBTAB		001231'
DAY		002417'	INT	ITEM		000007		OUTCHR	051040	000000		SUBWAF		002013'
DCNT		000010		ITMAFT		000020	SIN	OUTNUM		002366'	EXT	SUBWBF		002030'
DIPRS		400000	SPD	ITMAND		000014	SIN	OUTSIX		000601'	EXT	SVDPTR		002431'	INT
DOWAFC		001722'		ITMBEF		000017	SIN	OUTSTR	051140	000000		SYSERR		000724'
DOWAFE		001312'		ITMBET		000013	SIN	P		000017		T1		000001
DOWAFN		001311'		ITMDAY		000016	SIN	P2		000016		T2		000002
DOWBFE		001323'		ITMDOT		000003	SIN	PDLSZ		000040	SPD	T3		000003
DOWBFN		001324'		ITMDOW		000004	SIN	PDLSZ2		000020	SPD	T4		000004
DPOPJ		001473'		ITMEND		000021	SIN	PRDAT		000573'	INT	T5		000005
DPOPJ1		001475'		ITMEXC		000012	SIN	PRDAT1		000555'	INT	TARGET		002432'
DPOPJ2		001775'		ITMFRV		000011	SIN	RDAY1		001434'		TCOMP		001616'
DPTR		000011		ITMMN		000005	SIN	RDAY11		001435'		TDYFLG		002433'
RCDATE - COMMON DATE STUFF FOR REMIND AND SEC	MACRO 12.5-46.0 21:52  2-MAR-81 PAGE 26-2
RCDATE.MAC	19-JUN-78 15:07		SYMBOL TABLE

TTY		000001	SPD
UNTDT0		002434'
UNTLDT		002435'
WKDPTR		000000'	SIN
WRTBUF		002467'	EXT
XCPCNT		002436'
YDCNV		000434'	INT
YEAR		002437'	INT
ZZ		000556	SPD

RCDATE - COMMON DATE STUFF FOR REMIND AND SEC	MACRO 12.5-46.0 21:52  2-MAR-81
RCDATE.MAC	19-JUN-78 15:07		Symbol cross reference

ADJST1	  1117	  1208	  1225#	  1259	  1324
ADJUST	  1048#	  1054	  1058	  1179	  1227
BETAB1	   838	   870#	   896
BETAB2	   855	   857	   872#	   880
BETABT	   829	   866#	   888
BETCNT	   808#	   808	   810	   864	   876	   879	   887	   895
BETCOM	   825#	   885
BETEND	   814#	   814	   844	   858	   861	   873
BETPTR	   811#	   811	   812	   863	   875	   884
BETRTY	   843	   852	   859	   879#
BETRY0	   826	   887#
BETRY1	   836	   895#
BETRYC	   881#	   893	   897
BETSTR	   813#	   813	   821	   827	   830	   837	   845	   856	   862	   874	   881	   892
BLK	    13#	  1405	  1407	  1431
BREAK	   630	   653#	  1026	  1030	  1135	  1184	  1212	  1252	  1278	  1308	  1331
BREAK1	   659	   666#
BUF	    12#	  1407	  1413	  1429
BUFDTA	   108%	  1407	  1413	  1429
C	    11#
CIRC	    29#
CLRALR	   101	  1484	  1488	  1515#
CODE	    17#	   682	   686	   688	   690	   691	   692	   748	   976	   982	   984	   988	   992	   993
	   999	  1000	  1007	  1018	  1041	  1046	  1069	  1070	  1071	  1072	  1078	  1079	  1085	  1091
	  1104	  1107	  1110	  1122	  1127	  1130	  1136	  1137	  1148	  1171	  1172	  1177	  1185	  1189
	  1192	  1193	  1194	  1195	  1202	  1206	  1207	  1213	  1214	  1228	  1229	  1230	  1231	  1232
	  1233	  1239	  1240	  1241	  1270	  1271	  1275	  1301	  1303	  1318	  1323	  1327	  1332	  1333
	  1336	  1339	  1340	  1345	  1349	  1350	  1354	  1355	  1356	  1357	  1358	  1361	  1362	  1368
	  1369	  1370	  1371	  1372	  1375	  1376	  1381	  1383	  1384	  1385	  1389	  1391	  1392	  1393
COMDBF	  1339#	  1346
CPOPJ	   106%	   534
CPOPJ1	   106%	   554	   807	   977	   989	  1089	  1131	  1153	  1351	  1386	  1394	  1427	  1455	  1508
CS	    10#	  1411	  1412	  1413	  1414	  1415	  1419	  1421	  1423	  1425	  1429	  1431	  1436	  1439
	  1440	  1441	  1457	  1460	  1463	  1464	  1466	  1469	  1476	  1481	  1482	  1492	  1498	  1505
	  1516	  1518
CURMON	  1032#	  1032	  1082	  1100	  1244	  1254	  1296	  1310
CURYR	  1034#	  1034	  1083	  1101	  1245	  1298	  1314
DATBUF	   102	  1402#
DATCNC	   102	  1400#
DATCNT	   102	  1396#
DATDL1	   103	  1436#
DATDL2	  1439#	  1442
DATNMB	   101	  1412#	  1412	  1422	  1500
DATREF	   103	   698	  1461#	  1461
DATSIZ	    49#	  1402
DATTIM	   102	  1399#
DATTXT	   102	  1401#
DATWRN	   102	  1398#
DAY	   100	   551#	   551	   620	   635	   676	  1062	  1067	  1093	  1104	  1107	  1110	  1148	  1162
	  1261	  1294
DCNT	    15#
DIPRS	    37#
DOWAFC	  1250	  1268	  1276	  1290#
RCDATE - COMMON DATE STUFF FOR REMIND AND SEC	MACRO 12.5-46.0 21:52  2-MAR-81
RCDATE.MAC	19-JUN-78 15:07		Symbol cross reference

DOWAFE	  1004#	  1291	  1302	  1374
DOWAFN	   995	  1003#	  1382
DOWBFE	  1014#	  1203	  1292
DOWBFN	  1015#	  1360	  1390
DPOPJ	  1121	  1123	  1127#	  1348	  1380	  1388
DPOPJ1	  1113	  1130#	  1205	  1256	  1282	  1337
DPOPJ2	  1322	  1336#
DPTR	    14#	   683	   704	   714	   812	   834	   867	   884	   927	   949	   993	  1069	  1071	  1171
	  1192	  1194	  1228	  1230	  1232	  1357	  1371	  1457	  1458	  1459
DSPIND	    38#
DWDLN	   449#	   523	   523#	   528	   529	   632	   649
DWDLN3	   100	   529#
DWDTB	   100	   234#	   525	   526
FBEF	    27#	   711	   749	   793	   815	   833	   866	   889	   987	  1044	  1075	  1087	  1094	  1103
	  1133	  1143	  1154	  1166	  1178	  1187	  1217	  1225	  1236	  1248	  1262	  1273	  1285	  1290
	  1329
FEXCPT	    24#
FINDBF	  1341	  1348#
FINWAF	  1364	  1380#
FINWBF	  1378	  1388#
FL	     1#	   711	   749	   756	   785	   791	   793	   815	   833	   866	   889	   904	   912	   913
	   944	   987	  1044	  1075	  1087	  1094	  1103	  1133	  1143	  1154	  1166	  1178	  1187	  1217
	  1225	  1236	  1248	  1262	  1273	  1285	  1290	  1329
FNDDAT	   100	   757#	   757	   758	   787	   794	   800	   806	   905	   906	   911	   945	   946
FNEED1	    23#
FRDATE	    26#	   711	   756	   785	   791	   904	   913
FREF	    25#
FREF2	    28#
GENBET	   734	   808#
GENDAT	    99	   696#	  1473
GENDT1	   714#	   746	   753	   755	   759	   766	   772	   777	   782	   797	   877	   901	   903	   907
	   932
GENDT2	   704#	   803
GENEND	   717	   785#
GENFRV	   732	   744#
GENOR	   713#	   728
GENRDT	   736	   747#
GENREF	   729	   769#
GENRPR	   738	   784#
GENSAV	   749#	   767	   865
GENSTR	   730	   774#
GENSUB	   718	   719	   720	   721	   722	   723	   724	   725	   726	   727	   737	   761#
GENSVB	   750	   899#
GENTAB	   715	   717#
GENTDY	    99	   617#	  1449
GENUNT	   731	   779#
GENXCP	   733	   790#
GETNUM	   103	   679#	   747	   975	   979	   991	  1073	  1173	  1196	  1234	  1338	  1344	  1353	  1367
GTNM1	   683#	   689
GTNMFN	   685	   690#
IDF	    21#
INIDAT	   101	  1405#	  1454
INIDCS	  1411#
RCDATE - COMMON DATE STUFF FOR REMIND AND SEC	MACRO 12.5-46.0 21:52  2-MAR-81
RCDATE.MAC	19-JUN-78 15:07		Symbol cross reference

INIDT2	  1413#	  1434
ITEM	    16#	   714	   715	   949	   950
ITMAFT	    89#	    98	   491
ITMAND	    85#	    97	   484
ITMBEF	    88#	    98	   490
ITMBET	    84#	    97	   483
ITMDAY	    87#	    98	   486
ITMDOT	    76#	    96
ITMDOW	    77#	    96	   452	   453	   454	   455	   456	   457	   458	   471
ITMEND	    90#	    98	   488
ITMEXC	    83#	    97	   482
ITMFRV	    82#	    97	   481
ITMMN	    78#	    96	   459	   460	   461	   462	   463	   464	   465	   466	   467	   468	   469	   470
ITMMON	    86#	    98	   485
ITMNM1	    74#	    96	   489
ITMNM2	    75#	    96	   487
ITMNUM	    73#	    96	   492	   493	   494	   495	   496	   497	   498	   499	   500	   501	   502	   503
	   504	   505	   506	   507	   508	   509	   510	   511	   512	   513	   514	   515	   516	   517
	   518	   519	   520	   521	   522
ITMOR	    79#	    97	   472
ITMREF	    80#	    97	   473	   474	   475
ITMTDY	    91#	    98	   478
ITMTMR	    93#	    98	   480
ITMUNT	    81#	    97	   477
ITMYST	    92#	    98	   479
LEAP	   537#	   537	   548	   556
LSTDAT	   103	  1451#
LSTDT1	  1457#	  1510
LSTDT3	  1468	  1471	  1473#	  1490
LSTDTO	  1474	  1512#
LSTDTS	  1456	  1485	  1494	  1507#	  1509	  1513
LSTDTT	  1478	  1487	  1498#
LSTTDY	   103	  1449#
MAL	    33#
MALHSH	    47#
MDWCOM	  1293#	  1319
MDWDLN	   100	   528#
MDWNXM	  1246	  1260#	  1288
MDYNS1	  1105	  1108	  1115#
MDYNSD	  1102	  1106	  1110#	  1119	  1126
MONDAY	   553	   603#	  1061
MONMIN	  1049	  1056#
MONPTR	   103	   526#	   632
MONTAB	   546	   570#	   664
MONTB2	   585#	   666
MONTH	   100	   543#	   543	   623	   631	   671	   672	  1027	  1031	  1038	  1048	  1060	  1080	  1098
	  1114	  1118	  1138	  1145	  1149	  1159	  1185	  1189	  1213	  1242	  1255	  1257	  1281	  1283
	  1287	  1295	  1311	  1313	  1332
MTARG	   100	   700#	   700	   751	   761	   796	   802	   817	   818	   842	   848	   849	   854	   890
	   899	   929	   931	   935	  1465	  1472	  1489
NOXCP	   798	   805#
NOXCP1	   801	   806#
NUMF	    22#
RCDATE - COMMON DATE STUFF FOR REMIND AND SEC	MACRO 12.5-46.0 21:52  2-MAR-81
RCDATE.MAC	19-JUN-78 15:07		Symbol cross reference

NXTDAT	   101	  1419#	  1507
NXTDBK	  1423	  1429#
NXTDCS	  1421#	  1424
ORGREF	   102	  1397#
OUTNUM	   106%	   636	   640	  1501
OUTSIX	   106%	   633	   650
P	     8#	   545	   557	   559	   560	   626	   628	   629	   630	   633	   636	   640	   641	   642
	   644	   677	   679	   680	   693	   694	   695	   747	   765	   769	   774	   779	   786	   788
	   792	   795	   797	   799	   805	   808	   811	   813	   814	   822	   825	   835	   839	   851
	   860	   861	   862	   863	   864	   868	   870	   872	   873	   874	   875	   876	   908	   911
	   912	   914	   915	   918	   919	   922	   923	   926	   928	   929	   932	   934	   935	   936
	   937	   938	   939	   940	   941	   942	   943	   944	   946	   947	   948	   975	   979	   991
	   992	   995	   996	   999	  1004	  1010	  1012	  1015	  1021	  1023	  1024	  1026	  1028	  1029
	  1030	  1035	  1039	  1051	  1064	  1068	  1070	  1073	  1077	  1078	  1085	  1091	  1095	  1111
	  1115	  1117	  1124	  1127	  1128	  1130	  1135	  1136	  1139	  1141	  1145	  1149	  1150	  1152
	  1161	  1164	  1173	  1175	  1179	  1180	  1184	  1193	  1196	  1198	  1199	  1200	  1202	  1203
	  1204	  1206	  1208	  1212	  1219	  1220	  1222	  1223	  1229	  1231	  1234	  1238	  1239	  1241
	  1250	  1251	  1252	  1253	  1258	  1259	  1263	  1264	  1266	  1267	  1270	  1275	  1276	  1277
	  1278	  1279	  1280	  1299	  1301	  1302	  1303	  1304	  1307	  1308	  1309	  1312	  1316	  1318
	  1319	  1321	  1324	  1327	  1331	  1336	  1338	  1340	  1341	  1344	  1349	  1353	  1356	  1358
	  1360	  1361	  1364	  1367	  1370	  1372	  1374	  1375	  1378	  1381	  1382	  1383	  1389	  1390
	  1391	  1406	  1408	  1409	  1410	  1416	  1417	  1426	  1430	  1432	  1433	  1449	  1454	  1470
	  1473	  1484	  1488	  1495	  1501	  1506	  1507	  1512	  1517	  1519	  1520
P2	     9#
PDLSZ	    43#
PDLSZ2	    44#
PRDAT	    99	   644#	  1495
PRDAT1	   103	   629#	   644
RDAY1	  1084	  1091#
RDAY11	  1092#	  1146
RDBUF	   108%	  1406	  1410	  1432
REFRN0	   699#	   699	   705	   915	   917	   942
REFRNC	   706#	   706	   771	   914	   916	   943	   978	   994	  1025
REM	    32#
RSTERR	    39#
RTARG	  1085#	  1140
SETLDY	  1060#	  1095	  1180	  1199	  1263
SETMON	  1024#	  1077	  1175	  1198	  1238
SETPRI	    40#
SRCDAT	  1453#	  1453	  1462	  1475	  1493
STPSCN	    41#
STRTN0	   701#	   701	   707	   919	   921	   940
STRTNG	   708#	   708	   752	   762	   763	   776	   816	   822	   824	   832	   840	   841	   846	   847
	   853	   860	   872	   883	   902	   918	   920	   941
SUBDAF	   960	  1344#
SUBDAT	   765	   950#
SUBDAY	   954	   978#
SUBDBF	   959	  1338#
SUBDOW	   953	   991#
SUBDT1	   769	   774	   779	   825	   835	   851	   868	   870	   949#	  1342	  1365	  1379
SUBDYC	   980#	  1001
SUBLDC	  1176	  1180#	  1190
SUBLDW	   956	  1192#
RCDATE - COMMON DATE STUFF FOR REMIND AND SEC	MACRO 12.5-46.0 21:52  2-MAR-81
RCDATE.MAC	19-JUN-78 15:07		Symbol cross reference

SUBLDY	   958	  1171#
SUBLPR	   908#	   972
SUBLSD	  1172	  1183#
SUBLSW	  1195	  1211#
SUBLW1	  1199#	  1209	  1215
SUBMDW	   955	  1228#
SUBMDY	   957	  1069#
SUBMSD	  1079	  1098#
SUBMSW	  1240	  1318#
SUBRDT	   971	   975#
SUBSMD	  1072	  1132#
SUBSMW	  1233	  1270#
SUBSS1	  1151	  1159#
SUBSS2	  1150#	  1157	  1170
SUBSSD	  1137	  1148#
SUBSSW	  1271	  1327#
SUBSW1	  1320	  1323#
SUBSW2	  1319#	  1325	  1334
SUBTAB	   950	   952#
SUBWAF	   962	  1353#
SUBWBF	   961	  1367#
SVDPTR	    99	   704#	   704	   926	   927	   937	  1459
SYSERR	   627	   735	   740#	   770	   775	   780	   952	   963	   964	   965	   966	   967	   968	   969
	   970	   973	  1201	  1265	  1300
T1	     2#	   530	   531	   532	   533	   534	   535	   539	   540	   541	   542	   546	   550	   552
	   617	   618	   621	   624	   625	   629	   641	   646	   647	   653	   654	   655	   656	   657
	   658	   660	   662	   663	   667	   668	   670	   671	   679	   683	   684	   688	   691	   694
	   696	   697	   698	   699	   700	   701	   702	   703	   705	   706	   707	   708	   709	   710
	   744	   745	   748	   751	   752	   754	   757	   758	   761	   762	   763	   764	   771	   776
	   781	   787	   794	   795	   796	   799	   800	   805	   806	   809	   810	   816	   817	   818
	   819	   820	   823	   824	   827	   828	   830	   831	   832	   837	   841	   842	   844	   845
	   846	   847	   848	   849	   850	   853	   854	   856	   858	   881	   882	   883	   890	   891
	   892	   899	   900	   902	   905	   906	   909	   910	   916	   917	   920	   921	   924	   925
	   930	   931	   945	   976	   980	   981	   982	   985	   986	   988	   994	   998	  1003	  1004
	  1005	  1006	  1010	  1011	  1014	  1015	  1016	  1017	  1021	  1022	  1024	  1025	  1027	  1028
	  1031	  1032	  1033	  1034	  1036	  1037	  1038	  1040	  1041	  1042	  1043	  1046	  1048	  1049
	  1050	  1053	  1057	  1061	  1062	  1074	  1076	  1080	  1082	  1086	  1088	  1092	  1093	  1098
	  1100	  1115	  1124	  1125	  1132	  1134	  1138	  1139	  1141	  1159	  1160	  1162	  1163	  1165
	  1167	  1168	  1169	  1174	  1177	  1183	  1197	  1207	  1211	  1218	  1221	  1226	  1235	  1237
	  1242	  1244	  1247	  1249	  1251	  1253	  1258	  1260	  1261	  1272	  1274	  1277	  1279	  1293
	  1294	  1295	  1296	  1297	  1298	  1306	  1307	  1309	  1323	  1328	  1330	  1350	  1359	  1362
	  1363	  1373	  1376	  1377	  1385	  1393	  1453	  1460	  1461	  1462	  1463	  1464	  1465	  1472
	  1475	  1479	  1480	  1483	  1486	  1491	  1504	  1505	  1515	  1516	  1518
T2	     3#	   535	   536	   537	   538	   539	   542	   543	   544	   546	   547	   553	   555	   619
	   620	   622	   623	   648	   657	   669	   674	   675	   676	   680	   681	   687	   692	   693
	   839	   840	   978	   981	   983	   984	   986	   996	   997	   998	  1007	  1008	  1009	  1011
	  1018	  1019	  1020	  1022	  1035	  1036	  1039	  1040	  1042	  1060	  1061	  1063	  1065	  1066
	  1081	  1083	  1099	  1101	  1114	  1118	  1120	  1126	  1176	  1243	  1245	  1254	  1255	  1257
	  1266	  1280	  1281	  1283	  1287	  1304	  1305	  1306	  1310	  1311	  1313	  1314	  1315	  1419
	  1420	  1424	  1436	  1437	  1442	  1450	  1451	  1452	  1481	  1483	  1491	  1492	  1493
T3	     4#	   551	   552	   553	   558	   631	   632	   635	   638	   639	   648	   649	   664	   666
	   667	   669	   673	   674	  1438	  1439	  1482	  1486	  1500
T4	     5#
RCDATE - COMMON DATE STUFF FOR REMIND AND SEC	MACRO 12.5-46.0 21:52  2-MAR-81
RCDATE.MAC	19-JUN-78 15:07		Symbol cross reference

T5	     6#
TARGET	   764#	   764	   820	   831	   850	   882	   928	   930	   936	   980	   985	  1074	  1086	  1132
	  1174	  1183	  1197	  1211	  1218	  1221	  1235	  1247	  1272	  1328	  1339	  1359	  1363	  1373
	  1377
TCOMP	  1152	  1204	  1217#	  1321
TDYFLG	  1452#	  1452	  1467	  1477
TTY	    31#
UNTDT0	   703#	   703	   709	   923	   925	   938
UNTLDT	   710#	   710	   745	   754	   781	   828	   900	   922	   924	   939
WKDPTR	   103	   525#	   649
WRTBUF	   108%	  1443	  1470	  1506	  1519
XCPCNT	   697#	   697	   790	   908	   910	   947
YDCNV	    99	   530#	   626	  1096	  1111	  1150	  1181	  1200	  1264	  1299
YEAR	   100	   530#	   530	   625	   638	   656	   661	   663	  1029	  1033	  1052	  1056	  1065	  1081
	  1099	  1142	  1144	  1155	  1156	  1165	  1169	  1186	  1188	  1243	  1284	  1286	  1297	  1315
ZZ	   236#	   236	   237#	   237	   238#	   238	   239#	   239	   240#	   240	   241#	   241	   242#	   242
	   243#	   243	   244#	   244	   245#	   245	   246#	   246	   247#	   247	   248#	   248	   249#	   249
	   250#	   250	   251#	   251	   252#	   252	   253#	   253	   254#	   254	   255#	   255	   256#	   256
	   257#	   257	   258#	   258	   259#	   259	   260#	   260	   261#	   261	   262#	   262	   263#	   263
	   264#	   264	   265#	   265	   266#	   266	   267#	   267	   268#	   268	   269#	   269	   270#	   270
	   271#	   271	   272#	   272	   273#	   273	   274#	   274	   275#	   275	   276#	   276	   277#	   277
	   278#	   278	   279#	   279	   280#	   280	   281#	   281	   282#	   282	   283#	   283	   284#	   284
	   285#	   285	   286#	   286	   287#	   287	   288#	   288	   289#	   289	   290#	   290	   291#	   291
	   292#	   292	   293#	   293	   294#	   294	   295#	   295	   296#	   296	   297#	   297	   298#	   298
	   299#	   299	   300#	   300	   301#	   301	   302#	   302	   303#	   303	   304#	   304	   305#	   305
	   306#	   306	   307#	   307	   308#	   308	   309#	   309	   310#	   310	   311#	   311	   312#	   312
	   313#	   313	   314#	   314	   315#	   315	   316#	   316	   317#	   317	   318#	   318	   319#	   319
	   320#	   320	   321#	   321	   322#	   322	   323#	   323	   324#	   324	   325#	   325	   326#	   326
	   327#	   327	   328#	   328	   329#	   329	   330#	   330	   331#	   331	   332#	   332	   333#	   333
	   334#	   334	   335#	   335	   336#	   336	   337#	   337	   338#	   338	   339#	   339	   340#	   340
	   341#	   341	   342#	   342	   343#	   343	   344#	   344	   345#	   345	   346#	   346	   347#	   347
	   348#	   348	   349#	   349	   350#	   350	   351#	   351	   352#	   352	   353#	   353	   354#	   354
	   355#	   355	   356#	   356	   357#	   357	   358#	   358	   359#	   359	   360#	   360	   361#	   361
	   362#	   362	   363#	   363	   364#	   364	   365#	   365	   366#	   366	   367#	   367	   368#	   368
	   369#	   369	   370#	   370	   371#	   371	   372#	   372	   373#	   373	   374#	   374	   375#	   375
	   376#	   376	   377#	   377	   378#	   378	   379#	   379	   380#	   380	   381#	   381	   382#	   382
	   383#	   383	   384#	   384	   385#	   385	   386#	   386	   387#	   387	   388#	   388	   389#	   389
	   390#	   390	   391#	   391	   392#	   392	   393#	   393	   394#	   394	   395#	   395	   396#	   396
	   397#	   397	   398#	   398	   399#	   399	   400#	   400	   401#	   401	   402#	   402	   403#	   403
	   404#	   404	   405#	   405	   406#	   406	   407#	   407	   408#	   408	   409#	   409	   410#	   410
	   411#	   411	   412#	   412	   413#	   413	   414#	   414	   415#	   415	   416#	   416	   417#	   417
	   418#	   418	   419#	   419	   420#	   420	   421#	   421	   422#	   422	   423#	   423	   424#	   424
	   425#	   425	   426#	   426	   427#	   427	   428#	   428	   429#	   429	   430#	   430	   431#	   431
	   432#	   432	   433#	   433	   434#	   434	   435#	   435	   436#	   436	   437#	   437	   438#	   438
	   439#	   439	   440#	   440	   441#	   441	   442#	   442	   443#	   443	   444#	   444	   445#	   445
	   446#	   446	   447#	   447	   448#	   448	   571#	   572	   572#	   573	   573#	   574	   574#	   575
	   575#	   576	   576#	   577	   577#	   578	   578#	   579	   579#	   580	   580#	   581	   581#	   582
	   582#	   583	   583#	   586#	   587	   587#	   588	   588#	   589	   589#	   590	   590#	   591	   591#
	   592	   592#	   593	   593#	   594	   594#	   595	   595#	   596	   596#	   597	   597#	   598	   598#
ZZ1	   236#	   236	   237#	   237	   238#	   238	   239#	   239	   240#	   240	   241#	   241	   242#	   242
	   243#	   243	   244#	   244	   245#	   245	   246#	   246	   247#	   247	   248#	   248	   249#	   249
	   250#	   250	   251#	   251	   252#	   252	   253#	   253	   254#	   254	   255#	   255	   256#	   256
	   257#	   257	   258#	   258	   259#	   259	   260#	   260	   261#	   261	   262#	   262	   263#	   263
RCDATE - COMMON DATE STUFF FOR REMIND AND SEC	MACRO 12.5-46.0 21:52  2-MAR-81
RCDATE.MAC	19-JUN-78 15:07		Symbol cross reference

	   264#	   264	   265#	   265	   266#	   266	   267#	   267	   268#	   268	   269#	   269	   270#	   270	   271#
	   271	   272#	   272	   273#	   273	   274#	   274	   275#	   275	   276#	   276	   277#	   277	   278#
	   278	   279#	   279	   280#	   280	   281#	   281	   282#	   282	   283#	   283	   284#	   284	   285#
	   285	   286#	   286	   287#	   287	   288#	   288	   289#	   289	   290#	   290	   291#	   291	   292#
	   292	   293#	   293	   294#	   294	   295#	   295	   296#	   296	   297#	   297	   298#	   298	   299#
	   299	   300#	   300	   301#	   301	   302#	   302	   303#	   303	   304#	   304	   305#	   305	   306#
	   306	   307#	   307	   308#	   308	   309#	   309	   310#	   310	   311#	   311	   312#	   312	   313#
	   313	   314#	   314	   315#	   315	   316#	   316	   317#	   317	   318#	   318	   319#	   319	   320#
	   320	   321#	   321	   322#	   322	   323#	   323	   324#	   324	   325#	   325	   326#	   326	   327#
	   327	   328#	   328	   329#	   329	   330#	   330	   331#	   331	   332#	   332	   333#	   333	   334#
	   334	   335#	   335	   336#	   336	   337#	   337	   338#	   338	   339#	   339	   340#	   340	   341#
	   341	   342#	   342	   343#	   343	   344#	   344	   345#	   345	   346#	   346	   347#	   347	   348#
	   348	   349#	   349	   350#	   350	   351#	   351	   352#	   352	   353#	   353	   354#	   354	   355#
	   355	   356#	   356	   357#	   357	   358#	   358	   359#	   359	   360#	   360	   361#	   361	   362#
	   362	   363#	   363	   364#	   364	   365#	   365	   366#	   366	   367#	   367	   368#	   368	   369#
	   369	   370#	   370	   371#	   371	   372#	   372	   373#	   373	   374#	   374	   375#	   375	   376#
	   376	   377#	   377	   378#	   378	   379#	   379	   380#	   380	   381#	   381	   382#	   382	   383#
	   383	   384#	   384	   385#	   385	   386#	   386	   387#	   387	   388#	   388	   389#	   389	   390#
	   390	   391#	   391	   392#	   392	   393#	   393	   394#	   394	   395#	   395	   396#	   396	   397#
	   397	   398#	   398	   399#	   399	   400#	   400	   401#	   401	   402#	   402	   403#	   403	   404#
	   404	   405#	   405	   406#	   406	   407#	   407	   408#	   408	   409#	   409	   410#	   410	   411#
	   411	   412#	   412	   413#	   413	   414#	   414	   415#	   415	   416#	   416	   417#	   417	   418#
	   418	   419#	   419	   420#	   420	   421#	   421	   422#	   422	   423#	   423	   424#	   424	   425#
	   425	   426#	   426	   427#	   427	   428#	   428	   429#	   429	   430#	   430	   431#	   431	   432#
	   432	   433#	   433	   434#	   434	   435#	   435	   436#	   436	   437#	   437	   438#	   438	   439#
	   439	   440#	   440	   441#	   441	   442#	   442	   443#	   443	   444#	   444	   445#	   445	   446#
	   446	   447#	   447	   448#	   448
RCDATE - COMMON DATE STUFF FOR REMIND AND SEC	MACRO 12.5-46.0 21:52  2-MAR-81
RCDATE.MAC	19-JUN-78 15:07		Macro/Opdef cross reference

DATE	   617
DATEB	   163#	   236	   307	   378	   452
EXIT	   742
MSIZE	   563#	   571	   603
MSTIME	  1479
OUTCHI	   634	   637	  1496	  1497
OUTCHR	   645
OUTSTR	   740	  1498	  1499	  1502
TABLE	    60#	   234
WRD	    53#	   236	   237	   238	   239	   240	   241	   242	   243	   244	   245	   246	   247	   248
	   249	   250	   251	   252	   253	   254	   255	   256	   257	   258	   259	   260	   261	   262
	   263	   264	   265	   266	   267	   268	   269	   270	   271	   272	   273	   274	   275	   276
	   277	   278	   279	   280	   281	   282	   283	   284	   285	   286	   287	   288	   289	   290
	   291	   292	   293	   294	   295	   296	   297	   298	   299	   300	   301	   302	   303	   304
	   305	   306	   307	   308	   309	   310	   311	   312	   313	   314	   315	   316	   317	   318
	   319	   320	   321	   322	   323	   324	   325	   326	   327	   328	   329	   330	   331	   332
	   333	   334	   335	   336	   337	   338	   339	   340	   341	   342	   343	   344	   345	   346
	   347	   348	   349	   350	   351	   352	   353	   354	   355	   356	   357	   358	   359	   360
	   361	   362	   363	   364	   365	   366	   367	   368	   369	   370	   371	   372	   373	   374
	   375	   376	   377	   378	   379	   380	   381	   382	   383	   384	   385	   386	   387	   388
	   389	   390	   391	   392	   393	   394	   395	   396	   397	   398	   399	   400	   401	   402
	   403	   404	   405	   406	   407	   408	   409	   410	   411	   412	   413	   414	   415	   416
	   417	   418	   419	   420	   421	   422	   423	   424	   425	   426	   427	   428	   429	   430
	   431	   432	   433	   434	   435	   436	   437	   438	   439	   440	   441	   442	   443	   444
	   445	   446	   447	   448
X	   235#	   236	   237	   238	   239	   240	   241	   242	   243	   244	   245	   246	   247	   248
	   249	   250	   251	   252	   253	   254	   255	   256	   257	   258	   259	   260	   261	   262
	   263	   264	   265	   266	   267	   268	   269	   270	   271	   272	   273	   274	   275	   276
	   277	   278	   279	   280	   281	   282	   283	   284	   285	   286	   287	   288	   289	   290
	   291	   292	   293	   294	   295	   296	   297	   298	   299	   300	   301	   302	   303	   304
	   305	   306	   307#	   307	   308	   309	   310	   311	   312	   313	   314	   315	   316	   317
	   318	   319	   320	   321	   322	   323	   324	   325	   326	   327	   328	   329	   330	   331
	   332	   333	   334	   335	   336	   337	   338	   339	   340	   341	   342	   343	   344	   345
	   346	   347	   348	   349	   350	   351	   352	   353	   354	   355	   356	   357	   358	   359
	   360	   361	   362	   363	   364	   365	   366	   367	   368	   369	   370	   371	   372	   373
	   374	   375	   376	   377	   378#	   378	   379	   380	   381	   382	   383	   384	   385	   386
	   387	   388	   389	   390	   391	   392	   393	   394	   395	   396	   397	   398	   399	   400
	   401	   402	   403	   404	   405	   406	   407	   408	   409	   410	   411	   412	   413	   414
	   415	   416	   417	   418	   419	   420	   421	   422	   423	   424	   425	   426	   427	   428
	   429	   430	   431	   432	   433	   434	   435	   436	   437	   438	   439	   440	   441	   442
	   443	   444	   445	   446	   447	   448	   451#	   452	   453	   454	   455	   456	   457	   458
	   459	   460	   461	   462	   463	   464	   465	   466	   467	   468	   469	   470	   471	   472
	   473	   474	   475	   476	   477	   478	   479	   480	   481	   482	   483	   484	   485	   486
	   487	   488	   489	   490	   491	   492	   493	   494	   495	   496	   497	   498	   499	   500
	   501	   502	   503	   504	   505	   506	   507	   508	   509	   510	   511	   512	   513	   514
	   515	   516	   517	   518	   519	   520	   521	   522	   566#	   571	   586	   601#	   603MASTER CREF  2-MAR-81 21:55
        SYMBOL CROSS REFERENCE

ACCUM	RSCAN	    76	    93	    96	    99	   102	   106	   110	   269	   270	   271	   274	   307#
ADJST1	RCDATE	  1117	  1208	  1225#	  1259	  1324
ADJUST	RCDATE	  1048#	  1054	  1058	  1179	  1227
BETAB1	RCDATE	   838	   870#	   896
BETAB2	RCDATE	   855	   857	   872#	   880
BETABT	RCDATE	   829	   866#	   888
BETCNT	RCDATE	   808#	   808	   810	   864	   876	   879	   887	   895
BETCOM	RCDATE	   825#	   885
BETEND	RCDATE	   814#	   814	   844	   858	   861	   873
BETPTR	RCDATE	   811#	   811	   812	   863	   875	   884
BETRTY	RCDATE	   843	   852	   859	   879#
BETRY0	RCDATE	   826	   887#
BETRY1	RCDATE	   836	   895#
BETRYC	RCDATE	   881#	   893	   897
BETSTR	RCDATE	   813#	   813	   821	   827	   830	   837	   845	   856	   862	   874	   881	   892
BIGDOM	RDATE	   423	   438#
BLK	RCDATE	    13#	  1405	  1407	  1431
BLK	RCMAL	    13#	    92	    94	   134
BLK	RCOM	    13#
BLK	RDATE	    13#	   731	   732	   738	   743	   749
BLK	RMAIN	    13#
BLK	RMAL	    13#	    92	   121	   122	   124	   125	   132	   133	   137	   142	   145	   163	   164
	   167	   169	   181	   205	   212
BLK	RRMD	    13#	   109	   114	   131	   132	   137	   139	   140	   146	   147	   151	   155	   157
	   161	   171	   177	   179	   198	   199	   210	   223	   244	   247	   251	   255	   271	   278
	   296	   310	   322	   329	   338	   355	   362	   367	   377	   401	   408
BLK	RSCAN	    13#
BLK	2	    13#	    93	    96	    97	    98	    99	   100	   103	   104	   150	   171	   189	   201
	   210	   219	   249	   251
BLKCLR	2	    87#	    90
BREAK	RCDATE	   630	   653#	  1026	  1030	  1135	  1184	  1212	  1252	  1278	  1308	  1331
BREAK1	RCDATE	   659	   666#
BUF	RCDATE	    12#	  1407	  1413	  1429
BUF	RCMAL	    12#	    94	    97	   134
BUF	RCOM	    12#
BUF	RDATE	    12#	   734	   739	   741	   745	   747	   751
BUF	RMAIN	    12#
BUF	RMAL	    12#	    95	   118	   120	   124	   127	   128	   130	   135	   137	   139	   145	   148
	   164	   169	   172	   181	   192	   193	   194	   195
BUF	RRMD	    12#	   112	   115	   132	   139	   149	   156	   159	   174	   176	   182	   183	   188
	   190	   196	   202	   212	   223	   235	   238	   239	   240	   241	   242	   246	   249	   253
	   257	   269	   281	   302	   308	   319	   321	   326	   327	   331	   333	   341	   355	   395
	   401
BUF	RSCAN	    12#
BUF	2	    12#	   105	   106	   148	   149	   152	   153	   156	   158	   159	   165	   171	   189
	   190	   191	   192	   193	   213	   215	   217	   254
BUFBLK	RDATE	    87%	   739	   741	   745
BUFBLK	RMAL	    79%	   118	   120	   139
BUFBLK	RRMD	    78%	   174	   176	   190	   319	   321	   333
BUFBLK	2	    73	    79#	    87	   149	   156	   171	   189	   254
MASTER CREF  2-MAR-81 21:55
        SYMBOL CROSS REFERENCE

BUFDTA	RCDATE	   108%	  1407	  1413	  1429
BUFDTA	RCMAL	    75%	    94	    97	   134
BUFDTA	RDATE	    87%	   734	   747	   751
BUFDTA	RMAL	    79%	    95	   124	   127	   128	   130	   135	   137	   145	   148	   164	   169	   172
	   181	   192	   193	   194	   195
BUFDTA	RRMD	    78%	   112	   115	   132	   139	   149	   156	   159	   182	   183	   188	   196	   202
	   212	   223	   235	   238	   239	   240	   241	   242	   246	   249	   253	   257	   302	   308
	   326	   327	   331	   341	   355	   395	   401
BUFDTA	2	    73	    82#	   190	   191	   192	   193	   213	   215	   217
BUFINI	RMAIN	    72%	   152
BUFINI	2	    73	    84#	    95
BUFIOW	2	    81#	   105	   106
BUFLNK	2	    80#	    88	   152	   158	   165
BUFNUM	2	    78#	   120	   147
BUFR0	2	    85	   123#	   147
BUFR1	2	   124	   129#
BUFR2	2	   130	   135#
BUFR3	2	   136	   141#
BUFR4	2	   142	   147#
C	RCDATE	    11#
C	RCMAL	    11#
C	RCOM	    11#
C	RDATE	    11#
C	RMAIN	    11#
C	RMAL	    11#
C	RRMD	    11#	   100	   103
C	RSCAN	    11#	   302	   303
C	2	    11#
CANCL	RMAIN	   381	   480#
CHANG	RMAIN	   379	   482#
CHGDAT	RDATE	    93	  1142#
CHGDAT	RMAIN	    86%	   482
CHGFIL	RMAIN	    78%	   485
CHGFIL	RRMD	    72	   263#
CHGMAL	RMAIN	    81%	   486
CHGMAL	RMAL	    72	   198#
CHGREM	RMAIN	    78%	   483
CHGREM	RRMD	    72	   405#
CHGTNW	RRMD	   277	   288#
CIRC	RCDATE	    29#
CIRC	RCMAL	    29#
CIRC	RCOM	    29#
CIRC	RDATE	    29#
CIRC	RMAIN	    29#
CIRC	RMAL	    29#
CIRC	RRMD	    29#
CIRC	RSCAN	    29#
CIRC	2	    29#
CLRALR	RCDATE	   101	  1484	  1488	  1515#
CMD	RDATE	    83%	   166	   203	   255	   678	   684	   720	  1020	  1082	  1086	  1093	  1097	  1106
MASTER CREF  2-MAR-81 21:55
        SYMBOL CROSS REFERENCE

CMD	RDATE	  1111	  1124	  1128	  1135	  1141	  1216	  1251	  1279	  1288
CMD	RMAIN	    88	   154#	   162	   210	   491
CMD	RMAL	    75%	   105	   111	   115	   140	   170	   183	   197	   219	   222
CMD	RRMD	    81%	   191	   207	   225	   259	   262	   286	   317	   334	   357	   380	   388	   423
	   427
CMDSCL	RMAIN	   168#	   194
CMDTB0	RMAIN	   332	   337#
CMDTB1	RMAIN	   333	   385#
CMDTB2	RMAIN	   334	   405#
CMDTB3	RMAIN	   335	   437#
CMDTB4	RMAIN	   336	   449#
COD10C	RDATE	   647#	   663
CODE	RCDATE	    17#	   682	   686	   688	   690	   691	   692	   748	   976	   982	   984	   988	   992
	   993	   999	  1000	  1007	  1018	  1041	  1046	  1069	  1070	  1071	  1072	  1078	  1079	  1085
	  1091	  1104	  1107	  1110	  1122	  1127	  1130	  1136	  1137	  1148	  1171	  1172	  1177	  1185
	  1189	  1192	  1193	  1194	  1195	  1202	  1206	  1207	  1213	  1214	  1228	  1229	  1230	  1231
	  1232	  1233	  1239	  1240	  1241	  1270	  1271	  1275	  1301	  1303	  1318	  1323	  1327	  1332
	  1333	  1336	  1339	  1340	  1345	  1349	  1350	  1354	  1355	  1356	  1357	  1358	  1361	  1362
	  1368	  1369	  1370	  1371	  1372	  1375	  1376	  1381	  1383	  1384	  1385	  1389	  1391	  1392
	  1393
CODE	RCMAL	    17#
CODE	RCOM	    17#
CODE	RDATE	    17#	   109	   116	   119	   124	   272	   281	   297	   314	   319	   324	   341	   360
	   373	   386	   391	   411	   412	   413	   456	   464	   468	   490	   494	   510	   524	   529
	   581	   588	   604	   856	   861	   862	   864	   901	   914	   922	   923	   951	   954	   967
	  1015
CODE	RMAIN	    17#
CODE	RMAL	    17#
CODE	RRMD	    17#
CODE	RSCAN	    17#
CODE	2	    17#
CODE1	RDATE	   537#
CODE10	RDATE	   532	   644#
CODE2	RDATE	   447#	   506
CODE3	RDATE	   548#
CODE3B	RDATE	   554	   557#
CODE3C	RDATE	   559#	   613
CODE3S	RDATE	   536	   547#
CODE4	RDATE	   609#
CODE5	RDATE	   415#	   462	   467
CODE5B	RDATE	   421	   424#
CODE5C	RDATE	   426#	   628
CODE5S	RDATE	   414#	   505	   596
CODE6	RDATE	   624#
CODE7	RDATE	   501	   655#
CODE8	RDATE	   503	   636#
CODE8C	RDATE	   639#	   658
CODE9	RDATE	   534	   660#
COMBUF	RDATE	   162	   194#
COMCRL	RDATE	   830	   978#
MASTER CREF  2-MAR-81 21:55
        SYMBOL CROSS REFERENCE

COMDBF	RCDATE	  1339#	  1346
COMTIM	RDATE	   774	   781#
CPOPJ	RCDATE	   106%	   534
CPOPJ	RCOM	    72	    86	    93	   111#
CPOPJ	RDATE	    81%	   861
CPOPJ	RSCAN	   112	   117#
CPOPJ1	RCDATE	   106%	   554	   807	   977	   989	  1089	  1131	  1153	  1351	  1386	  1394	  1427	  1455
	  1508
CPOPJ1	RCOM	    72	   110#
CPOPJ1	RDATE	    81%	   523
CPOPJ1	RMAL	    83%	   159
CPOPJ1	RRMD	    83%	   128
CPOPJ1	RSCAN	   100	   116#
CPOPJ1	2	    72%	   234
CPRML	RCMAL	    72	    86#
CPRML	RMAL	    77%	   221
CRTREM	2	   204	   208#
CS	RCDATE	    10#	  1411	  1412	  1413	  1414	  1415	  1419	  1421	  1423	  1425	  1429	  1431	  1436
	  1439	  1440	  1441	  1457	  1460	  1463	  1464	  1466	  1469	  1476	  1481	  1482	  1492	  1498
	  1505	  1516	  1518
CS	RCMAL	    10#
CS	RCOM	    10#
CS	RDATE	    10#	   100	   113	   149	   151	   190	   191	   192	   193	   693	   707	   751	   752
	   753	   755	   765	   771	   787	   796	   812	   816	  1024	  1034	  1038	  1052	  1065	  1067
	  1075	  1116	  1118	  1126	  1133	  1145	  1155	  1156	  1161	  1167	  1170	  1176	  1178	  1179
	  1186	  1187	  1189	  1192	  1195	  1199	  1200	  1207	  1208	  1212	  1214	  1218	  1219	  1221
	  1230	  1233	  1254	  1255	  1257	  1259	  1264
CS	RMAIN	    10#	   161
CS	RMAL	    10#
CS	RRMD	    10#	    97	    98	   379	   381
CS	RSCAN	    10#	   265	   267	   268	   275	   278	   280	   281	   282	   288	   290	   292	   303
CS	2	    10#
CSAVE	RDATE	  1145#	  1145	  1155	  1167	  1178	  1186	  1189	  1199	  1207	  1212
CSNUM	RSCAN	   120#	   173	   174	   175	   176	   177	   178	   179	   180	   181	   182	   275	   292
CTAB	RSCAN	   123#	   125	   126	   127	   128	   129	   130	   131	   132	   137	   138	   139	   140
	   141	   142	   143	   144	   145	   146	   147	   148	   149	   150	   151	   152	   153	   154
	   157	   158	   159	   160	   161	   162	   163	   164	   165	   166	   167	   168	   169	   170
	   171	   173	   174	   175	   176	   177	   178	   179	   180	   181	   182	   184	   185	   186
	   187	   188	   189	   190	   192	   193	   194	   195	   196	   197	   198	   199	   200	   201
	   202	   203	   204	   205	   206	   207	   208	   209	   210	   211	   212	   213	   214	   215
	   216	   217	   219	   220	   221	   222	   223	   224	   226	   227	   228	   229	   230	   231
	   232	   233	   234	   235	   236	   237	   238	   239	   240	   241	   242	   243	   244	   245
	   246	   247	   248	   249	   250	   251	   253	   254	   255	   256	   257	   303
CURMON	RCDATE	  1032#	  1032	  1082	  1100	  1244	  1254	  1296	  1310
CURTBL	RMAIN	   164#	   164	   170	   181	   186	   188
CURYR	RCDATE	  1034#	  1034	  1083	  1101	  1245	  1298	  1314
D1PRLP	RDATE	   826#	   891	   973	   977	   984	   987	   990	   993	   997	  1000	  1003	  1006	  1009
	  1012
D2PRLP	RDATE	   890#	   896	   906	   911	  1017
DATBET	RDATE	   236	   382#
MASTER CREF  2-MAR-81 21:55
        SYMBOL CROSS REFERENCE

DATBUF	RCDATE	   102	  1402#
DATBUF	RDATE	    76%	   154	   161	   194	   206	   208	   252	  1220
DATCNC	RCDATE	   102	  1400#
DATCNC	RDATE	    79%	   718
DATCNL	RDATE	    93	  1113#
DATCNL	RMAIN	    86%	   480
DATCNT	RCDATE	   102	  1396#
DATCNT	RDATE	    77%	   158	   192	   193	   752	   754	   809	  1157	  1159	  1163	  1222	  1231	  1232
	  1234
DATCRF	RDATE	   300#	   318
DATDAY	RDATE	   239	   441#
DATDIS	RDATE	    92	  1018#
DATDIS	RMAIN	    85%	   478
DATDL1	RCDATE	   103	  1436#
DATDL1	RDATE	    79%	  1092	  1164
DATDL2	RCDATE	  1439#	  1442
DATDOW	RDATE	   229	   630#
DATDY1	RDATE	   497	   526#
DATDY2	RDATE	   527	   575#
DATDY3	RDATE	   578	   593#
DATEN1	RDATE	   242	   617#
DATEND	RDATE	   228	   268#
DATEXC	RDATE	   235	   371#
DATFN1	RDATE	   170#	  1154
DATFND	RDATE	   168#	   189	  1091	  1115	  1132	  1139	  1144
DATINS	RDATE	   719#	   736
DATLNG	RDATE	   282	   290#	   298	   315	   325	   342	   361	   374	   387	   392	   417	   425	   428
	   449	   471	   483	   486	   539	   544	   550	   558	   561	   564	   568	   611	   626	   638
	   646	   651	   657	   662
DATLPR	RDATE	   243	   321#
DATMNM	RDATE	   230	   454#
DATMNU	RDATE	   459	   464#
DATMON	RDATE	   238	   408#
DATNBK	RDATE	   726	   738#
DATNM1	RDATE	   226	   579#
DATNM2	RDATE	   227	   598#
DATNM3	RDATE	   603	   615#
DATNMB	RCDATE	   101	  1412#	  1412	  1422	  1500
DATNMB	RDATE	    77%	   175	   181	   759	  1028	  1151
DATNUM	RDATE	   225	   488#
DATNXT	RDATE	    93	  1247#
DATNXT	RMAIN	    86%	   479
DATOR	RDATE	   231	   279#
DATREF	RCDATE	   103	   698	  1461#	  1461
DATREF	RDATE	    79%	   197	   215	  1117	  1258
DATRFN	RDATE	   232	   294#
DATRPR	RDATE	   244	   338#
DATSAV	RDATE	  1175#	  1175	  1185	  1191
DATSIZ	RCDATE	    49#	  1402
DATSIZ	RCMAL	    49#
MASTER CREF  2-MAR-81 21:55
        SYMBOL CROSS REFERENCE

DATSIZ	RCOM	    49#
DATSIZ	RDATE	    49#	   210
DATSIZ	RMAIN	    49#
DATSIZ	RMAL	    49#
DATSIZ	RRMD	    49#
DATSIZ	RSCAN	    49#
DATSIZ	2	    49#
DATTDY	RDATE	   245	   357#
DATTIM	RCDATE	   102	  1399#
DATTIM	RDATE	    77%	   686	   692	   695	   701	   703
DATTIM	RRMD	    85%	   425
DATTMR	RDATE	   247	   369#
DATTXT	RCDATE	   102	  1401#
DATTXT	RDATE	    77%	   716	   717
DATUNC	RDATE	    93	  1130#
DATUNC	RMAIN	    86%	   481
DATUNT	RDATE	   233	   312#
DATWRN	RCDATE	   102	  1398#
DATWRN	RDATE	    77%	   705	   711	  1162
DATYST	RDATE	   246	   366#
DAY	RCDATE	   100	   551#	   551	   620	   635	   676	  1062	  1067	  1093	  1104	  1107	  1110	  1148
	  1162	  1261	  1294
DAY	RDATE	    78%	   412	   418	   444	   450	   461	   464	   490	   540	   551	   581	   594	   633
	   639	   647
DBAFCM	RDATE	   950#	   959	   962
DCMIII	RDATE	   535#	   590
DCNT	RCDATE	    15#
DCNT	RCMAL	    15#
DCNT	RCOM	    15#
DCNT	RDATE	    15#	   210	   282	   298	   315	   325	   342	   361	   374	   387	   392	   417	   425
	   428	   449	   471	   483	   486	   539	   544	   550	   558	   561	   564	   568	   611	   626
	   638	   646	   651	   657	   662
DCNT	RMAIN	    15#
DCNT	RMAL	    15#
DCNT	RRMD	    15#
DCNT	RSCAN	    15#
DCNT	2	    15#
DELDAT	RDATE	    92	  1089#
DELDAT	RMAIN	    85%	   460
DELETE	RMAIN	   374	   460#
DELFIL	RMAIN	    78%	   463
DELFIL	RRMD	    72	   227#
DELMAL	RMAIN	    81%	   464
DELMAL	RMAL	    72	   185#
DELREM	RMAIN	    78%	   461
DELREM	RRMD	    72	   359#
DEPFIN	RDATE	   480	   485#
DEPNUM	RDATE	    94	   362	   431	   451	   474	   478#	   484	   541	   640	   648
DESDAT	RDATE	   170#	   170	   176	   182	   184
DIPRS	RCDATE	    37#
MASTER CREF  2-MAR-81 21:55
        SYMBOL CROSS REFERENCE

DIPRS	RCMAL	    37#
DIPRS	RCOM	    37#
DIPRS	RDATE	    37#
DIPRS	RMAIN	    37#	   175	   373	   374	   375	   376	   377	   378	   379	   380	   381	   382	   383
	   384
DIPRS	RMAL	    37#
DIPRS	RRMD	    37#
DIPRS	RSCAN	    37#
DIPRS	2	    37#
DISP	RMAIN	   384	   478#
DLFL1	RRMD	   250	   253#
DLFL2	RRMD	   248#	   252
DLRM1	RRMD	   365#	   382
DLRMBK	RRMD	   392	   400#
DLRMNN	RRMD	   370	   383#	   414
DONXT	RDATE	  1271	  1278#
DOWAFC	RCDATE	  1250	  1268	  1276	  1290#
DOWAFE	RCDATE	  1004#	  1291	  1302	  1374
DOWAFN	RCDATE	   995	  1003#	  1382
DOWBFE	RCDATE	  1014#	  1203	  1292
DOWBFN	RCDATE	  1015#	  1360	  1390
DOWTBG	RDATE	   556	   571#
DPLDW1	RDATE	   939#	   948
DPLDY1	RDATE	   929	   932#
DPMDW2	RDATE	   938	   942#	   949
DPMDY2	RDATE	   900	   908#
DPMDY3	RDATE	   909#	   933	   940
DPMDY4	RDATE	   904#	   930	   943
DPOPJ	RCDATE	  1121	  1123	  1127#	  1348	  1380	  1388
DPOPJ1	RCDATE	  1113	  1130#	  1205	  1256	  1282	  1337
DPOPJ2	RCDATE	  1322	  1336#
DPRAFC	RDATE	   963	   976#
DPRAND	RDATE	   851	  1005#
DPRBET	RDATE	   850	  1002#
DPRBFC	RDATE	   960	   972#
DPRDAF	RDATE	   841	   962#
DPRDAT	RDATE	   852	  1014#
DPRDAY	RDATE	   835	   887#
DPRDBF	RDATE	   840	   959#
DPRDOT	RDATE	   833	   883#
DPRDOW	RDATE	   834	   893#
DPRFRV	RDATE	   848	   995#
DPRLDW	RDATE	   837	   945#
DPRLDY	RDATE	   839	   927#
DPRLPR	RDATE	   853	  1008#
DPRMDW	RDATE	   836	   935#
DPRMDY	RDATE	   838	   898#
DPRNM1	RDATE	   856#	   915
DPRNUM	RDATE	   857	   861#	   926	   968
DPROR	RDATE	   844	   983#
MASTER CREF  2-MAR-81 21:55
        SYMBOL CROSS REFERENCE

DPRREF	RDATE	   845	   986#
DPRRPR	RDATE	   854	  1011#
DPRSTR	RDATE	   846	   989#
DPRUNT	RDATE	   847	   992#
DPRWAF	RDATE	   843	   975#
DPRWBF	RDATE	   842	   971#
DPRXCP	RDATE	   849	   999#
DPTR	RCDATE	    14#	   683	   704	   714	   812	   834	   867	   884	   927	   949	   993	  1069	  1071
	  1171	  1192	  1194	  1228	  1230	  1232	  1357	  1371	  1457	  1458	  1459
DPTR	RCMAL	    14#
DPTR	RCOM	    14#
DPTR	RDATE	    14#	   154	   155	   194	   195	   208	   209	   272	   281	   297	   314	   319	   324
	   341	   360	   373	   386	   391	   416	   424	   427	   448	   470	   482	   485	   538	   543
	   549	   557	   560	   563	   567	   610	   625	   637	   645	   650	   656	   661	   825	   826
	   899	   918	   922	   928	   937	   947	  1024	  1025	  1026	  1118	  1119	  1120	  1259	  1260
	  1261
DPTR	RMAIN	    14#
DPTR	RMAL	    14#
DPTR	RRMD	    14#
DPTR	RSCAN	    14#
DPTR	2	    14#
DSPIND	RCDATE	    38#
DSPIND	RCMAL	    38#
DSPIND	RCOM	    38#
DSPIND	RDATE	    38#
DSPIND	RMAIN	    38#	   177	   400	   401	   402	   403	   404	   429	   430	   431	   432	   433	   434
	   435	   436	   446	   447	   448	   452
DSPIND	RMAL	    38#
DSPIND	RRMD	    38#
DSPIND	RSCAN	    38#
DSPIND	2	    38#
DTCMI	RDATE	   465#	   495
DTCMII	RDATE	   504#	   586
DTCMIV	RDATE	   528#	   634
DTCMV	RDATE	   445	   498#
DTEST	RDATE	    92	   664#
DTEST	RMAIN	    85%	   477
DTEST1	RDATE	   667#	   679
DTSBII	RDATE	   504	   508#	   535	   606	   621
DUPFIL	RRMD	   170	   206#	   290
DWDLN	RCDATE	   449#	   523	   523#	   528	   529	   632	   649
DWDLN3	RCDATE	   100	   529#
DWDLN3	RDATE	    78%	   106	   108	   109
DWDTB	RCDATE	   100	   234#	   525	   526
DWDTB	RDATE	    78%	   103
ENDMAL	RCMAL	    95	   135	   146#
ENDUSR	RCMAL	   107	   113#
ERR0	RMAIN	   206	   212#	   247
ERR1	RMAIN	   220#	   242
ERR2	RMAIN	   231#	   251
MASTER CREF  2-MAR-81 21:55
        SYMBOL CROSS REFERENCE

ERROR	RMAIN	   169	   195#
ERRTBL	RMAIN	   165#	   165	   189	   203
EVOTHE	RDATE	   898	   922#	   935
FBEF	RCDATE	    27#	   711	   749	   793	   815	   833	   866	   889	   987	  1044	  1075	  1087	  1094
	  1103	  1133	  1143	  1154	  1166	  1178	  1187	  1217	  1225	  1236	  1248	  1262	  1273	  1285
	  1290	  1329
FBEF	RCMAL	    27#
FBEF	RCOM	    27#
FBEF	RDATE	    27#	   216	   294	   312	   322	   338	   371	   383	   433	   641	   652
FBEF	RMAIN	    27#
FBEF	RMAL	    27#
FBEF	RRMD	    27#
FBEF	RSCAN	    27#
FBEF	2	    27#
FEXCPT	RCDATE	    24#
FEXCPT	RCMAL	    24#
FEXCPT	RCOM	    24#
FEXCPT	RDATE	    24#	   216	   328	   331	   332	   333	   371	   375
FEXCPT	RMAIN	    24#
FEXCPT	RMAL	    24#
FEXCPT	RRMD	    24#
FEXCPT	RSCAN	    24#
FEXCPT	2	    24#
FILDAT	RDATE	   152	   188#
FILDT1	RDATE	   173	   175#	   180	   185
FILNUM	2	    84#	    84	    93	    96
FINDAT	RDATE	   269	   275#
FINDBF	RCDATE	  1341	  1348#
FINWAF	RCDATE	  1364	  1380#
FINWBF	RCDATE	  1378	  1388#
FL	RCDATE	     1#	   711	   749	   756	   785	   791	   793	   815	   833	   866	   889	   904	   912
	   913	   944	   987	  1044	  1075	  1087	  1094	  1103	  1133	  1143	  1154	  1166	  1178	  1187
	  1217	  1225	  1236	  1248	  1262	  1273	  1285	  1290	  1329
FL	RCMAL	     1#
FL	RCOM	     1#
FL	RDATE	     1#	   101	   168	   216	   217	   268	   279	   283	   294	   295	   300	   302	   304
	   305	   312	   321	   322	   327	   328	   332	   333	   338	   358	   371	   375	   382	   383
	   385	   393	   395	   397	   408	   432	   433	   434	   441	   454	   488	   579	   598	   617
	   630	   641	   652	   709	   767	   776	   791	   800	   824	   890	   978	  1197	  1249	  1267
	  1278
FL	RMAIN	     1#
FL	RMAL	     1#
FL	RRMD	     1#	   365	   411
FL	RSCAN	     1#	    73	   264	   283	   294
FL	2	     1#
FNDBF1	2	   149#	   154
FNDBF2	2	   156#	   160
FNDBUF	2	   148#	   169	   176	   187
FNDDAT	RCDATE	   100	   757#	   757	   758	   787	   794	   800	   806	   905	   906	   911	   945	   946
FNDDAT	RDATE	    78%	   669
MASTER CREF  2-MAR-81 21:55
        SYMBOL CROSS REFERENCE

FNDMTY	RDATE	   724	   727	   809#
FNEED1	RCDATE	    23#
FNEED1	RCMAL	    23#
FNEED1	RCOM	    23#
FNEED1	RDATE	    23#	   217	   268	   279	   283	   295	   300	   305	   321	   338	   358	   371	   375
	   382	   385	   393	   395	   397	   408	   433	   441	   454	   488	   579	   598	   617	   630
	  1249	  1267	  1278
FNEED1	RMAIN	    23#
FNEED1	RMAL	    23#
FNEED1	RRMD	    23#
FNEED1	RSCAN	    23#
FNEED1	2	    23#
FRDATE	RCDATE	    26#	   711	   756	   785	   791	   904	   913
FRDATE	RCMAL	    26#
FRDATE	RCOM	    26#
FRDATE	RDATE	    26#	   300	   302	   432	   824	   890	   978
FRDATE	RMAIN	    26#
FRDATE	RMAL	    26#
FRDATE	RRMD	    26#
FRDATE	RSCAN	    26#
FRDATE	2	    26#
FREF	RCDATE	    25#
FREF	RCMAL	    25#
FREF	RCOM	    25#
FREF	RDATE	    25#	   216	   294	   300	   304	   312	   322	   338	   371	   383	   434
FREF	RMAIN	    25#
FREF	RMAL	    25#
FREF	RRMD	    25#
FREF	RSCAN	    25#
FREF	2	    25#
FREF2	RCDATE	    28#
FREF2	RCMAL	    28#
FREF2	RCOM	    28#
FREF2	RDATE	    28#	   216	   294	   312	   328	   334	   371	   385	   393	   395	   397	   434
FREF2	RMAIN	    28#
FREF2	RMAL	    28#
FREF2	RRMD	    28#
FREF2	RSCAN	    28#
FREF2	2	    28#
GENBET	RCDATE	   734	   808#
GENDAT	RCDATE	    99	   696#	  1473
GENDAT	RDATE	    76%	   667	  1102	  1123	  1262
GENDT1	RCDATE	   714#	   746	   753	   755	   759	   766	   772	   777	   782	   797	   877	   901	   903
	   907	   932
GENDT2	RCDATE	   704#	   803
GENEND	RCDATE	   717	   785#
GENFRV	RCDATE	   732	   744#
GENOR	RCDATE	   713#	   728
GENRDT	RCDATE	   736	   747#
GENREF	RCDATE	   729	   769#
MASTER CREF  2-MAR-81 21:55
        SYMBOL CROSS REFERENCE

GENRPR	RCDATE	   738	   784#
GENSAV	RCDATE	   749#	   767	   865
GENSTR	RCDATE	   730	   774#
GENSUB	RCDATE	   718	   719	   720	   721	   722	   723	   724	   725	   726	   727	   737	   761#
GENSVB	RCDATE	   750	   899#
GENTAB	RCDATE	   715	   717#
GENTDY	RCDATE	    99	   617#	  1449
GENTDY	RDATE	    76%	   212	   357	   366	   369	   665	  1100	  1121	  1247
GENUNT	RCDATE	   731	   779#
GENXCP	RCDATE	   733	   790#
GETNM1	RDATE	   888	   894	   909	   913#
GETNUM	RCDATE	   103	   679#	   747	   975	   979	   991	  1073	  1173	  1196	  1234	  1338	  1344	  1353
	  1367
GETNUM	RDATE	    79%	   913	   950	   966	  1014
GETREM	RRMD	    78%	   144
GETREM	2	    74	   203	   224#	   240
GETRM1	2	   229	   236#
GETTRY	2	   225#	   225	   236
GETTY	RRMD	    76%	    96	   104
GETTY	RSCAN	    71	   266	   279	   291	   300#
GMIN	RDATE	   792	   796#
GMIN1	RDATE	   798	   802#
GOTBUF	2	   157	   165#
GTIME	RDATE	    94	   689	   698	   765#	  1172	  1182
GTNM1	RCDATE	   683#	   689
GTNMFN	RCDATE	   685	   690#
GTNS	RDATE	   778	   785#	   788	   801
GTREL	RDATE	   768	   787#
GTS0	RDATE	   783#	   807
GTS1	RDATE	   766	   784#
HOURS	RDATE	   789#	   789	   794	   802
IDF	RCDATE	    21#
IDF	RCMAL	    21#
IDF	RCOM	    21#
IDF	RDATE	    21#
IDF	RMAIN	    21#
IDF	RMAL	    21#
IDF	RRMD	    21#
IDF	RSCAN	    21#	    73	   264	   283
IDF	2	    21#
ILLBET	RDATE	   384	   400#
ILLDAT	RDATE	   234	   237	   240	   241	   250#	   296	   313	   359	   409	   442	   455	   473	   489
	   513	   576	   580	   592	   599	   608	   616	   618	   623	   631
ILLDCM	RDATE	   252#	   277	   288	   292	   310	   347	   351	   355	   380	   402	   406	   440	   573
ILLEXC	RDATE	   372	   378#
ILLLPR	RDATE	   323	   345#
ILLNAN	RDATE	   390	   404#
ILLOR	RDATE	   280	   286#
ILLREF	RDATE	   303	   308#
ILLRPR	RDATE	   340	   349#
MASTER CREF  2-MAR-81 21:55
        SYMBOL CROSS REFERENCE

ILLUMP	RDATE	   271	   353#
ILLWRT	2	   178	   183#
INC1	RSCAN	    87#	    87	    95	   104
INC2	RSCAN	    90#	    90	    98	   108
INIDAT	RCDATE	   101	  1405#	  1454
INIDAT	RDATE	    77%	   171	   722	  1081	  1250
INIDCS	RCDATE	  1411#
INIDT2	RCDATE	  1413#	  1434
INIREM	2	   206	   210#
INSDAT	RDATE	    92	   685#
INSDAT	RMAIN	    85%	   455
INSDT1	RDATE	    94	   719	   722#	  1166
INSERT	RMAIN	   373	   455#
INSF1	RRMD	   171#	   204
INSFIL	RMAIN	    78%	   458
INSFIL	RRMD	    72	   165#
INSMAL	RMAIN	    81%	   459
INSMAL	RMAL	    72	    84#
INSREM	RMAIN	    78%	   456
INSREM	RRMD	    72	   293#
INSRM1	RRMD	   305	   313#
INSRM2	RRMD	   304#	   307
INSRM3	RRMD	   301#	   311
INWD	2	    99	   105#	   173
IRMNBK	RRMD	   309	   319#
ITEM	RCDATE	    16#	   714	   715	   949	   950
ITEM	RCMAL	    16#
ITEM	RCOM	    16#
ITEM	RDATE	    16#	   108	   117	   123	   222	   317	   389	   458	   466	   492	   493	   496	   500
	   502	   508	   512	   516	   522	   526	   531	   533	   575	   584	   587	   591	   602	   615
	   826	   827	   828	   831
ITEM	RMAIN	    16#
ITEM	RMAL	    16#
ITEM	RRMD	    16#
ITEM	RSCAN	    16#
ITEM	2	    16#
ITMAFT	RCDATE	    89#	    98	   491
ITMAFT	RDATE	    91	   241#	   502	   531
ITMAND	RCDATE	    85#	    97	   484
ITMAND	RDATE	    90	   237#	   389
ITMBEF	RCDATE	    88#	    98	   490
ITMBEF	RDATE	    91	   240#	   500	   533
ITMBET	RCDATE	    84#	    97	   483
ITMBET	RDATE	    90	   236#
ITMDAY	RCDATE	    87#	    98	   486
ITMDAY	RDATE	    91	   239#	   496	   584	   615
ITMDOT	RCDATE	    76#	    96
ITMDOT	RDATE	    89	   142	   228#
ITMDOW	RCDATE	    77#	    96	   452	   453	   454	   455	   456	   457	   458	   471
ITMDOW	RDATE	    89	   229#	   526	   587	   602
MASTER CREF  2-MAR-81 21:55
        SYMBOL CROSS REFERENCE

ITMEND	RCDATE	    90#	    98	   488
ITMEND	RDATE	    91	   242#
ITMEXC	RCDATE	    83#	    97	   482
ITMEXC	RDATE	    90	   235#
ITMFRV	RCDATE	    82#	    97	   481
ITMFRV	RDATE	    90	   234#	   317
ITMLPR	RDATE	   143	   243#
ITMMN	RCDATE	    78#	    96	   459	   460	   461	   462	   463	   464	   465	   466	   467	   468	   469
	   470
ITMMN	RDATE	    89	   230#	   492	   522
ITMMON	RCDATE	    86#	    98	   485
ITMMON	RDATE	    90	   238#	   512	   516	   575	   591
ITMNM1	RCDATE	    74#	    96	   489
ITMNM1	RDATE	    89	   226#	   508
ITMNM2	RCDATE	    75#	    96	   487
ITMNM2	RDATE	    89	   227#
ITMNMB	RDATE	   102	   122#
ITMNUM	RCDATE	    73#	    96	   492	   493	   494	   495	   496	   497	   498	   499	   500	   501	   502
	   503	   504	   505	   506	   507	   508	   509	   510	   511	   512	   513	   514	   515	   516
	   517	   518	   519	   520	   521	   522
ITMNUM	RDATE	    89	   123	   225#	   458	   466	   493
ITMOR	RCDATE	    79#	    97	   472
ITMOR	RDATE	    89	   231#
ITMREF	RCDATE	    80#	    97	   473	   474	   475
ITMREF	RDATE	    90	   232#
ITMRPR	RDATE	   144	   244#
ITMSC1	RDATE	   100#	   218
ITMSCN	RDATE	    99#	   105	   107	   115	   122	   221	   299	   316	   336	   363	   414	   457	   465
	   475	   491	   499	   511	   530	   547	   582	   585	   589	   601	   605	   612	   620	   627
ITMSPC	RDATE	   100	   112#
ITMTB	RDATE	   222	   224#
ITMTDY	RCDATE	    91#	    98	   478
ITMTDY	RDATE	    91	   245#
ITMTMR	RCDATE	    93#	    98	   480
ITMTMR	RDATE	    91	   247#
ITMUNT	RCDATE	    81#	    97	   477
ITMUNT	RDATE	    90	   233#
ITMYST	RCDATE	    92#	    98	   479
ITMYST	RDATE	    91	   246#
JOBVER	RMAIN	    90	    91#	    92
KEPDAT	RDATE	   150	   161#
L1DATE	RDATE	  1024#	  1084	  1140
LADSKP	RDATE	  1083	  1085#	  1087
LADTS	RDATE	    92	  1081#
LADTS	RMAIN	    85%	   472
LEAP	RCDATE	   537#	   537	   548	   556
LFBLK	RRMD	   131#	   131	   199
LFEBLK	RRMD	   215	   223#
LFENXB	RRMD	   211#	   224
LFNXF	RRMD	   214#	   222
MASTER CREF  2-MAR-81 21:55
        SYMBOL CROSS REFERENCE

LFNXT	RRMD	   217	   221#
LIDAT	RDATE	    93	  1137#
LIDAT	RMAIN	    86%	   471
LNXRM	RRMD	   344	   352#
LNXRM1	RRMD	   343#	   354
LNXRM2	RRMD	   340#	   356
LOCREM	RRMD	   369	   390#	   402	   413
LOKSPC	RDATE	   725#	   728	   815	   819
LPRBDT	RDATE	  1103	  1108#
LPRDAT	RDATE	    92	  1099#
LPRDAT	RMAIN	    85%	   465
LPRTDY	RDATE	    92	  1095#
LPRTDY	RMAIN	    85%	   468
LSTDAT	RCDATE	   103	  1451#
LSTDAT	RDATE	    75%	  1104	  1286
LSTDT1	RCDATE	  1457#	  1510
LSTDT3	RCDATE	  1468	  1471	  1473#	  1490
LSTDTO	RCDATE	  1474	  1512#
LSTDTS	RCDATE	  1456	  1485	  1494	  1507#	  1509	  1513
LSTDTT	RCDATE	  1478	  1487	  1498#
LSTFIL	RMAIN	    79%	   469	   474
LSTFIL	RRMD	    72	   210#
LSTMAL	RMAIN	    81%	   470
LSTMAL	RMAL	    72	   167#
LSTML1	RMAL	   175	   181#
LSTML2	RMAL	   174#	   180
LSTML3	RMAL	   171#	   182
LSTREM	RMAIN	    79%	   466
LSTREM	RRMD	    73	   335#
LSTTDY	RCDATE	   103	  1449#
LSTTDY	RDATE	    75%	  1095
MAIL	RMAIN	   380	   476#
MAINSC	RMAIN	   163	   185	   245	   331#
MAL	RCDATE	    33#
MAL	RCMAL	    33#	    86	    90	   118	   119	   146
MAL	RCOM	    33#
MAL	RDATE	    33#
MAL	RMAIN	    33#
MAL	RMAL	    33#
MAL	RRMD	    33#
MAL	RSCAN	    33#
MAL	2	    33#
MALAI1	RMAL	   107#	   211
MALAIN	RMAL	    90	   109#
MALBUF	RCMAL	    76#	    78	   121	   125
MALCOM	RCMAL	    78#	   119
MALHSH	RCDATE	    47#
MALHSH	RCMAL	    47#	   116
MALHSH	RCOM	    47#
MALHSH	RDATE	    47#
MASTER CREF  2-MAR-81 21:55
        SYMBOL CROSS REFERENCE

MALHSH	RMAIN	    47#
MALHSH	RMAL	    47#
MALHSH	RRMD	    47#
MALHSH	RSCAN	    47#
MALHSH	2	    47#
MALIN1	RMAL	    96#	    99
MALINS	RMAL	    92#
MALNAM	RCMAL	    81#	    90
MALSLT	RMAL	    97	   101#
MALSPC	RMAL	   151	   163#
MASK	RSCAN	    82	   101	   105	   109	   308#
MCMD	RMAIN	   198	   201#
MDWCOM	RCDATE	  1293#	  1319
MDWDLN	RCDATE	   100	   528#
MDWDLN	RDATE	    78%	   103	   904	   919
MDWNXM	RCDATE	  1246	  1260#	  1288
MDYNS1	RCDATE	  1105	  1108	  1115#
MDYNSD	RCDATE	  1102	  1106	  1110#	  1119	  1126
MLKLP	RCMAL	   121#	   139
MONDAY	RCDATE	   553	   603#	  1061
MONMIN	RCDATE	  1049	  1056#
MONPTR	RCDATE	   103	   526#	   632
MONPTR	RDATE	    79%	   904
MONTAB	RCDATE	   546	   570#	   664
MONTB2	RCDATE	   585#	   666
MONTH	RCDATE	   100	   543#	   543	   623	   631	   671	   672	  1027	  1031	  1038	  1048	  1060	  1080
	  1098	  1114	  1118	  1138	  1145	  1149	  1159	  1185	  1189	  1213	  1242	  1255	  1257	  1281
	  1283	  1287	  1295	  1311	  1313	  1332
MONTH	RDATE	    78%	   410	   426	   456	   494	   498	   524	   528	   562	   577	   583	   600	   619
MORTAB	RMAIN	   228	   243#
MTARG	RCDATE	   100	   700#	   700	   751	   761	   796	   802	   817	   818	   842	   848	   849	   854
	   890	   899	   929	   931	   935	  1465	  1472	  1489
MTARG	RDATE	    78%	   666	   670	   672	  1101	  1122	  1256
MTYSRC	RDATE	   817#	   820
N1	RDATE	   413#	   413	   430	   510	   519	   566	   595
NAMBUF	RDATE	    85%	   716	  1205	  1209
NAMBUF	RMAL	    81%	   101	   129	   152	   155	   158	   215
NAMBUF	RRMD	    73	    92	    93	    94	    95	   120	   126	   181	   230	   266	   282	   313	   325
	   419	   430#
NAMCHR	RRMD	   101	   102	   104#
NEWFBK	RRMD	   172	   193#
NEWFIL	2	    93#	   202	   250
NEWMBK	RMAL	    93	   116#
NEXT	RMAIN	   378	   479#
NMSC	RDATE	    73%	   104	  1149
NMSC	RMAIN	    74%	   168
NMSC	RSCAN	    71	    73#
NMSC0	RSCAN	    76#	    83
NMSC1	RSCAN	    78#	    81
NMSC2	RSCAN	    92#	   114
MASTER CREF  2-MAR-81 21:55
        SYMBOL CROSS REFERENCE

NMSC3	RSCAN	   103	   107	   111	   114#
NMSC4	RSCAN	    94	    97	   101#
NOCDT	RDATE	  1150	  1168#	  1227	  1241
NOCNC	RDATE	  1068	  1073#
NOCTM	RDATE	  1171	  1174	  1180	  1188	  1193#
NOCTXT	RDATE	  1206	  1212#
NOCWRN	RDATE	  1196	  1201#
NODAT	RDATE	   668	   681#
NODLST	RDATE	   723	   730#
NODSK	RCMAL	    75%	    89
NODSK	2	    74	   200	   256#
NOMAL	RCMAL	   122	   132#
NOMBX	RCMAL	    91	   143#
NONUM	RDATE	    85%	   169	   690	   710	  1173	  1183	  1198
NONUM	RRMD	    73	   366	   412	   426#
NONUM0	RDATE	    85%	   699
NONUM0	RRMD	    73	   425#
NORMFL	RRMD	   232	   261#	   268	   295	   337	   361	   407
NOTIM	RDATE	   691	   696	   702	   704#
NOTIMP	RDATE	  1039	  1063#
NOTIMP	RMAIN	   457	   462	   467	   473	   484	   488#
NOTMAL	RMAL	   113#	   190	   203
NOTUSR	RCMAL	   124	   127	   138#
NOUPDR	RRMD	    78%	   145
NOUPDR	2	    74	   209	   237	   260#
NOWRN	RDATE	   708	   712#
NOXCP	RCDATE	   798	   805#
NOXCP1	RCDATE	   801	   806#
NSDT	RDATE	   172	   177	   179	   183	   200#
NUMF	RCDATE	    22#
NUMF	RCMAL	    22#
NUMF	RCOM	    22#
NUMF	RDATE	    22#	   101	   168	   709	   767	   776	   791	   800	  1197
NUMF	RMAIN	    22#
NUMF	RMAL	    22#
NUMF	RRMD	    22#	   365	   411
NUMF	RSCAN	    22#	   264	   294
NUMF	2	    22#
NXMBK	RCMAL	   118#	   141
NXTBUF	2	    86#	    86	    89	   148	   153	   159	   166
NXTCHK	RDATE	  1253#	  1273
NXTCOM	RDATE	  1276	  1281#
NXTDAT	RCDATE	   101	  1419#	  1507
NXTDAT	RDATE	    77%	   178	   725	  1085	  1270
NXTDBK	RCDATE	  1423	  1429#
NXTDCS	RCDATE	  1421#	  1424
NXTSKP	RDATE	  1252	  1263	  1270#	  1272
NXTTDY	RDATE	  1266	  1275#
ONEDPR	RDATE	   824#	  1019	  1032
OPNREM	RMAIN	    72%	   153
MASTER CREF  2-MAR-81 21:55
        SYMBOL CROSS REFERENCE

OPNREM	2	    73	   197#
OPNRM1	2	   203#	   222
ORGCMD	RMAIN	   166#	   166	   183	   197
ORGREF	RCDATE	   102	  1397#
ORGREF	RDATE	    76%	   196	   214	  1217
OUTNUM	RCDATE	   106%	   636	   640	  1501
OUTNUM	RCOM	    72	   101#	   104
OUTNUM	RDATE	    81%	   760	   863	   955	  1029	  1045	  1050	  1057	  1062	  1066
OUTNUM	RRMD	    83%	   346	   386
OUTSIX	RCDATE	   106%	   633	   650
OUTSIX	RCOM	    72	    76#
OUTSIX	RDATE	    81%	   905	   920
OUTSX1	RCOM	    81	    87	    94#	    98
OUTSX2	RCOM	    74	    81#
OUTSXL	RCOM	    72	    73#
OUTSXL	RMAIN	    76%	   199	   222	   263
OUTWD	2	   100	   106#	   180	   195
P	RCDATE	     8#	   545	   557	   559	   560	   626	   628	   629	   630	   633	   636	   640	   641
	   642	   644	   677	   679	   680	   693	   694	   695	   747	   765	   769	   774	   779	   786
	   788	   792	   795	   797	   799	   805	   808	   811	   813	   814	   822	   825	   835	   839
	   851	   860	   861	   862	   863	   864	   868	   870	   872	   873	   874	   875	   876	   908
	   911	   912	   914	   915	   918	   919	   922	   923	   926	   928	   929	   932	   934	   935
	   936	   937	   938	   939	   940	   941	   942	   943	   944	   946	   947	   948	   975	   979
	   991	   992	   995	   996	   999	  1004	  1010	  1012	  1015	  1021	  1023	  1024	  1026	  1028
	  1029	  1030	  1035	  1039	  1051	  1064	  1068	  1070	  1073	  1077	  1078	  1085	  1091	  1095
	  1111	  1115	  1117	  1124	  1127	  1128	  1130	  1135	  1136	  1139	  1141	  1145	  1149	  1150
	  1152	  1161	  1164	  1173	  1175	  1179	  1180	  1184	  1193	  1196	  1198	  1199	  1200	  1202
	  1203	  1204	  1206	  1208	  1212	  1219	  1220	  1222	  1223	  1229	  1231	  1234	  1238	  1239
	  1241	  1250	  1251	  1252	  1253	  1258	  1259	  1263	  1264	  1266	  1267	  1270	  1275	  1276
	  1277	  1278	  1279	  1280	  1299	  1301	  1302	  1303	  1304	  1307	  1308	  1309	  1312	  1316
	  1318	  1319	  1321	  1324	  1327	  1331	  1336	  1338	  1340	  1341	  1344	  1349	  1353	  1356
	  1358	  1360	  1361	  1364	  1367	  1370	  1372	  1374	  1375	  1378	  1381	  1382	  1383	  1389
	  1390	  1391	  1406	  1408	  1409	  1410	  1416	  1417	  1426	  1430	  1432	  1433	  1449	  1454
	  1470	  1473	  1484	  1488	  1495	  1501	  1506	  1507	  1512	  1517	  1519	  1520
P	RCMAL	     8#	    93	    96	   147
P	RCOM	     8#	    81	    87	    99	   102	   104	   105	   108	   110	   111
P	RDATE	     8#	    99	   104	   110	   118	   120	   125	   148	   153	   159	   171	   178	   186
	   188	   189	   198	   211	   212	   213	   218	   221	   253	   273	   299	   301	   316	   327
	   330	   357	   362	   363	   366	   369	   388	   394	   396	   414	   431	   436	   451	   457
	   465	   472	   474	   475	   487	   491	   499	   504	   511	   514	   520	   525	   530	   535
	   541	   547	   582	   585	   589	   601	   605	   606	   612	   620	   621	   627	   640	   648
	   664	   665	   667	   671	   685	   688	   689	   697	   698	   706	   715	   719	   722	   725
	   730	   731	   733	   734	   735	   738	   739	   742	   743	   744	   745	   746	   748	   749
	   750	   757	   760	   763	   769	   770	   772	   775	   777	   779	   780	   783	   784	   785
	   790	   795	   799	   830	   859	   863	   873	   876	   879	   882	   885	   888	   894	   895
	   898	   905	   909	   913	   916	   924	   935	   936	   946	   950	   953	   955	   957	   959
	   962	   966	   968	   971	   975	   981	  1014	  1016	  1018	  1019	  1029	  1032	  1035	  1045
	  1050	  1057	  1062	  1066	  1071	  1079	  1081	  1084	  1085	  1090	  1091	  1092	  1095	  1099
	  1100	  1102	  1104	  1114	  1115	  1121	  1123	  1127	  1131	  1132	  1134	  1138	  1139	  1140
	  1143	  1144	  1147	  1149	  1151	  1152	  1153	  1154	  1164	  1166	  1169	  1172	  1181	  1182
MASTER CREF  2-MAR-81 21:55
        SYMBOL CROSS REFERENCE

P	RDATE	  1194	  1204	  1215	  1224	  1226	  1229	  1247	  1250	  1262	  1270	  1281	  1282	  1285
	  1286
P	RMAIN	     8#	   146	   152	   153	   154	   160	   168	   193	   199	   207	   212	   213	   220
	   222	   223	   232	   235	   236	   237	   238	   239	   248	   255	   256	   257	   258	   259
	   263
P	RMAL	     8#	    87	    88	    94	   104	   107	   108	   116	   117	   118	   121	   123	   125
	   126	   127	   131	   132	   134	   135	   136	   138	   139	   144	   146	   147	   166	   168
	   171	   188	   189	   196	   201	   202	   204	   205	   208	   209	   212	   213	   214	   218
	   221
P	RRMD	     8#	    96	    99	   104	   111	   134	   138	   142	   144	   146	   148	   150	   151
	   152	   154	   155	   156	   158	   159	   160	   161	   167	   168	   173	   174	   177	   178
	   179	   180	   186	   189	   190	   193	   194	   197	   200	   203	   211	   229	   231	   233
	   243	   245	   246	   247	   248	   253	   254	   256	   257	   258	   265	   267	   270	   271
	   274	   275	   278	   279	   280	   285	   288	   289	   293	   294	   300	   301	   316	   319
	   322	   323	   324	   328	   329	   330	   331	   332	   333	   335	   336	   340	   345	   346
	   347	   359	   360	   364	   367	   368	   369	   375	   376	   377	   378	   384	   385	   386
	   390	   397	   398	   403	   405	   406	   410	   413	   418	   422
P	RSCAN	     8#	    74	   116	   117	   266	   279	   284	   291	   298	   304
P	2	     8#	    91	    94	    95	   101	   151	   155	   165	   166	   167	   169	   170	   174
	   176	   181	   187	   196	   202	   203	   211	   218	   220	   227	   250	   252	   255
P2	RCDATE	     9#
P2	RCMAL	     9#
P2	RCOM	     9#
P2	RDATE	     9#	   254
P2	RMAIN	     9#	   147	   155	   204	   205	   206	   207	   209	   214	   215	   233	   234	   237
	   240	   241	   245	   246	   247	   248	   250	   253	   254	   257	   260	   261
P2	RMAL	     9#
P2	RRMD	     9#
P2	RSCAN	     9#
P2	2	     9#
PDL	RCOM	    72	   113#
PDL	RDATE	    81%	   253
PDL	RMAIN	    76%	   146	   154
PDL2	RCOM	    72	   114#
PDL2	RDATE	    81%	   254
PDL2	RMAIN	    76%	   147	   155
PDLSZ	RCDATE	    43#
PDLSZ	RCMAL	    43#
PDLSZ	RCOM	    43#	   113
PDLSZ	RDATE	    43#	   253
PDLSZ	RMAIN	    43#	   146	   154
PDLSZ	RMAL	    43#
PDLSZ	RRMD	    43#
PDLSZ	RSCAN	    43#
PDLSZ	2	    43#
PDLSZ2	RCDATE	    44#
PDLSZ2	RCMAL	    44#
PDLSZ2	RCOM	    44#	   114
PDLSZ2	RDATE	    44#	   254
PDLSZ2	RMAIN	    44#	   147	   155
MASTER CREF  2-MAR-81 21:55
        SYMBOL CROSS REFERENCE

PDLSZ2	RMAL	    44#
PDLSZ2	RRMD	    44#
PDLSZ2	RSCAN	    44#
PDLSZ2	2	    44#
PLEVEL	RDATE	   207#	   207	   270	   326	   339
PRDAT	RCDATE	    99	   644#	  1495
PRDAT	RDATE	    76%	   671	  1282
PRDAT1	RCDATE	   103	   629#	   644
PRDAT1	RDATE	    79%	  1016	  1035	  1071
PRIDSP	RMAIN	   167#	   167	   176	   178	   179	   192
PRINT	RMAIN	   375	   376	   465#
PRMAIL	RMAIN	    83%	   476
PRMAIL	RMAL	    72	   221#
PRMAL1	RCMAL	   100	   134#
PRMAL2	RCMAL	    99#	   133
PRMAL3	RCMAL	    96#	   136
PRND	RDATE	   870	   878#
PRNTAG	RMAIN	   249	   253#
PRRD	RDATE	   871	   881#
PRST	RDATE	   869	   875#
PRTAB	RDATE	   831	   833#
PRTH	RDATE	   868	   872#
QUIT	RMAIN	   377	   475#
RDA0	RDATE	   221#	   284	   320	   329	   335	   376	   388	   394	   642	   653
RDA1	RDATE	   219	   222#	   301	   306	   396	   398	   435
RDATE	RDATE	   147#	   664	   685	  1018	  1099	  1152
RDAY1	RCDATE	  1084	  1091#
RDAY11	RCDATE	  1092#	  1146
RDB0	RDATE	   429	   432#	   452	   545	   565	   569
RDB1	RDATE	   364	   433#	   476
RDBUF	RCDATE	   108%	  1406	  1410	  1432
RDBUF	RCMAL	    75%	    93	    96
RDBUF	RDATE	    87%	   733	   744	   750
RDBUF	RMAL	    79%	    94	   117	   123	   126	   134	   138	   144	   147	   168	   171	   213
RDBUF	RRMD	    78%	   111	   138	   148	   154	   158	   173	   180	   194	   200	   211	   245	   248
	   256	   279	   301	   324	   330	   340	   390
RDBUF	2	    73	   169#	   252
RDFNM	RRMD	    91#	   167	   229	   265	   274	   293	   335	   359	   405
RDNAM	RDATE	    85%	   715	  1204
RDNAM	RMAL	    81%	    87	   188	   201	   208
RDNAM	RRMD	    73	    92#	   300	   418
RDNAM1	RRMD	    98#	   105
RDTTY	RDATE	   153	   206#
RECAL	RMAIN	   248#	   265
REFRN0	RCDATE	   699#	   699	   705	   915	   917	   942
REFRNC	RCDATE	   706#	   706	   771	   914	   916	   943	   978	   994	  1025
RELDAT	RDATE	  1084#	  1088
REM	RCDATE	    32#
REM	RCMAL	    32#
REM	RCOM	    32#
MASTER CREF  2-MAR-81 21:55
        SYMBOL CROSS REFERENCE

REM	RDATE	    32#
REM	RMAIN	    32#
REM	RMAL	    32#
REM	RRMD	    32#	   143
REM	RSCAN	    32#
REM	2	    32#	   197	   201	   208	   221	   226	   228	   249
REMGET	RDATE	    87%	   730	   742
REMGET	RMAL	    81%	   116
REMGET	RRMD	    73	   137#	   178	   193	   323
REMNAM	2	   208	   226	   228	   230	   242#
REMSIZ	RRMD	    79%	   140
REMSIZ	2	    74	   233#	   233
REPDAT	RDATE	  1158	  1226#
REPDT1	RDATE	  1217#	  1226	  1229
RGOLD	RRMD	   141	   154#
RPR1	RDATE	   330#	   343
RSTERR	RCDATE	    39#
RSTERR	RCMAL	    39#
RSTERR	RCOM	    39#
RSTERR	RDATE	    39#
RSTERR	RMAIN	    39#	   187	   227	   373	   374	   375	   376	   379
RSTERR	RMAL	    39#
RSTERR	RRMD	    39#
RSTERR	RSCAN	    39#
RSTERR	2	    39#
RTARG	RCDATE	  1085#	  1140
SAVCHR	RSCAN	   261#	   261	   265	   281	   297
SAVNXT	RDATE	  1268#	  1268	  1269	  1280
SBII1	RDATE	   509	   516#
SBII2	RDATE	   517	   522#
SCAN	RDATE	    73%	    99	   188	   697	   770	   775	   779	   790	   795	   799	  1181
SCAN	RMAIN	    74%	   193
SCAN	RRMD	    76%	   378
SCAN	RSCAN	    71	   264#
SCAN1	RSCAN	   277#	   280
SCAN2	RSCAN	   281#	   295
SCANI	RDATE	    73%	   148	   688	   706	  1090	  1114	  1131	  1138	  1143	  1147	  1169	  1194
SCANI	RMAIN	    74%	   160
SCANI	RRMD	    76%	   364	   410
SCANI	RSCAN	    71	   261#
SCNUM	RSCAN	   276	   286#
SCNUM1	RSCAN	   287#	   293
SCOUNT	RSCAN	   273#	   273	   277	   287
SCRCNM	RRMD	   117#	   130
SCREBK	RRMD	   118	   131#
SCRNXN	RRMD	   121	   129#
SETDAT	RDATE	   752#	   811	   821
SETLDY	RCDATE	  1060#	  1095	  1180	  1199	  1263
SETMON	RCDATE	  1024#	  1077	  1175	  1198	  1238
SETPRI	RCDATE	    40#
MASTER CREF  2-MAR-81 21:55
        SYMBOL CROSS REFERENCE

SETPRI	RCMAL	    40#
SETPRI	RCOM	    40#
SETPRI	RDATE	    40#
SETPRI	RMAIN	    40#	   182	   373	   374	   375	   376	   377	   378	   379	   380	   381	   382	   383
	   384
SETPRI	RMAL	    40#
SETPRI	RRMD	    40#
SETPRI	RSCAN	    40#
SETPRI	2	    40#
SETREM	2	   207	   249#
SIXUSR	RCMAL	   106#	   112
SMLDAT	RDATE	  1160	  1229#
SMLDT1	RDATE	  1237#	  1240
SPCBLK	RMAL	    81%	    92	   143	   163
SPCBLK	RRMD	    73	   110#	   110	   114	   171	   198	   201
SPCHR	RSCAN	   268	   297#
SPCLEN	RDATE	   112	   116	   117	   138#
SPCTBL	RDATE	   113	   116	   117	   135#	   138
SRCDAT	RCDATE	  1453#	  1453	  1462	  1475	  1493
SRCDAT	RDATE	  1248#	  1248	  1253	  1265	  1275
SRCREM	RRMD	   109#	   168	   231	   267	   275	   294	   336	   360	   406
SRCRM1	RRMD	   111#	   133
SRMAL	RMAL	    88	   142#	   189	   202	   209
SRMAL1	RMAL	   153	   156	   160#
SRMAL2	RMAL	   150#	   161
SRMAL3	RMAL	   147#	   165
STPSCN	RCDATE	    41#
STPSCN	RCMAL	    41#
STPSCN	RCOM	    41#
STPSCN	RDATE	    41#
STPSCN	RMAIN	    41#	   191	   227	   377	   378	   380	   381	   382	   383	   384	   400	   401	   402
	   403	   404	   429	   430	   431	   432	   433	   434	   446	   447	   448	   452
STPSCN	RMAL	    41#
STPSCN	RRMD	    41#
STPSCN	RSCAN	    41#
STPSCN	2	    41#
STPT	RMAIN	   145#	   493
STRTN0	RCDATE	   701#	   701	   707	   919	   921	   940
STRTNG	RCDATE	   708#	   708	   752	   762	   763	   776	   816	   822	   824	   832	   840	   841	   846
	   847	   853	   860	   872	   883	   902	   918	   920	   941
SUBDAF	RCDATE	   960	  1344#
SUBDAT	RCDATE	   765	   950#
SUBDAY	RCDATE	   954	   978#
SUBDBF	RCDATE	   959	  1338#
SUBDOW	RCDATE	   953	   991#
SUBDT1	RCDATE	   769	   774	   779	   825	   835	   851	   868	   870	   949#	  1342	  1365	  1379
SUBDYC	RCDATE	   980#	  1001
SUBLDC	RCDATE	  1176	  1180#	  1190
SUBLDW	RCDATE	   956	  1192#
SUBLDY	RCDATE	   958	  1171#
MASTER CREF  2-MAR-81 21:55
        SYMBOL CROSS REFERENCE

SUBLPR	RCDATE	   908#	   972
SUBLSD	RCDATE	  1172	  1183#
SUBLSW	RCDATE	  1195	  1211#
SUBLW1	RCDATE	  1199#	  1209	  1215
SUBMDW	RCDATE	   955	  1228#
SUBMDY	RCDATE	   957	  1069#
SUBMSD	RCDATE	  1079	  1098#
SUBMSW	RCDATE	  1240	  1318#
SUBRDT	RCDATE	   971	   975#
SUBSMD	RCDATE	  1072	  1132#
SUBSMW	RCDATE	  1233	  1270#
SUBSS1	RCDATE	  1151	  1159#
SUBSS2	RCDATE	  1150#	  1157	  1170
SUBSSD	RCDATE	  1137	  1148#
SUBSSW	RCDATE	  1271	  1327#
SUBSW1	RCDATE	  1320	  1323#
SUBSW2	RCDATE	  1319#	  1325	  1334
SUBTAB	RCDATE	   950	   952#
SUBWAF	RCDATE	   962	  1353#
SUBWBF	RCDATE	   961	  1367#
SVDPTR	RCDATE	    99	   704#	   704	   926	   927	   937	  1459
SVDPTR	RDATE	    76%	   195	   209	   825	  1026	  1120	  1261
SYSERR	RCDATE	   627	   735	   740#	   770	   775	   780	   952	   963	   964	   965	   966	   967	   968
	   969	   970	   973	  1201	  1265	  1300
T1	RCDATE	     2#	   530	   531	   532	   533	   534	   535	   539	   540	   541	   542	   546	   550
	   552	   617	   618	   621	   624	   625	   629	   641	   646	   647	   653	   654	   655	   656
	   657	   658	   660	   662	   663	   667	   668	   670	   671	   679	   683	   684	   688	   691
	   694	   696	   697	   698	   699	   700	   701	   702	   703	   705	   706	   707	   708	   709
	   710	   744	   745	   748	   751	   752	   754	   757	   758	   761	   762	   763	   764	   771
	   776	   781	   787	   794	   795	   796	   799	   800	   805	   806	   809	   810	   816	   817
	   818	   819	   820	   823	   824	   827	   828	   830	   831	   832	   837	   841	   842	   844
	   845	   846	   847	   848	   849	   850	   853	   854	   856	   858	   881	   882	   883	   890
	   891	   892	   899	   900	   902	   905	   906	   909	   910	   916	   917	   920	   921	   924
	   925	   930	   931	   945	   976	   980	   981	   982	   985	   986	   988	   994	   998	  1003
	  1004	  1005	  1006	  1010	  1011	  1014	  1015	  1016	  1017	  1021	  1022	  1024	  1025	  1027
	  1028	  1031	  1032	  1033	  1034	  1036	  1037	  1038	  1040	  1041	  1042	  1043	  1046	  1048
	  1049	  1050	  1053	  1057	  1061	  1062	  1074	  1076	  1080	  1082	  1086	  1088	  1092	  1093
	  1098	  1100	  1115	  1124	  1125	  1132	  1134	  1138	  1139	  1141	  1159	  1160	  1162	  1163
	  1165	  1167	  1168	  1169	  1174	  1177	  1183	  1197	  1207	  1211	  1218	  1221	  1226	  1235
	  1237	  1242	  1244	  1247	  1249	  1251	  1253	  1258	  1260	  1261	  1272	  1274	  1277	  1279
	  1293	  1294	  1295	  1296	  1297	  1298	  1306	  1307	  1309	  1323	  1328	  1330	  1350	  1359
	  1362	  1363	  1373	  1376	  1377	  1385	  1393	  1453	  1460	  1461	  1462	  1463	  1464	  1465
	  1472	  1475	  1479	  1480	  1483	  1486	  1491	  1504	  1505	  1515	  1516	  1518
T1	RCMAL	     2#	    97	    98	    99	   101	   129	   132	   133
T1	RCOM	     2#	    77	    78	    79	    80	    94	    95	    96	    97
T1	RDATE	     2#	   103	   106	   108	   109	   112	   113	   114	   115	   116	   117	   155	   156
	   157	   158	   196	   197	   214	   215	   330	   331	   334	   367	   370	   415	   416	   418
	   419	   420	   422	   424	   426	   427	   429	   430	   443	   444	   447	   448	   450	   460
	   461	   469	   470	   478	   479	   480	   518	   519	   537	   538	   540	   542	   543	   548
	   549	   551	   552	   553	   555	   557	   559	   560	   562	   563	   565	   566	   567	   593
MASTER CREF  2-MAR-81 21:55
        SYMBOL CROSS REFERENCE

T1	RDATE	   594	   595	   609	   610	   624	   625	   632	   633	   636	   637	   639	   644	   645
	   647	   649	   650	   655	   656	   660	   661	   666	   669	   670	   675	   676	   677	   694
	   695	   700	   701	   714	   716	   717	   740	   741	   746	   747	   755	   756	   864	   865
	   866	   867	   868	  1015	  1034	  1038	  1040	  1041	  1042	  1052	  1053	  1054	  1067	  1101
	  1116	  1117	  1122	  1125	  1126	  1148	  1156	  1157	  1159	  1161	  1162	  1163	  1203	  1208
	  1209	  1210	  1211	  1213	  1214	  1217	  1218	  1219	  1220	  1223	  1230	  1231	  1237	  1238
	  1239	  1248	  1253	  1254	  1255	  1256	  1257	  1258	  1264	  1265	  1268	  1269	  1275	  1280
	  1281	  1285
T1	RMAIN	     2#	   163	   164	   165	   173	   181	   183	   184	   185	   186
T1	RMAL	     2#	    86	    95	    96	    98	   101	   102	   103	   107	   108	   119	   120	   128
	   129	   130	   148	   149	   150	   154	   157	   160	   161	   172	   173	   174	   176	   179
	   180	   187	   191	   192	   200	   204	   207	   214	   215	   216	   217
T1	RRMD	     2#	    91	   102	   112	   113	   115	   116	   117	   119	   123	   129	   130	   175
	   176	   181	   182	   183	   184	   185	   187	   188	   195	   196	   201	   202	   212	   213
	   214	   216	   218	   221	   222	   233	   236	   237	   240	   241	   242	   249	   251	   269
	   270	   280	   281	   283	   284	   288	   289	   296	   299	   302	   303	   304	   306	   307
	   308	   310	   314	   315	   320	   321	   338	   341	   342	   343	   349	   352	   354	   362
	   372	   373	   374	   408	   417	   419	   420	   421
T1	RSCAN	     2#	    84	    86	    89	    92	   113	   114	   115
T1	2	     2#	    85	    86	    87	    88	    89	   149	   150	   190	   191	   193	   205	   212
	   213	   214	   215	   216	   217	   224	   225	   230	   231	   232	   233	   238	   239	   253
	   254
T2	RCDATE	     3#	   535	   536	   537	   538	   539	   542	   543	   544	   546	   547	   553	   555
	   619	   620	   622	   623	   648	   657	   669	   674	   675	   676	   680	   681	   687	   692
	   693	   839	   840	   978	   981	   983	   984	   986	   996	   997	   998	  1007	  1008	  1009
	  1011	  1018	  1019	  1020	  1022	  1035	  1036	  1039	  1040	  1042	  1060	  1061	  1063	  1065
	  1066	  1081	  1083	  1099	  1101	  1114	  1118	  1120	  1126	  1176	  1243	  1245	  1254	  1255
	  1257	  1266	  1280	  1281	  1283	  1287	  1304	  1305	  1306	  1310	  1311	  1313	  1314	  1315
	  1419	  1420	  1424	  1436	  1437	  1442	  1450	  1451	  1452	  1481	  1483	  1491	  1492	  1493
T2	RCMAL	     3#	   101	   102	   106	   113	   114	   115	   116	   117	   118	   140
T2	RCOM	     3#	    73	    76	    82	    83	    84	    85	    86	    88	    89	    90	    91	    92
	    93	    98
T2	RDATE	     3#	   175	   176	   181	   182	   184	   190	   193	   478	   481	   482	   485	   692
	   694	   703	   753	   754	   756	   772	   773	   777	   780	   781	   782	   802	   803	   806
	   809	   810	   811	   814	   820	   866	   869	   870	   871	  1047	  1058	  1175	  1177	  1179
	  1184	  1185	  1187	  1190	  1191	  1192	  1210	  1211	  1221	  1222	  1223	  1232	  1233	  1234
	  1235	  1240
T2	RMAIN	     3#	   170	   171	   172	   173	   174	   175	   176	   177	   178	   179	   182	   184
	   187	   191	   224	   225	   226	   227	   244	   245	   262
T2	RMAL	     3#	   102	   103	   150	   152	   154	   155	   157	   158	   216	   217
T2	RRMD	     3#	    93	    94	    95	   103	   119	   120	   122	   124	   126	   127	   128	   184
	   185	   186	   234	   235	   236	   237	   238	   282	   283	   284	   313	   314	   315	   325
	   326	   327
T2	RSCAN	     3#	    76	    78	    80	    82	    95	    96	    98	    99	   272	   273	   274	   278
	   288
T2	2	     3#
T3	RCDATE	     4#	   551	   552	   553	   558	   631	   632	   635	   638	   639	   648	   649	   664
	   666	   667	   669	   673	   674	  1438	  1439	  1482	  1486	  1500
T3	RCMAL	     4#	   105	   111	   117	   120	   121	   125	   138	   139
T3	RCOM	     4#	    73	    76	    82	    84	    88	    91	   101	   103	   105	   106	   107
MASTER CREF  2-MAR-81 21:55
        SYMBOL CROSS REFERENCE

T3	RDATE	     4#	   122	   124	   170	   211	   213	   711	   759	   769	   782	   793	   794	   797
	   803	   804	   805	   806	   812	   813	   814	   816	   817	   818	   862	   899	   900	   904
	   918	   919	   928	   929	   937	   938	   947	   948	   954	  1028	  1042	  1043	  1047	  1048
	  1054	  1055	  1058	  1060	  1065	  1153	  1200	  1236	  1237
T3	RMAIN	     4#	   188	   189	   197	   203	   204	   212	   215	   216	   219	   220	   221	   223
	   224	   231	   233	   236	   238	   241	   253	   256	   258	   261	   262
T3	RMAL	     4#
T3	RRMD	     4#	   123	   124	   125	   339	   345	   347	   353	   368	   371	   372	   373	   374
	   375	   384	   391	   393	   394	   395	   396	   400	   420	   421
T3	RSCAN	     4#	    77	    79	    81	    92	    93	   101	   102	   104	   105	   106	   108	   109
	   110	   286	   289	   290
T3	2	     4#
T4	RCDATE	     5#
T4	RCMAL	     5#	   106	   107	   108	   109	   110	   111	   121	   123	   125	   126
T4	RCOM	     5#	   102
T4	RDATE	     5#
T4	RMAIN	     5#	   205	   213	   214	   216	   217	   218	   219	   221	   225	   234	   235	   239
	   240	   246	   254	   255	   259	   260
T4	RMAL	     5#
T4	RRMD	     5#	   125	   126	   385
T4	RSCAN	     5#	    75	    76	    82	    83	    84	    85	    86	    87	    88	    89	    90	    91
	   112	   113	   115
T4	2	     5#
T5	RCDATE	     6#
T5	RCMAL	     6#
T5	RCOM	     6#
T5	RDATE	     6#
T5	RMAIN	     6#
T5	RMAL	     6#
T5	RRMD	     6#
T5	RSCAN	     6#
T5	2	     6#
TARGET	RCDATE	   764#	   764	   820	   831	   850	   882	   928	   930	   936	   980	   985	  1074	  1086
	  1132	  1174	  1183	  1197	  1211	  1218	  1221	  1235	  1247	  1272	  1328	  1339	  1359	  1363
	  1373	  1377
TCOMP	RCDATE	  1152	  1204	  1217#	  1321
TDYCOM	RDATE	   358#	   367	   370
TDYFLG	RCDATE	  1452#	  1452	  1467	  1477
TERMF	RDATE	    73%	   149	   707	   765	  1170	  1195
TERMF	RMAIN	    74%	   161
TERMF	RRMD	    76%	    98	   379
TERMF	RSCAN	    71	   121#	   134
TEST	RMAIN	   383	   477#
TIBUF	RMAIN	    74%	   150
TIBUF	RSCAN	    71	   300	   302	   306#
TRYDAT	RDATE	   174	   181#
TTY	RCDATE	    31#
TTY	RCMAL	    31#
TTY	RCOM	    31#
TTY	RDATE	    31#	   713	  1202
MASTER CREF  2-MAR-81 21:55
        SYMBOL CROSS REFERENCE

TTY	RMAIN	    31#	   148
TTY	RMAL	    31#	    85	   186	   199
TTY	RRMD	    31#	   166	   228	   264	   273	   298	   416
TTY	RSCAN	    31#	   262	   301
TTY	2	    31#
UCANCL	RMAIN	   382	   481#
UNTDT0	RCDATE	   703#	   703	   709	   923	   925	   938
UNTLDT	RCDATE	   710#	   710	   745	   754	   781	   828	   900	   922	   924	   939
USER	RCMAL	    76#	   103	   104	   105	   113	   114	   123	   126
USIWD	2	    98	   104#	   172
USOWD	2	    97	   103#	   179	   194
WABFCM	RDATE	   965#	   971	   975
WKDPR	RDATE	   895	   918#	   936	   946	   969
WKDPTR	RCDATE	   103	   525#	   649
WKDPTR	RDATE	    79%	   919
WRTBUF	RCDATE	   108%	  1443	  1470	  1506	  1519
WRTBUF	RDATE	    87%	   735	   748	   757	  1127	  1134	  1215
WRTBUF	RMAL	    79%	   104	   131	   136	   196	   218
WRTBUF	RRMD	    78%	   150	   160	   189	   197	   203	   243	   254	   258	   285	   316	   328	   332
	   376	   422
WRTBUF	2	    73	   176#	   218
XCPCNT	RCDATE	   697#	   697	   790	   908	   910	   947
YDCNV	RCDATE	    99	   530#	   626	  1096	  1111	  1150	  1181	  1200	  1264	  1299
YDCNV	RDATE	    76%	   472
YEAR	RCDATE	   100	   530#	   530	   625	   638	   656	   661	   663	  1029	  1033	  1052	  1056	  1065
	  1081	  1099	  1142	  1144	  1155	  1156	  1165	  1169	  1186	  1188	  1243	  1284	  1286	  1297
	  1315
YEAR	RDATE	    78%	   468	   529	   542	   559	   588	   604	   649
YESTBL	RDATE	  1148	  1243#
ZRBUF	RRMD	    78%	   142	   162
ZRBUF	2	    73	   187#	   211	   220
ZZ	RCDATE	   236#	   236	   237#	   237	   238#	   238	   239#	   239	   240#	   240	   241#	   241	   242#
	   242	   243#	   243	   244#	   244	   245#	   245	   246#	   246	   247#	   247	   248#	   248	   249#
	   249	   250#	   250	   251#	   251	   252#	   252	   253#	   253	   254#	   254	   255#	   255	   256#
	   256	   257#	   257	   258#	   258	   259#	   259	   260#	   260	   261#	   261	   262#	   262	   263#
	   263	   264#	   264	   265#	   265	   266#	   266	   267#	   267	   268#	   268	   269#	   269	   270#
	   270	   271#	   271	   272#	   272	   273#	   273	   274#	   274	   275#	   275	   276#	   276	   277#
	   277	   278#	   278	   279#	   279	   280#	   280	   281#	   281	   282#	   282	   283#	   283	   284#
	   284	   285#	   285	   286#	   286	   287#	   287	   288#	   288	   289#	   289	   290#	   290	   291#
	   291	   292#	   292	   293#	   293	   294#	   294	   295#	   295	   296#	   296	   297#	   297	   298#
	   298	   299#	   299	   300#	   300	   301#	   301	   302#	   302	   303#	   303	   304#	   304	   305#
	   305	   306#	   306	   307#	   307	   308#	   308	   309#	   309	   310#	   310	   311#	   311	   312#
	   312	   313#	   313	   314#	   314	   315#	   315	   316#	   316	   317#	   317	   318#	   318	   319#
	   319	   320#	   320	   321#	   321	   322#	   322	   323#	   323	   324#	   324	   325#	   325	   326#
	   326	   327#	   327	   328#	   328	   329#	   329	   330#	   330	   331#	   331	   332#	   332	   333#
	   333	   334#	   334	   335#	   335	   336#	   336	   337#	   337	   338#	   338	   339#	   339	   340#
	   340	   341#	   341	   342#	   342	   343#	   343	   344#	   344	   345#	   345	   346#	   346	   347#
	   347	   348#	   348	   349#	   349	   350#	   350	   351#	   351	   352#	   352	   353#	   353	   354#
	   354	   355#	   355	   356#	   356	   357#	   357	   358#	   358	   359#	   359	   360#	   360	   361#
	   361	   362#	   362	   363#	   363	   364#	   364	   365#	   365	   366#	   366	   367#	   367	   368#
MASTER CREF  2-MAR-81 21:55
        SYMBOL CROSS REFERENCE

ZZ	RCDATE	   368	   369#	   369	   370#	   370	   371#	   371	   372#	   372	   373#	   373	   374#	   374
	   375#	   375	   376#	   376	   377#	   377	   378#	   378	   379#	   379	   380#	   380	   381#	   381
	   382#	   382	   383#	   383	   384#	   384	   385#	   385	   386#	   386	   387#	   387	   388#	   388
	   389#	   389	   390#	   390	   391#	   391	   392#	   392	   393#	   393	   394#	   394	   395#	   395
	   396#	   396	   397#	   397	   398#	   398	   399#	   399	   400#	   400	   401#	   401	   402#	   402
	   403#	   403	   404#	   404	   405#	   405	   406#	   406	   407#	   407	   408#	   408	   409#	   409
	   410#	   410	   411#	   411	   412#	   412	   413#	   413	   414#	   414	   415#	   415	   416#	   416
	   417#	   417	   418#	   418	   419#	   419	   420#	   420	   421#	   421	   422#	   422	   423#	   423
	   424#	   424	   425#	   425	   426#	   426	   427#	   427	   428#	   428	   429#	   429	   430#	   430
	   431#	   431	   432#	   432	   433#	   433	   434#	   434	   435#	   435	   436#	   436	   437#	   437
	   438#	   438	   439#	   439	   440#	   440	   441#	   441	   442#	   442	   443#	   443	   444#	   444
	   445#	   445	   446#	   446	   447#	   447	   448#	   448	   571#	   572	   572#	   573	   573#	   574
	   574#	   575	   575#	   576	   576#	   577	   577#	   578	   578#	   579	   579#	   580	   580#	   581
	   581#	   582	   582#	   583	   583#	   586#	   587	   587#	   588	   588#	   589	   589#	   590	   590#
	   591	   591#	   592	   592#	   593	   593#	   594	   594#	   595	   595#	   596	   596#	   597	   597#
	   598	   598#
ZZ	RMAIN	   332#	   332	   333#	   333	   334#	   334	   335#	   335	   336#	   336	   337#	   337	   338#
	   338	   339#	   339	   340#	   340	   341#	   341	   342#	   342	   343#	   343	   344#	   344	   345#
	   345	   346#	   346	   347#	   347	   348#	   348	   349#	   349	   350#	   350	   351#	   351	   352#
	   352	   353#	   353	   354#	   354	   355#	   355	   356#	   356	   357#	   357	   358#	   358	   359#
	   359	   360#	   360	   361#	   361	   362#	   362	   363#	   363	   364#	   364	   365#	   365	   366#
	   366	   367#	   367	   368#	   368	   369#	   369	   370#	   370	   371#	   371	   372#	   372	   385#
	   385	   386#	   386	   387#	   387	   388#	   388	   389#	   389	   390#	   390	   391#	   391	   392#
	   392	   393#	   393	   394#	   394	   395#	   395	   396#	   396	   397#	   397	   398#	   398	   399#
	   399	   405#	   405	   406#	   406	   407#	   407	   408#	   408	   409#	   409	   410#	   410	   411#
	   411	   412#	   412	   413#	   413	   414#	   414	   415#	   415	   416#	   416	   417#	   417	   418#
	   418	   419#	   419	   420#	   420	   421#	   421	   422#	   422	   423#	   423	   424#	   424	   425#
	   425	   426#	   426	   427#	   427	   428#	   428	   437#	   437	   438#	   438	   439#	   439	   440#
	   440	   441#	   441	   442#	   442	   443#	   443	   444#	   444	   445#	   445	   449#	   449	   450#
	   450	   451#	   451
ZZ	2	   119#	   122	   127	   127#	   128	   133	   133#	   134	   139	   139#	   140	   145	   145#
ZZ1	RCDATE	   236#	   236	   237#	   237	   238#	   238	   239#	   239	   240#	   240	   241#	   241	   242#
	   242	   243#	   243	   244#	   244	   245#	   245	   246#	   246	   247#	   247	   248#	   248	   249#
	   249	   250#	   250	   251#	   251	   252#	   252	   253#	   253	   254#	   254	   255#	   255	   256#
	   256	   257#	   257	   258#	   258	   259#	   259	   260#	   260	   261#	   261	   262#	   262	   263#
	   263	   264#	   264	   265#	   265	   266#	   266	   267#	   267	   268#	   268	   269#	   269	   270#
	   270	   271#	   271	   272#	   272	   273#	   273	   274#	   274	   275#	   275	   276#	   276	   277#
	   277	   278#	   278	   279#	   279	   280#	   280	   281#	   281	   282#	   282	   283#	   283	   284#
	   284	   285#	   285	   286#	   286	   287#	   287	   288#	   288	   289#	   289	   290#	   290	   291#
	   291	   292#	   292	   293#	   293	   294#	   294	   295#	   295	   296#	   296	   297#	   297	   298#
	   298	   299#	   299	   300#	   300	   301#	   301	   302#	   302	   303#	   303	   304#	   304	   305#
	   305	   306#	   306	   307#	   307	   308#	   308	   309#	   309	   310#	   310	   311#	   311	   312#
	   312	   313#	   313	   314#	   314	   315#	   315	   316#	   316	   317#	   317	   318#	   318	   319#
	   319	   320#	   320	   321#	   321	   322#	   322	   323#	   323	   324#	   324	   325#	   325	   326#
	   326	   327#	   327	   328#	   328	   329#	   329	   330#	   330	   331#	   331	   332#	   332	   333#
	   333	   334#	   334	   335#	   335	   336#	   336	   337#	   337	   338#	   338	   339#	   339	   340#
	   340	   341#	   341	   342#	   342	   343#	   343	   344#	   344	   345#	   345	   346#	   346	   347#
	   347	   348#	   348	   349#	   349	   350#	   350	   351#	   351	   352#	   352	   353#	   353	   354#
	   354	   355#	   355	   356#	   356	   357#	   357	   358#	   358	   359#	   359	   360#	   360	   361#
	   361	   362#	   362	   363#	   363	   364#	   364	   365#	   365	   366#	   366	   367#	   367	   368#
MASTER CREF  2-MAR-81 21:55
        SYMBOL CROSS REFERENCE

ZZ1	RCDATE	   368	   369#	   369	   370#	   370	   371#	   371	   372#	   372	   373#	   373	   374#	   374
	   375#	   375	   376#	   376	   377#	   377	   378#	   378	   379#	   379	   380#	   380	   381#	   381
	   382#	   382	   383#	   383	   384#	   384	   385#	   385	   386#	   386	   387#	   387	   388#	   388
	   389#	   389	   390#	   390	   391#	   391	   392#	   392	   393#	   393	   394#	   394	   395#	   395
	   396#	   396	   397#	   397	   398#	   398	   399#	   399	   400#	   400	   401#	   401	   402#	   402
	   403#	   403	   404#	   404	   405#	   405	   406#	   406	   407#	   407	   408#	   408	   409#	   409
	   410#	   410	   411#	   411	   412#	   412	   413#	   413	   414#	   414	   415#	   415	   416#	   416
	   417#	   417	   418#	   418	   419#	   419	   420#	   420	   421#	   421	   422#	   422	   423#	   423
	   424#	   424	   425#	   425	   426#	   426	   427#	   427	   428#	   428	   429#	   429	   430#	   430
	   431#	   431	   432#	   432	   433#	   433	   434#	   434	   435#	   435	   436#	   436	   437#	   437
	   438#	   438	   439#	   439	   440#	   440	   441#	   441	   442#	   442	   443#	   443	   444#	   444
	   445#	   445	   446#	   446	   447#	   447	   448#	   448
ZZ1	RMAIN	   337#	   337	   338#	   338	   339#	   339	   340#	   340	   341#	   341	   342#	   342	   343#
	   343	   344#	   344	   345#	   345	   346#	   346	   347#	   347	   348#	   348	   349#	   349	   350#
	   350	   351#	   351	   352#	   352	   353#	   353	   354#	   354	   355#	   355	   356#	   356	   357#
	   357	   358#	   358	   359#	   359	   360#	   360	   361#	   361	   362#	   362	   363#	   363	   364#
	   364	   365#	   365	   366#	   366	   367#	   367	   368#	   368	   369#	   369	   370#	   370	   371#
	   371	   372#	   372	   385#	   385	   386#	   386	   387#	   387	   388#	   388	   389#	   389	   390#
	   390	   391#	   391	   392#	   392	   393#	   393	   394#	   394	   395#	   395	   396#	   396	   397#
	   397	   398#	   398	   399#	   399	   405#	   405	   406#	   406	   407#	   407	   408#	   408	   409#
	   409	   410#	   410	   411#	   411	   412#	   412	   413#	   413	   414#	   414	   415#	   415	   416#
	   416	   417#	   417	   418#	   418	   419#	   419	   420#	   420	   421#	   421	   422#	   422	   423#
	   423	   424#	   424	   425#	   425	   426#	   426	   427#	   427	   428#	   428	   437#	   437	   438#
	   438	   439#	   439	   440#	   440	   441#	   441	   442#	   442	   443#	   443	   444#	   444	   445#
	   445	   449#	   449	   450#	   450	   451#	   451
MASTER CREF  2-MAR-81 21:55
        MACRO/OPDEF CROSS REFERENCE

BUFER	2	   111#	   122	   128	   134	   140
CAT	2	   109#	   124	   130	   136	   142	   147
CMD0	RMAIN	   267#	   332	   337	   349	   361	   373
CMD1	RMAIN	   282#	   333	   385	   390	   395	   400
CMD2	RMAIN	   290#	   334	   405	   413	   421	   429
CMD3	RMAIN	   301#	   335	   437	   440	   443	   446
CMD4	RMAIN	   307#	   336	   449	   450	   451	   452
CMDIT	RMAIN	   326#	   331
CMDR	RMAIN	   311#	   332	   333	   334	   335	   336
CMDR1	RMAIN	   319#	   337	   385	   405	   437	   449
DATE	RCDATE	   617
DATEB	RCDATE	   163#	   236	   307	   378	   452
EXIT	RCDATE	   742
EXIT	RMAIN	   151	   475
EXIT	2	   163	   185	   258	   262
GETLCH	RDATE	   676
IDATE	RDATE	   266#	   415	   447	   469	   537	   548	   609	   624	   636	   644	   655	   660
MDATE	RDATE	   262#	   426	   542	   559	   562	   566	   649
MSIZE	RCDATE	   563#	   571	   603
MSTIME	RCDATE	  1479
MSTIME	RDATE	   804
OUTCHI	RCDATE	   634	   637	  1496	  1497
OUTCHI	RDATE	  1044	  1046	  1049	  1051	  1056	  1059	  1072
OUTCHI	RRMD	   387
OUTCHR	RCDATE	   645
OUTCHR	RCOM	    80	    97	   107
OUTCHR	RDATE	  1061
OUTSTR	RCDATE	   740	  1498	  1499	  1502
OUTSTR	RCMAL	   128	   129	   130	   143
OUTSTR	RDATE	   147	   163	   200	   250	   275	   286	   290	   308	   345	   349	   353	   378	   400
	   404	   438	   571	   673	   681	   687	   704	   712	   758	   761	   858	   872	   875	   878
	   881	   883	   887	   889	   893	   901	   903	   908	   910	   923	   925	   927	   932	   939
	   942	   945	   952	   956	   965	   972	   976	   979	   983	   986	   989	   992	   995	   999
	  1002	  1005	  1008	  1011	  1027	  1030	  1033	  1036	  1063	  1069	  1073	  1075	  1076	  1089
	  1108	  1113	  1130	  1137	  1142	  1146	  1165	  1168	  1193	  1201	  1283
OUTSTR	RMAIN	   158	   195	   200	   201	   229	   243	   264	   488
OUTSTR	RMAL	    84	   109	   113	   176	   177	   185	   198	   206
OUTSTR	RRMD	   165	   206	   218	   219	   227	   261	   263	   272	   297	   348	   349	   350	   363
	   383	   409	   415	   426
OUTSTR	2	   161	   183	   256	   260
RESET	RMAIN	   145
SDATE	RDATE	   258#	   281	   297	   314	   324	   341	   360	   373	   386	   391	   416	   424	   427
	   448	   470	   482	   485	   538	   543	   549	   557	   560	   563	   567	   610	   625	   637
	   645	   650	   656	   661
SKPINC	RMAIN	   156
SLEEP	2	   239
SPC	RDATE	   128#	   135	   142
TABLE	RCDATE	    60#	   234
TABLE	RCMAL	    60#
TABLE	RCOM	    60#
MASTER CREF  2-MAR-81 21:55
        MACRO/OPDEF CROSS REFERENCE

TABLE	RDATE	    60#
TABLE	RMAIN	    60#	   337	   385	   405	   437	   449
TABLE	RMAL	    60#
TABLE	RRMD	    60#
TABLE	RSCAN	    60#
TABLE	2	    60#
WRD	RCDATE	    53#	   236	   237	   238	   239	   240	   241	   242	   243	   244	   245	   246	   247
	   248	   249	   250	   251	   252	   253	   254	   255	   256	   257	   258	   259	   260	   261
	   262	   263	   264	   265	   266	   267	   268	   269	   270	   271	   272	   273	   274	   275
	   276	   277	   278	   279	   280	   281	   282	   283	   284	   285	   286	   287	   288	   289
	   290	   291	   292	   293	   294	   295	   296	   297	   298	   299	   300	   301	   302	   303
	   304	   305	   306	   307	   308	   309	   310	   311	   312	   313	   314	   315	   316	   317
	   318	   319	   320	   321	   322	   323	   324	   325	   326	   327	   328	   329	   330	   331
	   332	   333	   334	   335	   336	   337	   338	   339	   340	   341	   342	   343	   344	   345
	   346	   347	   348	   349	   350	   351	   352	   353	   354	   355	   356	   357	   358	   359
	   360	   361	   362	   363	   364	   365	   366	   367	   368	   369	   370	   371	   372	   373
	   374	   375	   376	   377	   378	   379	   380	   381	   382	   383	   384	   385	   386	   387
	   388	   389	   390	   391	   392	   393	   394	   395	   396	   397	   398	   399	   400	   401
	   402	   403	   404	   405	   406	   407	   408	   409	   410	   411	   412	   413	   414	   415
	   416	   417	   418	   419	   420	   421	   422	   423	   424	   425	   426	   427	   428	   429
	   430	   431	   432	   433	   434	   435	   436	   437	   438	   439	   440	   441	   442	   443
	   444	   445	   446	   447	   448
WRD	RCMAL	    53#
WRD	RCOM	    53#
WRD	RDATE	    53#
WRD	RMAIN	    53#	   337	   338	   339	   340	   341	   342	   343	   344	   345	   346	   347	   348
	   349	   350	   351	   352	   353	   354	   355	   356	   357	   358	   359	   360	   361	   362
	   363	   364	   365	   366	   367	   368	   369	   370	   371	   372	   385	   386	   387	   388
	   389	   390	   391	   392	   393	   394	   395	   396	   397	   398	   399	   405	   406	   407
	   408	   409	   410	   411	   412	   413	   414	   415	   416	   417	   418	   419	   420	   421
	   422	   423	   424	   425	   426	   427	   428	   437	   438	   439	   440	   441	   442	   443
	   444	   445	   449	   450	   451
WRD	RMAL	    53#
WRD	RRMD	    53#
WRD	RSCAN	    53#
WRD	2	    53#
X	RCDATE	   235#	   236	   237	   238	   239	   240	   241	   242	   243	   244	   245	   246	   247
	   248	   249	   250	   251	   252	   253	   254	   255	   256	   257	   258	   259	   260	   261
	   262	   263	   264	   265	   266	   267	   268	   269	   270	   271	   272	   273	   274	   275
	   276	   277	   278	   279	   280	   281	   282	   283	   284	   285	   286	   287	   288	   289
	   290	   291	   292	   293	   294	   295	   296	   297	   298	   299	   300	   301	   302	   303
	   304	   305	   306	   307#	   307	   308	   309	   310	   311	   312	   313	   314	   315	   316
	   317	   318	   319	   320	   321	   322	   323	   324	   325	   326	   327	   328	   329	   330
	   331	   332	   333	   334	   335	   336	   337	   338	   339	   340	   341	   342	   343	   344
	   345	   346	   347	   348	   349	   350	   351	   352	   353	   354	   355	   356	   357	   358
	   359	   360	   361	   362	   363	   364	   365	   366	   367	   368	   369	   370	   371	   372
	   373	   374	   375	   376	   377	   378#	   378	   379	   380	   381	   382	   383	   384	   385
	   386	   387	   388	   389	   390	   391	   392	   393	   394	   395	   396	   397	   398	   399
	   400	   401	   402	   403	   404	   405	   406	   407	   408	   409	   410	   411	   412	   413
	   414	   415	   416	   417	   418	   419	   420	   421	   422	   423	   424	   425	   426	   427
MASTER CREF  2-MAR-81 21:55
        MACRO/OPDEF CROSS REFERENCE

X	RCDATE	   428	   429	   430	   431	   432	   433	   434	   435	   436	   437	   438	   439	   440
	   441	   442	   443	   444	   445	   446	   447	   448	   451#	   452	   453	   454	   455	   456
	   457	   458	   459	   460	   461	   462	   463	   464	   465	   466	   467	   468	   469	   470
	   471	   472	   473	   474	   475	   476	   477	   478	   479	   480	   481	   482	   483	   484
	   485	   486	   487	   488	   489	   490	   491	   492	   493	   494	   495	   496	   497	   498
	   499	   500	   501	   502	   503	   504	   505	   506	   507	   508	   509	   510	   511	   512
	   513	   514	   515	   516	   517	   518	   519	   520	   521	   522	   566#	   571	   586	   601#
	   603
X	RDATE	   133#	   135	   136	   137	   141#	   142	   143	   144
X	RMAIN	   332#	   332	   333#	   333	   334#	   334	   335#	   335	   336#	   336	   337#	   337	   338
	   339	   340	   341	   342	   343	   344	   345	   346	   347	   348	   349#	   349	   350	   351
	   352	   353	   354	   355	   356	   357	   358	   359	   360	   361#	   361	   362	   363	   364
	   365	   366	   367	   368	   369	   370	   371	   372	   373#	   373	   374	   375	   376	   377
	   378	   379	   380	   381	   382	   383	   384	   385#	   385	   386	   387	   388	   389	   390#
	   390	   391	   392	   393	   394	   395#	   395	   396	   397	   398	   399	   400#	   400	   401
	   402	   403	   404	   405#	   405	   406	   407	   408	   409	   410	   411	   412	   413#	   413
	   414	   415	   416	   417	   418	   419	   420	   421#	   421	   422	   423	   424	   425	   426
	   427	   428	   429#	   429	   430	   431	   432	   433	   434	   435	   436	   437#	   437	   438
	   439	   440#	   440	   441	   442	   443#	   443	   444	   445	   446#	   446	   447	   448	   449#
	   449	   450#	   450	   451#	   451	   452#	   452
h(mk